:020000040001F9
:10B0000098450020D5B00100EFB00100F1B001007B
:10B010000000000000000000000000000000000030
:10B02000000000000000000000000000F3B001007C
:10B030000000000000000000F5B00100F7B00100C2
:10B04000D5B30100F9B001002DB50100F9B0010040
:10B05000F9B001000000000019B20100F9B00100D0
:10B06000F9B00100F9B00100F9B00100F9B0010038
:10B07000F9B00100F9B00100F9B00100F9B0010028
:10B08000F9B0010029B40100F9B00100F9B00100E4
:10B0900049B40100F9B0010051B40100F9B0010058
:10B0A000F9B00100F9B0010000000000000000004C
:10B0B0000000000000000000000000000000000090
:10B0C0000348854600F06AF8004800474DF3010048
:10B0D000984500200321094802680A430260084895
:10B0E00002680A4302600748804707480047FEE7B6
:10B0F000FEE7FEE7FEE7FEE7FEE70000240500406E
:10B10000540500408DB40100C1B0010030B50B46BC
:10B11000014600202022012409E00D46D5409D4231
:10B1200005D31D469540491B2546954040191546B7
:10B13000521E002DF1DC30BD03460B439B0703D0AC
:10B1400009E008C9121F08C0042AFAD203E00B78EC
:10B150000370401C491C521EF9D27047D2B201E064
:10B160000270401C491EFBD270470022F6E710B562
:10B1700013460A4604461946FFF7F0FF204610BD65
:10B1800030B504460020034600E05B1C934203D226
:10B19000E05CCD5C401BF8D030BD0000064C0125C2
:10B1A000064E05E0E36807CC2B430C3C984710346F
:10B1B000B442F7D3FFF788FF183302003833020098
:10B1C00070B58C180578401C6B075B0F01D10378B4
:10B1D000401C2A1106D10278401C03E006780E704C
:10B1E000401C491C5B1EF9D12B0705D40023521EBD
:10B1F0000DD40B70491CFAE70378401CCB1A921C43
:10B2000003E01D780D70491C5B1C521EF9D5A1424C
:10B21000D8D3002070BD0000F0B50024FF268BB00D
:10B220000136012527460694304604F0B5FD002876
:10B2300007D054484068284203D0304604F0A4FDAB
:10B240002C43361D6D007F1CB6B2042FECD3FF25B6
:10B250007D35284604F0A0FD002809D0284604F0DA
:10B2600093FD6807044306AA0121002004F078FD3D
:10B27000454D200714D00127002627420CD0434813
:10B28000B200111808690969C004C00E8903AA58E0
:10B29000890F002A00D090477F00761C042EECD343
:10B2A000002C6DDA00200890401E63E02819403021
:10B2B0000778B906890E009100214156491C49D0F2
:10B2C00009A9009804F0DAF9002843D0B8090190E0
:10B2D000009802F09FF880002F580198002F02D0AC
:10B2E000032802D00DE0032834D1009808ABC2082F
:10B2F00041079446985C490F01228A4010436246F8
:10B300009854009805210907800040180721090278
:10B310004018006806A98003800F0290009804F08E
:10B32000ADF90028029802D0022802D012E00328CA
:10B3300010D10198032808D1029802281ED00221BA
:10B34000009804F0EFFC761CF6B2002F02D00199B1
:10B350000098B847641C042CA8D3002E10D06A466D
:10B360000121002004F0FCFC06990098884207D0D7
:10B370000690089800263446099097E70321DFE7F6
:10B380000BB0F0BD00630040703B00200065004042
:10B390008307FF22DB0E9A408907090E9940002897
:10B3A0000BDA0007000F0838830808489B001818BC
:10B3B000C36993430B43C3617047830804489B00F0
:10B3C0001B181868904308431860704700ED00E0B0
:10B3D00000E400E0F8B5FF20013004F057F9002444
:10B3E00001250E4E0E4F002807D00E4804600120A4
:10B3F000B0607D70002002F09FF8FF20053004F05F
:10B4000045F9002808D00748001D04600220B060FC
:10B41000BD70012002F090F8F8BD0000000300406C
:10B420005C3B00200001004010B506490020086088
:10B4300048608860C860034940390860486007F088
:10B440008DFA10BD4011014010B507F0F9F910BD9B
:10B4500010B50A48406800280DD0804701460C000E
:10B4600008D007A000F06CF8642004F031F9204601
:10B4700000F058FB10BD03F0B1FB10BD30310020CF
:10B4800065727220636F64652025640010B503F057
:10B49000F3FB002805D01F491D484860C8131E490A
:10B4A00088611E48018CC9B201290BD1828C120718
:10B4B00008D1028D1206120F042A03D1828D1206C2
:10B4C000120F0AD0012921D1818C09071ED1018DCB
:10B4D0000906090F0A2904D007E0114A01219160E9
:10B4E000F5E7828D1206120F05D00D290ED1808D41
:10B4F0000006000F0AD10B480168012904D00A494F
:10B50000016001680129FCD1C021416110BD00002A
:10B51000DFFF07C000050040006C0040C00F00F0D6
:10B520000006004000EC06407593000010B502498B
:10B53000024807F051FB10BDB83B0020002000403E
:10B540000FB410B503A9044B044A029800F032F876
:10B5500010BC08BC04B01847B1DE01001431002053
:10B5600030B47446641E2578641CAB4200D21D467C
:10B57000635D5B00E31830BC184702E008C8121F87
:10B5800008C1002AFAD170477047002001E001C1CC
:10B59000121F002AFBD17047202804DA01218140C4
:10B5A0000348014201D0012070470020704700008D
:10B5B000FC06FFBCFFB58DB00446002506E025283B
:10B5C0000AD0109A0F999047641C6D1C20780028AF
:10B5D000F5D1284611B0F0BD00270121484A009757
:10B5E00000E00743641C23780846203B9840104243
:10B5F000F7D120782E2817D1042007436078641CE7
:10B600002A280CD10E98641C02C800910E900BE001
:10B6100000990A22514330394018641C0090207868
:10B62000014630390929F3D920780028D1D064287F
:10B6300008D0692806D075281ED0109A0F99904717
:10B640006D1C5BE00A200E99019001C90E91002843
:10B6500002DA40422D2102E0390504D52B216A4649
:10B660001172012103E0F90704D02021F7E70BAEA6
:10B670000B910DE00021FAE70A200E99019001C913
:10B680000E91F7E70199FFF741FD3031761E3170D9
:10B690000028F7D103A8801B20300190780701D53E
:10B6A000009801E0012000900199884201DD401AD4
:10B6B00000E000200027009006E002A8109AC05D7C
:10B6C0000F9990476D1C7F1C0B988742F5DB04E0B7
:10B6D000109A30200F9990476D1C0099481E0090D9
:10B6E0000029F5DC05E03078109A761C0F99904718
:10B6F0006D1C0199481E01900029F4DC641C65E76B
:10B700000928010010B500280CD000290AD00278C1
:10B710000B789A4206D10622401C491CFFF730FDE7
:10B72000002801D0002010BD012010BDF7B584B065
:10B73000064600251788158020300290407B14466D
:10B74000002806D03A462146059801F0B3F80500D6
:10B7500009D1B078002823D0059886462088001D9E
:10B76000B84202D90C2007B0F0BD684679DF002846
:10B77000F9D1218803207246505420881921401C99
:10B7800080B22080115420887146401C80B22080F5
:10B7900041186846008807F0B3FA218840182080D5
:10B7A000F078002817D0218803230A46F356C91CD5
:10B7B0000598B942D6D80221815421880122491C1A
:10B7C00089B2218042542188491C89B22180435486
:10B7D0002088401C20807068002817D02188002312
:10B7E000C3560A46C91C0598B942BBD802218154E8
:10B7F00021880A22491C89B2218042542188491C8F
:10B8000089B2218043542088401C20803089002840
:10B810000AD0009430460197062202210830059B89
:10B8200007F0C8FA05009ED1308A00280AD000949B
:10B8300030460197072203211030059B07F0BAFA22
:10B84000050090D1308B00280AD000943046019733
:10B85000152214211830059B07F0ACFA050082D19F
:10B86000306A002806D03B462246059901F0CCFEFE
:10B870000500D8D1706A002806D03B4622460599BB
:10B8800003F030FE0500CED10298007B002807D0DF
:10B890003B4622463046059906F0C2FB0500C2D160
:10B8A0003078002807D03B4622463046059903F001
:10B8B0004DFE0500B7D1284655E70000174A002184
:10B8C000535C002B01D0012203E0491C0629F7D369
:10B8D00000221349012806D002280BD0032810D0DB
:10B8E000042818D112E04878002803D0002A01D09B
:10B8F000012070478878002803D0002A01D0022058
:10B900007047C878002801D00320704708790028C4
:10B9100001D0042070470020704700003130002023
:10B920001435002010B501220221002001F06EFB29
:10B93000002801D0072824D107220221012001F08C
:10B9400065FB002801D007281BD100210A220846E8
:10B9500001F05CFB002801D0072812D1002211461B
:10B96000022001F053FB002801D0072809D1002252
:10B970001146032001F04AFB002801D0072800D11E
:10B98000002010BD10B5ACB0012428A804723C21E1
:10B9900001A8FFF7EAFB02216846017184710621C4
:10B9A000C1713C2110A8FFF7E0FB032110A8018220
:10B9B0001648159020211FA8FFF7D7FB18A8C477B9
:10B9C00040202390B420249018A844770477602165
:10B9D00020A881832AA8299020A8048427A80A9057
:10B9E000002000900A4B1FAA10A901A800F0D0FB6C
:10B9F00001460C0008D00748FFF7A2FD642003F0C1
:10BA00004DFE204600F08EF82CB010BDEE2F002029
:10BA1000F9FD0100A8F40100F0B50F468DB000213A
:10BA200016466D460F24621A825C6A54491C10291E
:10BA3000F9D328460D211030FFF797FB0020221A7A
:10BA4000395C5219401C11740328F8D368464DDF45
:10BA50000020211A4919203109783154401C03284B
:10BA6000F7D30DB0F0BD10B5022001F05FF910BDA5
:10BA700070B50024064D06E06968E000085C01210D
:10BA800003F0CCFE641C28788442F5D3002070BDFE
:10BA9000C0300020F8B515460C460646052A01D2EE
:10BAA0000720F8BD03F092FF002803D103F060FFE8
:10BAB0000028F6D1104900204E600C70C8608D60DF
:10BAC00008610E4D0DE0E0006968801900918178F1
:10BAD0006A46517000780A4A694603F0EBFE002876
:10BAE000DFD12046641EE4B20028ECD1054A0021D3
:10BAF000024800F04DF8F8BDC0300020DC320200F2
:10BB0000CDE50100EDD70100BFF34F8F0449034895
:10BB1000C860BFF34F8F00BFFDE700000400FA05C7
:10BB200000ED00E00EB50021029000916A460191FF
:10BB30000148FFF7E9FF0EBD0140000010B5826823
:10BB4000C368934203D002F03FF9002010BD0520E6
:10BB500010BD002906D0002A02D0531E134203D084
:10BB6000092070470E2070470160838000218160AA
:10BB7000C1600846704710B58268C3689A1A838806
:10BB80009A4203D802F02AF9002010BD042010BD0B
:10BB9000094B5B68002B07D0002A07D0002805D08E
:10BBA0000068037C002B03D00820704707207047F3
:10BBB0004174426100207047E4300020FFB5074621
:10BBC0009007002581B01E461446002825D1002C80
:10BBD00023D005F041FF3046114EF0603046103062
:10BBE000057045700299817044607560357001245C
:10BBF0000C4875702405046003211420FFF7C8FB6E
:10BC000009480460094CA76003211120FFF7C0FB1D
:10BC10006068B060002005B0F0BD0720FBE70000C1
:10BC2000D430002080E200E000E100E00015014097
:10BC3000FEB51F4B5B68002B30D000282ED00529A5
:10BC400001D20720FEBD4369002B27D0437C012B86
:10BC500026D00027029104460025694616460D703D
:10BC6000684600F0F3F801A807F08EF8002819D014
:10BC7000012101700F4944604968816002990761A0
:10BC80004661C16068460A49007948706846007894
:10BC900000F0FAF806F016FE2846FEBD0820FEBDAC
:10BCA0000F46D7E768460425007800F0EDF8F3E783
:10BCB000E43000200015014010B50849496800290A
:10BCC0000AD0002808D04169002905D0002101745C
:10BCD000022106F01FFE10BD082010BDE430002038
:10BCE00070B5164C0146A6781548FFF727FF0546A4
:10BCF000002E20D00020A070611C0122C81D03F07E
:10BD0000ADFE01460C0016D00EA0FFF719FC11493C
:10BD10000F48114A096800BF00BF00BF00BF00BF45
:10BD200000BF00BF00BF914200D000BF0138F2D178
:10BD30002046FFF7F7FE284670BD0000F4300020D3
:10BD4000F43B002065727220636F646520256400F7
:10BD5000A0860100443100200024F400F0B5274EF5
:10BD600089B01F460D00044672601CD0A88829685F
:10BD700082B22348FFF7EDFE002815D1A889A968F3
:10BD800082B21F481030FFF7E4FE00280CD12022B9
:10BD90001C496846FFF7D0F960690690207C0028AE
:10BDA00004D0012103E0072009B0F0BD002168465E
:10BDB00001750777607C002800D00E206946487521
:10BDC000E0680290A068039020680190606800908D
:10BDD0000A480D4A083003F001FE0028E4D1B07093
:10BDE0002068401CE0D00548083003F065FE034998
:10BDF0000122491CC81D03F031FED5E7F4300020B4
:10BE0000F43B0020E4320200312B020010B5014661
:10BE10000C48FFF7B0FE040012D10B4803F016FFE8
:10BE200000280DD1084907480839FFF787FE002888
:10BE300006D1054901220839034803F0A7FE04464C
:10BE4000204610BD043C0020FC30002030B5EFF34C
:10BE5000108172B6094A54680123002C04D0037083
:10BE6000002900D162B630BD5360054B1D68054CFA
:10BE7000254015601C6000220270F1E708310020A7
:10BE800080E100E0FC06FFBC08494A68002A0CD0AB
:10BE900000280AD1EFF3108072B60A68044B1A60CA
:10BEA00000224A60002800D162B6704708310020A5
:10BEB00000E100E0F8B5074608680C460526411C7D
:10BEC00001253602002906D02946814019488160A3
:10BED000206803F00CFF6068411C02D0002103F0D1
:10BEE000FDFE3968A06989194862607D217D3A6844
:10BEF00008439119C866386806CC80194261C16050
:10BF0000207B083C012814D1A068411C02D00021EC
:10BF100003F0E4FEE068411C05D0854005488560DB
:10BF2000E06803F0E4FE3A68E1689219A068916065
:10BF30001061F8BD00050050F0B504468BB00088D4
:10BF400000F054FC0590208802F0B6FD0646A0687B
:10BF50000090657A684605741E4F20880022397863
:10BF600000F094FC0598002831D06079400710D586
:10BF70000721304604F072FC002813D008226946DD
:10BF80000A7422884A828E82069004A801F01EFD5F
:10BF900008E02088B97800F067FC002802D030461D
:10BFA00002F074FD0321684601712188C180607927
:10BFB0004007C10F68460172A0794007C10F68466B
:10BFC000417201788172C57201A801F0FFFC0BB0CB
:10BFD000F0BD0000A430002009780448002902D0F8
:10BFE0000021017070470121FBE70000E82F0020CD
:10BFF000F0B50546007D002493B00E4600280DD014
:10C00000012001466846103103940173717B41732E
:10C01000817BF92001406846891C81731C2104A89A
:10C02000FFF7A3F86946087C0221084369460874B3
:10C030002A7DEF21002A02D01022104300E00840A0
:10C040006A461074059407940894287D002800D04F
:10C0500003A8099001270A9410469771304A8280FC
:10C060000094B27B0270F27B42708078F92210401B
:10C07000F722801C1040EF21084041084900684623
:10C080008170317B017214210BA8FFF76EF801A8B3
:10C090000B9068460C908786C486078702A80F908D
:10C0A000A888AB1D0BAA04A9A2DF002835D1B0686F
:10C0B000002830D0684687711A4981800094317C0D
:10C0C000017000200146684641708078F9210840DF
:10C0D000F721801C0840EF210840410849006846CC
:10C0E000817011A8B16800F0A8FD064614210BA8C4
:10C0F000FFF73BF801A80B9068460C908686C48633
:10C10000068711A80F902A46E8880E320BA9A3DFF4
:10C11000002802D100E0EC81002013B0F0BD000047
:10C12000192A000008290000F0B50C4693B01F2121
:10C130006A461180072600279180002809D0C1781F
:10C1400049070DD502A9FFF7F1FA002809D102AD80
:10C1500001E000251780002C0ED0E078002802D0E6
:10C16000304613B0F0BD01AA0AA92046FFF7DEFA57
:10C170000028F6D10AAA02E06846002287806846B5
:10C180008088C3B268460088C1B2284672DFE8E7FB
:10C19000FFB581B01E460A9F1346040047D0002B0E
:10C1A00045D0504D012028700020E870202219460B
:10C1B0004D48FEF7C1FF00206F61C0432E6128810A
:10C1C000284607211830FEF7D0FF47483C21203091
:10C1D000FEF7CBFF4448217820300170A1788170B0
:10C1E000E178C170617841703F4A656923695563A0
:10C1F000114613632031E368A268CB608A603A4934
:10C20000E369A269CB638A63616A00291AD0014697
:10C210003C310246483241628A60636A1B880B8067
:10C22000616A436A898899800021436A07E00E2089
:10C2300005B0F0BD656AAD686D5C5554491C9D88BC
:10C240008D42F7D8A16A00291CD0274A94321146A2
:10C250000C398A608162A36A9B888B80A16A836A99
:10C26000098819800021836A04E0A56AAD686D5CC5
:10C270005554491C9D888D42F7D82C210A5D1A49D6
:10C2800040310A73216A002909D016490A31016236
:10C29000226A52884A80216A026A0988118061688C
:10C2A000002900D04160104A0E490020B3322031ED
:10C2B000C3001B1A85009B180C68401C635108289A
:10C2C000F6DB094A0020EB32030185009B188C68DD
:10C2D000401C63510828F7DB034802992030FFF720
:10C2E00023FFA5E7183000201435002010B5018881
:10C2F000134C102915D0112919D01B2910D1007AFF
:10C3000000280DD1E0780521401CFEF7FFFE08460D
:10C3100000F04EF8002803D06169002900D088475A
:10C3200010BD817D0129FBD18088208110BD0021B5
:10C330006171808821898842F8D10120E8E70000F6
:10C340001830002010B5022801D003280ED1084C67
:10C35000607800280AD000206070E07800F028F8AB
:10C36000002803D06169002900D0884710BD000073
:10C370001830002010B574DF0B4C012060710B49A0
:10C380000620C87000210948FFF7CEFE002809D119
:10C39000E07800F00DF8002803D06169002900D092
:10C3A0008847002010BD00001830002034350020E0
:10C3B000F1B53F4C88B0207800280AD00898E0708A
:10C3C00006A801F017FE06980125002804D0657024
:10C3D0006AE0082009B0F0BD354800270721183071
:10C3E000FEF7C3FE334E7078002802D0E0780128B3
:10C3F00007D0B07800280CD0E078012801D00228BE
:10C4000007D12169002903D025710820884700E061
:10C4100027710898FFF752FAE0702169002909D0C6
:10C42000032801D0042805D13078002802D0607993
:10C43000002811D0A77118216846FEF796FE6846BD
:10C4400007700772E1781A480B001830FFF788F878
:10C45000052E080F191D2000A57107208847EAE75F
:10C46000A5700190684605704782078213E002219B
:10C47000A170019068460570B189418231890182BD
:10C4800009E0684605F0AAFE02E0684605F0D2FE23
:10C49000E078002803D0684673DF00289AD121692C
:10C4A000002901D0A0788847002093E7A770F6E71D
:10C4B000183000201435002073B586B004002FD04A
:10C4C0006A46217C127F0020914227D00025012658
:10C4D000684600950680458007A80190E188608A3B
:10C4E0006A46A4DF002819D16846007F2074608A5C
:10C4F0000D49884216D0207D002813D0029503955F
:10C5000004950595E188684601818672418881819C
:10C51000049001980590608A02A9A6DF08B070BD5A
:10C520000E20FBE70820F9E7FFFF000038B50D46B5
:10C5300004001AD0002D18D0286820600020C043C5
:10C54000608228792075FF2020740121684681705F
:10C5500007490180221D69460120A0DF002803D180
:10C5600029462046FFF744FD38BD0E2038BD0000A7
:10C570000F18000038B5002824D0002922D00A88DE
:10C58000102A1AD0112A1AD0502A1BD10446007D35
:10C59000002817D0C8886289891D904212D1488925
:10C5A00002280FD1206800280CD008460C3000F07B
:10C5B0003DFB002807D0002006E0898801E000212B
:10C5C000C943418238BD012069460870226820466F
:10C5D000904738BD70B5054601461C220E48FEF74F
:10C5E000ABFD0E4C002626702968002906D00822D3
:10C5F000201DFEF7A1FD201D7ADF02E00748001D87
:10C600007BDF002807D1401E60806670044A00214D
:10C610000448FFF7BDFA70BDE03600204830002026
:10C620000D2D020024320200F8B5214C014602888B
:10C6300000261E48E589102A13D01E4F112A1FD04C
:10C64000122A2BD0502A1AD1881DC988A94216D186
:10C650004189022913D10C3000F0E8FA00280CD1EE
:10C6600012E08A8804464280104808220C301831B3
:10C67000FEF762FD6670002D01D101F00DF8F8BDE6
:10C680000021C943418046703868FFF715FB002838
:10C69000F5D0A1690029F2D08847F8BD03480822E7
:10C6A0000C300831FEF748FDE7E700004830002075
:10C6B000E03600202432020010B503490A7D091D2E
:10C6C00005F0FBFA10BD0000283B0020034B10B51D
:10C6D0000246D97D181D05F0DDFA10BD283B00206B
:10C6E000034B10B50246197E181D05F0D3FA10BD94
:10C6F000283B0020F0B5044602883A488DB0014638
:10C7000015310191102A09D0112A50D01A2A4AD184
:10C71000217A090901294ED901234DE0027D417D8D
:10C7200005468A43011D07A805F0C7FA142207A988
:10C7300002A8FEF701FD00262A483746143008906B
:10C740000AE0710002A8081883881D220097281D9E
:10C75000089905F05FFA761C0298B042F1D8287D5E
:10C76000A688C043C0B205F079FA1F49884217D0A5
:10C7700040004019868001233246281D019905F0AA
:10C78000BFFA01233246281D089905F0B9FAA07DA9
:10C7900002280AD000231349A2881631281D1DE063
:10C7A0000420FFF7BFF90DB0F0BD0123F3E700232C
:10C7B000A288001D12E000230A490546A28817310D
:10C7C000001D05F09DFA207A0009022801D90123F5
:10C7D00000E000230349A2881831281D05F090FAD3
:10C7E000E1E70000283B0020FFFF000070B50B4E82
:10C7F00005460024317D2A46301D05F04BFA0028FD
:10C8000009D0B17D2A46301D05F044FA002801D038
:10C81000022400E00124204670BD0000283B0020D7
:10C8200010B50024204606F0A3FA002805D0641CA9
:10C83000E4B2182CF6D3182010BD04480122016878
:10C84000A24011430160204610BD0000283B00209B
:10C8500010B5044606F08CFA002802D001480019F1
:10C86000407E10BD283B002070B505460C460846AA
:10C8700006F07EFA002806D003482A460119497EB0
:10C88000001D05F007FA70BD283B002070B5064674
:10C8900015460C46084606F06BFA002807D00448F7
:10C8A0002B4601193246001D193105F029FA70BDD9
:10C8B000283B00207CB5054608880C46093090428C
:10C8C00001D90C207CBD684671DF0028FAD121888F
:10C8D0000820685420881B21401C80B220802954E5
:10C8E000208800A9401C80B2208040190622013116
:10C8F000FEF722FC20886946801D80B220800978DE
:10C90000002900D0012129542088401C20800020CB
:10C910007CBD000010B50446FFF7ECFE204604F095
:10C92000F5FC2046FFF780FE21460B4800F0CEF8CC
:10C93000204603F015FB2046FFF7D8FC204600F008
:10C9400091FA054821461C30FFF714FE02482146A3
:10C95000343000F055F810BD2C34002070B504467A
:10C9600086B00020C043A08208681D4B0E46A0611F
:10C970000FCB6D460FC521461231684663DF054671
:10C98000014618A0FEF7DCFD1A4919481A4A096841
:10C9900000BF00BF00BF00BF00BF00BF00BF00BF9F
:10C9A000914200D000BF0138F2D1002D02D02846BC
:10C9B00006B070BDA17C6846817410490182224690
:10C9C00004A90120A0DF0028F2D13146204600F062
:10C9D00063FC0028ECD13146204602F083F9E7E7FA
:10C9E000C83202006572726F722025640000000078
:10C9F000A0860100443100200024F400231500002B
:10CA00000A88102A10D0112A10D0502A11D1CA88B1
:10CA10004388891D9A420CD14A89012A09D1826929
:10CA2000002A06D0097B1047898801E00021C9430C
:10CA30008182704703B585B001216A4611820022C8
:10CA400000920192029203926A469170418911808C
:10CA500006A9039104A90291808A6946A6DF07B05E
:10CA600000BD000030B5184B0D4604000FCB85B05B
:10CA700003936B4607C324D0002D22D00020C0436F
:10CA8000A0822868A0610020A0752146684663DF67
:10CA9000002814D121786846817401210182A21CEA
:10CAA00004A90120A0DF002809D12946204605F06D
:10CAB00008F8002803D12946204605F0AEFF05B04E
:10CAC00030BD0E20FBE70000A832020010B50028A0
:10CAD0001BD0002919D00A88102A17D0112A17D084
:10CAE000502A12D104468A1DC888238A12319842DE
:10CAF00002D15389022B0FD0A388984205D1A36994
:10CB0000002B02D052892046984710BD898801E049
:10CB10000021C943818210BD084600F087F8002833
:10CB200000D00120A07510BD07B584B000280DD03D
:10CB3000828A114B9A420BD0827D002A08D06A4625
:10CB4000128B142A06D9072007B000BD0E20FBE780
:10CB50000820F9E700220092019202920392828952
:10CB60006B461A80039106A9029101219970808A6F
:10CB70006946A6DFE8E70000FFFF000030B52A4B5A
:10CB80000D4604000FCB87B0059302AB07C349D015
:10CB9000002D47D0214602A863DF002840D121782C
:10CBA0006846817100218180A21C01A90120A0DFBB
:10CBB000002835D120460C30009063880422294695
:10CBC000012000F02FFC00282AD1201D0090022215
:10CBD0006388291D104600F025FC002820D120463E
:10CBE0001430009063880122A91D032000F01AFC74
:10CBF000002815D120461C30009029466388062263
:10CC00000831042000F00EFC002809D12046243011
:10CC100000902946638806220E31052000F002FCB0
:10CC200007B030BD0E20FBE7B83202004178027831
:10CC300008021043C007C00F70470A780270497895
:10CC4000417002207047000010B5264886B0006889
:10CC5000059000234822244905A805F0ADFD0146B2
:10CC60000C0008D021A0FEF76BFC642002F016FD3A
:10CC70002046FEF757FF6A460121002005F084FD9B
:10CC800001460C0008D019A0FEF75AFC642002F0FF
:10CC900005FD2046FEF746FF0320694608806846EA
:10CCA00005F068FD01460C0008D010A0FEF748FC16
:10CCB000642002F0F3FC2046FEF734FF0E4805F036
:10CCC0004FFD01460C0008D008A0FEF739FC642097
:10CCD00002F0E4FC2046FEF725FF084805F09EFD23
:10CCE00006B010BDD43102005831002065727220A8
:10CCF000636F64652025640015C9010031280200B6
:10CD00000149085C70470000F43102000549095CE4
:10CD100005480069C840C007C00F00D001200121AC
:10CD200048407047F43102000005005005490B5C93
:10CD300005494A6801209840034693438B601040A0
:10CD4000C8607047F03102000005005010B503497B
:10CD5000085C012102F0F8FF10BD0000F031020074
:10CD600010B50349085C002102F0EEFF10BD000081
:10CD7000F03102000549095C05484068C840C00719
:10CD8000C00F00D00120012148407047F03102005F
:10CD9000000500507CB50024074E2546305D012279
:10CDA000009500231146019502F05CFF641C042CE1
:10CDB000F4D300F003F87CBDF031020010B500247C
:10CDC0002046FFF7C3FF641C042CF9D310BD10B537
:10CDD00000242046FFF7C4FF641C042CF9D310BDC7
:10CDE0000246002010B5C043054B00215C5C944214
:10CDF00001D1084610BD491C0429F7D310BD00001D
:10CE0000F431020070B5104E00250C463060002948
:10CE10000DD0012000F0A6F8002801D0022005E086
:10CE2000002000F09FF8002800D00B20207021780F
:10CE300006A0FEF785FB7068002802D1FEF772FDA0
:10CE40000546284670BD0000103000200D0A705FB6
:10CE5000737461727475705F6273705F657674204D
:10CE60002564000010B5104C0188606810290DD0B1
:10CE700011290AD1401E606007D1FEF753FD00283A
:10CE800003D02168002900D0884710BD002807D1B1
:10CE900000F036FC002803D02168002900D0884724
:10CEA0006068401C606010BD1030002010B500208C
:10CEB00000F0EAF9002801D0062807D1012000F08F
:10CEC000E3F9002801D0062800D1002010BD0000A1
:10CED000F3B581B00D460198FFF782FF04460428A0
:10CEE00013D21D481D4F1E4E002D27D0012D0DD0F1
:10CEF000022D0AD160002018C0194578002D04D0F9
:10CF0000F168002901D028468847FEBD61006118FC
:10CF10007D5CCF19797800290BD071680A225143C2
:10CF20000F4A8068921CFEF783FE002801D1019809
:10CF3000B0700B48B97810300155DFE78068FEF714
:10CF4000BBFE0748610061181030C919005D8D787B
:10CF5000A842D3D0FEBD0000F8310200E834002022
:10CF6000FC2F002010B5FFF7D1FE10BD10B50A2828
:10CF700026D01CDC174A042825D0072816D1908813
:10CF80001549884212D115A0FEF7DAFAFFF7F2F937
:10CF9000014608280AD0040008D018A0FEF7D0FAED
:10CFA000642002F07BFB2046FEF7BCFD10BD10287C
:10CFB0000DD01128FAD100211348FFF73BFD10BD19
:10CFC00005F062F910BD1321908876DFE0E70121BA
:10CFD000F2E70000E82F0020FFFF00007374617289
:10CFE000742061647620776974686F75742077683F
:10CFF0006974656C6973740D0A00000065727220B3
:10D00000636F6465202564006034002070B50023E0
:10D01000042811D2440004190D4D012A02D101291E
:10D020000DD0002246008019094E801900290CD02D
:10D03000012906D0022906D00723184670BD0E30FC
:10D04000C2B22A55F9E74270F7E78270F5E70000AF
:10D05000E834002010B5054A0146127A0020D207B4
:10D0600002D0084600F050F810BD0000FC2F002050
:10D07000F8B506461F4800248660C26041600F462E
:10D08000B00720D50025012211462846FFF7BEFF34
:10D090006D1C0446042D02D2002CF4D013E0002CA9
:10D0A00011D17A0804211448FEF7F4FC04000AD1D7
:10D0B000FEF7DEFC040006D10F48104A0021001FD5
:10D0C000FEF766FD0446F00701D0FFF763FE002C73
:10D0D0000ED109480A4A00210C38FEF759FD040018
:10D0E00006D10548074A01210838FEF751FD0446DC
:10D0F0002046F8BDFC2F00200432020041D301007D
:10D100009DED010067BA0100F8B55D4C05466078F9
:10D110000026002803D000206070FFF74FFE01209A
:10D12000584F2B00FEF71CFA18970D0D2E3D4A5F45
:10D1300064686F686FA97777777777979A9DA0A9CA
:10D14000A9950020FFF716FE00280AD00020FFF75F
:10D15000FDFD022D02D1E120C0000BE07D20400149
:10D1600008E00020FFF7FCFD022D01D1C82001E0FE
:10D17000FF20913025706421FDF7C8FF61684143AD
:10D1800000222BE00020FFF7F5FD002805D000204D
:10D19000FFF7DCFD19204001ECE70020FFF7E0FD80
:10D1A000E4E70020FFF7E6FD002803D00020FFF7AA
:10D1B000CDFDD3E70020FFF7D3FDD9E70020FFF72F
:10D1C000D9FD002803D00020FFF7C0FD02E00020B9
:10D1D000FFF7C6FD25706068410000223868FEF741
:10D1E00027FD064635E00020FFF7A0FD257007E08B
:10D1F00000203FE025702CE060700120FFF796FDD5
:10D2000000226168EAE760700120FFF78FFD606827
:10D2100081004118E1E77868FEF74EFD06461120CF
:10D22000401B01D0002E03D00220FFF78FFD10E03D
:10D2300001280BD9C82148436421FDF767FF6168C5
:10D24000002241437868FEF7F3FC06460220FFF710
:10D2500087FD3046F8BDFFF7B1FDCBE7FFF7AEFD28
:10D26000C6E7FFF7ABFD04E0FFF7A8FD0020FFF7DE
:10D2700077FD0120FFF774FDBCE7FFF7A8FDB9E7D4
:10D28000FC2F0020F831020010B5FFF739FD032113
:10D2900002F037FD002010BD70B500240546601C6B
:10D2A00090B00007000F08A9103008940870601CA7
:10D2B0000007000F103048708878F9263040801C35
:10D2C00088701C2101A8FDF750FF694608791221DA
:10D2D000084369460871029408A8049405940794C9
:10D2E0000690A87C08A98871144869468884112092
:10D2F00000940870002048708878F7213040801C26
:10D300000840EF2108404008400069468870142119
:10D310000AA8FDF72AFF09A80A9068460B90012089
:10D32000694608864C8688860E942B4628880A33E0
:10D330000AAA01A9A2DF10B070BD000024150000E8
:10D3400010B500780221FFF7C3FD10BD38B50546C2
:10D35000144A15490320FFF78BFE01460C0008D044
:10D360001248FEF7EDF8642002F098F92046FEF727
:10D37000D9FB69460020FFF745FD01460C0008D0A7
:10D380000A48FEF7DDF8642002F088F92046FEF72F
:10D39000C9FB68460078022802D00020287038BDFA
:10D3A0000120FBE76DCF0100CD0C0000A8F40100C7
:10D3B0000022D243830004490428CA5002D308182B
:10D3C0002030027770470000703B0020F0B5002548
:10D3D000ED43002A02D00023042601E0042308269E
:10D3E0000B4C04E09F00E7597F1C04D05B1CB34248
:10D3F000F8D32846F0BD26185DB2203635709E0061
:10D40000A151002AF5D1E11820310877F1E7000099
:10D41000703B002002490918202008567047000080
:10D42000703B0020FFB58FB015460E00074602D1B5
:10D430000020FEF777FB002D02D10020FEF772FBE3
:10D440001C216846FDF791FE6846017802200143E1
:10D45000684601700024019403940494059401210A
:10D4600008A80694817068460784601C0107090FAC
:10D470006846103107940177012001466846103153
:10D480004177807FF9210840F721801C0840EF2177
:10D4900008404108490068468177142109A8FDF732
:10D4A00064FE08A8099007A80A9068468585C48587
:10D4B00005860D9609AA6946189B1298A2DF13B03B
:10D4C000F0BD0000002807D00449814204D8044977
:10D4D000814201D901207047002070474831002067
:10D4E00058310020044A0168914201D0083101E01E
:10D4F0000149383901607047583D002070B50D4D25
:10D5000004460A462846AC4208D1FF24013421468D
:10D51000104603F0B9FEA0420AD070BDFF2CFCD823
:10D520002146104603F0A2FE002801D0204670BD1F
:10D53000284670BDFFFF000070B5084C050009D0FB
:10D5400010342168002907D00868206049682846FF
:10D550008847F6E70834F4E770BD00005C3B002024
:10D56000F8B52348416800293ED00E6821494C682F
:10D5700087688078E11B0D022D0AED1C002814D16C
:10D5800001201D4A000450601B4A403A50601B496C
:10D59000400008601A4908601A49012008602F20DD
:10D5A00002F0B0F8124901208870B54200D2354629
:10D5B000E81900020F4B000A403318600D4A516809
:10D5C000001B091B0902090A0002000AC91C81424A
:10D5D00009D9506818602F2002F094F801200749FB
:10D5E000400480390860F8BD04F036FAF8BD000048
:10D5F000D4300020001501404013014080E200E0DB
:10D6000000E100E000100140F8B50646108814461D
:10D610008446801D0D46984201D90C20F8BD328801
:10D620000720062AFAD31927FF01184BBA4201D95D
:10D630009A42F3D171880629F0D3B94201D99942AF
:10D64000ECD19A4203D0994201D08A42E6D8052112
:10D650006046295420881221401C80B22080295421
:10D660002088401C80B220804119308805F048FB9A
:10D670002188401880B220804119708805F040FB55
:10D680002188401820800020F8BD0000FFFF000026
:10D6900010B5FEF747FA10BDF8B5164801F0DEFAEE
:10D6A000144D00260C3D144C002807D06169002958
:10D6B0001CD001206A461070684616E028780028C1
:10D6C00005D06169002911D0684606700DE06878C0
:10D6D00000280DD0A168094800220068FEF7A8FACA
:10D6E000002803D0A169002900D088472E70F8BD1A
:10D6F0006168F0E754300020E03600202432020058
:10D7000010B5002101220846FFF780FC002801D057
:10D71000072824D1072202210120FFF777FC0028E7
:10D7200001D007281BD1042202210020FFF76EFC44
:10D73000002801D0072812D1102200210220FFF773
:10D7400065FC002801D0072809D1112200210320FF
:10D75000FFF75CFC002801D0072800D1002010BD95
:10D760007FB50C46002802D0012004B070BD20799E
:10D770000026002806D01B4D01281CD0022828D0E6
:10D780000F20F2E702960396E0680190694601A82F
:10D7900004F082F800280AD002988188E18000888D
:10D7A000208169460988029804F0F0F800E00A2018
:10D7B00002212171D9E70C4B6A460021A01D04F01B
:10D7C00029F8002807D0084908398E60CE600A2859
:10D7D000CBD12846C9E704488188019804F0D6F8DF
:10D7E000F5E700001D1D000020310020F8B50026DF
:10D7F0000124154D23E06968F00047183878214668
:10D800002A698140114218D08A432A6102F0A6F8A1
:10D810003A782146EB68914019400346934099427B
:10D820000BD17978012901D0012100E000217B682A
:10D830004140002B01D010469847761CF6B228785C
:10D840008642D8D3F8BD0000C030002010B50E4984
:10D8500000230A784C78A24212D0521CD2B20A702D
:10D86000022A00D10B700A78074B920018339A589D
:10D870000260886810180002000A8860012010BD4C
:10D880000360002010BD0000D43000203EB5094DDB
:10D8900038CD0093029501946B46588099809A7117
:10D8A000054900220978FEF7F1FF684600F08EF87E
:10D8B0003EBD000098320200A430002010B504786C
:10D8C00000222300FDF74CFE070605070D1D262C40
:10D8D00006000A7010BD01220A7002898A818288BE
:10D8E00014E002220A7002898A818288CA81C26891
:10D8F0008A60007C062802D00020087410BD012038
:10D90000FBE703220A70C2888A810289CA81C06843
:10D91000886010BD04230B70C0888881CA8110BD47
:10D920000520087010BD000070B5064D06460024A5
:10D93000A0002958002901D030468847641C082CD3
:10D94000F6D370BD883C00200EB5002910D01129F7
:10D950000ED00022009202926A46508001910D2959
:10D9600007D0862907D009201070104600F03CF837
:10D970000EBD0B20F8E70A20F6E700000149096810
:10D98000084700006430002070B5054D06460024AD
:10D99000A000295830468847641C022CF8D370BD7B
:10D9A00040320200F8B507460024064E064D04E05A
:10D9B000A000315838468847641CE8788442F7DB79
:10D9C000F8BD0000DC3A00209430002070B5054D11
:10D9D00006460024A000295830468847641C022CC3
:10D9E000F8D370BD603202000149096808470000A1
:10D9F000A43202007FB50446406800280BD0002006
:10DA0000039020780026414D0300FDF7A9FD066D27
:10DA10000606304E7B6D0120F2E7A08900F0ECF99C
:10DA2000002804D1E08903F0D3FF00285CD0A0894E
:10DA300000F0DDF9014668464180E08903F0C2FF4D
:10DA400001466846017120780128606807D00028E7
:10DA500009D00420694608706068039020E000281F
:10DA6000F8D00320F6E70120F4E708463AE0A08961
:10DA700000F0C2F9002804D1E08903F0A9FF0028D2
:10DA800032D0A08900F0B3F969464880E08903F0FC
:10DA900099FF694608716068002804D00520087065
:10DAA000A0680290E1E70220F9E7A08900F0A4F95C
:10DAB000002819D0E089002816D1A08900F097F934
:10DAC00069464880E08903F07DFFFF2069460871C0
:10DAD000606800280FD0072008706E70AE7003F0E9
:10DAE00099F8684602F052FF6878002802D06E70FC
:10DAF00003F090F87FBD062168460170408803F06E
:10DB000017F9EAE7082069460870AEE78030002080
:10DB100000B5104987B00978890702D4022007B000
:10DB200000BD0D49884201D10420F8E7052269466D
:10DB30000A7001220A71C88000221146684602F06C
:10DB40008BFB002803D003F057FE0020E7E70820F6
:10DB5000E5E7000018310020FFFF000000B50F4886
:10DB600087B00078800702D4022007B000BD0620ED
:10DB70006946087000221146684602F06DFB0028D5
:10DB800009D007480178002901D00121017303F071
:10DB900033FE0020E9E70820E7E700001831002005
:10DBA000883D002010B58CB014216846FDF7DDFAE1
:10DBB0001D480078810703D56846FFF7B5FE30E0C1
:10DBC000C0072ED1012000F03DF900F0BDF901247D
:10DBD0006846047502F0D2FB0300FDF7C1FC0C0798
:10DBE0001107111B190A191B1317131B0B200CB05B
:10DBF00010BD022000F026F9012000F009F9DBE752
:10DC0000002000E003206946087603E00220FAE7DE
:10DC1000684604760022114605A802F01DFB03F0B9
:10DC2000EBFD0020E3E700001831002038B50400C8
:10DC300014D0694603F030FE002813D068460088EF
:10DC40000101094809188889002809D0A27A002A08
:10DC500006D0401E88810020A07238BD052038BD46
:10DC6000062038BD0A2038BD683D00201FB501A937
:10DC7000684603F0CFFD04B010BD07B513460A4651
:10DC80006946002003F0C6FD0EBD07B513460A46DF
:10DC90000021684603F0BEFD0EBD002805D0002916
:10DCA00003D000680860002070470520704700001E
:10DCB00038B50D46040017D0002D15D0694603F085
:10DCC000EBFD002812D06846008861680201084810
:10DCD00012189089401C9081296060680C3068603F
:10DCE0000120A072002038BD052038BD0A2038BDB3
:10DCF000683D002010B5002804D00323002205F061
:10DD000033F910BD052010BD10B50223002205F027
:10DD10002BF910BD10B5002A03D0022305F024F919
:10DD200010BD052010BD000010B5064A5178082925
:10DD300006D08B00044C491CE0505170002010BDEF
:10DD40000C2010BD18310020883C002038B5044656
:10DD50000A480D460078800701D4022038BD002C07
:10DD60000AD06946284605F00FFA0028F6D1694620
:10DD700009882180658038BD052038BD1831002014
:10DD800010B504460E480078800701D4022010BD6B
:10DD9000002C10D0218802290FD80A4A08018018C7
:10DDA00042896088121A032A07D405F0E3F900209B
:10DDB0002080608010BD052010BD042010BD000033
:10DDC00018310020683D0020826883881A4003686B
:10DDD0009A5C0A708168491C81607047C2688388B8
:10DDE0001A4003689954C168491CC16070470321F7
:10DDF0008903401A80B2704703218903401A0349FE
:10DE0000884201D80120704700207047FE3F000083
:10DE100002490A7882430A707047000018310020D6
:10DE200010B504460078182802D1FEF7F9FC2070DE
:10DE300010BD10B504460078182802D1FEF7F0FC9A
:10DE4000207010BD02490A7802430A707047000032
:10DE50001831002070B5064600200546862906D0F8
:10DE6000112902D0002903D070BD012500E0012056
:10DE70000E4C002A02460FD061793046FEF706FDAF
:10DE80002A4621793046FEF701FD002261783046AE
:10DE9000FEF7FCFC002204E061783046FEF7F6FC59
:10DEA0002A4621783046FEF7F1FC70BDA8300020EC
:10DEB00010B50446C0B2FDF7A9FF204610BD000012
:10DEC000F8B506461C481F46007815460C46C007A4
:10DED0000AD03046FFF7F6FA002807D0002C07D00A
:10DEE000A00507D00620F8BD0120F8BD0220F8BD2E
:10DEF0000320F8BD3068A04204D8A8027168001958
:10DF0000884201D90520F8BD002D10D0684603F0E5
:10DF1000B7FB00280DD000980221C0C00170A101FC
:10DF2000090C8180058103F059FC0020F8BD042014
:10DF3000F8BD0720F8BD00001031002010B50846DC
:10DF400003F0F0FB10BD0000F0B52648264C001B86
:10DF50000309264819464069421C03D101200007E5
:10DF600040698002224A12789646D2070CD00020DF
:10DF7000F0BD1D4C15012C192568002D03D06468D7
:10DF8000002C00D0491E521C9A42F2D3002420E0FB
:10DF9000E2B2002594462A460FE0134E1701BE193F
:10DFA0003768002F02D07768002F05D1767BAE420C
:10DFB00002D93546D6B2B446521C9A42EDD36246D7
:10DFC0001501094AAA185060157BAD02401B641C5C
:10DFD00010608C42DCD30648714601221143017067
:10DFE000C5E7000058310020483100200010001023
:10DFF00010310020002804D00349496E0160002040
:10E000007047032070470000143C0020F8B5074615
:10E010001E481E46007815460C46C0070ED03846EE
:10E02000FFF750FA00280BD0002D0BD0002C09D0A0
:10E0300028462043800707D00620F8BD0120F8BD00
:10E040000220F8BD0320F8BD3868A04204D8B10012
:10E0500078680919884201D20520F8BD002E11D038
:10E06000684603F00DFB00280ED000980699076063
:10E07000416001210172C5600461868203F0AEFB3C
:10E080000020F8BD0420F8BD0720F8BD10310020A5
:10E0900070B5174B0446186E182148431549C0182F
:10E0A0000A78950715D5022C02D0032C1CD102E06A
:10E0B00002F0A8F818E04A78521CD2B24A70032A3B
:10E0C00012D900224A70082103F0ECFE03F0C2FAD4
:10E0D0000AE0500708D5FB2002400A70586E00285D
:10E0E00002D0022002430A7003F0E6FA70BD00007D
:10E0F000143C0020103100203EB511206946087202
:10E10000062216A102A87CDF01460C0008D01548A3
:10E11000FDF716FA642001F0C1FA2046FDF702FD72
:10E120000F20800178DF00200090102269460190C6
:10E130000A803C224A808880FF209130C88068464F
:10E140007ADF01460C0008D00648FDF7F9F9642093
:10E1500001F0A4FA2046FDF7E5FC3EBD4E6F726467
:10E1600069630000A8F4010070B5002801D0012007
:10E1700070BD164C0025207B002801D0257301E0DE
:10E1800000F09CF820780300FDF7EAF9081E050866
:10E190000B0E1E111A1E00F01BF870BD00F07EF869
:10E1A00070BD00F061F870BD00F038F870BD608897
:10E1B0000649000120394018406802F0BFF870BDE0
:10E1C000656002F0C9F870BD0F2070BD883D002069
:10E1D00070B5104900208A1C0D460346203D0C18DE
:10E1E000A67A002E08D0A37204016419A689002E15
:10E1F00002D1A47B012C08D0401C80B20228EED3AF
:10E200000B704B8004484B6070BD108000F046F8E6
:10E2100070BD0000883D00201D1D000010B50F4C92
:10E2200060880101204620380818818900290BD018
:10E23000052020700A480221818001680023012204
:10E240000848FFF73DFE10BD416800230122054844
:10E25000FFF736FE0421217010BD0000883D00202C
:10E26000283100204831002038B50A4908480B6899
:10E270008988426889005918538803240470002053
:10E28000DB1C00909BB20448FFF7C0FE38BD0000C5
:10E29000883D0020283100204831002010B5064973
:10E2A0004888091D03F048FB002802D0FFF7DCFF77
:10E2B00010BDFFF7B3FF10BD883D0020F0B51D482D
:10E2C0001D4907780246012502268C88203A3B002A
:10E2D000FDF746F9080517171A212C2C1617018986
:10E2E000491C01810021418001730B01D35C002B8B
:10E2F00008D000234418491C89B2A3720229F4D320
:10E300000570F0BD0123F5E742685288D21CA218BF
:10E310008A800670F0BD45880B682D01AA185568E3
:10E320000D60536014818E80062100E0072101708A
:10E33000F0BD0000883D002028310020F0B50446E3
:10E340000088384D8DB050281DD0522802D0542856
:10E3500026D103E0A08800F067FF21E0062069468F
:10E360000870A08800F0A8FB69464880A2888A80CF
:10E3700000F054F9A0880022E978FEF787FA684691
:10E38000FFF7FCFA0CE0207B012809D1A07A0128D4
:10E3900006D120892449884202D1A08800F080FF5C
:10E3A000A878FEF755FA002819D008A8FEF784F9D6
:10E3B000142208A903A8FCF7BFFE002403AE0BE05B
:10E3C00060008719B888A978FEF74EFA002802D0B5
:10E3D000B88800F029FF641C0398A042F0D8687840
:10E3E000FEF736FA002819D008A8FEF765F91422BE
:10E3F00008A903A8FCF7A0FE002403AE0BE0600010
:10E400008719B8886978FEF72FFA002802D0B888F3
:10E4100000F046FF641C0398A042F0D803F066FDAC
:10E420000DB0F0BD5C300020022900003EB504466E
:10E430004088694648802078002814D001281DD0E3
:10E4400002280FD1207900280CD0608800F068FAEB
:10E450000E49884206D00E490122C978FEF716FA05
:10E4600003F044FD3EBD002008700846FFF786FA21
:10E47000608800F055FA00F0D7FE3EBD01216846E5
:10E480000170A1888180FFF779FA3EBDFFFF00008F
:10E490005C30002010B50446007801280DD160885A
:10E4A00000F0C2FE608800F07FF9002805D0034923
:10E4B00060880122C978FEF7E9F910BD5C300020C0
:10E4C00010B5104C00202070FEF7AAF96070FEF71E
:10E4D000A7F9A070FEF7A4F9E070FEF7A1F920718A
:10E4E000617818290BD0A178182908D0E17818296B
:10E4F00005D0182803D001202070002010BD032073
:10E5000010BD00005C300020F0B585B000F09EF832
:10E510006846FEF7D1F800246D460C4F0EE060000F
:10E520004619B08800F0C8FAB84205D10849B08849
:10E530000122C978FEF7AAF9641CA4B20098A0428F
:10E54000EDD803F0D3FC05B0F0BD0000FFFF0000E4
:10E550005C30002010B50178072902D1408800F016
:10E560009FFE10BD10B504460A4841782046FEF7CC
:10E570007BF900280CD0084800210C224A431218CD
:10E580005288A24201D1C8B210BD491C0829F4D357
:10E59000FF2010BD74300020FC36002070B5094DFE
:10E5A000094E00240C206043401940887178FEF722
:10E5B0005BF9002804D0641C082CF3D3FF2070BD45
:10E5C000E0B270BDFC36002074300020F8B507467C
:10E5D000104E0125BD403068FDF76EFB00280DD1BF
:10E5E0000D4C2069284207D1384601F0B7F90028C0
:10E5F000E06804D0284303E0A8432061F8BDA843A5
:10E60000E0602069002228432061A1683068FDF79E
:10E610000FFBF8BDDC320200C03000201CB5054AFB
:10E620009168D268019200910022694602F076F862
:10E630001CBD00002C32020003480021C943818028
:10E6400001210170002070476830002010B5044897
:10E6500001F098FF0349888003F074FC10BD0000AE
:10E66000FFFF000068300020F1B582B0029800F092
:10E6700023FA00241649032501272646884209D09B
:10E680006A46082102F020F8002803D10198868804
:10E690000568841D2B46324621460298A9DF0428CE
:10E6A00004D0082804D00B2807D002E0112000E095
:10E6B0000020002F00D10B20FEBD0027A80701D5A8
:10E6C0000125E7E73443F6D0002426460325E1E799
:10E6D000FFFF0000F1B582B0029800F0EDF90746A7
:10E6E0001B48874201D11B48FEBD01252A466D1CEF
:10E6F0000026ADB26B460821384602F015F804003A
:10E7000002D0072C21D021E0019903230B600A1DC0
:10E71000891D0298AADF040004D00C2C08D0052C17
:10E7200008D008E00821384602F098F804460DE0C9
:10E73000012600E000240821384602F079F800287C
:10E7400000D00324002ED1D100E00C242046FEBDD1
:10E75000FFFF0000023000001FB5044600780128CA
:10E7600015D12079012812D1608802AA012101F077
:10E77000ABFF00280BD102216846017061884180FF
:10E78000039801786846017105490968884704487B
:10E79000044908388088884201D003F0D3FB1FBDAC
:10E7A00070300020FFFF00001CB500F085F96A46BC
:10E7B000012101F089FF002801D000201CBD019833
:10E7C00000781CBDF8B5074E074C084D0746324689
:10E7D00061883846A7DFA84203D16088401C60806A
:10E7E000F5E7F8BDFFFF00006830002003300000AF
:10E7F0008188054A914204D00088002801D0012078
:10E800007047002070470000FFFF00003EB504463F
:10E8100000780D46022815D10322611C6846FCF7DA
:10E820008BFC0322211D02A8FCF786FC01AA02A989
:10E830002846FDF7F1F8032201A96846FCF7A0FC81
:10E84000002801D000203EBD01203EBD10B50C4681
:10E85000FFF788FEFF280AD00C214843054907220C
:10E8600041182046091DFCF767FC002010BD05205B
:10E8700010BD0000FC36002070B5018890B0102952
:10E8800049D1011D2C2202A8FCF756FC6846234EF4
:10E89000007B344602AD03282AD002F0E7F8684630
:10E8A000007B00280ED001280CD0022820D118E0CF
:10E8B0000E99281D1131FCF725FF002802D068466B
:10E8C000048815E00DAA6946072002F0A5F8002883
:10E8D000EED10DE00E99281D491CFFF797FF002887
:10E8E000EDD10DAA6946072002F096F80028F1D173
:10E8F00068460089291D00F079FEB4420BD06846B5
:10E900000089214600F086F868460189418001218E
:10E910000170FFF739F810B070BD0000FFFF000074
:10E92000084A00210C234B43D35A834204D10C20C4
:10E930004143881840887047491C0829F2D302488F
:10E9400070470000FC360020FFFF000010B50E4CA1
:10E95000182060700D4A0E4900200C2343435B18B9
:10E96000401C5A800828F8D3FDF75AFF6070182819
:10E9700004D00548C01C71DF002801D0032010BD61
:10E9800001202070002010BD74300020FFFF000027
:10E99000FC36002070B504460D46401C00F090F98E
:10E9A000002810D01022691C601CFCF7E9FB00282D
:10E9B0000AD000262946204611311130FCF7A2FE6C
:10E9C00001463046084370BD0126F3E7018800295F
:10E9D00003D142189278002A01D001207047491CC7
:10E9E0000829F6D30020704710B50C460346FFF700
:10E9F000EDFF00280BD018882188884206D1082214
:10EA0000A11C981CFCF7BCFB002801D0002010BD05
:10EA1000012010BD10B502F0E7F910BD10B5044695
:10EA2000007888B0002826D12079072823D1608873
:10EA300001AA072101F048FE00281CD102F016F8B7
:10EA40001BE0694660880988884216D004990298BC
:10EA5000FFF7A0FF002810D06088FFF761FF014694
:10EA60006846C18200210175618801830188418364
:10EA700005A8FEF789FF08B010BD03AA6946072064
:10EA800001F0CAFF0028DCD1F5E7000070B50446AC
:10EA9000FFF746FF0546204601F01BFE05490446E8
:10EAA0008D4204D0002C02D1284602F09DF9204668
:10EAB00070BD0000FFFF000010B5FFF753FDFF28F9
:10EAC00004D00C2148430249085A10BD014810BD2A
:10EAD000FC360020FFFF00003EB5044601F0C6FFF3
:10EAE00010E0019920464631FFF77EFF002806D14D
:10EAF000019920462A31FFF777FF002802D06846A7
:10EB000000893EBD6A4602A9072001F085FF002862
:10EB1000E7D101483EBD0000FFFF0000F8B50F46F9
:10EB2000002804D00120FFF773F90120F8BD3979DE
:10EB300000290AD00026254D01290BD0244C02299A
:10EB400020681FD003293BD125E001F005FC0121FD
:10EB5000397133E000200101695C02290BD0401CAF
:10EB600080B20228F7D30220FFF76CF90120FFF7EB
:10EB70004FF91848F8BD04016019406801F0DEFB48
:10EB80002E551BE00146002301221348FFF798F998
:10EB90000221A18011E001F0D1FB0C492368203152
:10EBA00049880A01094951184D6825604B60A388BE
:10EBB0000B810221A18005498E543E710028D9D0D5
:10EBC0000120FFF725F90E20F8BD0000683D002068
:10EBD000283100201D1D000048310020F8B51E4CD2
:10EBE0002078002836D0E068002600280CD00025C8
:10EBF000607800282ED1684652DF052806D000280C
:10EC000006D0FCF78FFF0BE00125F1E7012607E0B6
:10EC1000009800F0CDFD2169002901D000988847B7
:10EC2000002D13D16078002814D1608869460880CF
:10EC3000A06861DF052804D0002804D0FCF772FF2B
:10EC400004E0012502E0E168A0688847002ECFD0EB
:10EC5000002DE5D0F8BD0000303100204188054886
:10EC60000288914204D34088814201D80120704734
:10EC7000002070474C3000201048018CC9B2012997
:10EC800017D1818C090714D1018D09060A0F03D110
:10EC9000828D1206120F0ED0090F012903D1828D29
:10ECA0001206120F07D0032903D1808D0006000F32
:10ECB00001D000207047012070470000C00F00F015
:10ECC0000021425C002A01D001207047491C102914
:10ECD000F7D300207047800701D000207047012043
:10ECE0007047000030B58FB005461C216846FCF720
:10ECF0003CFA694608780A210843694608700024EE
:10ED000001940394049405940694A87C08A988703F
:10ED1000154869460884601C0007000F10300794EE
:10ED2000087711204877887FF9210840F721801C57
:10ED30000840EF21084040084000694688771421C8
:10ED400009A8FCF712FA08A8099007A80A90012060
:10ED500069468885CC8508860D942888AB1C09AA4D
:10ED6000A2DF0FB030BD00002515000010B500294E
:10ED700004D006A0FCF7E4FB142003E005A0FCF798
:10ED8000DFFB1220FEF766F910BD00006C656E20F7
:10ED90006F6E00006C656E206F66660010B50448EB
:10EDA000017AC90702D00078FEF7AEF910BD000065
:10EDB000FC2F0020FFB5244D81B0287A1F460E4657
:10EDC000084304D0039A002E04D0002104E005205B
:10EDD00005B0F0BD1C491031019803F0C3FB044697
:10EDE000014600220198FFF735F8002F03D0214695
:10EDF0000198FEF7A9FD112C0FD006DC002C0AD0DB
:10EE0000082C08D00D2C05D105E0862C11D00F4818
:10EE1000C44200D003242046DAE73246E97801985C
:10EE2000FDF734FDA978039A0198FDF72FFD002422
:10EE3000F1E73246E9780198FDF728FDA978039AB1
:10EE40000198FDF723FDE6E7A8300020FECFFFFF85
:10EE5000FEB517460C00064604D02078C00704D043
:10EE6000012003E000217EDFFEBD0220694608711B
:10EE70003046FFF721FE17490546884208D001A811
:10EE800000902B463A462146304600F025F806E031
:10EE900020782146C007304603D000F081F80446B0
:10EEA0000BE07EDF044600200090002C08D00022FA
:10EEB00001232946304602F0C1FF002C02D006E0B3
:10EEC0000122F5E768460179304602F0DDFF204671
:10EED000FEBD0000FFFF0000FFB585B000252E46F7
:10EEE00001AA07210E9F089801F0EEFB040008D14B
:10EEF000029D4420405D1835C607F60F01D0029DE3
:10EF000034350798204312D1002D10D0002E05D1A2
:10EF100028461230FFF75AFD002808D029462A4615
:10EF20001231059885DF04460020387023E0002C5C
:10EF300001D0052C1FD106980078C0070DD003AB77
:10EF400001220721089801F0EFFB04000AD10721F4
:10EF5000089801F0E7FC040004D1069905987EDFCB
:10EF6000040008D00721089801F062FC002802D0B4
:10EF7000052800D00324002000903878002801D014
:10EF8000012300E00023002C07D0002208990598F7
:10EF900002F054FF204609B0F0BD0122F6E7000060
:10EFA000FEB50F46064601F08BFB05461848854224
:10EFB00020D001AB01220721284601F0B5FB040057
:10EFC0000AD10721284601F0ADFC040004D13946DE
:10EFD00030467EDF040008D00721284601F028FCD7
:10EFE000002802D0052800D0032401200090002C26
:10EFF0000BD002E0032400200090002201232946C8
:10F00000304602F01BFF2046FEBD0122F6E700005D
:10F01000FFFF0000F7B5114D0F46164629780098FE
:10F02000FDF722FC002812D00098FFF745FD0446AA
:10F030000B4884420BD069780098FDF715FC002836
:10F0400006D033463A462146009801F00FFAFEBD3D
:10F05000324639460098FEF719FCFEBDA430002068
:10F06000FFFF0000F1B586B00698FDF7F1FB002820
:10F0700021D06846FDF720FB00246E4618E06000B2
:10F080008519A8880699FDF7EFFB00280FD00B4FD4
:10F09000A888B978FDF7E8FB0590A888F978FDF70E
:10F0A000E3FB0146A8880123059AFFF783FE641C51
:10F0B0000098A042E3D807B0F0BD0000A8300020BF
:10F0C000F0B5284C2146103948688B68227886466E
:10F0D0009C46CF78667836E0182353436168521C0B
:10F0E000C918A378D2B2934200D100220B78022B28
:10F0F00002D0032B27D123E003464D68194603E0D5
:10F10000A94204D00B46C96900291CD0F8E70029A0
:10F1100019D08B4208D1C069002805D1124F0125B2
:10F12000BD600025AC4601270D68C969D961002979
:10F1300009D00B685B190B6005E00174C06900E041
:10F1400000210028F9D19642C6D1064962461039FD
:10F150008A604860CF70704501D00120F0BD00206A
:10F16000F0BD0000E430002000100140F8B52C4E46
:10F17000044670680025009041E0002C02D0204633
:10F18000E46920E0264818231030017842684B4398
:10F19000491CC9B2D21801708378994200D1057018
:10F1A0001178506801292CD1017C002929D191685E
:10F1B0004160D16881601169C16051698161F178F4
:10F1C000002900D045604368B268164F991A0902B9
:10F1D000090AB94202D28268891806E0D11A0902E6
:10F1E0008268090A8A4202D9511A016000E005606A
:10F1F0004560012185600174C56103F06BFB002C43
:10F20000BBD107481030017840788142BAD171688B
:10F210000098814201D00120F8BD0020F8BD000017
:10F22000D4300020FFFF7F00FEB5044619480026B9
:10F2300084422DD02046FFF717FA050012D00B2D7F
:10F2400014D0112D10D01448C5421BD00921684696
:10F2500001702046FFF730FC0146684641808480FB
:10F2600002950DE0022102E001260BE00321684631
:10F2700001702046FFF720FC0146684641808480EB
:10F28000FEF77CFB0548324681782046FDF7FEFA02
:10F29000FEBD0000FFFF0000FECFFFFF5C3000203E
:10F2A000FEB504460026FFF715FA0546112818D0CA
:10F2B00004DC002D13D00C2D05D114E0862D25D0B3
:10F2C0001348C5421BD00921684601702046FFF74C
:10F2D000F3FB014668464180848002950DE00121E0
:10F2E00002E001260BE00721684601708480204679
:10F2F000FFF7E2FB014668464180FEF73FFB054809
:10F30000324641782046FDF7C1FAFEBD0821EBE701
:10F31000FECFFFFF5C300020F8B5054600780C46B4
:10F32000002620420FD10020694608706846FCF78D
:10F330008DFD2878204202D120432870012668469E
:10F340000078FCF7A1FD3046F8BD00008CB000232A
:10F350004E4A05211846FCF731FC01460C0008D046
:10F360004BA0FCF7EDF8642000F098F92046FCF77C
:10F37000D9FB1822494905A8FBF7DEFEFF21013120
:10F380004748019040180291049103900323454A95
:10F3900001A905A8FCF7E2FC01460C0008D042A038
:10F3A000FCF7CEF8642000F079F92046FCF7BAFBB0
:10F3B0006846FDF7CBFFFDF747FC6846007801F093
:10F3C00027FDFEF799FE02F073FE1C2101A8FBF752
:10F3D000CCFE0520C00302900F20000400250390FE
:10F3E00001950321684601744582057531480690F0
:10F3F0003148079001A8FDF7EDF801460C0008D050
:10F4000029A0FCF79DF8642000F048F92046FCF79D
:10F4100089FBFCF7B7FA29A0FCF792F80320FCF768
:10F42000C7FF01460C0008D019A0FCF789F864203A
:10F4300000F034F92046FCF775FB244CFF26F53626
:10F44000A078401CC0B2A070642800D1A5702078BC
:10F45000002809D00D48A1789430FDF72DF801005F
:10F4600002D01BA0FCF76CF8304600F017F948DF1B
:10F4700001460F00E4D00CA0FCF762F8642000F015
:10F480000DF93846FCF74EFBDAE70000B4330020F4
:10F4900065727220636F646520256400D8310200B4
:10F4A000B4310020B52A020065727220636F646572
:10F4B00020256400C901020091D601000D0A5541C2
:10F4C0005254205374617274210D0A00E82F0020F9
:10F4D0000D0A2073656E64206572726F7220256458
:10F4E0000D0A000070B5144682880E460546208835
:10F4F000111D4118921C994201D8FE2A01D90C20F5
:10F5000070BD521C32542088FF21401C80B22080E4
:10F5100031542088401C80B220808119288803F053
:10F52000EFFB2188401880B22080AA88002A09D0E9
:10F53000A968002908D08019FBF7FEFD2088A9885A
:10F5400040182080002070BD072070BDF8B50F4620
:10F55000017814460546012902D16878002806D0B2
:10F560002088821C9A422DD8012902D006E007206B
:10F57000F8BD69784118891C994223D8181A801E51
:10F5800086B2684606802188B81C081869467DDF67
:10F590000028EDD12878022805D169460988B142B2
:10F5A00001D809210AE00821012805D16878B04274
:10F5B00002D86A46108001E06846068068460088E6
:10F5C000FE2801D90C20F8BD2288401CB8542088A0
:10F5D000401C80B22080395420886946401C20801D
:10F5E0000988401820800020F8BD0000F8B5FF24ED
:10F5F0000F46054600291FD0104EB5421CD01048BA
:10F60000012241782846FDF741F92846FEF7AAFF76
:10F610000446FF2804D1FEF7C1FF0446FF280BD0A3
:10F620000C21484307490246401845808E52072264
:10F630003946001DFBF780FD2046F8BDFFFF0000A6
:10F6400074300020FC36002070B50B4D0E46A842E9
:10F6500001D1002000E0401C84B209E02146304680
:10F6600001F02CFE002801D0204670BD641CA4B21D
:10F67000FF2CF3D9284670BDFFFF0000C2084307E6
:10F680005B0F0120895C9840084070470121890781
:10F6900040180068002800D0012070477D21C90073
:10F6A00048430FD00849094A096800BF00BF00BF9E
:10F6B00000BF00BF00BF00BF00BF914200D000BF2D
:10F6C0000138F2D170470000443100200024F400DA
:10F6D0007D21C90048430FD00849094A096800BF85
:10F6E00000BF00BF00BF00BF00BF00BF00BF91420E
:10F6F00000D000BF0138F2D1704700004431002033
:10F700000024F40000280FD00849094A096800BF06
:10F7100000BF00BF00BF00BF00BF00BF00BF9142DD
:10F7200000D000BF0138F2D1704700004431002002
:10F730000024F40070B50E4C00252078002801D07C
:10F74000852513E00021A16061602161E160094825
:10F7500000680126304002D1032100F02FF803F0A9
:10F7600057F8002801D1044886612670284670BDEC
:10F770005C3B002000E100E00005004038B50020BF
:10F78000694608706846FCF761FB084C2078002841
:10F7900001D1FFF7CFFFE068401CE0600120A070BE
:10F7A00068460078FCF770FB38BD00005C3B002029
:10F7B00010B5002801D1FDF7BFFE10BD8207D30EA2
:10F7C000FF229A408907090E10B5994000280BDAEC
:10F7D00003071B0F083B9C080C4BA400E318DC69D3
:10F7E00094430C43DC6107E08408094BA400E4184F
:10F7F000236893430B432360C106C90E0120884050
:10F80000044908600449086010BD000000ED00E0F4
:10F8100000E400E080E200E000E100E0F3B581B048
:10F82000054601F057FB1F4F0028284617D0FDF76B
:10F83000F1FDC0192030007F8009032802D0012883
:10F840000BD005E018480069E840C007C00F04D09D
:10F850000321284600F066FAFEBD0221F9E701F017
:10F8600045FB0028F8D02846FDF7D4FD044680006B
:10F87000C11D0E4AF9318018026989B2012632434E
:10F880000261084600F080FA02980028E4D0284679
:10F89000FDF7C0FD800038580028DDD00448A640A0
:10F8A0004660FEBD703B0020000500500065004032
:10F8B00000630040FEB5044625480E46001920218D
:10F8C00041560027C8171346401C01D008273CE0CA
:10F8D000F27819462046FDF779FD0546401C33D0E5
:10F8E000B07800280BD005200007A10009180720D8
:10F8F00000020918086802229043086007E000210E
:10F900007378204600910A46019100F0BFF9F07823
:10F91000002810D00F48AA001018317802690E4B49
:10F920001A400261E206D20C8907890B0A43016979
:10F930000A43026109E00648327840192030017F0D
:10F9400092011143017700E004273846FEBD000014
:10F95000703B002000650040FFE0FCFF034909699F
:10F96000C140C807C00F00D00120704700050050FB
:10F9700070B5144D2879002801D0082070BD1149B8
:10F9800000204039421E0B182033401CC0B21A70B0
:10F990002028F8D300242046FDF70AFD641CE4B2B9
:10F9A000082CF8D303210620FFF708FFFF207D3045
:10F9B00000F0EAF901200449C007486001202871DD
:10F9C000002070BDB03B0020006300400248007979
:10F9D000002800D001207047B03B0020F8B5064653
:10F9E0000F4600791C2148431A4915464418E07E09
:10F9F000002801D00820F8BD39463046FCF75AFAF5
:10FA000065603869206028460025002813D0FF2251
:10FA10003068397F1D328550FF223068453285506D
:10FA2000032330681B020C4AC01842603068000B88
:10FA300040B2FFF7C3FE052230680421120280188D
:10FA40000160E5752576A5750121E1762846A57644
:10FA5000F8BD0000B83B002080000200F8B5037933
:10FA60001C246343134C81251C190327666800235B
:10FA7000AD003F02002E02D00668F619B560E67DA3
:10FA8000002E0ED0237E002B07D06168002902D003
:10FA90000068C01945601120F8BD2161012322765C
:10FAA00004E0E2750025E1606576257600F01AF83D
:10FAB000F8BD0000B83B002070B5044600791C2159
:10FAC000074D48434019807E002808D1204602F0A7
:10FAD00051F820791C22012150434019817670BDD4
:10FAE000B83B0020F8B5044600791C21484326495C
:10FAF0004518A87E184302D1204602F03BF86868FA
:10FB0000002808D081210322206889001202801871
:10FB100041600020F8BDFF204530216800220A50D6
:10FB2000FF212531206800F041F90646FF21093107
:10FB3000206800F03BF90090FF214531206800F07B
:10FB400035F90746009838433043E9D0304638430A
:10FB500007D12946206801F0A1FFE87D697E88422F
:10FB6000DED80020E875002E01D00320F8BD002F5C
:10FB700001D00F20F8BDA97E01200029216801D005
:10FB80000860C6E74860C4E7B83B002070B505468A
:10FB90000C4600791C21484308494318284600F0C8
:10FBA00055F8002801D0112070BD9A7500209C6086
:10FBB0009882284600F004F870BD0000B83B002091
:10FBC000F8B5044600791C2148431F490026451812
:10FBD000FF2720681D37C651206801218160294612
:10FBE000206802F00BFF6968002913D027E0FF2787
:10FBF0000137FF211D31206800F0D8F8002802D11C
:10FC0000A88AB842F5D1A88AB84203D0294620680C
:10FC100002F0F4FEA88AA97D8842E8D3A98AC81F09
:10FC2000F9380ED0FF271D373946206800F0BEF89E
:10FC30000028F9D020680121C1600020A875304655
:10FC4000F8BD0F26F9E70000B83B002000791C2121
:10FC5000484303494018807D002800D001207047A8
:10FC6000B83B002070B552000A439900049D0A4336
:10FC70002902059E0A43310405240A432407800013
:10FC80000721001909024018026070BD70B55200CA
:10FC90000A439900049D0A432902059E0A43310440
:10FCA00005240A432407800007210019090240188F
:10FCB000026070BD70B552000A439900049D0A436A
:10FCC0002902059E0A43310405240A4324078000C3
:10FCD0000721001909024018026070BD1CB50022FE
:10FCE0000B46009211460192FFF7E4FF1CBD1CB5C4
:10FCF000002100910B46012201911146FFF7DAFF26
:10FD00001CBD05221207800082180720000210186F
:10FD1000026803231B049A430260026809040A4331
:10FD20000260704705221207800082180720000237
:10FD30001018026803231B049A4302600268090436
:10FD40000A430260704700000122824003480029F4
:10FD500001D082607047C26070470000000500500B
:10FD600038B5084B05241B68009324026B464118E4
:10FD700005E085005D592D192D69401C20C2814286
:10FD8000F7D838BDD832020002494018002101607E
:10FD900070470000006000400349401800680128D7
:10FDA00000D000207047000000600040405800284C
:10FDB00000D00120704703221202801840680840DA
:10FDC00000D00120704770B516460D46002405E0AE
:10FDD000285DFCF71BF80028FAD1641CB442F7D365
:10FDE0000D20FCF713F80028FAD10A20FCF70EF8D2
:10FDF0000028FAD170BD000010B50300FBF7B0FB7E
:10FE000009172123062527292B2D160015A0FBF7FE
:10FE100097FB0220FDF71EF90FE017A0FBF790FB00
:10FE20006420FFF73BFC2046FBF77CFE10BD15A0CD
:10FE3000FBF786FB0320FCF7BBFA01460C00ECD174
:10FE400010BD15A00AE01AA008E020A006E024A03A
:10FE500004E02BA002E032A000E039A0FBF770FB29
:10FE600010BD0000424C455F4144565F4556545F0B
:10FE7000464153540D0A000065727220636F646539
:10FE80002025640020424C455F4144565F4556544E
:10FE90005F49444C450D0A00424C455F4144565F62
:10FEA0004556545F44495245435445440D0A0000A9
:10FEB000424C455F4144565F4556545F4449524564
:10FEC000435445445F534C4F570D0A00424C455F25
:10FED0004144565F4556545F534C4F570D0A00003E
:10FEE000424C455F4144565F4556545F464153542A
:10FEF0005F57484954454C4953540D0A00000000CF
:10FF0000424C455F4144565F4556545F534C4F57F2
:10FF10005F57484954454C4953540D0A00000000AE
:10FF2000424C455F4144565F4556545F57484954DB
:10FF3000454C4953545F524551554553540D0A00A1
:10FF4000424C455F4144565F4556545F50454552CB
:10FF50005F414444525F524551554553540D0A0088
:10FF600070B5044600885A4D88B03A285DD009DC47
:10FF700002286BD010281CD011282DD0132875D141
:10FF800054A09EE0512875D052283BD055286DD101
:10FF9000A088132176DF01460C0008D056A0FBF79D
:10FFA000CFFA6420FFF77AFB2046FBF7BBFD55A094
:10FFB00087E00720FDF74EF801460E0008D04EA05E
:10FFC000FBF7BEFA6420FFF769FB3046FBF7AAFD9A
:10FFD000A088A88052A074E00020FDF73BF80146FD
:10FFE0000C0008D044A0FBF7ABFA6420FFF756FBE7
:10FFF0002046FBF797FD0020C043A8800020287012
:020000040002F8
:100000004BA05EE000231A461946A888A9DF0146E6
:100010000C0008D038A0FBF793FA6420FFF73EFBF2
:100020002046FBF77FFD46A04BE0A088132176DF3A
:1000300001460C0008D030A0FBF782FA6420FFF7DD
:100040002DFB2046FBF76EFD46A03AE0A08800217C
:1000500067DF01460C0008D027A0FBF771FA642087
:10006000FFF71CFB2046FBF75DFD01E02BE001E004
:1000700043A026E01022A11D04A8FBF75DF8684606
:10008000017C00291CD0007E042803D0062801D062
:10009000052815D1022918D0012069460870FF20D3
:1000A00083308880A088A8DF01460C0008D012A009
:1000B000FBF746FA6420FFF7F1FA2046FBF732FD22
:1000C00037A0FBF73DFA08B070BD0220E5E700005D
:1000D000E82F002020626C655F6761705F65767451
:1000E0005F7365635F706172616D735F7265717577
:1000F0006573740D0A20000065727220636F646579
:1001000020256400626C655F67617474735F657657
:10011000745F74696D656F75740D0A2000000000CE
:1001200020636F6E6E656374200D0A20000000006E
:10013000206469636F6E6E656374200D0A20000091
:10014000626C655F67617474735F6576745F737901
:10015000735F617474725F6D697373696E670D0AA2
:1001600020000000626C655F67617474635F657690
:10017000745F74696D656F75740D0A20000000006E
:1001800020626C655F6576745F757365725F6D651F
:100190006D5F726571756573740D0A200000000053
:1001A000626C655F67617474735F6576745F7277A4
:1001B0005F617574686F72697A655F726571756584
:1001C00073740D0A2000000010B5007800280FD1CC
:1001D00008483B21808876DF01460C0008D006A045
:1001E000FBF7AEF96420FFF759FA2046FBF79AFCBB
:1001F00010BD0000E82F002065727220636F6465F7
:100200002025640010B5134A00215170017A01299C
:1002100011D002290ED18189491C8181C189491CD3
:1002200089B2C181028A914204D1002101F03AFED3
:1002300001F010FA10BD838AC28A991AFF2901DCE5
:1002400089B201E0FF210131511889B2C18299427E
:10025000EBD010BD10310020F7B51C4D0E46014605
:100260006A6F002082B0032A2DD82C4678340827E4
:10027000636CBF1BBB4226D8286F10188007800F05
:100280001C2250434019FAF757FF686F401C6867FB
:10029000002E17D0216C606C40184007800E0019AA
:1002A0000023009009E00498D9000A1806CA0098B3
:1002B00006C06846FDF716F95B1CB342F3D3606CC9
:1002C00080196064012005B0F0BD0000A83C00204A
:1002D0000389CA1C9A1802814289511AC91E418198
:1002E00070470000F7B50D46012189024718044602
:1002F000002608340220288012E02046FEF778FA13
:10030000002817D00C48A1684268914200D941608A
:10031000608881000C1929880818C01C28800C34BA
:10032000BC4202D22068401CE7D10298002800D0CD
:100330000670FEBD0126EBE71831002008B500214C
:10034000009101460223024A0248FDF75FFE08BD04
:10035000103302004831002008B500200090044806
:1003600002230168034A0448FDF750FE08BD00005F
:10037000283100200833020048310020F8B500255C
:10038000354F2C462E4600953448B102006840187F
:100390000168B94205D1324A4168891830D0012933
:1003A0000CD000218A0082580346521C36D003200C
:1003B0002C4922018854641CA4B21BE00099002936
:1003C0000CD0284B022221015A54274A1368254A8F
:1003D000891802224B60641C0A81A4B222490022BF
:1003E0000860091DFFF77EFF1F488088022831D072
:1003F00008200543761CB6B2032EC5D3E8B2F8BD7B
:100400001849002322018B5451180A4648600E32C5
:100410000831FFF767FF02200543CCE7491CFF299D
:10042000C0D911490A68002A0CD00E4A02212301C2
:10043000D1549A1850600B48118120304480641CBC
:10044000A4B204E002200B6088800120009001200B
:100450000543CFE70420CCE7DEC0ADDE4831002005
:1004600002FEE10E683D00202831002070B5184DD5
:100470000E46044623CD86B0029500900191684651
:10048000448082808371134D2046A978FCF7ECF9F3
:10049000002803D03046FEF7F9FA0FE00721304676
:1004A00000F0C6F9002809D0052807D109226946BD
:1004B0000A73CC81049003A8FDF788FA00222978FA
:1004C0002046FCF7E3F96846FDF780FA06B070BDF8
:1004D0008C320200A4300020F0B585B00746FCF74E
:1004E000B7F9002814D06846FCF7E6F800246D46FA
:1004F0000BE060004619B0883946FCF7B5F90028D2
:1005000002D0B08802F0CEF8641C0098A042F0D867
:1005100005B0F0BD70B5054D06460024A000295871
:1005200030468847641C052CF8D370BD4C3202005D
:100530003EB50F4D002414206043401902F0EEFC3C
:10054000641C082CF7D30821502001910A4901248A
:10055000C2000290074B0094881800F002FD0028AA
:1005600001D003203EBD0348447000203EBD000082
:10057000FC3900208C3000206C37002010B500F0D2
:1005800043FA10BD10B500F043FA10BDF0B50025D8
:1005900085B000950195029503950446418868460B
:1005A0004180217901712E462179608802F090FC0A
:1005B00022780421404F1300FAF7D2FF0A060636CC
:1005C0001C1C383E43484B4D00280DD0417CC907C8
:1005D0000AD002F0B5FC684606702078012800D0E9
:1005E0000020694608722AE0012069460870A06868
:1005F000029024E000280ED08268A3689A420AD1B3
:10060000427CD30707D07B6852085B1C52000A4328
:100610007B6042741FE0022069460870E068039026
:100620000DE0FFF777FF16E0032006E06846017053
:10063000E06802906846F4E70520694608700846BD
:10064000EFE7062069460870E068D1E7012507203A
:10065000F3E7E06802907868002824D0174E002461
:10066000142027464743B819417C4A0703D4890719
:10067000C90F29421CD08178F05B00F0EFF8002808
:1006800016D014214C43325B69464A80B9198A78E6
:1006900069460A71862808D009216A4611700290BD
:1006A0006846FFF737FF05B0F0BD08200870F7E790
:1006B000641C082CD4D3F6E78C300020FC390020D1
:1006C00010B500F06BFA10BD10B5002300F0D6F99C
:1006D00010BD38B50546002420460AE0817828463A
:1006E00000F0A6F8002802D0052800D003240098C6
:1006F000401C00906946284602F0FCFB0028EDD122
:10070000002C07D1284600F051FA002802D0072813
:1007100002D00324204638BD0724FBE710B513465A
:10072000002200F0E3F910BDFFB581B00498154632
:100730000E46002804D0072E05D0082E19D102E05D
:100740000E2005B0F0BD002D13D0082D11D8019852
:1007500000F037FA00280CD00020009031460198B4
:1007600002F0B6FB041E26D0E068A84212D2002791
:1007700009E00720E5E7207CC019C1B22A4800F053
:1007800028FC7F1CFFB2E068B842F4D8204602F093
:10079000C5FB10E0A84217D9EFB207E0207CC019D2
:1007A000C1B2214800F015FC7F1CFFB2E068B842DE
:1007B000F4D8002C08D1FF211C48019F02F088FBCF
:1007C000041E05D00780A670207CFF2802D00AE016
:1007D0001120B6E72946144800F094FB2074FF2846
:1007E00013D001200090E560217C0F4800F0DAFB77
:1007F00002000ED0ABB23146049800F073FA0098B4
:1008000000280FD0082E06D00CE0204602F086FB10
:10081000DEE7032095E70498049900884968800082
:10082000801F888000208CE7EC390020FFFF00004B
:1008300070B5002402F04CFB05000CD0686800285D
:1008400004D000F0DAF9040000D00324284602F0B6
:1008500077FB204670BD052070BD00007CB50D46BD
:100860000646072903D0082D01D007207CBD0020B3
:1008700000900190684685702946304602F028FBBA
:10088000040004D0607CC00703D000207CBD05209C
:100890007CBD217C214800F085FB020025D0294643
:1008A0006846E36800F0B1F9684602F0FFFA2346B3
:1008B000083369463046626800F018F90246607CE9
:1008C0001749430704D5830702D54B685B1E4B606D
:1008D000FB25FD23002A0AD0112A0DD0862A14D028
:1008E000072A00D0032210467CBD03207CBD0121D5
:1008F0000843284018400EE04A68521C4A60042110
:100900000843184060740022EDE74B6828405B1CE8
:100910004B60022108436074E5E70000EC390020D9
:100920008C3000207CB50D46072903D0082D01D05E
:1009300007207CBD002602F0CBFA040003D06068DB
:10094000002802D01BE005207CBD217C0E4800F071
:1009500029FB024600200090019068468570002A1D
:100960000FD02946E36800F050F9684602F09EFA7D
:10097000211D684600F029F90646092801D03046B5
:100980007CBD03207CBD0000EC39002001490968D2
:10099000084700004832020070B588B01748FDF7DC
:1009A000C3F9002802D0032008B070BDFDF7FAF8A3
:1009B000002801D08620F7E700F0EAF90020104C6B
:1009C0000290E61F03900DE0694604A8FDF770F958
:1009D00000988088801B85B204A8FDF727F9284677
:1009E00000F08AF902AA04A92046FDF746F900287A
:1009F000EAD00449012008700020D5E7F5D90100AC
:100A000007C000008030002010B500F09FF910BD35
:100A100010B500F0A3F910BD70B5054603208003A2
:100A200086B014460E46281880B20F4A6946FDF774
:100A300024F9002805D103A96846FDF739F90028F3
:100A400002D0002006B070BDA570039840882080B9
:100A50000498606003988088FDF7C9F93080684683
:100A6000FDF7E4F80120EDE7843000200248002182
:100A7000416081607047000080300020F0B587B091
:100A80001D46144607460E46FF280CD8084600F0BF
:100A900019F9002807D003AA3146384600F0FAF8C1
:100AA000002809D102E0072007B0F0BD01A903A882
:100AB000FDF7FEF8002801D00520F5E7A6700198A3
:100AC000002D408820800AD082002868904204D8F7
