:020000040001F9
:10B000000845002075B101008FB1010041B1010078
:10B010000000000000000000000000000000000030
:10B02000000000000000000000000000D5B001009A
:10B03000000000000000000001B1010097B1010014
:10B0400079B4010099B1010025B6010099B1010060
:10B0500099B1010000000000E1B2010099B10100C6
:10B0600099B1010099B1010099B1010099B10100B4
:10B0700099B1010099B1010099B1010099B10100A4
:10B0800099B10100CDB4010099B1010099B101005D
:10B0900099B1010099B1010049B5010099B10100D0
:10B0A00099B1010099B1010000000000000000000A
:10B0B0000000000000000000000000000000000090
:10B0C0000348854600F0CEF8004800472DF2010005
:10B0D000084500200848006880F30888174B196865
:10B0E0000868203080F30988022080F314883FBC70
:10B0F000AE4662B600BD000000B0010000000000D6
:10B10000EFF309800D4B1A6820381060F0C04446F8
:10B110004D4656465F46F0C008B507F003FE0CBC2E
:10B12000116808681030F0C8A046A946B246BB4670
:10B1300080F309882038F0C8184700005C20002000
:10B140000848704502D1EFF3098009E0EFF3088069
:10B150000549064A884201D8904201D88D46002010
:10B16000034B1847FDFFFFFF08450020083D002066
:10B1700059B401000321094802680A4302600848E3
:10B1800002680A4302600748804707480047FEE715
:10B19000FEE7FEE7FEE7FEE7FEE7000024050040CD
:10B1A0005405004085B50100C1B0010030B50B4623
:10B1B000014600202022012409E00D46D5409D4291
:10B1C00005D31D469540491B254695404019154617
:10B1D000521E002DF1DC30BD10B5431A934209D246
:10B1E0008318881803E0401E01785B1E1970521EF8
:10B1F000F9D210BD03460B439B0703D009E008C9F1
:10B20000121F08C0042AFAD203E00B780370401C16
:10B21000491C521EF9D210BDD2B201E00270401C8E
:10B22000491EFBD270470022F6E710B513460A46C6
:10B2300004461946FFF7F0FF204610BD421C017876
:10B24000401C0029FBD1801A704730B5044600200D
:10B25000034600E05B1C934203D2E05CCD5C401BE4
:10B26000F8D030BD064C0125064E05E0E36807CC5A
:10B270002B430C3C98471034B442F7D3FFF724FF1C
:10B280004C3D02006C3D020070B58C180578401CE6
:10B290006B075B0F01D10378401C2A1106D102789D
:10B2A000401C03E006780E70401C491C5B1EF9D15F
:10B2B0002B0705D40023521E0DD40B70491CFAE74E
:10B2C0000378401CCB1A921C03E01D780D70491CBA
:10B2D0005B1C521EF9D5A142D8D3002070BD0000DE
:10B2E000F0B50024FF268BB00136012527460694D1
:10B2F000304604F03DFB002807D0544840682842FF
:10B3000003D0304604F02CFB2C43361D6D007F1C0F
:10B31000B6B2042FECD3FF257D35284604F028FB78
:10B32000002809D0284604F01BFB6807044306AA3E
:10B330000121002004F000FB454D200714D0012717
:10B34000002627420CD04348B20011180869096949
:10B35000C004C00E8903AA58890F002A00D0904764
:10B360007F00761C042EECD3002C6DDA00200890B0
:10B37000401E63E0281940300778B906890E009115
:10B3800000214156491C49D009A9009804F062F8EF
:10B39000002843D0B8090190009802F04BF88000D3
:10B3A0002F580198002F02D0032802D00DE0032867
:10B3B00034D1009808ABC20841079446985C490F05
:10B3C00001228A40104362469854009805210907DB
:10B3D00080004018072109024018006806A9800370
:10B3E000800F0290009804F035F80028029802D0EF
:10B3F000022802D012E0032810D10198032808D1B6
:10B40000029802281ED00221009804F078FA761CD7
:10B41000F6B2002F02D001990098B847641C042CA2
:10B42000A8D3002E10D06A460121002004F084FA2F
:10B4300006990098884207D006900898002634465E
:10B44000099097E70321DFE70BB0F0BD00630040F0
:10B45000003B00200065004000F000F8BFF34F8F74
:10B4600004490348C860BFF34F8F00BFFDE70000E9
:10B470000400FA0500ED00E0F8B5FF20013003F00C
:10B48000F1FF002401250E4E0E4F002807D00E4874
:10B4900004600120B0607D70002002F059F8FF20A8
:10B4A000053003F0DFFF002808D00748001D0460C6
:10B4B0000220B060BD70012002F04AF8F8BD000023
:10B4C00000030040EC3A00200001004038B5194963
:10B4D0008A1500208850FF2241328850009068462B
:10B4E00006F03AFA01460C0008D013A000F0A4F8C8
:10B4F000642003F0F3FF204600F07EFB009C08F080
:10B5000049FA002804D001200E490007486040BFD6
:10B5100068460094007806F077FA01460C0008D0DF
:10B5200005A000F089F8642003F0D8FF204600F061
:10B5300063FB38BD0010014065727220636F646563
:10B540002025640000ED00E010B50A48406800289E
:10B550000DD0804701460C0008D007A000F06CF821
:10B56000642003F0EFFF204600F046FB10BD03F01F
:10B57000ABFB10BDDC21002065727220636F646537
:10B580002025640010B503F0EDFB002805D01F490D
:10B590001D484860C8131E4988611E48018CC9B205
:10B5A00001290BD1828C120708D1028D1206120FCD
:10B5B000042A03D1828D1206120F0AD0012921D14B
:10B5C000818C09071ED1018D0906090F0A2904D0B3
:10B5D00007E0114A01219160F5E7828D1206120FF2
:10B5E00005D00D290ED1808D0006000F0AD10B4821
:10B5F0000168012904D00A49016001680129FCD1D0
:10B60000C021416110BD0000DFFF07C00005004000
:10B61000006C0040C00F00F00006004000EC064047
:10B620007593000010B50249024807F03CF910BDBF
:10B63000483B0020002000400FB410B503A9044B84
:10B64000044A029800F032F810BC08BC04B0184755
:10B65000DDDD0100F421002030B47446641E25783D
:10B66000641CAB4200D21D46635D5B00E31830BC36
:10B67000184702E008C8121F08C1002AFAD1704713
:10B680007047002001E001C1121F002AFBD1704762
:10B69000202804DA012181400348014201D0012021
:10B6A0007047002070470000FC06FFBCFFB58DB05E
:10B6B0000446002506E025280AD0109A0F999047E5
:10B6C000641C6D1C20780028F5D1284611B0F0BD0F
:10B6D00000270121484A009700E00743641C2378B3
:10B6E0000846203B98401042F7D120782E2817D1E9
:10B6F000042007436078641C2A280CD10E98641C2F
:10B7000002C800910E900BE000990A225143303993
:10B710004018641C00902078014630390929F3D97B
:10B7200020780028D1D0642808D0692806D0752850
:10B730001ED0109A0F9990476D1C5BE00A200E995D
:10B74000019001C90E91002802DA40422D2102E049
:10B75000390504D52B216A461172012103E0F9074E
:10B7600004D02021F7E70BAE0B910DE00021FAE7A2
:10B770000A200E99019001C90E91F7E70199FFF790
:10B7800015FD3031761E31700028F7D103A8801BDB
:10B7900020300190780701D5009801E00120009049
:10B7A0000199884201DD401A00E000200027009046
:10B7B00006E002A8109AC05D0F9990476D1C7F1C8F
:10B7C0000B988742F5DB04E0109A30200F999047E0
:10B7D0006D1C0099481E00900029F5DC05E03078CA
:10B7E000109A761C0F9990476D1C0199481E019084
:10B7F0000029F4DC641C65E70928010010B5002865
:10B800000CD000290AD002780B789A4206D1062281
:10B81000401C491CFFF719FD002801D0002010BD75
:10B82000012010BDF7B584B00646002517881580A5
:10B8300020300290407B1446002806D03A4621462C
:10B84000059801F009F8050009D1B078002823D047
:10B85000059886462088001DB84202D90C2007B002
:10B86000F0BD684679DF0028F9D1218803207246AF
:10B87000505420881921401C80B220801154208807
:10B880007146401C80B2208041186846008807F04D
:10B890009EF8218840182080F078002817D0218851
:10B8A00003230A46F356C91C0598B942D6D802218B
:10B8B000815421880122491C89B221804254218867
:10B8C000491C89B2218043542088401C2080706824
:10B8D000002817D021880023C3560A46C91C0598A2
:10B8E000B942BBD80221815421880A22491C89B25D
:10B8F000218042542188491C89B2218043542088E8
:10B90000401C2080308900280AD0009430460197DE
:10B91000062202210830059B07F0C0F805009ED1E1
:10B92000308A00280AD0009430460197072203216C
:10B930001030059B07F0B2F8050090D1308B00283D
:10B940000AD0009430460197152214211830059B27
:10B9500007F0A4F8050082D1306A002806D03B46E3
:10B960002246059901F008FE0500D8D1706A00282A
:10B9700006D03B462246059903F0A0FC0500CED137
:10B980000298007B002807D03B46224630460599A6
:10B9900006F0CAFA0500C2D13078002807D03B462D
:10B9A00022463046059903F0BDFC0500B7D1284674
:10B9B00055E70000174A0021535C002B01D00122FB
:10B9C00003E0491C0629F7D300221349012806D0B9
:10B9D00002280BD0032810D0042818D112E0487890
:10B9E000002803D0002A01D0012070478878002861
:10B9F00003D0002A01D002207047C878002801D067
:10BA0000032070470879002801D0042070470020E7
:10BA100070470000C5200020A434002010B501228A
:10BA20000221002001F056FB002801D0072824D174
:10BA300007220221012001F04DFB002801D0072838
:10BA40001BD100210A22084601F044FB002801D046
:10BA5000072812D100221146022001F03BFB0028EA
:10BA600001D0072809D100221146032001F032FB42
:10BA7000002801D0072800D1002010BD10B598B0D3
:10BA80003C2101A8FFF7CFFB022168460171012488
:10BA900084710621C1710321818211480690202101
:10BAA00010A8FFF7C0FB10A8C470FF202D30149021
:10BAB000B42015900020014600900A4B10AA01A85E
:10BAC00000F038FB01460C0008D00748FFF7B4FD32
:10BAD000642003F0CFFC204600F08EF818B010BDB3
:10BAE00024200020A1F9010064090200F0B50F46EE
:10BAF0008DB0002116466D460F24621A825C6A548E
:10BB0000491C1029F9D328460D211030FFF78BFB73
:10BB10000020221A395C5219401C11740328F8D3F2
:10BB200068464DDF0020211A491920310978315427
:10BB3000401C0328F7D30DB0F0BD10B5022001F072
:10BB400079F910BD70B50024064D06E06968E00083
:10BB5000085C012103F0BAFD641C28788442F5D307
:10BB6000002070BD9C210020F8B515460C46064605
:10BB7000052A01D20720F8BD03F080FE002803D17A
:10BB800003F04EFE0028F6D1104900204E600C70E4
:10BB9000C8608D6008610E4D0DE0E0006968801995
:10BBA000009181786A46517000780A4A694603F02C
:10BBB000D9FD0028DFD12046641EE4B20028ECD174
:10BBC000054A0021024800F02FF8F8BD9C21002012
:10BBD000303D020021E501005DD70100BFF34F8F2A
:10BBE00004490348C860BFF34F8F00BFFDE7000062
:10BBF0000400FA0500ED00E00EB50021029000916E
:10BC00006A4601910148FFF7E9FF0EBD01400000BF
:10BC100010B505F0EFFB017B002903D001688268B5
:10BC20000846904710BD000038B500250468002A7A
:10BC300005D0002803D0207B002805D101E0072093
:10BC400038BD6068002801D0082038BD0020206081
:10BC5000A060E06000290ED00120A2600849009198
:10BC600002467D212346C90006A007F08DFF6060D3
:10BC7000002802D002E00020EFE70E25284638BD5C
:10BC800011BC0100200000000249401C0860002097
:10BC900070470000B0210020FEB5044646682F48DA
:10BCA000154680682E4A401C1268514342088A1883
:10BCB00001461046FFF77AFA0746002E09D0207B8E
:10BCC000002808D0304607F0C3FF002803D000202A
:10BCD000FEBD0820FEBDEFF305802560002822D0C0
:10BCE0000025019501AB3A4609213046009507F041
:10BCF00089FF01282CD107F047FE024601AB06213F
:10BD00003046009507F07EFF012821D101980028D8
:10BD100020D0012013490007486040BFBFF34F8F78
:10BD2000BFF36F8F16E0022500233A460421304608
:10BD3000009507F067FF01280AD107F01FFE0246B1
:10BD4000002301213046009507F05CFF012801D057
:10BD50000420FEBD01202073B9E70000001501405A
:10BD6000B021002000ED00E07CB5416800240546CC
:10BD700000290DD0EFF30581002918D0019401AB03
:10BD800000220821009407F03DFF012818D101E0AE
:10BD900008207CBD0198002814D001200B49000721
:10BDA000486040BFBFF34F8FBFF36F8F0AE002219F
:10BDB000002300911A46032107F024FF012801D037
:10BDC00004207CBD2C7300207CBD000000ED00E051
:10BDD00030B5EFF3108172B6094A54680123002C84
:10BDE00004D00370002900D162B630BD5360054B0A
:10BDF0001D68054C254015601C6000220270F1E7AB
:10BE0000B821002080E100E0FC06FFBC08494A6838
:10BE1000002A0CD000280AD1EFF3108072B60A680D
:10BE2000044B1A6000224A60002800D162B67047B5
:10BE3000B821002000E100E038B507F09FFD0225A1
:10BE40001B4C0246009500230121A06807F0DAFE92
:10BE5000012802D00420FFF7CFFE07F08FFD024635
:10BE6000009500230121E06807F0CCFE012802D0F4
:10BE70000420FFF7C1FE07F081FD02460095002374
:10BE80000121206907F0BEFE012802D00420FFF73F
:10BE9000B3FE07F073FD024600950023012160699F
:10BEA00007F0B0FE012802D00420FFF7A5FE38BD40
:10BEB000E81F0020F0B504468BB0008800F068FC55
:10BEC0000590208802F06EFE0646A0680090657A14
:10BED000684605741E4F20880022397800F0A8FCBF
:10BEE0000598002831D06079400710D507213046E9
:10BEF00004F024F9002813D0082269460A74228825
:10BF00004A828E82069004A801F008FD08E020888D
:10BF1000B97800F07BFC002802D0304602F02CFEFD
:10BF20000321684601712188C18060794007C10FF3
:10BF300068460172A0794007C10F684641720178D6
:10BF40008172C57201A801F0E9FC0BB0F0BD0000E0
:10BF500038210020F0B50546007D002493B00E4640
:10BF600000280DD00120014668461031039401736A
:10BF7000717B4173817BF92001406846891C817384
:10BF80001C2104A8FFF74FF96946087C02210843E9
:10BF9000694608742A7DEF21002A02D0102210433E
:10BFA00000E008406A461074059407940894287DC0
:10BFB000002800D003A8099001270A941046977121
:10BFC000304A82800094B27B0270F27B42708078AB
:10BFD000F9221040F722801C1040EF210840410850
:10BFE000490068468170317B017214210BA8FFF76C
:10BFF0001AF901A80B9068460C908786C4860787BB
:10C0000002A80F90A888AB1D0BAA04A9A2DF0028E4
:10C0100035D1B068002830D0684687711A498180D0
:10C020000094317C017000200146684641708078A0
:10C03000F9210840F721801C0840EF210840410801
:10C0400049006846817011A8B16800F0BFFD06463E
:10C0500014210BA8FFF7E7F801A80B9068460C9095
:10C060008686C486068711A80F902A46E8880E3275
:10C070000BA9A3DF002802D100E0EC81002013B05F
:10C08000F0BD0000192A00000829000010B50B4976
:10C090000B4805F0A1FEC1B20848683800F0DEF98F
:10C0A000002809D0082807D00649884204D006494C
:10C0B000884201D0FFF7A0FD10BD00003023002012
:10C0C0000C2000200430000001340000F0B50C46C4
:10C0D00093B01F216A46118007260027918000280F
:10C0E00009D0C17849070DD502A9FFF79BFB0028AD
:10C0F00009D102AD01E000251780002C0ED0E078B8
:10C10000002802D0304613B0F0BD01AA0AA920468B
:10C11000FFF788FB0028F6D10AAA02E06846002251
:10C12000878068468088C3B268460088C1B22846C6
:10C1300072DFE8E7FFB581B01E460A9F1346040090
:10C1400047D0002B45D0504D012028700020E870CA
:10C15000202219464D48FFF73FF800206F61C04389
:10C160002E612881284607211830FFF75CF84748E0
:10C170003C212030FFF757F84448217820300170E7
:10C18000A1788170E178C170617841703F4A65693A
:10C1900023695563114613632031E368A268CB60BD
:10C1A0008A603A49E369A269CB638A63616A0029BC
:10C1B0001AD001463C310246483241628A60636AC5
:10C1C0001B880B80616A436A898899800021436AD1
:10C1D00007E00E2005B0F0BD656AAD686D5C555492
:10C1E000491C9D888D42F7D8A16A00291CD0274A96
:10C1F000943211460C398A608162A36A9B888B80D5
:10C20000A16A836A098819800021836A04E0A56A0B
:10C21000AD686D5C5554491C9D888D42F7D82C2122
:10C220000A5D1A4940310A73216A002909D016496A
:10C230000A310162226A52884A80216A026A0988A8
:10C2400011806168002900D04160104A0E49002029
:10C25000B3322031C3001B1A85009B180C68401CA8
:10C2600063510828F6DB094A0020EB320301850000
:10C270009B188C68401C63510828F7DB034802991F
:10C280002030FFF723FFA5E7AC200020A4340020D6
:10C2900010B50188134C102915D0112919D01B296C
:10C2A00010D1007A00280DD1E0780521401CFEF75E
:10C2B0007DFF084600F04EF8002803D06169002990
:10C2C00000D0884710BD817D0129FBD18088208165
:10C2D00010BD00216171808821898842F8D1012038
:10C2E000E8E70000AC20002010B5022801D00328A8
:10C2F0000ED1084C607800280AD000206070E078E9
:10C3000000F028F8002803D06169002900D0884790
:10C3100010BD0000AC20002010B574DF0B4C0120D4
:10C3200060710B490620C87000210948FFF7CEFE56
:10C33000002809D1E07800F00DF8002803D06169E9
:10C34000002900D08847002010BD0000AC2000204C
:10C35000C4340020F1B53F4C88B0207800280AD0C2
:10C360000898E07006A801F0DDFD06980125002878
:10C3700004D065706AE0082009B0F0BD3548002798
:10C3800007211830FEF74FFF334E7078002802D097
:10C39000E078012807D0B07800280CD0E078012898
:10C3A00001D0022807D12169002903D02571082076
:10C3B000884700E027710898FFF7FCFAE0702169D0
:10C3C000002909D0032801D0042805D1307800289D
:10C3D00002D06079002811D0A77118216846FEF7B5
:10C3E00022FF684607700772E1781A480B00183080
:10C3F000FFF732F9052E080F191D2000A57107203F
:10C400008847EAE7A5700190684605704782078271
:10C4100013E00221A170019068460570B189418244
:10C420003189018209E0684605F05CFE02E0684659
:10C4300005F084FEE078002803D0684673DF00280A
:10C440009AD12169002901D0A0788847002093E77C
:10C45000A770F6E7AC200020A434002073B586B0A6
:10C4600004002FD06A46217C127F0020914227D001
:10C4700000250126684600950680458007A80190A2
:10C48000E188608A6A46A4DF002819D16846007FE7
:10C490002074608A0D49884216D0207D002813D070
:10C4A0000295039504950595E18868460181867299
:10C4B00041888181049001980590608A02A9A6DFD5
:10C4C00008B070BD0E20FBE70820F9E7FFFF000071
:10C4D00038B50D4604001AD0002D18D02868206009
:10C4E0000020C043608228792075FF20207401213C
:10C4F0006846817007490180221D69460120A0DF3E
:10C50000002803D129462046FFF724FD38BD0E2020
:10C5100038BD00000F18000038B5002824D00029CD
:10C5200022D00A88102A1AD0112A1AD0502A1BD1D8
:10C530000446007D002817D0C8886289891D904272
:10C5400012D1488902280FD1206800280CD0084653
:10C550000C3000F034FB002807D0002006E089886A
:10C5600001E00021C943418238BD012069460870BD
:10C5700022682046904738BD70B5054601461C220A
:10C580000E48FEF729FE0E4C002626702968002969
:10C5900006D00822201DFEF71FFE201D7ADF02E0D4
:10C5A0000748001D7BDF002807D1401E60806670B1
:10C5B000044A00210448FFF737FB70BD70360020A5
:10C5C000DC200020212A0200A83C0200F8B5214C02
:10C5D0000146028800261E48E589102A13D01E4F06
:10C5E000112A1FD0122A2BD0502A1AD1881DC9888F
:10C5F000A94216D14189022913D10C3000F0DFFA8B
:10C6000000280CD112E08A88044642801048082293
:10C610000C301831FEF7E0FD6670002D01D100F0FE
:10C62000F3FFF8BD0021C943418046703868FFF729
:10C630009BFB0028F5D0A1690029F2D08847F8BDFE
:10C64000034808220C300831FEF7C6FDE7E700007A
:10C65000DC20002070360020A83C020010B5034901
:10C660000A7D091D05F03BFA10BD00008C36002044
:10C67000034B10B50246D97D181D05F01DFA10BDFB
:10C680008C360020034B10B50246197E181D05F0AC
:10C6900013FA10BD8C360020F0B5044602883A48E3
:10C6A0008DB0014615310191102A09D0112A50D0C0
:10C6B0001A2A4AD1217A090901294ED901234DE0CC
:10C6C000027D417D05468A43011D07A805F007FA52
:10C6D000142207A902A8FEF77FFD00262A48374644
:10C6E000143008900AE0710002A8081883881D22FF
:10C6F0000097281D089905F09FF9761C0298B04212
:10C70000F1D8287DA688C043C0B205F0B9F91F4909
:10C71000884217D040004019868001233246281DE8
:10C72000019905F0FFF901233246281D089905F00B
:10C73000F9F9A07D02280AD000231349A2881631F6
:10C74000281D1DE00420FFF757FA0DB0F0BD0123AE
:10C75000F3E70023A288001D12E000230A490546E2
:10C76000A2881731001D05F0DDF9207A00090228A2
:10C7700001D9012300E000230349A2881831281DB4
:10C7800005F0D0F9E1E700008C360020FFFF000043
:10C7900070B50B4E05460024317D2A46301D05F04C
:10C7A0008BF9002809D0B17D2A46301D05F084F9A7
:10C7B000002801D0022400E00124204670BD0000C2
:10C7C0008C36002010B50024204606F05BF90028C6
:10C7D00005D0641CE4B2182CF6D3182010BD044810
:10C7E00001220168A24011430160204610BD0000F3
:10C7F0008C36002010B5044606F044F9002802D01B
:10C8000001480019407E10BD8C36002070B50546E9
:10C810000C46084606F036F9002806D003482A469A
:10C820000119497E001D05F047F970BD8C360020C6
:10C8300070B5064615460C46084606F023F9002852
:10C8400007D004482B4601193246001D193105F066
:10C8500069F970BD8C3600207CB5054608880C4609
:10C860000930904201D90C207CBD684671DF002858
:10C87000FAD121880820685420881B21401C80B2EE
:10C8800020802954208800A9401C80B220804019B3
:10C8900006220131FEF7A0FC20886946801D80B287
:10C8A00020800978002900D0012129542088401CCB
:10C8B000208000207CBD00007FB504460121684631
:10C8C00081714A4981804A4A01A90120A0DF0028DC
:10C8D0007ED1228825463C35002A09D044482B4683
:10C8E000801C00904348616800F0ACFD00287BD1BB
:10C8F0002289002A0AD03E482B460A3000903D4843
:10C90000E168401F00F09EFD00286DD1228A002AB8
:10C910000AD037482B461230009036486169001F14
:10C9200000F090FD00285FD1228B002A0AD0304809
:10C930002B461A3000902F48E169801E00F082FDDE
:10C94000002851D1228C002A0AD029482B462230B7
:10C9500000902848616AC01E00F074FD002843D191
:10C96000228D002A0AD022482B462A3000902148E6
:10C97000E16A401E00F066FD002835D1216B0029D8
:10C980000ED002A805F0E4FE19482B463230009084
:10C990001848082202A9801F00F054FD002823D166
:10C9A000606B00280BD012492B463A310091027976
:10C9B00001681048401C00F045FD002814D1A16B0F
:10C9C000002910D002A804F079FA0948423000E0AA
:10C9D0000AE0009007482B46072202A9273000F002
:10C9E00031FD002800D1002004B070BD0A180000FD
:10C9F00052210020292A000010B50446FFF74CFE02
:10CA0000204604F0B7F821460A4800F071F80948BA
:10CA100021461838FFF780FD2046FFF7D7FD204656
:10CA200000F0A4FA204602F0D9FF2046FFF730FCC0
:10CA300010BD0000E022002030B50446008C134AEF
:10CA40008BB090421FD006AA204601F00FFF694626
:10CA500005460880002001900290039004902289EE
:10CA60008A8001228A71088106A803910490208C93
:10CA700001A9A6DF002804D169460988A94200D08F
:10CA80000C200BB030BD0820FBE70000FFFF0000CA
:10CA900038B5044608682060087960710020C043FA
:10CAA0000D462084002122200155204640308181FE
:10CAB000142181730121684681700C490180A21DF7
:10CAC00069460120A0DF00280FD12946204601F049
:10CAD00075FE002809D1A868002805D029462046FF
:10CAE00000F04EF9002800D1002038BD0D180000DC
:10CAF00038B502460888102816D0112816D05028BC
:10CB000017D1881DC9889389994212D14189144649
:10CB100002290ED1216800290BD00C3000F04FF80B
:10CB2000002807D0002006E0888801E00020C043EC
:10CB3000108438BD0120694608702268204690475D
:10CB400038BD70B5054604464035A8890E46142800
:10CB500007D12622A118881EFEF73EFBA889401E99
:10CB6000A88180B241000919401CA8818E8470BD43
:10CB7000203081707047000008B5002000900948FF
:10CB80006946806906F0EFFD0098002808D0012072
:10CB900005490007486040BFBFF34F8FBFF36F8F59
:10CBA000002008BDE81F002000ED00E070B504463D
:10CBB0000D460846FEF742FB2080656070BD417857
:10CBC000027808021043C007C00F70470A7802704D
:10CBD000497841700220704710B52B4886B0006834
:10CBE00005902A4B48222A4905A805F06DFD01460B
:10CBF0000C0008D027A0FEF71FFD642002F03AFCCD
:10CC00002046FEF7F9FF6A460121002005F044FDA9
:10CC100001460C0008D01FA0FEF70EFD642002F0B4
:10CC200029FC2046FEF7E8FF684605F02BFD01468B
:10CC30000C0008D017A0FEF7FFFC642002F01AFCDD
:10CC40002046FEF7D9FF164805F012FD01460C00FC
:10CC500008D010A0FEF7F0FC642002F00BFC204688
:10CC6000FEF7CAFF0F4805F061FD01460C0008D031
:10CC700008A0FEF7E1FC642002F0FCFB2046FEF772
:10CC8000BBFF06B010BD00006C3C020079CB010078
:10CC90008022002065727220636F64652025640025
:10CCA000F9C901004127020088B005F079FD684606
:10CCB00000F05CFBFFF790FF6946087803F018FD71
:10CCC00001F0B2F9FEF7DAFE05F076F905F02EF87C
:10CCD0001C2101A8FEF7A7FA1F4902911F49002055
:10CCE00003910190032269460A741D498A896946A5
:10CCF0004A8208751B4806901B48079001A8FFF759
:10CD00003BFC01460C0008D01848FEF795FC642057
:10CD100002F0B0FB2046FEF76FFFFFF78DF803200F
:10CD2000FFF718FB01460C0008D011A0FEF784FCA9
:10CD3000642002F09FFB2046FEF75EFF00240F4DAB
:10CD4000E443002322461946A86906F0B4FB0028F4
:10CD5000F7D001F0B9FFF4E7881300003075000048
:10CD6000E0220020A9FA010001D6010064090200B6
:10CD700065727220636F646520256400E81F0020DF
:10CD8000F0B58FB00D4606461C216846FEF74BFAFB
:10CD9000684601780220014368460170002401942E
:10CDA000039404940594012708A8069487701549F4
:10CDB000684601840794E97B0177297C4177807F6D
:10CDC000F9210840F721801C0840EF210840410864
:10CDD000490068468177142109A8FEF724FA08A8BB
:10CDE000099007A80A9068468785C4850786A868C1
:10CDF0000D903346F088103309AA6946A2DF0FB0C0
:10CE0000F0BD0000382A00000149085C70470000AE
:10CE1000743C02000549095C05480069C840C00728
:10CE2000C00F00D00120012148407047743C02002F
:10CE30000005005005490B5C05494A6801209840EF
:10CE4000034693438B601040C8607047703C0200FB
:10CE50000005005010B50349085C012102F060FD97
:10CE600010BD0000703C020010B50349085C0021B1
:10CE700002F056FD10BD0000703C02000549095C3F
:10CE800005484068C840C007C00F00D001200121FC
:10CE900048407047703C0200000500507CB50024FB
:10CEA000074E2546305D012200950023114601956D
:10CEB00002F0ECFC641C042CF4D300F003F87CBDFD
:10CEC000703C020010B500242046FFF7C3FF641C2D
:10CED000042CF9D310BD10B500242046FFF7C4FF81
:10CEE000641C042CF9D310BD0246002010B5C043C9
:10CEF000054B00215C5C944201D1084610BD491CE1
:10CF00000429F7D310BD0000743C020070B5104E28
:10CF100000250C46306000290DD0012000F0A6F855
:10CF2000002801D0022005E0002000F09FF8002832
:10CF300000D00B202070217806A0FEF77DFB7068E2
:10CF4000002802D1FEF76AFD0546284670BD0000A4
:10CF5000442000200D0A705F737461727475705FF5
:10CF60006273705F657674202564000010B5104C04
:10CF70000188606810290DD011290AD1401E606017
:10CF800007D1FEF74BFD002803D02168002900D00F
:10CF9000884710BD002807D100F06AFB002803D0A5
:10CFA0002168002900D088476068401C606010BD7F
:10CFB0004420002010B5002000F0CAF9002801D05C
:10CFC000062807D1012000F0C3F9002801D0062867
:10CFD00000D1002010BD0000F3B581B00D460198CE
:10CFE000FFF782FF0446042813D21D481D4F1E4E32
:10CFF000002D27D0012D0DD0022D0AD16000201860
:10D00000C0194578002D04D0F168002901D02846C8
:10D010008847FEBD610061187D5CCF1979780029D1
:10D020000BD071680A2251430F4A8068921CFEF7A8
:10D0300033FE002801D10198B0700B48B978103048
:10D040000155DFE78068FEF78FFE07486100611831
:10D050001030C919005D8D78A842D3D0FEBD000004
:10D06000783C0200A02300203020002010B5FFF7FC
:10D07000D1FE10BD10B5014611480429408806D0E4
:10D08000072913D00A2901D105F082F810BD132118
:10D0900076DF10E00400F9D00AA0FEF7CDFA642094
:10D0A00002F0E8F92046FEF7A7FD10BD08498842C6
:10D0B000FBD1FFF731F901460828EBD110BD000084
:10D0C000E81F002065727220636F6465202564008C
:10D0D000FFFF000070B50023042811D2440004199A
:10D0E0000D4D012A02D101290DD0002246008019E0
:10D0F000094E801900290CD0012906D0022906D03A
:10D100000723184670BD0E30C2B22A55F9E74270A7
:10D11000F7E78270F5E70000A023002010B5054A6C
:10D120000146127A0020D20702D0084600F050F8DB
:10D1300010BD000030200020F8B506461F4800242E
:10D140008660C26041600F46B00720D500250122ED
:10D1500011462846FFF7BEFF6D1C0446042D02D27F
:10D16000002CF4D013E0002C11D17A0804211448CB
:10D17000FEF7FAFC04000AD1FEF7E4FC040006D135
:10D180000F48104A0021001FFEF74EFD0446F0072D
:10D1900001D0FFF783FE002C0ED109480A4A002176
:10D1A0000C38FEF741FD040006D10548074A01216D
:10D1B0000838FEF739FD04462046F8BD302000202F
:10D1C000843C020061D30100E5ED01003BBB01009E
:10D1D000F8B55D4C054660780026002803D0002095
:10D1E0006070FFF76FFE0120584F2B00FEF734FAF6
:10D1F00018970D0D2E3D4A5F64686F686FA97777A9
:10D20000777777979A9DA0A9A9950020FFF736FE1A
:10D2100000280AD00020FFF71DFE022D02D1E120D8
:10D22000C0000BE07D20400108E00020FFF71CFE5D
:10D23000022D01D1C82001E0FF209130257064212A
:10D24000FDF7B4FF6168414300222BE00020FFF7A7
:10D2500015FE002805D00020FFF7FCFD1920400135
:10D26000ECE70020FFF700FEE4E70020FFF706FEF2
:10D27000002803D00020FFF7EDFDD3E70020FFF7E3
:10D28000F3FDD9E70020FFF7F9FD002803D00020C7
:10D29000FFF7E0FD02E00020FFF7E6FD2570606883
:10D2A000410000223868FEF7F7FC064635E0002012
:10D2B000FFF7C0FD257007E000203FE025702CE05F
:10D2C00060700120FFF7B6FD00226168EAE7607038
:10D2D0000120FFF7AFFD606881004118E1E7786841
:10D2E000FEF742FD06461120401B01D0002E03D060
:10D2F0000220FFF7AFFD10E001280BD9C8214843F9
:10D300006421FDF753FF6168002241437868FEF70E
:10D31000C3FC06460220FFF7A7FD3046F8BDFFF725
:10D32000D1FDCBE7FFF7CEFDC6E7FFF7CBFD04E06D
:10D33000FFF7C8FD0020FFF797FD0120FFF794FDE0
:10D34000BCE7FFF7C8FDB9E730200020783C0200B9
:10D3500010B5FFF759FD032102F0C0FA002010BDFF
:10D3600010B500780221FFF737FE10BD38B505462D
:10D37000144A15490320FFF7DFFE01460C0008D0D0
:10D380001248FEF759F9642002F074F82046FEF7BF
:10D3900033FC69460020FFF7B9FD01460C0008D0B8
:10D3A0000A48FEF749F9642002F064F82046FEF7C7
:10D3B00023FC68460078022802D00020287038BD7F
:10D3C0000120FBE775D00100CD0C000064090200CC
:10D3D0000022D243830004490428CA5002D308180B
:10D3E0002030027770470000003B0020F0B5002598
:10D3F000ED43002A02D00023042601E0042308267E
:10D400000B4C04E09F00E7597F1C04D05B1CB34227
:10D41000F8D32846F0BD26185DB2203635709E0040
:10D42000A151002AF5D1E11820310877F1E7000079
:10D43000003B0020024909182020085670470000D0
:10D44000003B0020FFB58FB01E4615460F0002D1ED
:10D450000020FEF7D1FB002D02D10020FEF7CCFB0F
:10D460001C216846FDF7DFFE684601780220014373
:10D4700068460170002401940394049405940121EA
:10D4800008A80694817068460F9901840794317842
:10D49000017771784177807FF9210840F721801C5E
:10D4A0000840EF210840410849006846817714216F
:10D4B00009A8FDF7B8FE08A8099007A80A906846D1
:10D4C0008585C485058604480D9709AA69460088A4
:10D4D000189BA2DF13B0F0BD52210020002807D016
:10D4E0000449814204D80449814201D9012070478E
:10D4F00000207047F821002008220020044A01681B
:10D50000914201D0083101E001493839016070478A
:10D51000603C002070B50D4D04460A462846AC42DA
:10D5200008D1FF2401342146104603F0E1FAA0425D
:10D530000AD070BDFF2CFCD82146104603F0CAFA71
:10D54000002801D0204670BD284670BDFFFF0000B6
:10D5500070B5084C050009D010342168002907D0A7
:10D5600008682060496828468847F6E70834F4E7E9
:10D5700070BD0000EC3A0020F8B50646108814464D
:10D580008446801D0D46984201D90C20F8BD328892
:10D590000720062AFAD31927FF01184BBA4201D9EE
:10D5A0009A42F3D171880629F0D3B94201D9994240
:10D5B000ECD19A4203D0994201D08A42E6D80521A3
:10D5C0006046295420881221401C80B220802954B2
:10D5D0002088401C80B220804119308805F0F7F97E
:10D5E0002188401880B220804119708805F0EFF939
:10D5F0002188401820800020F8BD0000FFFF0000B7
:10D6000010B5FEF7F9FA10BDF8B5164801F09CFB0D
:10D61000144D00260C3D144C002807D061690029E8
:10D620001CD001206A461070684616E02878002851
:10D6300005D06169002911D0684606700DE0687850
:10D6400000280DD0A168094800220068FEF724FBDD
:10D65000002803D0A169002900D088472E70F8BDAA
:10D660006168F0E7E820002070360020A83C020046
:10D6700010B5002101220846FFF72CFD002801D03B
:10D68000072824D1072202210120FFF723FD0028CB
:10D6900001D007281BD1042202210020FFF71AFD28
:10D6A000002801D0072812D1102200210220FFF704
:10D6B00011FD002801D0072809D1112200210320E3
:10D6C000FFF708FD002801D0072800D1002010BD79
:10D6D0007FB50C46002802D0012004B070BD20792F
:10D6E0000026002806D01B4D01281CD0022828D077
:10D6F0000F20F2E702960396E0680190694601A8C0
:10D7000003F0B6FF00280AD002988188E1800088E3
:10D71000208169460988029804F024F800E00A2074
:10D7200002212171D9E70C4B6A460021A01D03F0AC
:10D730005DFF002807D0084908398E60CE600A28AE
:10D74000CBD12846C9E704488188019804F00AF83B
:10D75000F5E700001D1D0000C8210020F8B50026D7
:10D760000124154D23E06968F000471838782146F8
:10D770002A698140114218D08A432A6102F046F892
:10D780003A782146EB68914019400346934099420C
:10D790000BD17978012901D0012100E000217B68BB
:10D7A0004140002B01D010469847761CF6B22878ED
:10D7B0008642D8D3F8BD00009C21002005490120F5
:10D7C0000968002901D0002070470349096A00292F
:10D7D000F9D17047403400205C2000203EB5094D4F
:10D7E00038CD0093029501946B46588099809A71C8
:10D7F000054900220978FFF71BF8684600F08EF80B
:10D800003EBD00001C3D02003821002010B5047808
:10D8100000222300FDF720FF070605070D1D262C1B
:10D8200006000A7010BD01220A7002898A8182886E
:10D8300014E002220A7002898A818288CA81C26841
:10D840008A60007C062802D00020087410BD0120E8
:10D85000FBE703220A70C2888A810289CA81C068F4
:10D86000886010BD04230B70C0888881CA8110BDF8
:10D870000520087010BD000070B5064D0646002456
:10D88000A0002958002901D030468847641C082C84
:10D89000F6D370BD903B00200EB5002910D01129A1
:10D8A0000ED00022009202926A46508001910D290A
:10D8B00007D0862907D009201070104600F03CF8E8
:10D8C0000EBD0B20F8E70A20F6E7000001490968C1
:10D8D00008470000F820002070B5054D06460024DA
:10D8E000A000295830468847641C022CF8D370BD2C
:10D8F000C43C0200F8B507460024064E064D04E07D
:10D90000A000315838468847641CE8788442F7DB29
:10D91000F8BD0000A03A00202821002070B5054D78
:10D9200006460024A000295830468847641C022C73
:10D93000F8D370BDE43C02000149096808470000C3
:10D94000283D02007FB50446406800280BD0002027
:10D95000039020780026414D0300FDF77DFE066D03
:10D960000606304E7B6D0120F2E7A08900F0DAF95F
:10D97000002804D1E08903F017FF00285CD0A089BB
:10D9800000F0CAF9014668464180E08903F006FFCD
:10D9900001466846017120780128606807D0002898
:10D9A00009D00420694608706068039020E00028D0
:10D9B000F8D00320F6E70120F4E708463AE0A08912
:10D9C00000F0B0F9002804D1E08903F0EDFE002852
:10D9D00032D0A08900F0A0F969464880E08903F0C0
:10D9E000DDFE694608716068002804D005200870D3
:10D9F000A0680290E1E70220F9E7A08900F092F91F
:10DA0000002819D0E089002816D1A08900F084F9F7
:10DA100069464880E08903F0C1FEFF20694608712D
:10DA2000606800280FD0072008706E70AE7002F09A
:10DA300061FD684602F01AFC6878002802D06E701A
:10DA400002F058FD7FBD062168460170408802F053
:10DA5000DFFDEAE7082069460870AEE714210020E0
:10DA600000B5104987B00978890702D4022007B0B1
:10DA700000BD0D49884201D10420F8E7052269461E
:10DA80000A7001220A71C88000221146684602F01D
:10DA900053F8002803D003F08DFD0020E7E70820AD
:10DAA000E5E70000C0210020FFFF000000B50F489F
:10DAB00087B00078800702D4022007B000BD06209E
:10DAC0006946087000221146684602F035F80028C1
:10DAD00009D007480178002901D00121017303F022
:10DAE00069FD0020E9E70820E7E70000C0210020E9
:10DAF000903C002010B58CB014216846FDF793FBD4
:10DB00001D480078810703D56846FFF7B5FE30E071
:10DB1000C0072ED1012000F02BF900F0ADF901244F
:10DB20006846047502F09AF80300FDF795FD0C07AE
:10DB30001107111B190A191B1317131B0B200CB00B
:10DB400010BD022000F014F9012000F0F7F8DBE727
:10DB5000002000E003206946087603E00220FAE78F
:10DB6000684604760022114605A801F0E5FF03F09F
:10DB700021FD0020E3E70000C021002038B50400AB
:10DB800014D0694603F074FD002813D0684600885D
:10DB90000101094809188889002809D0A27A002AB9
:10DBA00006D0401E88810020A07238BD052038BDF7
:10DBB000062038BD0A2038BD703C00201FB501A9E1
:10DBC000684603F013FD04B010BD07B513460A46BE
:10DBD0006946002003F00AFD0EBD07B513460A464C
:10DBE0000021684603F002FD0EBD002805D0002983
:10DBF00003D00068086000207047052070470000CF
:10DC000038B50D46040017D0002D15D0694603F035
:10DC10002FFD002812D0684600886168020108487C
:10DC200012189089401C9081296060680C306860EF
:10DC30000120A072002038BD052038BD0A2038BD63
:10DC4000703C002010B5002804D00323002205F00A
:10DC5000C1FA10BD052010BD10B50223002205F049
:10DC6000B9FA10BD10B5002A03D0022305F0B2FAAC
:10DC700010BD052010BD000010B5064A51780829D6
:10DC800006D08B00044C491CE0505170002010BDA0
:10DC90000C2010BDC0210020903B002038B5044668
:10DCA0000A480D460078800701D4022038BD002CB8
:10DCB0000AD06946284605F09DFB0028F6D1694642
:10DCC00009882180658038BD052038BDC02100202D
:10DCD00010B504460E480078800701D4022010BD1C
:10DCE000002C10D0218802290FD80A4A0801801878
:10DCF00042896088121A032A07D405F071FB0020BC
:10DD00002080608010BD052010BD042010BD0000E3
:10DD1000C0210020703C002003218903401A80B2FA
:10DD20007047000003218903401A0349884201D843
:10DD30000120704700207047FE3F000002490A782A
:10DD400082430A7070470000C021002010B50446CD
:10DD50000078182802D1FEF735FD207010BD10B5EF
:10DD600004460078182802D1FEF72CFD207010BD63
:10DD700002490A7802430A7070470000C02100205F
:10DD800070B5064600200546862906D0112902D026
:10DD9000002903D070BD012500E001200E4C002AAF
:10DDA00002460FD061793046FEF742FD2A462179BE
:10DDB0003046FEF73DFD002261783046FEF738FD23
:10DDC000002204E061783046FEF732FD2A462178D1
:10DDD0003046FEF72DFD70BD3C21002038B50446CD
:10DDE0006846047069460320ABBE204638BD00007B
:10DDF000F8B506461C481F46007815460C46C00775
:10DE00000AD03046FFF76AFB002807D0002C07D065
:10DE1000A00507D00620F8BD0120F8BD0220F8BDFE
:10DE20000320F8BD3068A04204D8A8027168001928
:10DE3000884201D90520F8BD002D10D0684603F0B6
:10DE40000BFB00280DD000980221C0C00170A10179
:10DE5000090C8180058103F0BBFB0020F8BD042084
:10DE6000F8BD0720F8BD0000D821002010B50846F5
:10DE700003F00EFB10BD0000F0B52648264C001B39
:10DE80000309264819464069421C03D101200007B6
:10DE900040698002224A12789646D2070CD00020B0
:10DEA000F0BD1D4C15012C192568002D03D06468A8
:10DEB000002C00D0491E521C9A42F2D3002420E0CC
:10DEC000E2B2002594462A460FE0134E1701BE1910
:10DED0003768002F02D07768002F05D1767BAE42DD
:10DEE00002D93546D6B2B446521C9A42EDD36246A8
:10DEF0001501094AAA185060157BAD02401B641C2D
:10DF000010608C42DCD30648714601221143017037
:10DF1000C5E7000008220020F821002000100010B2
:10DF2000D8210020002804D00349496E0160002058
:10DF30007047032070470000A03C0020F8B507465A
:10DF40001E481E46007815460C46C0070ED03846BF
:10DF5000FFF7C4FA00280BD0002D0BD0002C09D0FD
:10DF600028462043800707D00620F8BD0120F8BDD1
:10DF70000220F8BD0320F8BD3868A04204D8B100E3
:10DF800078680919884201D20520F8BD002E11D009
:10DF9000684603F061FA00280ED0009806990760E1
:10DFA000416001210172C5600461868203F010FBAB
:10DFB0000020F8BD0420F8BD0720F8BDD8210020BE
:10DFC00070B5174B0446186E182148431549C01800
:10DFD0000A78950715D5022C02D0032C1CD102E03B
:10DFE00001F080FD18E04A78521CD2B24A70032A30
:10DFF00012D900224A70082103F066FE03F016FAD7
:10E000000AE0500708D5FB2002400A70586E00282D
:10E0100002D0022002430A7003F096FA70BD00009D
:10E02000A03C0020D82100203EB51120694608728E
:10E030000A221DA102A87CDF01460C0008D01D4861
:10E04000FDF7FAFA642001F015FA2046FDF7D4FD39
:10E05000194878DF01460C0008D01648FDF7ECFAA5
:10E06000642001F007FA2046FDF7C6FD0020FF22DC
:10E0700000904132694601900A804122D2004A80D4
:10E080008880FF209130C88068467ADF01460C0006
:10E0900008D00848FDF7D0FA642001F0EBF92046DB
:10E0A000FDF7AAFD3EBD00004E6F726469635F48D4
:10E0B000524D0000640902004103000070B50028C1
:10E0C00001D0012070BD164C0025207B002801D016
:10E0D000257301E000F09CF820780300FDF7BCFAFE
:10E0E000081E05080B0E1E111A1E00F01BF870BD4D
:10E0F00000F07EF870BD00F061F870BD00F038F8F7
:10E1000070BD60880649000120394018406801F060
:10E1100085FD70BD656001F08FFD70BD0F2070BD85
:10E12000903C002070B5104900208A1C0D46034623
:10E13000203D0C18A67A002E08D0A37204016419A1
:10E14000A689002E02D1A47B012C08D0401C80B2ED
:10E150000228EED30B704B8004484B6070BD1080DA
:10E1600000F046F870BD0000903C00201D1D00002E
:10E1700010B50F4C608801012046203808188189AD
:10E1800000290BD0052020700A48022181800168F7
:10E19000002301220848FFF72BFE10BD4168002331
:10E1A00001220548FFF724FE0421217010BD000064
:10E1B000903C0020D0210020F821002038B50A49E9
:10E1C00008480B68898842688900591853880324D5
:10E1D00004700020DB1C00909BB20448FFF7AEFEE9
:10E1E00038BD0000903C0020D0210020F821002004
:10E1F00010B506494888091D03F08AFA002802D0A4
:10E20000FFF7DCFF10BDFFF7B3FF10BD903C00200F
:10E21000F0B51D481D4907780246012502268C8865
:10E22000203A3B00FDF718FA080517171A212C2C85
:10E2300016170189491C01810021418001730B01DE
:10E24000D35C002B08D000234418491C89B2A37268
:10E250000229F4D30570F0BD0123F5E74268528826
:10E26000D21CA2188A800670F0BD45880B682D016B
:10E27000AA1855680D60536014818E80062100E055
:10E2800007210170F0BD0000903C0020D02100204B
:10E29000F0B504460088384D8DB050281DD0522866
:10E2A00002D0542826D103E0A08800F02DFF21E001
:10E2B000062069460870A08800F074FC6946488012
:10E2C000A2888A8000F054F9A0880022E978FEF73D
:10E2D000AFFA6846FFF7FAFA0CE0207B012809D173
:10E2E000A07A012806D120892449884202D1A08839
:10E2F00000F046FFA878FEF77DFA002819D008A89C
:10E30000FEF7ACF9142208A903A8FCF765FF002466
:10E3100003AE0BE060008719B888A978FEF776FA9B
:10E32000002802D0B88800F0EFFE641C0398A042D9
:10E33000F0D86878FEF75EFA002819D008A8FEF732
:10E340008DF9142208A903A8FCF746FF002403AEA8
:10E350000BE060008719B8886978FEF757FA002843
:10E3600002D0B88800F00CFF641C0398A042F0D8DB
:10E3700003F040FD0DB0F0BDF020002002290000A8
:10E380003EB504464088694648802078002814D06D
:10E3900001281DD002280FD1207900280CD06088D8
:10E3A00000F034FB0E49884206D00E490122C9789C
:10E3B000FEF73EFA03F01EFD3EBD00200870084641
:10E3C000FFF784FA608800F021FB00F09DFE3EBD5F
:10E3D000012168460170A1888180FFF777FA3EBD70
:10E3E000FFFF0000F020002010B50446007801284F
:10E3F0000DD1608800F088FE608800F07FF9002869
:10E4000005D0034960880122C978FEF711FA10BDD2
:10E41000F020002010B5104C00202070FEF7D2F93B
:10E420006070FEF7CFF9A070FEF7CCF9E070FEF750
:10E43000C9F92071617818290BD0A178182908D062
:10E44000E178182905D0182803D001202070002079
:10E4500010BD032010BD0000F0200020F0B585B0F5
:10E4600000F09EF86846FEF7F9F800246D460C4F60
:10E470000EE060004619B08800F094FBB84205D168
:10E480000849B0880122C978FEF7D2F9641CA4B209
:10E490000098A042EDD803F0ADFC05B0F0BD00003F
:10E4A000FFFF0000F020002010B50178072902D1FD
:10E4B000408800F065FE10BD10B504460A4841785A
:10E4C0002046FEF7A3F900280CD0084800210C22B2
:10E4D0004A4312185288A24201D1C8B210BD491C49
:10E4E0000829F4D3FF2010BD08210020C0360020E9
:10E4F00070B5094D094E00240C2060434019408836
:10E500007178FEF783F9002804D0641C082CF3D33B
:10E51000FF2070BDE0B270BDC03600200821002091
:10E52000F8B50746104E0125BD403068FDF71CFCCC
:10E5300000280DD10D4C2069284207D1384601F042
:10E5400065F90028E06804D0284303E0A84320616F
:10E55000F8BDA843E0602069002228432061A1683B
:10E560003068FDF799FBF8BD303D02009C2100208A
:10E570001CB5054A9168D268019200910022694653
:10E5800001F03CFD1CBD0000B03C0200034800212E
:10E59000C94381800121017000207047FC200020C8
:10E5A00010B5044801F05EFC0349888003F04EFC7E
:10E5B00010BD0000FFFF0000FC200020F1B582B07C
:10E5C000029800F0EFFA0024164903250127264699
:10E5D000884209D06A46082101F0E6FC002803D1F0
:10E5E000019886880568841D2B463246214602988C
:10E5F000A9DF042804D0082804D00B2807D002E0A3
:10E60000112000E00020002F00D10B20FEBD0027CC
:10E61000A80701D50125E7E73443F6D000242646B4
:10E620000325E1E7FFFF0000F1B582B0029800F09A
:10E63000B9FA07461B48874201D11B48FEBD012598
:10E640002A466D1C0026ADB26B460821384601F003
:10E65000DBFC040002D0072C21D021E00199032328
:10E660000B600A1D891D0298AADF040004D00C2C3F
:10E6700008D0052C08D008E00821384601F05EFDDE
:10E6800004460DE0012600E000240821384601F090
:10E690003FFD002800D00324002ED1D100E00C243F
:10E6A0002046FEBDFFFF0000023000001FB50446FB
:10E6B0000078012815D12079012812D1608802AA9A
:10E6C000012101F071FC00280BD102216846017084
:10E6D000618841800398017868460171054909689D
:10E6E00088470448044908388088884201D003F0EC
:10E6F000ADFB1FBD04210020FFFF00001CB500F092
:10E7000051FA6A46012101F04FFC002801D0002097
:10E710001CBD019800781CBDF8B5074E074C084D8C
:10E720000746324661883846A7DFA84203D1608891
:10E73000401C6080F5E7F8BDFFFF0000FC200020D2
:10E74000033000008188054A914204D000880028E7
:10E7500001D001207047002070470000FFFF00003B
:10E7600010B51249124803F037FB114C81B22C3C12
:10E770006068401C60600D486038FEF75DF9002855
:10E7800009D0082807D00B49884204D00A4988429A
:10E7900001D0FDF731FA03216068FCF707FD00297D
:10E7A00001D0012000E00020207010BD4023002097
:10E7B000142000200430000001340000F0B50024D3
:10E7C00006460D46601C010795B0090F08A81031D8
:10E7D0000C940174297B4174817CF9273940891C90
:10E7E00081741C2105A8FCF71EFD6846017D1020E0
:10E7F0000143684601750CA806940A900894099490
:10E8000001220B9408A882761749684601870D9467
:10E81000697B08A80175A97B4175817DF720394086
:10E82000891C0140EF200140114308A88175142183
:10E830006846FCF7F8FC0EA800900DA801900FAAFE
:10E840000021304600F012F801466846018114218B
:10E85000448181810FA804903346F08808336A46CA
:10E8600005A9A2DF15B0F0BD372A0000F7B542793F
:10E870000025002A00D004252222135C0222002B4E
:10E8800000D01543CBB2FF2907D901221543029AC4
:10E89000090A53709170032602E0029902264B7018
:10E8A00004464034A189002901D010210D430027DE
:10E8B00017E0A27BB11C8A4209D2A189C91B4A0078
:10E8C0007900091824302431FCF786FC0CE0029B07
:10E8D0007A0012189B19928C1A70120A5A70CEB2D2
:10E8E0007F1CA189B942E4DCA089C01BA0810298E9
:10E8F00005703046FEBD3EB5044600780D46022840
:10E9000015D10322611C6846FCF766FC0322211D19
:10E9100002A8FCF761FC01AA02A92846FDF7E6F867
:10E92000032201A96846FCF790FC002801D00020D2
:10E930003EBD01203EBD000010B50C46FFF7BCFDFA
:10E94000FF280AD00C2148430549072241182046D8
:10E95000091DFCF741FC002010BD052010BD000082
:10E96000C036002070B5018890B0102949D1011D32
:10E970002C2202A8FCF730FC6846234E007B34466C
:10E9800002AD03282AD001F0E1FC6846007B002894
:10E990000ED001280CD0022820D118E00E99281D95
:10E9A0001131FCF72BFF002802D06846048815E0DF
:10E9B0000DAA6946072001F09FFC0028EED10DE06A
:10E9C0000E99281D491CFFF796FF0028EDD10DAACE
:10E9D0006946072001F090FC0028F1D168460089C3
:10E9E000291D00F0EFFCB4420BD068460089214697
:10E9F00000F086F868460189418001210170FEF728
:10EA00006BFF10B070BD0000FFFF0000084A00213E
:10EA10000C234B43D35A834204D10C204143881822
:10EA200040887047491C0829F2D30248704700000B
:10EA3000C0360020FFFF000010B50E4C182060709B
:10EA40000D4A0E4900200C2343435B18401C5A809A
:10EA50000828F8D3FDF7B6FE6070182804D00548E2
:10EA6000C01C71DF002801D0032010BD01202070E0
:10EA7000002010BD08210020FFFF0000C03600204C
:10EA800070B504460D46401C00F090F9002810D0E7
:10EA90001022691C601CFCF7D8FB00280AD0002655
:10EAA0002946204611311130FCF7A8FE01463046B8
:10EAB000084370BD0126F3E70188002903D14218FD
:10EAC0009278002A01D001207047491C0829F6D30A
:10EAD0000020704710B50C460346FFF7EDFF0028F5
:10EAE0000BD018882188884206D10822A11C981CC6
:10EAF000FCF7ABFB002801D0002010BD012010BDA9
:10EB000010B501F0E1FD10BD10B50446007888B0E5
:10EB1000002826D12079072823D1608801AA07215F
:10EB200001F042FA00281CD101F010FC1BE06946FC
:10EB300060880988884216D004990298FFF7A0FFE0
:10EB4000002810D06088FFF761FF01466846C18247
:10EB500000210175618801830188418305A8FEF7C2
:10EB6000BBFE08B010BD03AA6946072001F0C4FB34
:10EB70000028DCD1F5E7000070B50446FFF746FF3A
:10EB80000546204601F015FA054904468D4204D099
:10EB9000002C02D1284601F097FD204670BD0000F0
:10EBA000FFFF000010B5FFF787FCFF2804D00C2101
:10EBB00048430249085A10BD014810BDC036002024
:10EBC000FFFF00003EB5044601F0C0FB10E00199D4
:10EBD00020464631FFF77EFF002806D101992046E6
:10EBE0002A31FFF777FF002802D0684600893EBD32
:10EBF0006A4602A9072001F07FFB0028E7D10148FF
:10EC00003EBD0000FFFF0000F8B50F46002804D00D
:10EC10000120FFF793F80120F8BD397900290AD0C7
:10EC20000026254D01290BD0244C022920681FD035
:10EC300003293BD125E000F0FFFF0121397133E0CA
:10EC400000200101695C02290BD0401C80B202281F
:10EC5000F7D30220FFF78CF80120FFF76FF8184870
:10EC6000F8BD04016019406800F0D8FF2E551BE084
:10EC70000146002301221348FFF7BAF80221A180C0
:10EC800011E000F0CBFF0C492368203149880A01CC
:10EC9000094951184D6825604B60A3880B810221FA
:10ECA000A18005498E543E710028D9D00120FFF77C
:10ECB00045F80E20F8BD0000703C0020D021002057
:10ECC0001D1D0000F8210020F8B51E4C20780028FA
:10ECD00036D0E068002600280CD000256078002897
:10ECE0002ED1684652DF052806D0002806D0FCF752
:10ECF00083FF0BE00125F1E7012607E0009800F013
:10ED0000AFFC2169002901D000988847002D13D15C
:10ED10006078002814D1608869460880A06861DFA7
:10ED2000052804D0002804D0FCF766FF04E0012584
:10ED300002E0E168A0688847002ECFD0002DE5D022
:10ED4000F8BD0000DC21002041880548028891427E
:10ED500004D34088814201D80120704700207047C9
:10ED6000E02000201048018CC9B2012917D1818C04
:10ED7000090714D1018D09060A0F03D1828D1206ED
:10ED8000120F0ED0090F012903D1828D1206120F26
:10ED900007D0032903D1808D0006000F01D0002089
:10EDA0007047012070470000C00F00F00021425C56
:10EDB000002A01D001207047491C1029F7D30020F8
:10EDC0007047800701D0002070470120704702681B
:10EDD000134602E08A4204D01268002AFAD10B607E
:10EDE0000160704710B50448017AC90702D0007865
:10EDF000FEF7EEF910BD000030200020FFB5244DD5
:10EE000081B0287A1F460E46084304D0039A002E8C
:10EE100004D0002104E0052005B0F0BD1C491031EC
:10EE2000019803F027FB0446014600220198FEF7F3
:10EE3000A7FF002F03D021460198FEF72DFD112CCE
:10EE40000FD006DC002C0AD0082C08D00D2C05D1E0
:10EE500005E0862C11D00F48C44200D00324204680
:10EE6000DAE73246E9780198FDF7E2FCA978039ADF
:10EE70000198FDF7DDFC0024F1E73246E9780198BE
:10EE8000FDF7D6FCA978039A0198FDF7D1FCE6E7D7
:10EE90003C210020FECFFFFFFEB517460C000646C2
:10EEA00004D02078C00704D0012003E000217EDFD9
:10EEB000FEBD0220694608713046FFF773FE174910
:10EEC0000546884208D001A800902B463A462146C4
:10EED000304600F025F806E020782146C00730468D
:10EEE00003D000F081F804460BE07EDF04460020EA
:10EEF0000090002C08D0002201232946304602F061
:10EF0000AFFE002C02D006E00122F5E76846017949
:10EF1000304602F0CBFE2046FEBD0000FFFF0000A1
:10EF2000FFB585B000252E4601AA07210E9F08983F
:10EF300001F03AF8040008D1029D4420405D1835E4
:10EF4000C607F60F01D0029D34350798204312D131
:10EF5000002D10D0002E05D128461230FFF7ACFD51
:10EF6000002808D029462A461231059885DF044634
:10EF70000020387023E0002C01D0052C1FD106980A
:10EF80000078C0070DD003AB01220721089801F0DB
:10EF90003BF804000AD10721089801F033F9040076
:10EFA00004D1069905987EDF040008D0072108984F
:10EFB00001F0AEF8002802D0052800D0032400207C
:10EFC00000903878002801D0012300E00023002CB5
:10EFD00007D000220899059802F042FE204609B0A9
:10EFE000F0BD0122F6E70000FEB50F46064600F030
:10EFF000D7FF05461848854220D001AB01220721E2
:10F00000284601F001F804000AD10721284601F042
:10F01000F9F8040004D1394630467EDF040008D0F8
:10F020000721284601F074F8002802D0052800D0F6
:10F03000032401200090002C0BD002E003240020C8
:10F040000090002201232946304602F009FE2046A6
:10F05000FEBD0122F6E70000FFFF0000F7B5114DED
:10F060000F46164629780098FDF7D0FB002812D0ED
:10F070000098FFF797FD04460B4884420BD069784F
:10F080000098FDF7C3FB002806D033463A462146D8
:10F09000009800F05BFEFEBD324639460098FEF750
:10F0A0009DFBFEBD38210020FFFF0000F1B586B0BA
:10F0B0000698FDF79FFB002821D06846FDF7CEFAA1
:10F0C00000246E4618E060008519A8880699FDF7AF
:10F0D0009DFB00280FD00B4FA888B978FDF796FB51
:10F0E0000590A888F978FDF791FB0146A8880123CF
:10F0F000059AFFF783FE641C0098A042E3D807B08E
:10F10000F0BD00003C210020FEB504461948002651
:10F1100084422DD02046FFF751FA050012D00B2D66
:10F1200014D0112D10D01448C5421BD009216846B7
:10F1300001702046FFF736FD014668464180848015
:10F1400002950DE0022102E001260BE00321684652
:10F1500001702046FFF726FD014668464180848005
:10F16000FEF7B4FB0548324681782046FDF760FB88
:10F17000FEBD0000FFFF0000FECFFFFFF0200020DB
:10F18000FEB504460026FFF74FFA0546112818D0B1
:10F1900004DC002D13D00C2D05D114E0862D25D0D4
:10F1A0001348C5421BD00921684601702046FFF76D
:10F1B000F9FC014668464180848002950DE00121FA
:10F1C00002E001260BE0072168460170848020469A
:10F1D000FFF7E8FC014668464180FEF777FB0548EB
:10F1E000324641782046FDF723FBFEBD0821EBE7C0
:10F1F000FECFFFFFF0200020F8B5054600780C4652
:10F20000002620420FD10020694608706846FCF7AE
:10F21000DFFD2878204202D120432870012668466D
:10F220000078FCF7F3FD3046F8BD00001FB500F094
:10F23000A3F901460C0008D019A0FCF7FDF96420E1
:10F2400000F018F92046FCF7D7FC0322002101202A
:10F2500004F012F915490028886102D10420FCF756
:10F26000CBFC0020114902221C310290034600927F
:10F2700001910390D2010EA10E4804F0C1FA0128B9
:10F2800002D00420FCF7B8FC0B48016904221143AA
:10F29000016103F0D9FE0F20FCF7AEFCFBE7000094
:10F2A00065727220636F646520256400E81F00208A
:10F2B000424C4500A9CC010000ED00E070B51446B9
:10F2C00082880E4605462088111D4118921C9942DD
:10F2D00001D8FE2A01D90C2070BD521C325420885E
:10F2E000FF21401C80B2208031542088401C80B215
:10F2F00020808119288803F06AFB2188401880B299
:10F300002080AA88002A09D0A968002908D080197D
:10F31000FBF762FF2088A98840182080002070BD7C
:10F32000072070BDF8B50F4601781446054601293F
:10F3300002D16878002806D02088821C9A422DD8F5
:10F34000012902D006E00720F8BD69784118891C20
:10F35000994223D8181A801E86B2684606802188F2
:10F36000B81C081869467DDF0028EDD128780228EE
:10F3700005D169460988B14201D809210AE008216E
:10F38000012805D16878B04202D86A46108001E0B1
:10F390006846068068460088FE2801D90C20F8BD22
:10F3A0002288401CB8542088401C80B220803954E8
:10F3B00020886946401C2080098840182080002051
:10F3C000F8BD0000F8B5FF240F46054600291FD000
:10F3D000104EB5421CD01048012241782846FDF756
:10F3E00027FA2846FFF768F80446FF2804D1FFF7FC
:10F3F0007FF80446FF280BD00C21484307490246FA
:10F40000401845808E5207223946001DFBF7E4FE66
:10F410002046F8BDFFFF000008210020C036002074
:10F4200070B50B4D0E46A84201D1002000E0401CF3
:10F4300084B209E02146304601F074FB002801D077
:10F44000204670BD641CA4B2FF2CF3D9284670BDC1
:10F45000FFFF0000C20843075B0F0120895C984052
:10F46000084070470121890740180068002800D033
:10F47000012070477D21C90048430FD00849094A3F
:10F48000096800BF00BF00BF00BF00BF00BF00BFD2
:10F4900000BF914200D000BF0138F2D17047000098
:10F4A000F02100200024F4007D21C90048430FD042
:10F4B0000849094A096800BF00BF00BF00BF00BF7C
:10F4C00000BF00BF00BF914200D000BF0138F2D1A1
:10F4D00070470000F02100200024F4007D21C900C5
:10F4E00048430FD00849094A096800BF00BF00BF60
:10F4F00000BF00BF00BF00BF00BF914200D000BFEF
:10F500000138F2D170470000F02100200024F400FF
:10F510007D21C90048430FD00849094A096800BF46
:10F5200000BF00BF00BF00BF00BF00BF00BF9142CF
:10F5300000D000BF0138F2D170470000F021002058
:10F540000024F4007D21C90048430FD00849094A2E
:10F55000096800BF00BF00BF00BF00BF00BF00BF01
:10F5600000BF914200D000BF0138F2D170470000C7
:10F57000F02100200024F40070B50E4C0025207806
:10F58000002801D0852513E00021A1606160216180
:10F59000E160094800680126304002D1032100F0F3
:10F5A00065F803F0BDF8002801D104488661267093
:10F5B000284670BDEC3A002000E100E00005004064
:10F5C000F8B5174C0546A0780026002809D0002D74
:10F5D00002D069680120884768460670FCF7F8FB8E
:10F5E00016E068460670FCF7F3FB002D04D00C48CB
:10F5F00029461030FFF7EBFBE068002808D10948E6
:10F60000066009490220486006490120FC3908606B
:10F61000E068401CE06068460078FCF7F7FBF8BD46
:10F62000EC3A0020040100400003004038B50020FF
:10F63000694608706846FCF7CBFB084C2078002828
:10F6400001D1FFF799FFE068401CE0600120A07045
:10F6500068460078FCF7DAFB38BD0000EC3A002081
:10F6600010B5002801D1FDF773FF10BD8207D30E3E
:10F67000FF229A408907090E10B5994000280BDA3D
:10F6800003071B0F083B9C080C4BA400E318DC6924
:10F6900094430C43DC6107E08408094BA400E418A0
:10F6A000236893430B432360C106C90E01208840A1
:10F6B000044908600449086010BD000000ED00E046
:10F6C00000E400E080E200E000E100E0F3B581B09A
:10F6D000054601F06FF81F4F0028284617D0FDF7A8
:10F6E000A9FEC0192030007F8009032802D001281C
:10F6F0000BD005E018480069E840C007C00F04D0EF
:10F700000321284600F0FBF8FEBD0221F9E701F0D5
:10F710005DF80028F8D02846FDF78CFE04468000EE
:10F72000C11D0E4AF9318018026989B2012632439F
:10F730000261084600F014F902980028E4D0284637
:10F74000FDF778FE800038580028DDD00448A64038
:10F750004660FEBD003B00200005005000650040F3
:10F7600000630040FEB5044625480E4600192021DE
:10F7700041560027C8171346401C01D008273CE01B
:10F78000F27819462046FDF731FE0546401C33D07D
:10F79000B07800280BD005200007A1000918072029
:10F7A00000020918086802229043086007E000215F
:10F7B0007378204600910A46019100F07BF8F078BA
:10F7C000002810D00F48AA001018317802690E4B9B
:10F7D0001A400261E206D20C8907890B0A430169CB
:10F7E0000A43026109E00648327840192030017F5F
:10F7F00092011143017700E004273846FEBD000066
:10F80000003B002000650040FFE0FCFF0349096960
:10F81000C140C807C00F00D001207047000500504C
:10F8200070B5144D2879002801D0082070BD114909
:10F8300000204039421E0B182033401CC0B21A7001
:10F840002028F8D300242046FDF7C2FD641CE4B252
:10F85000082CF8D303210620FFF708FFFF207D3096
:10F8600000F07EF801200449C0074860012028719B
:10F87000002070BD403B002000630040024800793A
:10F88000002800D001207047403B002070B5520096
:10F890000A439900049D0A432902059E0A43310444
:10F8A00005240A4324078000072100190902401893
:10F8B000026070BD70B552000A439900049D0A436E
:10F8C0002902059E0A43310405240A4324078000C7
:10F8D0000721001909024018026070BD05221207B5
:10F8E00080008218072000021018026803231B04FE
:10F8F0009A430260026809040A43026070470522C5
:10F9000012078000821807200002101802680323E3
:10F910001B049A430260026809040A4302607047AC
:10F92000012282400348002901D082607047C260F2
:10F93000704700000005005038B5084B05241B68CF
:10F94000009324026B46411805E085005D592D198E
:10F950002D69401C20C28142F7D838BD2C3D0200E1
:10F96000024940180021016070470000006000401B
:10F97000034940180068012800D0002070470000AB
:10F98000006000404058002800D00120704703224A
:10F99000120280184068084000D001207047000023
:10F9A00010B5002811D003280ED10220FDF7B6FBB8
:10F9B00001460C0008D006A0FBF73EFE6420FFF7CE
:10F9C00059FD2046FCF718F910BD02F0E1FB10BD0F
:10F9D00065727220636F64652025640070B504460B
:10F9E000008888B03A2831D009DC2B4E022831D06B
:10F9F000102819D0112815D10020C04324E0512827
:10FA00002CD055280ED1A088132176DF01460C009A
:10FA100008D022A0FBF710FE6420FFF72BFD204644
:10FA2000FCF7EAF808B070BD0720FDF777FB014648
:10FA30000D0008D019A0FBF7FFFD6420FFF71AFDA9
:10FA40002846FCF7D9F8A0887080EBE7A08813213E
:10FA500076DFDBE70021708867DFD7E71022A11D82
:10FA600004A8FBF7B9FB6846017C0029DAD0007EC8
:10FA7000042803D0062801D00528D3D1022908D0B4
:10FA8000012069460870FF2083308880A088A8DFA5
:10FA9000BCE70220F5E70000E81F00206572722035
:10FAA000636F64652025640010B5007800280FD1CD
:10FAB00008483B21408876DF01460C0008D006A0AC
:10FAC000FBF7BAFD6420FFF7D5FC2046FCF794F85D
:10FAD00010BD0000E81F002065727220636F64652E
:10FAE0002025640010B5134A00215170017A0129C4
:10FAF00011D002290ED18189491C8181C189491CFB
:10FB000089B2C181028A914204D1002102F0DCF85D
:10FB100001F08CFC10BD838AC28A991AFF2901DC8E
:10FB200089B201E0FF210131511889B2C1829942A5
:10FB3000EBD010BDD8210020F7B51C4D0E46014674
:10FB40006A6F002082B0032A2DD82C46783408270B
:10FB5000636CBF1BBB4226D8286F10188007800F2C
:10FB60001C2250434019FBF737FB686F401C686745
:10FB7000002E17D0216C606C40184007800E0019D1
:10FB80000023009009E00498D9000A1806CA0098DA
:10FB900006C06846FDF7B2FC5B1CB342F3D3606C51
:10FBA00080196064012005B0F0BD0000B03B00206A
:10FBB0000389CA1C9A1802814289511AC91E4181BF
:10FBC00070470000F7B50D46012189024718044629
:10FBD000002608340220288012E02046FEF7B2FDFD
:10FBE000002817D00C48A1684268914200D94160B2
:10FBF000608881000C1929880818C01C28800C34E2
:10FC0000BC4202D22068401CE7D10298002800D0F4
:10FC10000670FEBD0126EBE7C021002008B50021DB
:10FC2000009101460223024A0248FEF787F908BD07
:10FC3000443D0200F821002008B50020009004484F
:10FC400002230168034A0448FEF778F908BD000062
:10FC5000D02100203C3D0200F8210020F8B500250D
:10FC6000354F2C462E4600953448B10200684018A6
:10FC70000168B94205D1324A4168891830D001295A
:10FC80000CD000218A0082580346521C36D0032033
:10FC90002C4922018854641CA4B21BE0009900295D
:10FCA0000CD0284B022221015A54274A1368254AB6
:10FCB000891802224B60641C0A81A4B222490022E6
:10FCC0000860091DFFF77EFF1F488088022831D099
:10FCD00008200543761CB6B2032EC5D3E8B2F8BDA2
:10FCE0001849002322018B5451180A4648600E32ED
:10FCF0000831FFF767FF02200543CCE7491CFF29C5
:10FD0000C0D911490A68002A0CD00E4A02212301E9
:10FD1000D1549A1850600B48118120304480641CE3
:10FD2000A4B204E002200B60888001200090012032
:10FD30000543CFE70420CCE7DEC0ADDEF82100208C
:10FD400002FEE10E703C0020D021002070B5184D5D
:10FD50000E46044623CD86B0029500900191684678
:10FD6000448082808371134D2046A978FCF74EFDB4
:10FD7000002803D03046FEF7FFFE0FE00721304693
:10FD800000F0C6F9002809D0052807D109226946E4
:10FD90000A73CC81049003A8FDF7C0FD00222978E6
:10FDA0002046FCF745FD6846FDF7B8FD06B070BD7E
:10FDB000103D020038210020F0B585B00746FCF761
:10FDC00019FD002814D06846FCF748FC00246D4655
:10FDD0000BE060004619B0883946FCF717FD002893
:10FDE00002D0B08802F0E6FB641C0098A042F0D874
:10FDF00005B0F0BD70B5054D06460024A000295899
:10FE000030468847641C052CF8D370BDD03C0200F6
:10FE10003EB50F4D002414206043401903F0B4F99F
:10FE2000641C082CF7D30821502001910A490124B1
:10FE3000C2000290074B0094881800F002FD0028D1
:10FE400001D003203EBD0348447000203EBD0000A9
:10FE5000C0390020202100203037002010B500F0EC
:10FE600043FA10BD10B500F043FA10BDF0B50025FF
:10FE700085B0009501950295039504464188684632
:10FE80004180217901712E462179608803F056F96D
:10FE900022780421404F1300FBF7DEFB0A060636EA
:10FEA0001C1C383E43484B4D00280DD0417CC907EF
:10FEB0000AD003F07BF9684606702078012800D04C
:10FEC0000020694608722AE0012069460870A0688F
:10FED000029024E000280ED08268A3689A420AD1DA
:10FEE000427CD30707D07B6852085B1C52000A4350
:10FEF0007B6042741FE0022069460870E06803904E
:10FF00000DE0FFF777FF16E0032006E0684601707A
:10FF1000E06802906846F4E70520694608700846E4
:10FF2000EFE7062069460870E068D1E70125072061
:10FF3000F3E7E06802907868002824D0174E002488
:10FF4000142027464743B819417C4A0703D4890740
:10FF5000C90F29421CD08178F05B00F0EFF800282F
:10FF600016D014214C43325B69464A80B9198A780D
:10FF700069460A71862808D009216A4611700290E4
:10FF80006846FFF737FF05B0F0BD08200870F7E7B7
:10FF9000641C082CD4D3F6E720210020C0390020AF
:10FFA00010B500F06BFA10BD10B5002300F0D6F9C3
:10FFB00010BD38B50546002420460AE08178284661
:10FFC00000F0A6F8002802D0052800D003240098ED
:10FFD000401C00906946284603F0C2F80028EDD185
:10FFE000002C07D1284600F051FA002802D007283B
:10FFF00002D00324204638BD0724FBE710B5134682
:020000040002F8
:10000000002200F0E3F910BDFFB581B00498154659
:100010000E46002804D0072E05D0082E19D102E084
:100020000E2005B0F0BD002D13D0082D11D8019879
:1000300000F037FA00280CD00020009031460198DB
:1000400003F07CF8041E26D0E068A84212D20027F4
:1000500009E00720E5E7207CC019C1B22A4800F07A
:1000600028FC7F1CFFB2E068B842F4D8204603F0B9
:100070008BF810E0A84217D9EFB207E0207CC01936
:10008000C1B2214800F015FC7F1CFFB2E068B84205
:10009000F4D8002C08D1FF211C48019F03F04EF832
:1000A000041E05D00780A670207CFF2802D00AE03D
:1000B0001120B6E72946144800F094FB2074FF286D
:1000C00013D001200090E560217C0F4800F0DAFB9E
:1000D00002000ED0ABB23146049800F073FA0098DB
:1000E00000280FD0082E06D00CE0204603F04CF874
:1000F000DEE7032095E704980499008849688000AA
:10010000801F888000208CE7B0390020FFFF0000AE
:1001100070B5002403F012F805000CD068680028C0
:1001200004D000F0DAF9040000D00324284603F0DC
:100130003DF8204670BD052070BD00007CB50D4621
:100140000646072903D0082D01D007207CBD0020DA
:1001500000900190684685702946304602F0EEFF17
:10016000040004D0607CC00703D000207CBD0520C3
:100170007CBD217C214800F085FB020025D029466A
:100180006846E36800F0B1F9684602F0C5FF23460F
:10019000083369463046626800F018F90246607C10
:1001A0001749430704D5830702D54B685B1E4B6094
:1001B000FB25FD23002A0AD0112A0DD0862A14D04F
:1001C000072A00D0032210467CBD03207CBD0121FC
:1001D0000843284018400EE04A68521C4A60042137
:1001E0000843184060740022EDE74B6828405B1C10
:1001F0004B60022108436074E5E70000B03900203D
:10020000202100207CB50D46072903D0082D01D000
:1002100007207CBD002602F091FF040003D0606837
:10022000002802D01BE005207CBD217C0E4800F098
:1002300029FB024600200090019068468570002A44
:100240000FD02946E36800F050F9684602F064FFD9
:10025000211D684600F029F90646092801D03046DC
:100260007CBD03207CBD0000B03900200149096835
:1002700008470000CC3C020070B588B01748FDF775
:10028000FBFC002802D0032008B070BDFDF732FC53
:10029000002801D08620F7E700F0EAF90020104C92
:1002A0000290E61F03900DE0694604A8FDF7A8FC44
:1002B00000988088801B85B204A8FDF75FFC284663
:1002C00000F08AF902AA04A92046FDF77EFC002866
:1002D000EAD00449012008700020D5E745D9010083
:1002E00007C000001421002010B500F09FF910BDD8
:1002F00010B500F0A3F910BD70B5054603208003CA
:1003000086B014460E46281880B20F4A6946FDF79B
:100310005CFC002805D103A96846FDF771FC0028A4
:1003200002D0002006B070BDA570039840882080E0
:100330000498606003988088FDF7EEFC3080684682
:10034000FDF71CFC0120EDE71821002002480021E8
:10035000416081607047000014210020F0B587B033
:100360001D46144607460E46FF280CD8084600F0E6
:1003700019F9002807D003AA3146384600F0FAF8E8
:10038000002809D102E0072007B0F0BD01A903A8A9
:10039000FDF736FC002801D00520F5E7A67001988E
:1003A000002D408820800AD082002868904204D81E
:1003B00002996068FAF710FF03E00420E4E702986E
:1003C000606003A8FDF7DAFB0020DDE77FB588B0A9
:1003D0001D460C460646FF2834D8A07800F0E2F807
:1003E00000282FD0606806902088694688833046B0
:1003F00000F078F969460880A07803218903401845
:100400006946488006A8019001200881A17803AAC6
:10041000304600F0AFF805280A9815D0002802D021
:100420000AA8FDF755FC694603A8FDF70BFC002858
:1004300017D007281FD008281BD00E2819D003205A
:100440000CB070BD0720FBE7002805D00AAA69465A
:1004500003A8FDF707FCEAE7694603A8FDF7FCFBE4
:10046000E5E7002D03D0294603A8FDF7BEFB0020D9
:10047000E6E71120E4E78620E2E7000010B5024835
:1004800000F0AAF810BD0000FFFF000010B5FF2823
:1004900001D9072010BD00F0A7F800F02BF80020CC
:1004A00010BD10B500F0F8F810BD70B504460D464B
:1004B000807800F077F800280BD021882846FDF7D7
:1004C000EDFB002804D0072805D0092800D0032020
:1004D00070BD072070BD862070BD01B56846FDF770
:1004E000F7FB002800D0032008BD10B59BB200F038
:1004F00069F810BDF0B589B000261C4F0496384647
:10050000059603E0204600F083F8204600F08EF8C0
:100510000446B84207D000F0E5F804AA06A9FDF7A2
:100520005CFB0A28EED0124DA878002819D1BC42F5
:1005300017D00320800301272018AF7080B2FDF789
:100540008FFA08280FD000280BD0AE700922694618
:100550000A704C80FF220A71039002966846FFF7EA
:1005600085FE09B0F0BD6F70FBE70000FFFF0000E3
:10057000142100207CB5054616460C46084600F0BE
:1005800011F8002003210090890301906818611878
:1005900080B289B26B463246FDF710FB002800D0CE
:1005A00005207CBD07280BD0012809D0082807D0DA
:1005B000052805D0062803D0042801D00020704764
:1005C0000120704710B5502463439BB28170DB1C3F
:1005D00099084260018010BD10B50249FCF79AFFEE
:1005E00010BD0000603A002010B504460648844261
:1005F00007D006492046FCF78DFFA04201D101201B
:1006000010BD002010BD0000FFFF0000803A002058
:1006100010B50446044901F001F903492046203190
:1006200001F0FCF810BD0000603A002010B502494E
:10063000FEF7F6FE10BD0000803A002070B50A49B2
:10064000FEF7EEFE0446094D08E000F031F8002800
:1006500007D005492046FEF7E3FE0446AC42F4D13C
:1006600070BD204670BD0000603A0020FFFF000012
:1006700010B508484021FAF7D6FDFF240134214681
:10068000044800F01FFA03482146203000F01AFA0F
:1006900010BD0000603A002010B5FF2804D80146C4
:1006A000024800F03FFA10BD002010BD603A002063
:1006B00010B5FF2804D80146024800F033FA10BDF7
:1006C000002010BD803A002010B50C46FDF7F4FE66
:1006D000FF2803D00C21484301490C5210BD0000F3
:1006E000C036002003218903401880B27047000003
:1006F0007CB5054600F0A4F901460C0008D029A0FD
:10070000FAF79AFF6420FEF7B5FE2046FBF774FA6D
:10071000002D0DD000F0EAFA01460C0008D021A00F
:10072000FAF78AFF6420FEF7A5FE2046FBF764FA7D
:10073000002000900190684600780122104381213A
:10074000084030304106490E68460170072141706B
:1007500010218170C178022311431943C1700179BE
:1007600011431943017100F0F7FA041E09D0214624
:100770000CA0FAF761FF6420FEF77CFE2046FBF731
:100780003BFA0B4800F0D0FA041E09D0214605A020
:10079000FAF752FF6420FEF76DFE2046FBF72CFAB5
:1007A0007CBD000065727220636F64652025640063
:1007B000E50802000449081820214156042901DBFC
:1007C0000120704700207047003B002004490818B2
:1007D00020214156042901D2012070470020704792
:1007E000003B0020F8B50F46060028D030680028EE
:1007F00025D07068002822D0FF2400251CE029465F
:10080000706800F067F9002808D0FF2C00D12C4652
:10081000281B401CB8420DD12046F8BDFF2C06D144
:1008200008E02146304600F044F8641CE4B2AC42D3
:10083000F7D3FF246D1CEDB2B068A842DFD8FF20CB
:10084000F8BDF8B50400069E089D079818D0002949
:1008500016D0002B14D007466F43974210D8C21D04
:10086000D208B2420CD800280AD0002D08D0E5608A
:10087000A0600AC481B2184600F024F90020F8BD37
:100880000720F8BD70B504000D4610D02068002880
:100890000DD0606800280AD0FF2D08D000F042F982
:1008A000002804D0E06821686843081870BD002063
:1008B00070BD70B504000D460FD0206800280CD024
:1008C0006068002809D0FF2D07D000F02BF9002820
:1008D00003D02946606800F031F970BD10B501F011
:1008E00093FC10BD38B501780B00FAF7B5FE0F0F79
:1008F0000F0F0F0910310F2F0F311C310F2C0F006C
:100900000021009140886946FFF7E8FF38BDFDF7F8
:10091000CDF801460E28F9D00829F7D00446002C5E
:10092000F4D00DA006E00320FBF714FD01460C00F7
:10093000ECD00CA0FAF780FE6420FEF79BFD204669
:10094000FBF75AF938BD00F0B3F838BD016900E093
:1009500081680C46E3E7000065727220636F64658E
:100960002025640065727220636F64652025640031
:1009700070B586B0044614216846FAF754FC6088C6
:1009800069468880FEF742F869464880267800204C
:100990000822072105253300FAF75EFE0A06060B3A
:1009A0000D0F1416281A1D256B46197058721A72ED
:1009B00019E00D2009E00E2007E06A461170507220
:1009C000157210E00F2000E01020694608700AE060
:1009D0006846057007E0062168460170A06802902D
:1009E000A188684641806846FCF784FF06B070BD68
:1009F00010B50446007886B000281AD0012816D118
:100A00000E49608801224979FBF712FF14216846DC
:100A1000FAF709FC6088694648806088FEF7C2F8EA
:100A200069468880002008706846FCF763FF06B0BE
:100A300010BDE08800F04EF9F9E700002821002001
:100A400070B5FFF719FC00282ED1FFF7E1F9002857
:100A50002AD101F0E7FB002826D101F0EDFC0028A7
:100A600022D1FDF7D7FC00281ED1FDF78FFD00280D
:100A70001AD1FDF7E1FF002816D10C4C401EE08092
:100A800000251820A56020716071FBF79BFE207186
:100A9000182809D0FBF796FE6071182804D06570FD
:100AA00001202070002070BD032070BD282100208F
:100AB00010B503480078002801D0FDF7CFFC10BD29
:100AC0002821002010B5002803D0C91DC908FAF755
