:020000040001F9
:10B000000845002075B101008FB1010041B1010078
:10B010000000000000000000000000000000000030
:10B02000000000000000000000000000D5B001009A
:10B03000000000000000000001B1010097B1010014
:10B0400079B4010099B1010025B6010099B1010060
:10B0500099B1010000000000E1B2010099B10100C6
:10B0600099B1010099B1010099B1010099B10100B4
:10B0700099B1010099B1010099B1010099B10100A4
:10B0800099B10100CDB4010099B1010099B101005D
:10B0900099B1010099B1010049B5010099B10100D0
:10B0A00099B1010099B1010000000000000000000A
:10B0B0000000000000000000000000000000000090
:10B0C0000348854600F0CEF8004800472DF2010005
:10B0D000084500200848006880F30888174B196865
:10B0E0000868203080F30988022080F314883FBC70
:10B0F000AE4662B600BD000000B0010000000000D6
:10B10000EFF309800D4B1A6820381060F0C04446F8
:10B110004D4656465F46F0C008B507F01DFE0CBC14
:10B12000116808681030F0C8A046A946B246BB4670
:10B1300080F309882038F0C81847000060200020FC
:10B140000848704502D1EFF3098009E0EFF3088069
:10B150000549064A884201D8904201D88D46002010
:10B16000034B1847FDFFFFFF08450020083D002066
:10B170005DB401000321094802680A4302600848DF
:10B1800002680A4302600748804707480047FEE715
:10B19000FEE7FEE7FEE7FEE7FEE7000024050040CD
:10B1A0005405004085B50100C1B0010030B50B4623
:10B1B000014600202022012409E00D46D5409D4291
:10B1C00005D31D469540491B254695404019154617
:10B1D000521E002DF1DC30BD10B5431A934209D246
:10B1E0008318881803E0401E01785B1E1970521EF8
:10B1F000F9D210BD03460B439B0703D009E008C9F1
:10B20000121F08C0042AFAD203E00B78491C03700D
:10B21000401C521EF9D210BDD2B201E00270401C97
:10B22000491EFBD270470022F6E710B513460A46C6
:10B2300004461946FFF7F0FF204610BD421C017876
:10B24000401C0029FBD1801A704730B5044600200D
:10B25000034600E05B1C934203D2E05CCD5C401BE4
:10B26000F8D030BD064C0125064E05E02046E368C7
:10B2700007C82B4398471034B442F7D3FFF724FF95
:10B280009C3D0200BC3D020070B58C180578401C46
:10B290006B075B0F01D10378401C2A1106D102789D
:10B2A000401C03E00678401C0E70491C5B1EF9D15F
:10B2B0002B0705D40023521E0DD40B70491CFAE74E
:10B2C0000378401CCB1A921C03E01D785B1C0D70A8
:10B2D000491C521EF9D5A142D8D3002070BD0000F0
:10B2E000F0B50024FF268BB00136012527460694D1
:10B2F000304604F047FB002807D0554840682842F4
:10B3000003D0304604F036FB2C43361D6D007F1C05
:10B31000B6B2042FECD3FF257D35284604F032FB6E
:10B32000002809D0284604F025FB6807044306AA34
:10B330000121002004F00AFB464D200715D001270B
:10B340000026384620420CD04348B2001118086944
:10B350000969C004C00E8903AA58890F002A00D0C9
:10B3600090477F00761C042EEBD3002C6DDA002072
:10B370000890401E63E0281940300778B906890E0E
:10B38000009100214156491C49D009A9009804F0B8
:10B3900061F8002843D0B8090190009802F048F8FD
:10B3A00080002F580198002F02D0032802D00DE012
:10B3B000032834D1009808ABC20841079446985C32
:10B3C000490F01228A401043624698540098052193
:10B3D000090780004018072109024018006806A9E3
:10B3E0008003800F0290009804F034F8002802983F
:10B3F00002D0022802D012E0032810D101980328BD
:10B4000008D1029802281ED00221009804F079FA8F
:10B41000761CF6B2002F02D001990098B847641C40
:10B42000042CA8D3002E10D06A460121002004F07D
:10B430008DFA06990098884207D006900898002651
:10B440003446099097E70321DFE70BB0F0BD000019
:10B4500000630040003B00200065004000F000F861
:10B46000BFF34F8F03490248C860BFF34F8FFEE719
:10B470000400FA0500ED00E0F8B5FF270137384673
:10B4800003F0F0FF01240F4D0F4E002808D038467E
:10B4900003F0F0FF0120A8607470002002F054F85F
:10B4A000FF270537384603F0DDFF002808D038466F
:10B4B00003F0E0FF0220A860B470012002F044F81D
:10B4C000F8BD000000030040EC3A002038B51949EF
:10B4D0008A1500208850FF2241328850009068462B
:10B4E00006F052FA01000C4608D013A000F0A4F8B0
:10B4F000642003F0FFFF204600F07EFB009C08F074
:10B500006FFA002804D001200E490007486040BFB0
:10B5100068460094007806F08FFA01000C4608D0C7
:10B5200005A000F089F8642003F0E4FF204600F055
:10B5300063FB38BD0010014065727220636F646563
:10B540002025640000ED00E010B50A48406800289E
:10B550000DD0804701000C4608D007A000F06CF821
:10B56000642003F0FBFF204600F046FB10BD03F013
:10B57000ABFB10BDE021002065727220636F646533
:10B580002025640010B503F0EDFB002805D01F490D
:10B590001D484860C8131E4988611E48018CC9B205
:10B5A00001290BD1828C120708D1028D1206120FCD
:10B5B000042A03D1828D1206120F0AD0012921D14B
:10B5C000818C09071ED1018D0906090F0A2904D0B3
:10B5D00007E0114A01219160F5E7828D1206120FF2
:10B5E00005D00D290ED1808D0006000F0AD10B4821
:10B5F0000168012904D00A49016001680129FCD1D0
:10B60000C021416110BD0000DFFF07C00005004000
:10B61000006C0040C00F00F00006004000EC064047
:10B620007593000010B50249024807F058F910BDA3
:10B63000483B0020002000400FB410B503A9044B84
:10B64000044A029800F032F810BC08BC04B0184755
:10B65000D5DD0100F421002030B47446641E257845
:10B66000641CAB4200D21D46635D5B00E31830BC36
:10B67000184702E008C8121F08C1002AFAD1704713
:10B680007047002001E001C1121F002AFBD1704762
:10B69000202804DA012181400348014201D0012021
:10B6A0007047002070470000FC06FFBCFFB58DB05E
:10B6B0000446002596E0252832D10027641C4D4A17
:10B6C0000121009723780846203B98400346134207
:10B6D00002D00743641CF5E720782E2817D10420F8
:10B6E0000743641C20782A280CD10E98641C02C8D9
:10B6F00000910E900BE000990A2251433039401816
:10B70000641C00902078014630390929F3D920784B
:10B7100000286BD0642808D0692806D075281ED070
:10B72000109A0F9990476D1C5BE00A200E990190CA
:10B7300001C90E91002802DA40422D2102E03905AC
:10B7400004D52B216A461172012103E0F90704D0C8
:10B750002021F7E70BAE0B910DE00021FAE70A205C
:10B760000E99019001C90E91F7E70199FFF71EFDAF
:10B770003031761E31700028F7D103A8801B2030AD
:10B780000190780701D5009801E00120009001990F
:10B79000884201DD401A00E000200027009006E00A
:10B7A00002A8109AC05D0F9990476D1C7F1C0B98E2
:10B7B0008742F5DB04E0109A30200F9990476D1C0A
:10B7C0000099481E00900029F5DC05E03078109AB9
:10B7D000761C0F9990476D1C0199481E0190002915
:10B7E000F4DC641C2078002800D064E7284611B0FF
:10B7F000F0BD00000928010010B500280CD0002978
:10B800000AD002780B789A4206D10622491C401CC5
:10B81000FFF71BFD002801D0002010BD012010BD46
:10B82000F7B584B0064600251788158020300290B1
:10B83000407B1446002806D03A462146059801F080
:10B8400005F8050009D1B078002823D00598864670
:10B850002088001DB84202D90C2007B0F0BD684610
:10B8600079DF0028F9D121880320724650542088BE
:10B870001921401C80B22080115420887146401C40
:10B8800080B2208041186846008807F0BAF8218805
:10B8900040182080F078002817D0218803230A461A
:10B8A000F356C91C0598B942D6D802218154218883
:10B8B0000122491C89B2218042542188491C89B245
:10B8C000218043542088401C20807068002817D0B5
:10B8D00021880023C3560A46C91C0598B942BBD823
:10B8E0000221815421880A22491C89B221804254B4
:10B8F0002188491C89B2218043542088401C208023
:10B90000308900280AD0009430460197062202218F
:10B910000830059B07F0DCF805009ED1308A00282E
:10B920000AD0009430460197072203211030059B6E
:10B9300007F0CEF8050090D1308B00280AD0009493
:10B9400030460197152214211830059B07F0C0F8E6
:10B95000050082D1306A002806D03B462246059970
:10B9600001F006FE0500D8D1706A002806D03B46DB
:10B970002246059903F0A2FC0500CED10298007B77
:10B98000002807D03B4622463046059906F0E8FAE3
:10B990000500C2D13078002807D03B462246304609
:10B9A000059903F0BFFC0500B7D1284655E7000014
:10B9B000174A0021535C002B01D0012203E0491CEF
:10B9C0000629F7D300221349012806D002280BD0FC
:10B9D000032810D0042818D112E04878002803D09A
:10B9E000002A01D0012070478878002803D0002A5F
:10B9F00001D002207047C878002801D0032070478A
:10BA00000879002801D0042070470020704700000A
:10BA1000C9200020A434002010B5012202210020FA
:10BA200001F04EFB002801D0072824D10722022173
:10BA3000012001F045FB002801D007281BD100217F
:10BA40000A22084601F03CFB002801D0072812D149
:10BA500000221146022001F033FB002801D0072804
:10BA600009D100221146032001F02AFB002801D051
:10BA7000072800D1002010BD10B598B03C2101A8C6
:10BA8000FFF7D1FB02216846017101248471062170
:10BA9000C1710321818211480690202110A8FFF76F
:10BAA000C2FB10A8C470FF202D301490B420159054
:10BAB0000020014600900A4B10AA01A800F036FBB6
:10BAC00001000C4608D007A0FFF7B6FD642003F084
:10BAD000DDFC204600F090F818B010BD24200020B6
:10BAE000C1F9010065727220636F646520256400EE
:10BAF000F0B50F468DB0002116466D460F24621A30
:10BB0000825C6A54491C1029F9D328460D21103053
:10BB1000FFF789FB0020221A395C5219401C11746E
:10BB20000328F8D368464DDF0020211A4919203137
:10BB300009783154401C0328F7D30DB0F0BD10B57F
:10BB4000022001F06DF910BD70B50024064D06E02D
:10BB50006968E000085C012103F0C4FD641C2878DA
:10BB60008442F5D3002070BDA0210020F8B5154611
:10BB70000C460646052A01D20720F8BD03F080FED8
:10BB8000002803D103F04EFE0028F6D11049002012
:10BB90004E600C70C8608D6008610E4D0DE0E000D5
:10BBA00069688019009181786A46517000780A4A64
:10BBB000694603F0DFFD0028DFD12046641EE4B2B1
:10BBC0000028ECD1054A0021024800F02DF8F8BD0C
:10BBD000A0210020803D020021E5010055D7010091
:10BBE000BFF34F8F03490248C860BFF34F8FFEE792
:10BBF0000400FA0500ED00E00EB50021029000916E
:10BC00006A4601910148FFF7EBFF0EBD01400000BD
:10BC100010B505F007FC017B002903D0016882689C
:10BC20000846904710BD000038B500250468002A7A
:10BC300005D0002803D0207B002805D101E0072093
:10BC400038BD6068002801D0082038BD0020206081
:10BC5000A060E06000290ED00120A2600849009198
:10BC600002467D212346C90006A007F0B3FF6060AD
:10BC7000002802D002E00020EFE70E25284638BD5C
:10BC800011BC0100200000000249401C0860002097
:10BC900070470000B4210020FEB5044646682F48D6
:10BCA000154680682E4A401C1268514342088A1883
:10BCB00001461046FFF77AFA0746002E09D0207B8E
:10BCC000002808D0304607F0EBFF002803D0002002
:10BCD000FEBD0820FEBDEFF305802560002822D0C0
:10BCE0000025019501AB3A4609213046009507F041
:10BCF000AFFF01282CD107F06DFE024601AB0621F3
:10BD00003046009507F0A4FF012821D101980028B2
:10BD100020D0012013490007486040BFBFF34F8F78
:10BD2000BFF36F8F16E0022500233A460421304608
:10BD3000009507F08DFF01280AD107F045FE024665
:10BD4000002301213046009507F082FF012801D031
:10BD50000420FEBD01202073B9E70000001501405A
:10BD6000B421002000ED00E07CB5416800240546C8
:10BD700000290DD0EFF30581002918D0019401AB03
:10BD800000220821009407F063FF012818D101E088
:10BD900008207CBD0198002814D001200B49000721
:10BDA000486040BFBFF34F8FBFF36F8F0AE002219F
:10BDB000002300911A46032107F04AFF012801D011
:10BDC00004207CBD2C7300207CBD000000ED00E051
:10BDD00030B5EFF3108172B6094A54680123002C84
:10BDE00004D00370002900D162B630BD5360054B0A
:10BDF0001D68054C254015601C6000220270F1E7AB
:10BE0000BC21002080E100E0FC06FFBC08494A6834
:10BE1000002A0CD000280AD1EFF3108072B60A680D
:10BE2000044B1A6000224A60002800D162B67047B5
:10BE3000BC21002000E100E038B507F0C5FD022577
:10BE40001B4C0246009500230121A06807F000FF6B
:10BE5000012802D00420FFF7CFFE07F0B5FD02460F
:10BE6000009500230121E06807F0F2FE012802D0CE
:10BE70000420FFF7C1FE07F0A7FD0246009500234E
:10BE80000121206907F0E4FE012802D00420FFF719
:10BE9000B3FE07F099FD0246009500230121606979
:10BEA00007F0D6FE012802D00420FFF7A5FE38BD1A
:10BEB000E81F0020F0B504468BB0008800F062FC5B
:10BEC0000590208802F06EFE0646A0680090657A14
:10BED000684605741E4F20880022397800F0A2FCC5
:10BEE0000598002831D06079400710D507213046E9
:10BEF00004F036F9002813D0082269460A74228813
:10BF00004A828E82069004A801F004FD08E0208891
:10BF1000B97800F075FC002802D0304602F02CFE03
:10BF20000321684601712188C18060794007C10FF3
:10BF300068460172A0794007C10F684641720178D6
:10BF40008172C57201A801F0E5FC0BB0F0BD0000E4
:10BF50003C210020F0B50546007D002493B00E463C
:10BF600000280DD00120014610316846039401736A
:10BF7000717B4173817BF9200140891C6846817384
:10BF80001C2104A8FFF74FF96946087C02210843E9
:10BF9000694608742A7DEF21002A02D0102210433E
:10BFA00000E008406A461074059407940894287DC0
:10BFB000002800D003A8099001270A941046977121
:10BFC0002E4A82800094B27B0270F27B42708078AD
:10BFD000F9221040801CE7221040410849006846C1
:10BFE0008170317B017214210BA8FFF71CF901A8A5
:10BFF0000B9068460C908786C486078702A80F902E
:10C00000A888AB1D0BAA04A9A2DF002833D1B06811
:10C0100000282ED068468771194981800094317CB0
:10C02000017000200146684641708078F92108407F
:10C03000801CE7210840410849006846817011A82A
:10C04000B16800F0BDFD064614210BA8FFF7EBF820
:10C0500001A80B9068460C908686C486068711A8B6
:10C060000F902A46E8880E320BA9A3DF002802D1E0
:10C0700000E0EC81002013B0F0BD0000192A0000A0
:10C080000829000010B50B490B4805F0C1FEC1B2EC
:10C090000848683800F0DEF9002809D0082807D0E1
:10C0A0000649884204D00649884201D0FFF7A4FD22
:10C0B00010BD0000302300200C20002004300000C0
:10C0C00001340000F0B50C4693B01F216A46118080
:10C0D000072600279180002809D0C17849070DD58F
:10C0E00002A9FFF79DFB002809D102AD01E0002560
:10C0F0001780002C0ED0E078002802D0304613B014
:10C10000F0BD01AA0AA92046FFF78AFB0028F6D154
:10C110000AAA02E068460022878068468088C3B287
:10C1200068460088C1B2284672DFE8E7FFB581B0F3
:10C130001E460A9F1346040047D0002B45D0504DA1
:10C14000012028700020E870202219464D48FFF792
:10C1500043F800206F61C0432E61288128460721E3
:10C160001830FFF760F847483C212030FFF75BF8B4
:10C170004448217820300170A1788170E178C17045
:10C18000617841703F4A65692369556311461363BD
:10C190002031E368A268CB608A603A49E369A2690A
:10C1A000CB638A63616A00291AD001463C3102469A
:10C1B000483241628A60636A1B880B80616A436A05
:10C1C000898899800021436A07E00E2005B0F0BD00
:10C1D000656AAD686D5C5554491C9D888D42F7D8E1
:10C1E000A16A00291CD0274A943211460C398A6072
:10C1F0008162A36A9B888B80A16A836A09881980FF
:10C200000021836A04E0A56AAD686D5C5554491C41
:10C210009D888D42F7D82C210A5D1A4940310A7356
:10C22000216A002909D016490A310162226A52881E
:10C230004A80216A026A098811806168002900D059
:10C240004160104A0E490020B3322031C3001B1A4E
:10C2500085009B180C68401C63510828F6DB094ACE
:10C260000020EB32030185009B188C68401C635151
:10C270000828F7DB034802992030FFF723FFA5E7E2
:10C28000B0200020A434002010B50188134C1029E0
:10C2900015D0112919D01B2910D1007A00280DD1F1
:10C2A000E0780521401CFEF781FF084600F04EF8BB
:10C2B000002803D06169002900D0884710BD817D26
:10C2C0000129FBD18088208110BD00216171808807
:10C2D00021898842F8D10120E8E70000B020002041
:10C2E00010B5022801D003280ED1084C6078002830
:10C2F0000AD000206070E07800F028F8002803D011
:10C300006169002900D0884710BD0000B0200020DE
:10C3100010B574DF0B4C012060710B490620C8700A
:10C3200000210948FFF7CEFE002809D1E07800F08F
:10C330000DF8002803D06169002900D0884700204B
:10C3400010BD0000B0200020C4340020F1B53F4CE7
:10C3500088B0207800280AD00898E07006A801F07C
:10C36000DDFD06980125002804D065706AE00820EC
:10C3700009B0F0BD3548002707211830FEF753FFFC
:10C38000334E7078002802D0E078012807D0B078CA
:10C3900000280CD0E078012801D0022807D12169BB
:10C3A000002903D025710820884700E027710898EC
:10C3B000FFF7FEFAE0702169002909D0032801D0B7
:10C3C000042805D13078002802D06079002811D0E7
:10C3D000A77118216846FEF726FF684607700772A6
:10C3E000E1781A480B001830FFF736F9052E080FD0
:10C3F000191D2000A57107208847EAE7A570019064
:10C40000684605704782078213E00221A1700190FF
:10C4100068460570B18941823189018209E0684628
:10C4200005F07CFE02E0684605F0A4FEE0780028F6
:10C4300003D0684673DF00289AD12169002901D012
:10C44000A0788847002093E7A770F6E7B020002087
:10C45000A434002073B586B004002FD06A46217C36
:10C46000127F0020914227D00025012668460095C2
:10C470000680458007A80190E188608A6A46A4DFAB
:10C48000002819D16846007F2074608A0D498842CF
:10C4900016D0207D002813D00295039504950595AC
:10C4A000E188684601818672418881810490019803
:10C4B0000590608A02A9A6DF08B070BD0E20FBE7D8
:10C4C0000820F9E7FFFF000038B50D4604001AD038
:10C4D000002D18D0286820600020C0436082287991
:10C4E0002075FF2020740121684681700749018072
:10C4F000221D69460120A0DF002803D129462046DD
:10C50000FFF728FD38BD0E2038BD00000F180000D1
:10C5100038B5002824D0002922D00A88102A1AD041
:10C52000112A1AD0502A1BD10446007D002817D0AA
:10C53000891D08886289904212D1488902280FD14A
:10C54000206800280CD008460C3000F032FB002890
:10C5500007D0002006E0898801E00021C94341821C
:10C5600038BD01206946087022682046904738BDD2
:10C5700070B5054601461C220E48FEF72DFE0E4CF6
:10C58000002626702968002906D00822201DFEF703
:10C5900023FE201D7ADF02E00748001D7BDF002814
:10C5A00007D1401E60806670044A00210448FFF7EE
:10C5B0003BFB70BD70360020E0200020552A0200B1
:10C5C000F83C0200F8B5214C0146028800261E48BE
:10C5D000E589102A13D01E4F112A1FD0122A2BD002
:10C5E000502A1AD1881DC988A94216D14189022929
:10C5F00013D10C3000F0DDFA00280CD112E08A884B
:10C60000044642801048082218310C30FEF7E4FD41
:10C610006670002D01D100F0F3FFF8BD0021C94381
:10C62000418046703868FFF79FFB0028F5D0A1696C
:10C630000029F2D08847F8BD0348082208310C30A1
:10C64000FEF7CAFDE7E70000E0200020703600207A
:10C65000F83C020010B503490A7D091D05F057FAA0
:10C6600010BD00008C360020034B10B50246D97D6A
:10C67000181D05F039FA10BD8C360020034B10B59B
:10C680000246197E181D05F02FFA10BD8C360020C9
:10C69000F0B50446028839488DB001461531019144
:10C6A000102A09D0112A4FD01A2A49D1217A090912
:10C6B00001294DD901234CE0027D417D05468A4385
:10C6C000011D07A805F023FA142207A902A8FEF706
:10C6D00083FD002629483746143008900AE071008F
:10C6E00002A8081883881D220097281D089905F0C4
:10C6F000BBF9761C0298B042F1D8287DA688C043C9
:10C70000C0B205F0D5F91E49884216D04000401944
:10C71000868001233246281D019905F01BFA01236A
:10C720003246281D089905F015FAA07D022809D087
:10C7300000231249A28816311CE00420FFF75CFA9E
:10C740000DB0F0BD0123F4E70023A288001D12E024
:10C7500000230A490546A2881731001D05F0FAF9A1
:10C76000207A0009022801D9012300E000230349AF
:10C77000A2881831281D05F0EDF9E1E78C3600207C
:10C78000FFFF000070B50B4E05460024317D2A46A0
:10C79000301D05F0A9F9002809D0B17D2A46301DC9
:10C7A00005F0A2F9002801D0022400E0012420466F
:10C7B00070BD00008C36002010B50024204606F025
:10C7C0007BF9002805D0641CE4B2182CF6D318209D
:10C7D00010BD044801220168A240114301602046B7
:10C7E00010BD00008C36002010B5044606F064F938
:10C7F000002802D001480019407E10BD8C36002070
:10C8000070B505460C46084606F056F9002806D0D5
:10C8100003482A460119497E001D05F065F970BDDF
:10C820008C36002070B5064615460C46084606F0C4
:10C8300043F9002807D004482B4601191931324624
:10C84000001D05F087F970BD8C3600207CB50546CB
:10C8500008880C460930904201D90C207CBD6846FE
:10C8600071DF0028FAD121880820685420881B2114
:10C87000401C80B220802954208800A9401C80B22E
:10C880002080401906220131FEF7A6FC2088694667
:10C89000801D80B220800978002900D00121295410
:10C8A0002088401C208000207CBD00007FB504460D
:10C8B0000121684681714A4981804A4A01A90120C3
:10C8C000A0DF00287ED1228825463C35002A09D0E9
:10C8D00044482B46801C00904348616800F0B0FD3E
:10C8E00000287BD12289002A0AD03E482B460A30F4
:10C8F00000903D48E168401F00F0A2FD00286DD186
:10C90000228A002A0AD037482B4612300090364837
:10C910006169001F00F094FD00285FD1228B002A7E
:10C920000AD030482B461A3000902F48E169801E0B
:10C9300000F086FD002851D1228C002A0AD0294817
:10C940002B46223000902848616AC01E00F078FD16
:10C95000002843D1228D002A0AD022482B462A30B3
:10C9600000902148E16A401E00F06AFD002835D1A0
:10C97000216B00290ED002A805F006FF19482B46AE
:10C98000323000901848082202A9801F00F058FD9C
:10C99000002823D1606B00280BD012492B463A3176
:10C9A0000091027901681048401C00F049FD002800
:10C9B00014D1A16B002910D002A804F097FA0948FD
:10C9C000423000E00AE0009007482B46072202A907
:10C9D000273000F035FD002800D1002004B070BDE4
:10C9E0000A18000056210020292A000010B504462C
:10C9F000FFF74EFE204604F0D5F821460A4800F025
:10CA000071F8094821461838FFF782FD2046FFF7E4
:10CA1000D9FD204600F0A0FA204602F0EFFF2046A4
:10CA2000FFF732FC10BD0000E022002030B50446C4
:10CA3000008C134A8BB090421FD006AA204601F00A
:10CA400015FF69460546088000200190029003907A
:10CA5000049022898A8001228A71088106A80391A4
:10CA60000490208C01A9A6DF002804D1694609881A
:10CA7000A94200D00C200BB030BD0820FBE700001D
:10CA8000FFFF000038B5044608682060087960712F
:10CA90000020C0430D46208400212220015520465D
:10CAA00040308181142181730121684681700C49D5
:10CAB0000180A21D69460120A0DF00280FD1294670
:10CAC000204601F07DFE002809D1A868002805D085
:10CAD0002946204600F04CF9002800D1002038BD3E
:10CAE0000D18000038B502460888102816D0112805
:10CAF00016D0502817D1881DC9889389994212D120
:10CB00004189144602290ED1216800290BD00C302E
:10CB100000F04FF8002807D0002006E0888801E0E8
:10CB20000020C043108438BD012069460870226887
:10CB30002046904738BD70B5054604464035A88963
:10CB40000E46142807D12622A118881EFEF744FBA2
:10CB5000A889401EA88180B241000919401CA88103
:10CB60008E8470BD203081707047000008B50020B1
:10CB7000009009486946806906F01BFE009800286D
:10CB800008D0012005490007486040BFBFF34F8F20
:10CB9000BFF36F8F002008BDE81F002000ED00E00C
:10CBA00070B504460D460846FEF748FB20806560D8
:10CBB00070BD4178027808021043C007C00F70476B
:10CBC0000A780270497841700220704710B52B48EE
:10CBD00086B0006805902A4B48222A4905A805F02E
:10CBE0008FFD01000C4608D027A0FEF725FD64202C
:10CBF00002F04CFC2046FEF7FFFF6A4601210020B0
:10CC000005F066FD01000C4608D01FA0FEF714FDDC
:10CC1000642002F03BFC2046FEF7EEFF684605F07C
:10CC20004DFD01000C4608D017A0FEF705FD64205D
:10CC300002F02CFC2046FEF7DFFF164805F034FD1D
:10CC400001000C4608D010A0FEF7F6FC642002F0AC
:10CC50001DFC2046FEF7D0FF0F4805F083FD0100C4
:10CC60000C4608D008A0FEF7E7FC642002F00EFC9A
:10CC70002046FEF7C1FF06B010BD0000BC3C02001C
:10CC80006DCB01008022002065727220636F6465A5
:10CC900020256400EDC901007927020088B005F065
:10CCA0009BFD684600F05CFBFFF790FF6946087843
:10CCB00003F030FD01F0B4F9FEF7DEFE05F098F95F
:10CCC00005F04EF81C2101A8FEF7ADFA1F490291AC
:10CCD0001F49002003910190032269460A741D49EF
:10CCE0008A8969464A8208751B4806901B48079046
:10CCF00001A8FFF73DFC01000C4608D018A0FEF784
:10CD00009BFC642002F0C2FB2046FEF775FFFFF794
:10CD100093F80320FFF71AFB01000C4608D010A07F
:10CD2000FEF78AFC642002F0B1FB2046FEF764FFA8
:10CD300000240E4DE443002322461946A86906F05C
:10CD4000E0FB0028F7D001F0BFFFF4E788130000F4
:10CD500030750000E0220020C9FA0100F9D5010079
:10CD600065727220636F646520256400E81F0020EF
:10CD7000F0B58FB00D4606461C216846FEF753FA03
:10CD8000684601780220014368460170002401943E
:10CD9000039404940594012708A806948770144905
:10CDA000684601840794E97B0177297C4177807F7D
:10CDB000F9210840801CE7210840410849006846E5
:10CDC0008177142109A8FEF72EFA08A8099007A870
:10CDD0000A9068468785C4850786A8680D90334603
:10CDE000F088103309AA6946A2DF0FB0F0BD000039
:10CDF000382A00000149085C70470000C43C02006A
:10CE00000549095C05480069C840C007C00F00D04B
:10CE10000120012148407047C43C02000005005039
:10CE200005490B5C05494A68012098400346934335
:10CE30008B601040C8607047C03C02000005005085
:10CE400010B50349085C012102F074FD10BD00001B
:10CE5000C03C020010B50349085C002102F06AFDE5
:10CE600010BD0000C03C02000549095C054840684F
:10CE7000C840C007C00F00D00120012148407047C2
:10CE8000C03C0200000500507CB50024074E25463A
:10CE9000305D0122009500231146019502F0F8FC57
:10CEA000641C042CF4D300F003F87CBDC03C0200E9
:10CEB00010B500242046FFF7C3FF641C042CF9D3EF
:10CEC00010BD10B500242046FFF7C4FF641C042CDD
:10CED000F9D310BD0246002010B5C043054B002118
:10CEE0005C5C944201D1084610BD491C0429F7D36B
:10CEF00010BD0000C43C020070B5104E00250C4669
:10CF0000306000290DD0012000F0A6F8002801D0E3
:10CF1000022005E0002000F09FF8002800D00B2040
:10CF20002070217806A0FEF787FB7068002802D1E8
:10CF3000FEF772FD0546284670BD00004420002023
:10CF40000D0A705F737461727475705F6273705FE5
:10CF5000657674202564000010B5104C0188606867
:10CF600010290DD011290AD1401E606007D1FEF7AB
:10CF700053FD002803D02168002900D0884710BD48
:10CF8000002807D100F070FB002803D02168002999
:10CF900000D088476068401C606010BD44200020BD
:10CFA00010B5002000F0CEF9002801D0062807D1E6
:10CFB000012000F0C7F9002801D0062800D1002088
:10CFC00010BD0000F3B581B00D460198FFF782FF58
:10CFD0000446042813D21D481D4F1E4E002D27D095
:10CFE000012D0DD0022D0AD160002018C0194578FE
:10CFF000002D04D0F168002901D028468847FEBDE5
:10D00000610061187D5CCF19797800290BD07168B7
:10D010000A2251430F4A8068921CFEF73DFE002809
:10D0200001D10198B0700B48B97810300155DFE795
:10D030008068FEF799FE0748610061181030C91931
:10D04000005D8D78A842D3D0FEBD0000C83C020030
:10D05000A02300203020002010B5FFF7D1FE10BD26
:10D0600010B5014611480429408806D0072913D07D
:10D070000A2901D105F0A8F810BD132176DF10E0D0
:10D080000400F9D00AA0FEF7D7FA642002F0FEF9F6
:10D090002046FEF7B1FD10BD08498842FBD1FFF7DD
:10D0A00037F901460828EBD110BD0000E81F002029
:10D0B00065727220636F646520256400FFFF0000C5
:10D0C00070B50023042811D2440004190D4D012A23
:10D0D00002D101290DD0002246008019094E801985
:10D0E00000290CD0012906D0022906D007231846B2
:10D0F00070BD0E30C2B22A55F9E74270F7E7827070
:10D10000F5E70000A023002010B5054A0146127A79
:10D110000020D20702D0084600F054F810BD0000ED
:10D1200030200020F8B5064621480F468660C260D0
:10D130004160B00727D50025012211462846FFF798
:10D14000BFFF6D1C0446042D02D2002CF4D013E066
:10D15000002C11D17A0804211648FEF707FD0400BF
:10D160000AD1FEF7F1FC040006D11248124A002150
:10D17000001FFEF759FD0446F00701D0FFF784FEBB
:10D18000002C04D012E0F00701D0FFF77DFE094823
:10D190000A4A00210C38FEF747FD040006D1054875
:10D1A000074A01210838FEF73FFD04462046F8BD36
:10D1B00030200020D43C020055D30100E5ED0100F1
:10D1C0003FBB0100F8B55D4C05466078002600289D
:10D1D00003D000206070FFF76BFE0120584F2B003A
:10D1E000FEF73AFA18970D0D2E3D4A5F64686F6896
:10D1F0006FA97777777777979A9DA0A9A99500204F
:10D20000FFF732FE00280AD00020FFF719FE022D9A
:10D2100002D1E120C0000BE07D20400108E00020A9
:10D22000FFF718FE022D01D1C82001E0FF20913048
:10D2300025706421FDF7BAFF6168414300222BE0AD
:10D240000020FFF711FE002805D00020FFF7F8FDB1
:10D2500019204001ECE70020FFF7FCFDE4E7002087
:10D26000FFF702FE002803D00020FFF7E9FDD3E717
:10D270000020FFF7EFFDD9E70020FFF7F5FD0028BC
:10D2800003D00020FFF7DCFD02E00020FFF7E2FD05
:10D2900025706068410000223868FEF7FDFC0646F4
:10D2A00035E00020FFF7BCFD257007E000203FE0DF
:10D2B00025702CE060700120FFF7B2FD002261684C
:10D2C000EAE760700120FFF7ABFD6068810041185C
:10D2D000E1E77868FEF748FD06461120401B01D0C3
:10D2E000002E03D00220FFF7ABFD10E001280BD980
:10D2F000C82148436421FDF759FF6168002241437A
:10D300007868FEF7C9FC06460220FFF7A3FD304609
:10D31000F8BDFFF7CDFDCBE7FFF7CAFDC6E7FFF786
:10D32000C7FD04E0FFF7C4FD0020FFF793FD0120D7
:10D33000FFF790FDBCE7FFF7C4FDB9E73020002000
:10D34000C83C020010B5FFF755FD032102F0C8FAF2
:10D35000002010BD10B500780221FFF733FE10BD8C
:10D3600038B50546144A15490320FFF7DBFE0100D6
:10D370000C4608D012A0FEF75FF9642002F086F890
:10D380002046FEF739FC69460020FFF7B5FD010095
:10D390000C4608D00AA0FEF74FF9642002F076F898
:10D3A0002046FEF729FC68460078022802D00020BB
:10D3B000287038BD0120FBE761D00100CD0C0000D2
:10D3C00065727220636F6465202564000022D24379
:10D3D000830004490428CA5002D308182030027779
:10D3E00070470000003B0020F0B50025ED43002A07
:10D3F00002D00023042601E0042308260B4C04E09D
:10D400009F00E7597F1C04D05B1CB342F8D3284629
:10D41000F0BD26185DB2203635709E00A151002A5D
:10D42000F5D1E11820310877F1E70000003B00203A
:10D43000024909182020085670470000003B0020D0
:10D44000FFB58FB01E4615460F0002D10020FEF733
:10D45000D3FB002D02D10020FEF7CEFB1C21684635
:10D46000FDF7E1FE6846017802200143684601703D
:10D4700000240194039404940594012108A80694BF
:10D48000817068460F99018407943178017771782B
:10D490004177807FF9210840801CE721084041083E
:10D4A000490068468177142109A8FDF7BCFE08A849
:10D4B000099007A80A9068468585C48505860448B2
:10D4C0000D9709AA69460088189BA2DF13B0F0BD2A
:10D4D00056210020002807D00449814204D804497D
:10D4E000814201D90120704700207047F8210020B7
:10D4F00008220020044A0168914201D0083101E06D
:10D500000149383901607047603C002070B50D4D0D
:10D5100004460A462846AC4208D1FF24013421467D
:10D52000104603F0FDFAA0420AD070BDFF2CFCD8D3
:10D530002146104603F0E6FA002801D0204670BDCF
:10D54000284670BDFFFF000070B5084C050009D0EB
:10D5500010342168002907D00868206049682846EF
:10D560008847F6E70834F4E770BD0000EC3A002085
:10D57000F8B50646108814468446801D0D4698422C
:10D5800001D90C20F8BD32880720062AFAD31927C2
:10D59000FF01184BBA4201D99A42F3D1718806298A
:10D5A000F0D3B94201D99942ECD19A4203D09942C1
:10D5B00001D08A42E6D805216046295420881221EC
:10D5C000401C80B2208029542088401C80B22080DA
:10D5D0004119308805F015FA2188401880B2208062
:10D5E0004119708805F00DFA21884018208000202C
:10D5F000F8BD0000FFFF000010B5FEF7FDFA10BDFA
:10D60000F8B5164801F0A0FB144D00260C3D144C53
:10D61000002807D0616900291CD001206A461070DB
:10D62000684616E02878002805D06169002911D0E5
:10D63000684606700DE0687800280DD0A16809489A
:10D6400000220068FEF728FB002803D0A16900290A
:10D6500000D088472E70F8BD6168F0E7EC2000200C
:10D6600070360020F83C020010B500210122084667
:10D67000FFF726FD002801D0072824D10722022128
:10D680000120FFF71DFD002801D007281BD104222F
:10D6900002210020FFF714FD002801D0072812D135
:10D6A000102200210220FFF70BFD002801D00728DF
:10D6B00009D1112200210320FFF702FD002801D02B
:10D6C000072800D1002010BD7FB50C46002802D0ED
:10D6D000012004B070BD20790026002806D01B4D23
:10D6E00001281CD0022828D00F20F2E702960396CA
:10D6F000E0680190694601A803F0D2FF00280AD033
:10D7000002988188E1800088208169460988029812
:10D7100004F040F800E00A2002212171D9E70C4B07
:10D720006A460021A01D03F079FF002807D00849B0
:10D7300008398E60CE600A28CBD12846C9E7044854
:10D740008188019804F026F8F5E700001D1D00000F
:10D75000CC210020F8B500260124154D24E069688D
:10D76000F00047183878214681402A690B46134259
:10D7700018D08A432A6102F04DF83A782146EB68C6
:10D78000914019400346934099420BD17978012981
:10D7900001D0012100E000217B684140002B01D035
:10D7A00010469847761CF6B228788642D7D3F8BD43
:10D7B000A0210020054901200968002901D000208E
:10D7C00070470349096A0029F9D1704740340020A5
:10D7D000602000203EB5094D383538CD00930295C4
:10D7E00001946B46588099809A7105490022097806
:10D7F000FFF718F8684600F08DF83EBD343D020092
:10D800003C21002010B5047800222300FDF724FFFE
:10D81000070605070D1D262C06000A7010BD012203
:10D820000A7002898A81828814E002220A700289C1
:10D830008A818288CA81C2688A60007C062802D0F8
:10D840000020087410BD0120FBE703220A70C28883
:10D850008A810289CA81C068886010BD04230B7068
:10D86000C0888881CA8110BD0520087010BD0000E5
:10D8700070B5064D06460024A0002958002901D0A5
:10D8800030468847641C082CF6D370BD903B0020BE
:10D890000EB5002910D011290ED00022009202925C
:10D8A0006A46508001910D2907D0862907D00920AA
:10D8B0001070104600F03CF80EBD0B20F8E70A206F
:10D8C000F6E700000149096808470000FC20002035
:10D8D00070B5054D06460024A000295830468847FB
:10D8E000641C022CF8D370BD143D0200F8B5074645
:10D8F0000024064E064D04E0A00031583846884703
:10D90000641CE8788442F7DBF8BD0000A03A0020F0
:10D910002C21002070B5054D06460024A000295892
:10D9200030468847641C022CF8D370BD343D020099
:10D930000149096808470000783D02007FB50446A8
:10D94000406800280BD00020039020780026414D2D
:10D950000300FDF781FE066D0606304E7B6D01204B
:10D96000F2E7A08900F0DAF9002804D1E08903F099
:10D9700033FF00285CD0A08900F0CAF90146684650
:10D980004180E08903F022FF01466846017120785A
:10D990000128606807D0002809D004206946087073
:10D9A0006068039020E00028F8D00320F6E701200B
:10D9B000F4E708463AE0A08900F0B0F9002804D165
:10D9C000E08903F009FF002832D0A08900F0A0F917
:10D9D00069464880E08903F0F9FE6946087160688D
:10D9E000002804D005200870A0680290E1E702201A
:10D9F000F9E7A08900F092F9002819D0E089002801
:10DA000016D1A08900F084F969464880E08903F0C6
:10DA1000DDFEFF2069460871606800280FD00720EE
:10DA200008706E70AE7002F077FD684602F030FC50
:10DA30006878002802D06E7002F06EFD7FBD06216E
:10DA400068460170408802F0F5FDEAE70820694663
:10DA50000870AEE71821002000B5104987B009789A
:10DA6000890702D4022007B000BD0D49884201D1C8
:10DA70000420F8E7052269460A7001220A71C8806D
:10DA800000221146684602F067F8002803D003F030
:10DA9000A9FD0020E7E70820E5E70000C4210020F9
:10DAA000FFFF000000B50F4887B00078800702D460
:10DAB000022007B000BD062069460870002211460A
:10DAC000684602F049F8002809D007480178002983
:10DAD00001D00121017303F085FD0020E9E7082052
:10DAE000E7E70000C4210020903C002010B58CB076
:10DAF00014216846FDF797FB1D480078810703D580
:10DB00006846FFF7B5FE30E0C0072ED1012000F0D7
:10DB10002BF900F0ADF901246846047502F0AEF867
:10DB20000300FDF799FD0C071107111B190A191BBA
:10DB30001317131B0B200CB010BD022000F014F9BA
:10DB4000012000F0F7F8DBE7002000E00320694641
:10DB5000087603E00220FAE76846047600221146C0
:10DB600005A801F0F9FF03F03DFD0020E3E7000008
:10DB7000C421002038B5040014D0694603F090FD9C
:10DB8000002813D0684600880101094809188889CF
:10DB9000002809D0A27A002A06D0401E88810020E1
:10DBA000A07238BD052038BD062038BD0A2038BD1A
:10DBB000703C00201FB501A9684603F02FFD04B09A
:10DBC00010BD07B513460A466946002003F026FD3E
:10DBD0000EBD07B513460A460021684603F01EFD38
:10DBE0000EBD002805D0002903D000680860002081
:10DBF000704705207047000038B50D46040017D067
:10DC0000002D15D0694603F04BFD002812D0684660
:10DC1000008861680201084812189089401C9081B0
:10DC2000296060680C3068600120A072002038BD57
:10DC3000052038BD0A2038BD703C002010B50028F2
:10DC400004D00323002205F0EBFA10BD052010BD1F
:10DC500010B50223002205F0E3FA10BD10B5002A2A
:10DC600003D0022305F0DCFA10BD052010BD000032
:10DC700010B5064A5178082906D08B00044C491C7F
:10DC8000E0505170002010BD0C2010BDC4210020B8
:10DC9000903B002038B504460A480D4600788007BE
:10DCA00001D4022038BD002C0AD06946284605F070
:10DCB000C7FB0028F6D1694609882180658038BDF8
:10DCC000052038BDC421002010B504460E48007858
:10DCD000800701D4022010BD002C10D02188022919
:10DCE0000FD80A4A0801801842896088121AD21E89
:10DCF00007D405F09BFB00202080608010BD05202C
:10DD000010BD042010BD0000C4210020703C002084
:10DD100003218903401A80B2704700000321890360
:10DD2000401A0349884201D80120704700207047FB
:10DD3000FE3F000002490A7882430A7070470000E3
:10DD4000C421002010B504460078182802D1FEF73F
:10DD500033FD207010BD10B504460078182802D19C
:10DD6000FEF72AFD207010BD02490A7802430A70AE
:10DD700070470000C421002070B50646002005460B
:10DD8000862906D0112902D0002903D070BD0125B3
:10DD900000E001200E4C002A02460FD06179304687
:10DDA000FEF740FD2A4621793046FEF73BFD002272
:10DDB00061783046FEF736FD002204E06178304697
:10DDC000FEF730FD2A4621783046FEF72BFD70BD68
:10DDD0004021002038B50446684604706946032097
:10DDE000ABBE204638BD0000F8B506461C481F46AD
:10DDF000007815460C46C0070AD03046FFF76AFB8C
:10DE0000002807D0002C07D0A00507D00620F8BDB9
:10DE10000120F8BD0220F8BD0320F8BD3068A04203
:10DE200004D8A80271680019884201D90520F8BDFC
:10DE3000002D11D0684603F027FB00280ED0009873
:10DE40000221476006600172A101090C81810582EF
:10DE500003F0D6FB0020F8BD0420F8BD0720F8BD74
:10DE6000DC21002010B5084603F02AFB10BD00009D
:10DE7000F0B52648264C001B030926481946406980
:10DE8000421C03D10120000740698002224A127817
:10DE90009646D2070CD00020F0BD1D4C15012C1960
:10DEA0002568002D03D06468002C00D0491E521C48
:10DEB0009A42F2D3002420E0E2B2002594462A469A
:10DEC0000FE0134E1701BE193768002F02D0776894
:10DED000002F05D1767BAE4202D93546D6B2B44684
:10DEE000521C9A42EDD362461501094AAA185060A5
:10DEF000157BAD02401B641C10608C42DCD30648CD
:10DF00007146012211430170C5E70000082200207C
:10DF1000F821002000100010DC210020002804D08F
:10DF20000349496E016000207047032070470000DC
:10DF3000A03C0020F8B507461E481E46007815464E
:10DF40000C46C0070ED03846FFF7C4FA00280BD0A5
:10DF5000002D0BD0002C09D028462043800707D085
:10DF60000620F8BD0120F8BD0220F8BD0320F8BD51
:10DF70003868A04204D8B10078680919884201D2F3
:10DF80000520F8BD002E11D0684603F07DFA002868
:10DF90000ED0009806990760416001210172C560AA
:10DFA0000461868203F02CFB0020F8BD0420F8BD3C
:10DFB0000720F8BDDC21002070B5174B0446186E11
:10DFC000182148431549C0180A78950715D5022C21
:10DFD00002D0032C1CD102E001F094FD18E04A7835
:10DFE000521CD2B24A70032A12D900224A70082168
:10DFF00003F084FE03F032FA0AE0500708D5FB2054
:10E0000002400A70586E002802D0022002430A70B3
:10E0100003F0B2FA70BD0000A03C0020DC2100201B
:10E020003EB51120694608720A221DA102A87CDFB4
:10E0300001000C4608D01DA0FDF7FEFA642001F097
:10E0400025FA2046FDF7D8FD1B4878DF01000C4675
:10E0500008D016A0FDF7F0FA642001F017FA204668
:10E06000FDF7CAFD0020FF22009041326946019071
:10E070000A804122D2004A808880FF209130C880E7
:10E0800068467ADF01000C4608D008A0FDF7D4FAF4
:10E09000642001F0FBF92046FDF7AEFD3EBD000017
:10E0A0004E6F726469635F48524D00006572722062
:10E0B000636F6465202564004103000070B500288B
:10E0C00001D0012070BD164C0025207B002801D016
:10E0D000257301E000F09CF820780300FDF7BCFAFE
:10E0E000081E05080B0E1E111A1E00F01BF870BD4D
:10E0F00000F07EF870BD00F061F870BD00F038F8F7
:10E1000070BD60880649000120394018406801F060
:10E1100095FD70BD656001F09FFD70BD0F2070BD65
:10E12000903C002070B5104900208A1C0D46034623
:10E13000203D0C18A67A002E08D0A37204016419A1
:10E14000A689002E02D1A47B012C08D0401C80B2ED
:10E150000228EED30B704B8004484B6070BD1080DA
:10E1600000F046F870BD0000903C00201D1D00002E
:10E1700010B50F4C608801012046203808188189AD
:10E1800000290BD0052020700A48022181800168F7
:10E19000002301220848FFF727FE10BD4168002335
:10E1A00001220548FFF720FE0421217010BD000068
:10E1B000903C0020D4210020F821002038B50A49E5
:10E1C00008480B68898842688900591853880324D5
:10E1D00004700020DB1C00909BB20448FFF7AAFEED
:10E1E00038BD0000903C0020D4210020F821002000
:10E1F00010B506494888091D03F0A2FA002802D08C
:10E20000FFF7DCFF10BDFFF7B3FF10BD903C00200F
:10E21000F0B51D481D4907780246012502268C8865
:10E22000203A3B00FDF718FA080517171A212C2C85
:10E2300016170189491C01810021418001730B01DE
:10E24000D35C002B08D000234418491C89B2A37268
:10E250000229F4D30570F0BD0123F5E74268528826
:10E26000D21CA2188A800670F0BD45880B682D016B
:10E27000AA1855680D60536014818E80062100E055
:10E2800007210170F0BD0000903C0020D421002047
:10E29000F0B504460088384D8DB050281DD0522866
:10E2A00002D0542826D103E0A08800F02DFF21E001
:10E2B000062069460870A08800F074FC6946488012
:10E2C000A2888A8000F056F9A0880022E978FEF73B
:10E2D000A9FA6846FFF7F6FA0CE0207B012809D17D
:10E2E000A07A012806D120892449884202D1A08839
:10E2F00000F046FFA878FEF777FA002819D008A8A2
:10E30000FEF7A8F9142208A903A8FCF765FF00246A
:10E3100003AE0BE060008719B888A978FEF770FAA1
:10E32000002802D0B88800F0EFFE641C0398A042D9
:10E33000F0D86878FEF758FA002819D008A8FEF738
:10E3400089F9142208A903A8FCF746FF002403AEAC
:10E350000BE060008719B8886978FEF751FA002849
:10E3600002D0B88800F00CFF641C0398A042F0D8DB
:10E3700003F05CFD0DB0F0BDF42000200229000088
:10E380003EB504464088694648802078002814D06D
:10E3900001281DD002280FD1207900280CD06088D8
:10E3A00000F034FB0E49884206D00E490122C9789C
:10E3B000FEF738FA03F03AFD3EBD0020087008462B
:10E3C000FFF780FA608800F021FB00F09DFE3EBD63
:10E3D000012168460170A1888180FFF773FA3EBD74
:10E3E000FFFF0000F420002010B50446007801284B
:10E3F0000DD1608800F088FE608800F081F9002867
:10E4000005D0034960880122C978FEF70BFA10BDD8
:10E41000F420002010B5104C00202070FEF7CCF93D
:10E420006070FEF7C9F9A070FEF7C6F9E070FEF75C
:10E43000C3F92071617818290BD0A178182908D068
:10E44000E178182905D0182803D001202070002079
:10E4500010BD032010BD0000F4200020F0B585B0F1
:10E4600000F0A0F86846FEF7F5F800246D460C4F62
:10E470000EE060004619B08800F094FBB84205D168
:10E480000849B0880122C978FEF7CCF9641CA4B20F
:10E490000098A042EDD803F0C9FC05B0F0BD000023
:10E4A000FFFF0000F420002010B50178072902D1F9
:10E4B000408800F065FE10BD10B504460A4841785A
:10E4C0002046FEF79DF900280CD0084800210C22B8
:10E4D0004A4312185288A24201D1C8B210BD491C49
:10E4E0000829F4D3FF2010BD0C210020C0360020E5
:10E4F00070B5094D094E00240C2060434019408836
:10E500007178FEF77DF9002804D0641C082CF3D341
:10E51000FF2070BDE0B270BDC03600200C2100208D
:10E52000F8B50746114E0125BD403068FDF71CFCCB
:10E53000002806D10E4C20690146294202D0A8438A
:10E540002061F8BD384601F065F90028E06801D087
:10E55000284300E0A843E0602069002228432061AE
:10E56000A1683068FDF798FBF8BD0000803D02000F
:10E57000A02100201CB5054A9168D2680192009143
:10E580000022694601F04CFD1CBD0000003D020068
:10E5900003480021C9438180012101700020704798
:10E5A0000021002010B5044801F06EFC034988806A
:10E5B00003F068FC10BD0000FFFF000000210020F8
:10E5C000F1B582B0029800F0EDFA00241649032557
:10E5D00001272646884209D06A46082101F0F6FC48
:10E5E000002803D1019886880568841D2B46324691
:10E5F00021460298A9DF042804D0082804D00B285B
:10E6000007D002E0112000E00020002F00D10B20F5
:10E61000FEBD0027A80701D50125E7E73443F6D062
:10E62000002426460325E1E7FFFF0000F1B582B094
:10E63000029800F0B7FA07461B48874201D11B48F1
:10E64000FEBD01252A466D1C0026ADB26B46082191
:10E65000384601F0EBFC040002D0072C21D021E069
:10E66000019903230B600A1D891D0298AADF04008B
:10E6700004D00C2C08D0052C08D008E0082138461E
:10E6800001F06EFD04460DE0012600E000240821A3
:10E69000384601F04FFD002800D00324002ED1D1D0
:10E6A00000E00C242046FEBDFFFF00000230000009
:10E6B0001FB504460078012815D12079012812D110
:10E6C000608802AA012101F081FC00280BD10221FF
:10E6D000684601706188418003980178684601713D
:10E6E00005490968884704480449083880888842F1
:10E6F00001D003F0C7FB1FBD08210020FFFF000071
:10E700001CB500F04FFA6A46012101F05FFC0028B9
:10E7100001D000201CBD019800781CBDF8B5074E43
:10E72000074C084D0746324661883846A7DFA842A5
:10E7300003D16088401C6080F5E7F8BDFFFF000052
:10E7400000210020033000008188054A914204D056
:10E750000088002801D00120704700207047000089
:10E76000FFFF000010B51249124803F051FB114C95
:10E7700081B22C3C6068401C60600D486038FEF738
:10E7800055F9002809D0082807D00B49884204D041
:10E790000A49884201D0FDF72FFA03216068FCF78F
:10E7A00005FD002901D0012000E00020207010BDEF
:10E7B0004023002014200020043000000134000019
:10E7C000F0B5002406460D46601C010795B0090F00
:10E7D000103108A80C940174297B4174817CF927BD
:10E7E0003940891C81741C2105A8FCF71CFD684672
:10E7F000017D10200143684601750CA806940A901B
:10E800000894099401220B9408A882761649684658
:10E8100001870D94697B08A80175A97B4175817DED
:10E82000E7203940891C0140114308A88175142153
:10E830006846FCF7F8FC0EA800900DA801900FAAFE
:10E840000021304600F012F801466846018114218B
:10E85000448181810FA804903346F08808336A46CA
:10E8600005A9A2DF15B0F0BD372A0000F7B542793F
:10E870000025002A00D004252222135C0222002B4E
:10E8800000D01543CBB2FF2907D901221543029AC4
:10E89000090A53709170032602E0029902264B7018
:10E8A00004464034A189002901D010210D430027DE
:10E8B00017E0A27BB11C8A4209D2A189C91B4A0078
:10E8C0007900091824312430FCF786FC0CE0029B07
:10E8D0007A0012189B19928C1A70120A5A70CEB2D2
:10E8E0007F1CA189B942E4DCA089C01BA0810298E9
:10E8F00005703046FEBD3EB5044600780D46022840
:10E9000015D10322611C6846FCF766FC0322211D19
:10E9100002A8FCF761FC01AA02A92846FDF7E8F865
:10E92000032201A96846FCF790FC002801D00020D2
:10E930003EBD01203EBD000010B50C46FFF7BCFDFA
:10E94000FF280AD00C214843054907224118091D18
:10E950002046FCF741FC002010BD052010BD000042
:10E96000C036002070B5018890B0102949D1011D32
:10E970002C2202A8FCF730FC6846234E007B34466C
:10E9800002AD03282AD001F0F3FC6846007B002882
:10E990000ED001280CD0022820D118E00E99281D95
:10E9A0001131FCF729FF002802D06846048815E0E1
:10E9B0000DAA6946072001F0B1FC0028EED10DE058
:10E9C0000E99281D491CFFF796FF0028EDD10DAACE
:10E9D0006946072001F0A2FC0028F1D168460089B1
:10E9E000291D00F0EFFCB4420BD068460089214697
:10E9F00000F086F868460189418001210170FEF728
:10EA000067FF10B070BD0000FFFF0000084A002142
:10EA10000C234B43D35A834204D10C204143881822
:10EA200040887047491C0829F2D30248704700000B
:10EA3000C0360020FFFF000010B50E4C182060709B
:10EA40000D4A0E4900200C2343435B18401C5A809A
:10EA50000828F8D3FDF7B0FE6070182804D00548E8
:10EA6000C01C71DF002801D0032010BD01202070E0
:10EA7000002010BD0C210020FFFF0000C036002048
:10EA800070B504460D46401C00F090F9002810D0E7
:10EA90001022691C601CFCF7D8FB00280AD0002655
:10EAA0002946204611311130FCF7A6FE01463046BA
:10EAB000084370BD0126F3E70188002903D14218FD
:10EAC0009278002A01D001207047491C0829F6D30A
:10EAD0000020704710B50C460346FFF7EDFF0028F5
:10EAE0000BD018882188884206D10822A11C981CC6
:10EAF000FCF7ABFB002801D0002010BD012010BDA9
:10EB000010B501F0F3FD10BD10B50446007888B0D3
:10EB1000002826D12079072823D1608801AA07215F
:10EB200001F054FA00281CD101F022FC1BE06946D8
:10EB300060880988884216D004990298FFF7A0FFE0
:10EB4000002810D06088FFF761FF01466846C18247
:10EB500000210175618801830188418305A8FEF7C2
:10EB6000B7FE08B010BD03AA6946072001F0D6FB26
:10EB70000028DCD1F5E7000070B50446FFF746FF3A
:10EB80000546204601F027FA054904468D4204D087
:10EB9000002C02D1284601F0A9FD204670BD0000DE
:10EBA000FFFF000010B5FFF787FCFF2804D00C2101
:10EBB00048430249085A10BD014810BDC036002024
:10EBC000FFFF00003EB5044601F0D2FB10E00199C2
:10EBD00020464631FFF77EFF002806D101992046E6
:10EBE0002A31FFF777FF002802D0684600893EBD32
:10EBF0006A4602A9072001F091FB0028E7D10148ED
:10EC00003EBD0000FFFF0000F8B50F46002804D00D
:10EC10000120FFF78FF80120F8BD397900290AD0CB
:10EC20000026254D01290BD0244C022920681FD035
:10EC300003293BD125E001F00FF80121397133E0C0
:10EC400000200101695C02290BD0401C80B202281F
:10EC5000F7D30220FFF788F80120FFF76BF8184878
:10EC6000F8BD04016019406800F0E8FF2E551BE074
:10EC70000146002301221348FFF7B6F80221A180C4
:10EC800011E000F0DBFF0C492368203149880A01BC
:10EC9000094951184D6825604B60A3880B810221FA
:10ECA000A18005498E543E710028D9D00120FFF77C
:10ECB00041F80E20F8BD0000703C0020D421002057
:10ECC0001D1D0000F8210020F8B51E4C20780028FA
:10ECD00036D0E068002600280CD000256078002897
:10ECE0002ED1684652DF052806D0002806D0FCF752
:10ECF00083FF0BE00125F1E7012607E0009800F013
:10ED0000BBFC2169002901D000988847002D13D150
:10ED10006078002814D1608869460880A06861DFA7
:10ED2000052804D0002804D0FCF766FF04E0012584
:10ED300002E0E168A0688847002ECFD0002DE5D022
:10ED4000F8BD0000E021002041880548028891427A
:10ED500004D34088814201D80120704700207047C9
:10ED6000E42000201048018CC9B2012917D1818C00
:10ED7000090714D1018D09060A0F03D1828D1206ED
:10ED8000120F0ED0090F012903D1828D1206120F26
:10ED900007D0032903D1808D0006000F01D0002089
:10EDA0007047012070470000C00F00F00021425C56
:10EDB000002A01D001207047491C1029F7D30020F8
:10EDC0007047800701D0002070470120704702681B
:10EDD000134602E08A4204D01268002AFAD10B607E
:10EDE0000160704710B50448017AC90702D0007865
:10EDF000FEF7E8F910BD000030200020FFB5244DDB
:10EE000081B0287A1F460E46084304D0039A002E8C
:10EE100004D0002104E0052005B0F0BD1C491031EC
:10EE2000019803F043FB0446014600220198FEF7D7
:10EE3000A3FF002F03D021460198FEF729FD112CD6
:10EE40000FD006DC002C0AD0082C08D00D2C05D1E0
:10EE500005E0862C11D00F48201800D0032420464E
:10EE6000DAE73246E9780198FDF7DCFCA978039AE5
:10EE70000198FDF7D7FC0024F1E73246E9780198C4
:10EE8000FDF7D0FCA978039A0198FDF7CBFCE6E7E3
:10EE900040210020FECFFFFFFEB517460C000646BE
:10EEA00004D02078C00704D0012003E000217EDFD9
:10EEB000FEBD0220694608713046FFF773FE174910
:10EEC0000546884208D001A800902B463A462146C4
:10EED000304600F025F806E020782146C00730468D
:10EEE00003D000F081F804460BE07EDF04460020EA
:10EEF0000090002C08D0002201232946304602F061
:10EF0000C7FE002C02D006E00122F5E76846017931
:10EF1000304602F0E3FE2046FEBD0000FFFF000089
:10EF2000FFB585B000252E4601AA07210E9F08983F
:10EF300001F04CF8040009D1029D029818354030C8
:10EF40000079C607F60F01D0029D3435079820439B
:10EF500012D1002D10D0002E05D128461230FFF717
:10EF6000ABFD002808D029462A461231059885DFD6
:10EF700004460020387023E0002C01D0052C1FD15E
:10EF800006980078C0070DD003AB0122072108982E
:10EF900001F04CF804000AD10721089801F044F967
:10EFA000040004D1069905987EDF040008D00721EB
:10EFB000089801F0BFF8002802D0052800D00324EB
:10EFC000002000903878002801D0012300E00023C1
:10EFD000002C07D000220899059802F059FE20461F
:10EFE00009B0F0BD0122F6E7FEB50F46064600F077
:10EFF000E9FF05461848854220D001AB01220721D0
:10F00000284601F013F804000AD10721284601F030
:10F010000BF9040004D1394630467EDF040008D0E5
:10F020000721284601F086F8002802D0052800D0E4
:10F03000032401200090002C0BD002E003240020C8
:10F040000090002201232946304602F021FE20468E
:10F05000FEBD0122F6E70000FFFF0000F7B5114DED
:10F060000F46164629780098FDF7CAFB002812D0F3
:10F070000098FFF797FD04460B4884420BD069784F
:10F080000098FDF7BDFB002806D033463A462146DE
:10F09000009800F06BFEFEBD324639460098FEF740
:10F0A00099FBFEBD3C210020FFFF0000F1B586B0BA
:10F0B0000698FDF799FB002821D06846FDF7CAFAAB
:10F0C00000246E4618E060008519A8880699FDF7AF
:10F0D00097FB00280FD00B4FA888B978FDF790FB5D
:10F0E0000590A888F978FDF78BFB0146A8880123D5
:10F0F000059AFFF783FE641C0098A042E3D807B08E
:10F10000F0BD000040210020FEB50446194800264D
:10F1100084422DD02046FFF753FA050012D00B2D64
:10F1200014D0112D10D0144828181BD0092168467E
:10F1300001702046FFF736FD014668464180848015
:10F1400002950DE0022102E001260BE00321684652
:10F1500001702046FFF726FD014668464180848005
:10F16000FEF7B0FB0548324681782046FDF75AFB92
:10F17000FEBD0000FFFF0000FECFFFFFF4200020D7
:10F18000FEB504460026FFF751FA0546112818D0AF
:10F1900004DC002D13D00C2D05D114E0862D25D0D4
:10F1A000134828181BD00921684601702046FFF734
:10F1B000F9FC014668464180848002950DE00121FA
:10F1C00002E001260BE0072168460170848020469A
:10F1D000FFF7E8FC014668464180FEF773FB0548EF
:10F1E000324641782046FDF71DFBFEBD0821EBE7C6
:10F1F000FECFFFFFF4200020F8B5054600780C464E
:10F200000026204210D10020694608706846FCF7AD
:10F21000DFFD28780146214202D1204328700126D3
:10F2200068460078FCF7F2FD3046F8BD1FB500F0E7
:10F23000AFF901000C4608D019A0FCF7FDF96420D5
:10F2400000F024F92046FCF7D7FC0322002101201E
:10F2500004F038F915490028886102D10420FCF730
:10F26000CBFC0020114902221C310290034600927F
:10F2700001910390D2010EA10E4804F0E7FA012893
:10F2800002D00420FCF7B8FC0B48016904221143AA
:10F29000016103F0FFFE0F20FCF7AEFCFBE700006E
:10F2A00065727220636F646520256400E81F00208A
:10F2B000424C45009DCC010000ED00E070B51446C5
:10F2C000828805460E46921C2088911C411899425E
:10F2D00001D8FE2A01D90C2070BD521C325420885E
:10F2E000FF21401C80B2208031542088401C80B215
:10F2F00020808119288803F084FB2188401880B27F
:10F300002080AA88002A09D0A968002908D080197D
:10F31000FBF762FF2088A98840182080002070BD7C
:10F32000072070BDF8B50F4601781446054601293F
:10F3300002D16878002806D02088821C9A422DD8F5
:10F34000012902D006E00720F8BD69784118891C20
:10F35000994223D8181A801E86B2684606802188F2
:10F36000B81C081869467DDF0028EDD128780228EE
:10F3700005D169460988B14201D809210AE008216E
:10F38000012805D16878B04202D86A46108001E0B1
:10F390006846068068460088FE2801D90C20F8BD22
:10F3A0002288401CB8542088401C80B220803954E8
:10F3B00020886946401C2080098840182080002051
:10F3C000F8BD0000F8B5FF240F46054600291FD000
:10F3D000104EB5421CD01048012241782846FDF756
:10F3E00021FA2846FFF768F80446FF2804D1FFF702
:10F3F0007FF80446FF280BD00C21484307490246FA
:10F40000401845808E52001D07223946FBF7E4FE66
:10F410002046F8BDFFFF00000C210020C036002070
:10F4200070B50B4D0E46A84201D1002000E0401CF3
:10F4300084B209E02146304601F08CFB002801D05F
:10F44000204670BD641CA4B2FF2CF3D9284670BDC1
:10F45000FFFF0000C20843075B0F0120895C984052
:10F46000084070470121890740180068002800D033
:10F470000120704701220021920780180160704727
:10F4800001218A0780180160704700007D21C900B2
:10F49000484300280FD00849084A096800BF00BF48
:10F4A00000BF00BF00BF00BF00BF00BF914200D03F
:10F4B00000BF0138F2D170474C2000200024F40036
:10F4C0007D21C900484300280FD00849084A09682F
:10F4D00000BF00BF00BF00BF00BF00BF00BF00BF34
:10F4E000914200D000BF0138F2D170474C2000207B
:10F4F0000024F4007D21C900484300280FD00849AA
:10F50000084A096800BF00BF00BF00BF00BF00BFBE
:10F5100000BF00BF914200D000BF0138F2D1704758
:10F520004C2000200024F4007D21C900484300281D
:10F530000FD00849084A096800BF00BF00BF00BFDC
:10F5400000BF00BF00BF00BF914200D000BF013824
:10F55000F2D170474C2000200024F4007D21C90026
:10F56000484300280FD00849084A096800BF00BF77
:10F5700000BF00BF00BF00BF00BF00BF914200D06E
:10F5800000BF0138F2D170474C2000200024F40065
:10F5900070B50E4C00252078002801D0852513E099
:10F5A0000021A16061602161E160094800680126D5
:10F5B000304002D1032100F065F803F0CDF80028B7
:10F5C00001D1044886612670284670BDEC3A0020BF
:10F5D00000E100E000050040F8B5184D0446A878A9
:10F5E0000026002809D0002C02D06168012088473D
:10F5F00068460670FCF7ECFB17E068460670FCF7FF
:10F60000E7FB002C04D00D4821461030FFF7DFFB4C
:10F61000E868002809D1FF200530FFF72BFF0849D3
:10F62000022048600820FFF72BFFE868401CE860D4
:10F6300068460078FCF7EAFBF8BD0000EC3A0020D1
:10F640000003004038B50020694608706846FCF7A2
:10F65000BFFB084C2078002801D1FFF799FFE06834
:10F66000401CE0600120A07068460078FCF7CEFBEB
:10F6700038BD0000EC3A002010B5002801D1FDF79C
:10F6800063FF10BD8207D30EFF229A408907090E3F
:10F6900010B5994000280BDA03071B0F083B9C08A4
:10F6A0000C4BA400E318DC6994430C43DC6107E0D5
:10F6B0008408094BA400E418236893430B43236098
:10F6C000C106C90E01208840044908600449086049
:10F6D00010BD000000ED00E000E400E080E200E08A
:10F6E00000E100E0F3B581B00F46019801F07EF82B
:10F6F00000281D4E019816D0FDF79AFE8019203083
:10F70000007F8009032802D001280AD004E0019874
:10F7100000F008F9002804D00321019800F0F1F866
:10F72000FEBD0221F9E701F06DF80028F8D001983C
:10F73000FDF77EFE04468100C81D0C4AF930891889
:10F740000A6980B201252A430A6100F013F9002FEB
:10F75000E6D00198FDF76CFE800030580028DFD01D
:10F760000348A5404560FEBD003B00200065004009
:10F7700000630040FEB515460E460446002701F022
:10F780002BF8002801D008273CE0F27829462046D3
:10F79000FDF72AFE0546401C33D0B07800280BD078
:10F7A00005200007A10009180720000209180868B1
:10F7B00002229043086007E0002173782046009100
:10F7C0000A46019100F078F8F078002810D00E4831
:10F7D000AA001018317802690C4B1A400261E20647
:10F7E000D20C8907890B0A4301690A43026109E0C7
:10F7F0000748327840192030017F92011143017788
:10F8000000E004273846FEBD00650040FFE0FCFF35
:10F81000003B002010B500F085F8002800D0012042
:10F8200010BD000070B5144D2879002801D00820C3
:10F8300070BD114900204039421E0B182033401C76
:10F84000C0B21A702028F8D300242046FDF7BEFD70
:10F85000641CE4B2082CF8D303210620FFF712FF42
:10F86000FF207D3000F086F801200449C007486081
:10F8700001202871002070BD403B00200063004043
:10F8800002480079002800D001207047403B00204A
:10F8900070B552000A439900049D0A432902059E4F
:10F8A0000A43310405240A43240780000721001974
:10F8B00009024018026070BD70B552000A439900F9
:10F8C000049D0A432902059E0A43310405240A4384
:10F8D000240780000721001909024018026070BD4A
:10F8E0000522120780008218072000021018026803
:10F8F00003231B049A430260026809040A4302605E
:10F900007047052212078000821807200002101895
:10F91000026803231B049A430260026809040A4335
:10F920000260704702490969C140C807C00F7047AB
:10F9300000050050012282400348002901D0826066
:10F940007047C260704700000005005038B5084B92
:10F9500005241B68009324026B46411805E08500CE
:10F960005D592D192D69401C20C28142F7D838BD40
:10F970007C3D0200024940180021016070470000F0
:10F9800000600040034940180068012800D00020B2
:10F9900070470000006000400921C9014118086853
:10F9A000086070474058002800D0012070470322AB
:10F9B000120280184068084000D001207047000003
:10F9C00010B5002811D003280ED10220FDF79CFBB2
:10F9D00001000C4608D006A0FBF72EFE6420FFF7BE
:10F9E00055FD2046FCF708F910BD02F0EDFB10BDF7
:10F9F00065727220636F64652025640070B50446EB
:10FA0000008888B03A2831D009DC2B4E022831D04A
:10FA1000102819D0112815D10020C04324E0512806
:10FA20002CD055280ED1A088132176DF01000C467A
:10FA300008D022A0FBF700FE6420FFF727FD204638
:10FA4000FCF7DAF808B070BD0720FDF75DFB010098
:10FA50000D4608D019A0FBF7EFFD6420FFF716FD57
:10FA60002846FCF7C9F8A0887080EBE7A08813212E
:10FA700076DFDBE70021708867DFD7E71022A11D62
:10FA800004A8FBF7A9FB6846017C0029DAD0007EB8
:10FA9000042803D0062801D00528D3D1022908D094
:10FAA000012069460870FF2083308880A088A8DF85
:10FAB000BCE70220F5E70000E81F00206572722015
:10FAC000636F64652025640010B5007800280FD1AD
:10FAD00008483B21408876DF01000C4608D006A08C
:10FAE000FBF7AAFD6420FFF7D1FC2046FCF784F861
:10FAF00010BD0000E81F002065727220636F64650E
:10FB00002025640010B5134A00215170017A0129A3
:10FB100011D002290ED18189491C8181C189491CDA
:10FB200089B2C181028A914204D1002102F0E6F833
:10FB300001F094FC10BD838AC28A991AFF2901DC66
:10FB400089B201E0FF210131511889B2C182994285
:10FB5000EBD010BDDC210020F7B51C4D0E46014650
:10FB60006A6F002082B0032A2DD82C4678340827EB
:10FB7000636CBF1BBB4226D8286F10188007800F0C
:10FB80001C2250434019FBF727FB686F401C686735
:10FB9000002E17D0216C606C40184007800E0019B1
:10FBA0000023009009E00498D9000A18009806CABA
:10FBB00006C06846FDF79EFC5B1CB342F3D3606C45
:10FBC00080196064012005B0F0BD0000B03B00204A
:10FBD0000389CA1C9A1802814289511AC91E41819F
:10FBE00070470000F7B50D46012189024718044609
:10FBF0000026083402202880BC4217D22068401C0E
:10FC000014D02046FEF7A0FD00280DD00A48A168B8
:10FC10004268914200D94160608881000C192988AE
:10FC20000C340818C01CE6E70126F5E70298002806
:10FC300000D00670FEBD0000C421002008B50021E0
:10FC4000009101460223024A0248FEF773F908BDFB
:10FC5000943D0200F821002008B5002000900448DF
:10FC600002230168034A0448FEF764F908BD000056
:10FC7000D42100208C3D0200F8210020F8B5002599
:10FC8000354F2C462E4600953448B1020068401886
:10FC90000168B94205D1324A4168891830D001293A
:10FCA0000CD000218A0082580346521C36D0032013
:10FCB0002C4922018854641CA4B21BE0009900293D
:10FCC0000CD0284B022221015A54274A1368254A96
:10FCD000891802224B60641C0A81A4B222490022C6
:10FCE0000860091DFFF77EFF1F488088022831D079
:10FCF00008200543761CB6B2032EC5D3E8B2F8BD82
:10FD00001849002322018B5451180A4648600E32CC
:10FD10000831FFF767FF02200543CCE7491CFF29A4
:10FD2000C0D911490A68002A0CD00E4A02212301C9
:10FD3000D1549A1850600B48118120304480641CC3
:10FD4000A4B204E002200B60888001200090012012
:10FD50000543CFE70420CCE7DEC0ADDEF82100206C
:10FD600002FEE10E703C0020D421002070B5194D38
:10FD70000E4604462C3523CD86B0029500900191A5
:10FD80006846448082808371134D2046A978FCF731
:10FD900037FD002803D03046FEF7EEFE0FE00721C6
:10FDA000304600F0C7F9002809D0052807D10922FC
:10FDB00069460A73CC81049003A8FDF7ABFD0022CD
:10FDC00029782046FCF72EFD6846FDF7A3FD06B016
:10FDD00070BD0000343D02003C210020F0B585B02C
:10FDE0000746FCF701FD002814D06846FCF732FCFA
:10FDF00000246D460BE060004619B0883946FCF7D8
:10FE0000FFFC002802D0B08802F0F0FB641C0098D0
:10FE1000A042F0D805B0F0BD70B5054D06460024EF
:10FE2000A000295830468847641C052CF8D370BDC3
:10FE3000203D02003EB50F4D0024142060434019C0
:10FE400003F0C8F9641C082CF7D308215020019155
:10FE50000A490124C2000290074B0094881800F060
:10FE60000CFD002801D003203EBD03484470002053
:10FE70003EBD0000C0390020242100203037002082
:10FE800010B500F043FA10BD10B500F043FA10BDF4
:10FE9000F0B5002585B000950195029503950446BF
:10FEA000418868464180217901712E462179608818
:10FEB00003F06AF922780421404F1300FBF7CCFBD2
:10FEC0000A0606361C1C383E43484B4D00280DD010
:10FED000417CC9070AD003F08FF968460670207884
:10FEE000012800D00020694608722AE001206946F6
:10FEF0000870A068029024E000280ED08268A368F1
:10FF00009A420AD1427CD30707D07B6852085B1C17
:10FF100052000A437B6042741FE002206946087069
:10FF2000E06803900DE0FFF777FF16E0032006E09E
:10FF300068460170E06802906846F4E7052069466B
:10FF400008700846EFE7062069460870E068D1E7C8
:10FF500001250720F3E7E06802907868002824D0A4
:10FF6000174E0024142027464743B819417C4A07FE
:10FF700003D48907C90F29421CD08178F05B00F0B7
:10FF8000EFF8002816D014214C43325B69464A80B2
:10FF9000B9198A7869460A71862808D009216A4603
:10FFA000117002906846FFF737FF05B0F0BD0820DA
:10FFB0000870F7E7641C082CD4D3F6E7242100204E
:10FFC000C039002010B500F06BFA10BD10B5002349
:10FFD00000F0D6F910BD38B50546002420460AE0E9
:10FFE0008178284600F0A6F8002802D0052800D025
:10FFF00003240098401C00906946284603F0D6F878
:020000040002F8
:100000000028EDD1002C07D1284600F051FA002835
:1000100002D0072802D00324204638BD0724FBE77E
:1000200010B51346002200F0E3F910BDFFB581B012
:10003000049815460E46002804D0072E05D0082E39
:1000400019D102E00E2005B0F0BD002D13D0082D0F
:1000500011D8019800F037FA00280CD00020009049
:100060003146019803F090F8040026D0E068A842D9
:1000700012D2002709E00720E5E7207CC019C1B2B1
:100080002A4800F033FC7F1CFFB2E068B842F4D885
:10009000204603F09FF810E0A84217D9EFB207E01E
:1000A000207CC019C1B2214800F020FC7F1CFFB2A7
:1000B000E068B842F4D8002C08D1FF211C48019F09
:1000C00003F062F8040005D00780A670207CFF28AA
:1000D00002D00AE01120B6E72946144800F09EFB42
:1000E0002074FF2813D001200090E560217C0F4888
:1000F00000F0E5FB02000ED0ABB23146049800F0F0
:1001000073FA009800280FD0082E06D00CE0204685
:1001100003F060F8DEE7032095E70498049900886F
:1001200049688000801F888000208CE7B03900205B
:10013000FFFF000070B5002403F026F805000CD086
:100140006868002804D000F0DAF9040000D0032425
:10015000284603F051F8204670BD052070BD000010
:100160007CB50D460646072903D0082D01D007208F
:100170007CBD00200090019068468570294630467D
:1001800003F002F8040004D0607CC00703D0002014
:100190007CBD05207CBD217C214800F090FB020045
:1001A00025D029466846E36800F0B1F9684602F0B8
:1001B000D9FF2346083369463046626800F018F9D3
:1001C0000246607C1749430704D5830702D54B6874
:1001D0005B1E4B60FB25FD23002A0AD0112A0DD09F
:1001E000862A14D0072A00D0032210467CBD0320A3
:1001F0007CBD01210843284018400EE04A68521C8B
:100200004A6004210843184060740022EDE74B68FF
:1002100028405B1C4B60022108436074E5E7000046
:10022000B0390020242100207CB50D46072903D0D9
:10023000082D01D007207CBD002602F0A5FF040098
:1002400003D06068002802D01BE005207CBD217C23
:100250000E4800F034FB02460020009001906846F2
:100260008570002A0FD02946E36800F050F96846EF
:1002700002F078FF211D684600F029F9064609289A
:1002800001D030467CBD03207CBD0000B039002089
:1002900001490968084700001C3D020070B588B09C
:1002A0001748FDF7E5FC002802D0032008B070BD18
:1002B000FDF71CFC002801D08620F7E700F0EAF9E2
:1002C0000020104C0290E61F03900DE0694604A840
:1002D000FDF792FC00988088801B85B204A8FDF78A
:1002E00049FC284600F08AF902AA04A92046FDF735
:1002F00068FC0028EAD00449012008700020D5E7F6
:100300003DD9010007C000001821002010B500F001
:100310009FF910BD10B500F0A3F910BD70B50546EA
:100320000320800386B014460E46281880B20F4A78
:100330006946FDF746FC002805D103A96846FDF78C
:100340005BFC002802D0002006B070BDA5700398A9
:10035000408820800498606003988088FDF7D8FC6E
:1003600030806846FDF706FC0120EDE71C210020E7
:100370000248002141608160704700001821002080
:10038000F0B587B01D46144607460E46FF280CD828
:10039000084600F019F9002807D003AA314638466C
:1003A00000F0FAF8002809D102E0072007B0F0BDFC
:1003B00001A903A8FDF720FC002801D00520F5E7DE
:1003C000A6700198002D408820800AD082002868FD
:1003D000904204D802996068FAF7FEFE03E0042018
:1003E000E4E70298606003A8FDF7C4FB0020DDE7A6
:1003F0007FB588B01D460C460646FF2834D8A07845
:1004000000F0E2F800282FD0606806902088694646
:100410008883304600F078F969460880A078032187
:10042000890340186946488006A801900120088188
:10043000A17803AA304600F0AFF805280A9815D035
:10044000002802D00AA8FDF73FFC694603A8FDF783
:10045000F5FB002817D007281FD008281BD00E282E
:1004600019D003200CB070BD0720FBE7002805D091
:100470000AAA694603A8FDF7F1FBEAE7694603A863
:10048000FDF7E6FBE5E7002D03D0294603A8FDF7BD
:10049000A8FB0020E6E71120E4E78620E2E7000061
:1004A00010B5024800F0AAF810BD0000FFFF0000E0
:1004B00010B5FF2801D9072010BD00F0A7F800F003
:1004C0002BF8002010BD10B500F0F8F810BD70B585
:1004D00004460D46807800F077F800280BD021887C
:1004E0002846FDF7D7FB002804D0072805D00928A7
:1004F00000D0032070BD072070BD862070BD01B5FF
:100500006846FDF7E1FB002800D0032008BD10B5C8
:100510009BB200F069F810BDF0B589B000261C4F01
:1005200004963846059600F093F80446194D06E007
:10053000204600F07FF8204600F08AF80446BC42CE
:1005400022D000F0E1F804AA06A9FDF742FB0A2830
:10055000EED0A878002817D10320800301272018A7
:10056000AF7080B2FDF778FA08280FD000280BD0C2
:10057000AE70092269460A704C80FF220A7103900E
:1005800002966846FFF784FE09B0F0BD6F70FBE786
:10059000FFFF0000182100207CB5054616460C46DA
:1005A000084600F011F80020032100908903019013
:1005B0006818611880B289B26B463246FDF7FAFAC4
:1005C000002800D005207CBD07280BD0012809D0C9
:1005D000082807D0052805D0062803D0042801D014
:1005E000002070470120704710B5502463439BB230
:1005F0008170DB1C99084260018010BD10B5024972
:10060000FCF784FF10BD0000603A002010B50446DE
:100610000648844207D006492046FCF777FFA042EF
:1006200001D1012010BD002010BD0000FFFF00001F
:10063000803A002010B50446044901F007F9034947
:100640002046203101F002F910BD0000603A002080
:1006500010B50249FEF7E4FE10BD0000803A00200C
:1006600070B50A49FEF7DCFE0446094D08E000F0CB
:1006700031F8002807D005492046FEF7D1FE044690
:10068000AC42F4D170BD204670BD0000603A00203D
:10069000FFFF000010B508484021FAF7C4FDFF2411
:1006A00001342146044800F025FA03482146203051
:1006B00000F020FA10BD0000603A002010B5FF28BD
:1006C00004D80146024800F045FA10BD002010BDD4
:1006D000603A002010B5FF2804D80146024800F017
:1006E00039FA10BD002010BD803A002010B50C462C
:1006F000FDF7E2FEFF2803D00C21484301490C52CC
:1007000010BD0000C036002003218903401880B2CC
:10071000704700007CB5054600F0AAF901000C46C0
:1007200008D029A0FAF788FF6420FEF7AFFE204624
:10073000FBF762FA002D0DD000F0F0FA01000C4634
:1007400008D021A0FAF778FF6420FEF79FFE20462C
:10075000FBF752FA002000900190684600780122D1
:1007600010438121084030304106490E684601702F
:100770000721417010218170C17802231143194370
:10078000C170017911431943017100F0FDFA0400B1
:1007900009D021460CA0FAF74FFF6420FEF776FE41
:1007A0002046FBF729FA0B4800F0D6FA040009D0DE
:1007B000214605A0FAF740FF6420FEF767FE2046B9
:1007C000FBF71AFA7CBD000065727220636F6465E6
:1007D0002025640021090200034908182021415600
:1007E000C817401C70470000003B0020044908184F
:1007F00020214156042901DB012070470020704769
:10080000003B00200449081820214156042901D248
:100810000120704700207047003B0020F8B50F46CC
:10082000060028D03068002825D07068002822D023
:10083000FF2400251CE02946706800F063F90028B9
:1008400008D0FF2C00D12C46281B401CB8420DD1EB
:100850002046F8BDFF2C06D108E02146304600F0C6
:1008600045F8641CE4B2AC42F7D3FF246D1CEDB232
:10087000B068A842DFD8FF20F8BDF8B50400069E96
:10088000089D079819D0002917D0002B15D00746CE
:100890006F43974211D8C21DD208B2420DD800282A
:1008A0000BD0002D09D0E56063602160A06081B2AB
:1008B000184600F01FF90020F8BD0720F8BD70B5FC
:1008C00004000D4610D0206800280DD06068002874
:1008D0000AD0FF2D08D000F03DF9002804D0E068D0
:1008E00021686843081870BD002070BD70B5040011
:1008F0000D460FD0206800280CD06068002809D071
:10090000FF2D07D000F026F9002803D029466068A3
:1009100000F02CF970BD10B501F092FC10BD000084
:1009200038B501780B00FAF797FE0F0F0F0F0F097C
:1009300010310F2F0F311C310F2C0F0000210091AF
:1009400040886946FFF7E7FF38BDFDF7ABF8014681
:100950000E28F9D00829F7D00446002CF4D00DA0B9
:1009600006E00320FBF7F2FC01000C46ECD009A0E6
:10097000FAF762FE6420FEF789FD2046FBF73CF99A
:1009800038BD00F0ADF838BD016900E081680C4663
:10099000E3E7000065727220636F646520256400E0
:1009A00070B586B0044614216846FAF73CFC6088AE
:1009B00069468880FEF72AF8694648802678002034
:1009C0000822072105253300FAF746FE0A06060B22
:1009D0000D0F1416281A1D256B46197058721A72BD
:1009E00019E00D2009E00E2007E06A4611705072F0
:1009F000157210E00F2000E01020694608700AE030
:100A00006846057007E0062168460170A0680290FC
:100A1000A188684641806846FCF768FF06B070BD53
:100A200010B50446007886B000281AD0012816D1E7
:100A30000E49608801224979FBF7F4FE14216846CB
:100A4000FAF7F1FB6088694648806088FEF7AAF8EB
:100A500069468880002008706846FCF747FF06B0AA
:100A600010BDE08800F04EF9F9E700002C210020CD
:100A700070B5FFF713FC00282ED1FFF7DBF9002833
:100A80002AD101F0EBFB002826D101F0F1FC00286F
:100A900022D1FDF7BFFC00281ED1FDF779FD00280B
:100AA0001AD1FDF7C9FF002816D10C4C401EE0807A
:100AB00000251820A56020716071FBF77DFE207174
:100AC000182809D0FBF778FE6071182804D06570EB
