:020000040003F7
:10AC00008021002009AD030023AD030025AD030022
:10AC10000000000000000000000000000000000034
:10AC200000000000000000000000000027AD03004D
:10AC3000000000000000000029AD03002BAD030060
:10AC40002DAD03002DAD0300C5AF03002DAD0300F6
:10AC50002DAD0300000000002DAD03002DAD03005D
:10AC60002DAD03002DAD03002DAD03002DAD030070
:10AC70002DAD030061AE03002DAD03002DAD03002B
:10AC80002DAD0300C1AE03002DAD03002DAD0300BB
:10AC9000E1AE03002DAD0300E9AE03002DAD0300CE
:10ACA0002DAD03002DAD03000000000000000000EA
:10ACB0000000000000000000000000000000000094
:10ACC0000348854600F09AF80048004789BA030017
:10ACD00080210020056885F308884068FF2464B25D
:10ACE000EFF30585002D01D1A6460047254606460F
:10ACF00021273FBAF0B40024002500260027F0B435
:10AD0000F92040B2004700000321094802680A43C5
:10AD10000260084802680A43026007488047074803
:10AD20000047FEE7FEE7FEE7FEE7FEE7FEE700007E
:10AD3000240500405405004025AF0300C1AC0300CA
:10AD400010B5202A04DB0146203A9140002010BDB6
:10AD5000914020239C1A0346E3401943904010BDC4
:10AD6000004870476CCB030003460B439B0703D09E
:10AD700009E008C9121F08C0042AFAD203E00B78C0
:10AD80000370401C491C521EF9D27047421C0178C6
:10AD9000401C0029FBD1801A7047F0B51FB406464D
:10ADA000002082B005464024019100901BE00199EB
:10ADB00022460F46304600F033F8049A059B801A6D
:10ADC000994110D3104619462246FFF7B9FF361AAB
:10ADD0008F410197224601200021009FFFF7B0FF1D
:10ADE00038184D4100902046641E0028DFDC019B8E
:10ADF00000982946324607B0F0BD0000064C0125F8
:10AE0000064E05E0E36807CC2B430C3C9847103412
:10AE1000B442F7D3FFF758FF7CCB03009CCB030071
:10AE200010B5202A04DB0846203AD040002110BD8E
:10AE30000B46D340D0402024A21A91400843194623
:10AE400010BD0000BFF34F8F04490348C860BFF333
:10AE50004F8F00BFFDE700000400FA0500ED00E0A1
:10AE60001CB500246846047000F058FB01F058FC43
:10AE7000002818D10E480168002914D00D498968AE
:10AE8000C907C90F0FD004600B4880686946087174
:10AE900001A90A4801F076FB084801F05DFB002893
:10AEA00001D000F087FF6846007800F055FB1CBD1C
:10AEB00000D1004000D3004000D5004090CA0300FC
:10AEC00010B506490020086048608860C8600349E2
:10AED00040390860486001F093FC10BD401101400A
:10AEE00010B501F023FC10BD10B50A4840680028D9
:10AEF0000DD0804701460C0008D007A000F06CF888
:10AF0000642000F0E9FE204600F0EEFA10BD00F0EB
:10AF1000A1FC10BDE013002065727220636F6465B0
:10AF20002025640010B500F0D7FC002805D01F498B
:10AF30001D484860C8131E4988611E48018CC9B26B
:10AF400001290BD1828C120708D1028D1206120F33
:10AF5000042A03D1828D1206120F0AD0012921D1B1
:10AF6000818C09071ED1018D0906090F0A2904D019
:10AF700007E0114A01219160F5E7828D1206120F58
:10AF800005D00D290ED1808D0006000F0AD10B4887
:10AF90000168012904D00A49016001680129FCD136
:10AFA000C021416110BD0000DFFF07C00005004067
:10AFB000006C0040C00F00F00006004000EC0640AE
:10AFC0007593000010B50249024801F0A7FC10BDBE
:10AFD0004C140020002000400FB410B503A9044B0E
:10AFE000044A029800F03AF810BC08BC04B01847B4
:10AFF000E9B70300081400200FB41CB50A46521E1E
:10B000000192009007A9064B6A46069800F026F8C0
:10B01000009A002111701CBC08BC04B01847000045
:10B02000D1B4030030B47446641E2578641CAB426E
:10B0300000D21D46635D5B00E31830BC184702E098
:10B0400008C8121F08C1002AFAD1704770470020B3
:10B0500001E001C1121F002AFBD17047FFB591B07A
:10B060000F460546002606E025280AD0149A1399B3
:10B0700090476D1C761C28780028F5D1304615B015
:10B08000F0BD002400940121F34A029400E004433F
:10B090006D1C2B780846203B98401042F7D1287849
:10B0A0002A280ED0022128780246303A092A15D8DB
:10B0B000009A0A235A43303A80180C436D1C0090C2
:10B0C000F1E701CF0090002805DA01204003044396
:10B0D000009840420090022004436D1C28782E28DE
:10B0E00015D10420044368786D1C2A280AD101CFA9
:10B0F0006D1C02900BE002990A225143303940182E
:10B100006D1C02902878014630390929F3D9287836
:10B110006C2810D006DC4C281AD068280ED06A287B
:10B1200017D104E0742813D07A2812D110E001203E
:10B13000400504430CE00121090501E00321090554
:10B140000C436978814203D10120000524186D1C4D
:10B150006D1C287803906E281ED00CDC632831D03B
:10B1600004DC00288AD0582811D1B2E064287BD0B2
:10B1700069280CD178E073282DD004DC6F2870D0BA
:10B18000702804D1A7E075286CD078286BD0149A69
:10B1900013999047761C62E06002400F022807D0A6
:10B1A00003280AD0042838680AD006603F1D56E0FC
:10B1B0003868F11706604160F8E738680680F5E7FF
:10B1C0000670F3E73878694608740020487404A8CC
:10B1D0000390012003E0386803900020C0433F1D26
:10B1E00061070FD5002101E00199491C029A0191E4
:10B1F000914213DA8142F7DB019A0399895C0029B5
:10B20000F2D10BE0002101E00199491C019181423A
:10B21000FADB019A0399895C0029F5D1019900981C
:10B22000139A401A00902146149B00F03BF90199B3
:10B230008019461807E0039803990078491C039188
:10B24000149A139990470198401E0190401CF2D126
:10B250002146149B139A009800F014F986196D1C6E
:10B2600009E741E033E034E00A2000210490059131
:10B270006002410F022905D001CFC217944603296D
:10B2800005D007E0FF1DFF08FF0003CF06E000B276
:10B29000C2179446042902D140B2C1178C4600223D
:10B2A0006146944506DA0A460021404291418C46A7
:10B2B0002D2102E0210504D52B216A4611760121BA
:10B2C00003E0E10701D02021F7E7019154E00A20D3
:10B2D0000BE0102009E0102004900021042004431A
:10B2E00008200591029003E00820002105910490B8
:10B2F0006002410F022905D001CF002294460329A4
:10B3000006D006E0FF1DFF08FF0003CF8C4603E0D8
:10B3100080B2042900D1C0B20021019121072BD5B0
:10B320000399702906D0049A1021059B4A401A43BC
:10B3300005D00EE040216A461176012108E0614601
:10B34000014306D030216A461176039951760221D5
:10B350000191049A0821059B4A401A430CD1614689
:10B36000014301D1610707D530216A4611760121D9
:10B3700001910299491E02910399582904D037A1DD
:10B3800003910FA90F910DE039A1F9E76146059BE3
:10B39000049AFFF702FD039B8C469B5C0F9A521E9A
:10B3A0000F92137061460143F0D10F9807A9081A54
:10B3B00020300390600704D50120000484430298E4
:10B3C00001E0012002900399884201DD401A00E06B
:10B3D000002041180290019809180098401A009026
:10B3E000E00306D42146149B139A009800F05AF803
:10B3F00086190020049008E006A9085C149A1399A5
:10B4000090470498401C761C049001998842F3DB15
:10B41000E0030CD52146149B139A009800F042F8E3
:10B42000861904E0149A302013999047761C0299EB
:10B43000481E02900029F5DC08E00F980F9900786B
:10B44000491C0F91149A13999047761C0399481E32
:10B4500003900029F1DCFBE609280100303132338A
:10B460003435363738396162636465660000000040
:10B47000303132333435363738394142434445462A
:10B4800000000000F8B5044600251E461746880453
:10B4900004D405E039462020B0476D1C641EF9D560
:10B4A0002846F8BDFFB50446002581B01E46C803F6
:10B4B00001D5302700E02027880404D505E0384670
:10B4C0000399B0476D1C641EF9D5284605B0F0BD40
:10B4D0004A68002A06D00A68531C0B60107048683E
:10B4E000401E486070470000024603A1012000F0A2
:10B4F000EBFFFFF7A7FC00003A4552524F523A7259
:10B500006563656976656420616E206572726F722D
:10B510003A20307825303878210D0A0030B5EFF325
:10B52000108172B6094A54680123002C04D00370BC
:10B53000002900D162B630BD5360054B1D68054C33
:10B54000254015601C6000220270F1E7D81300202E
:10B5500080E100E0FC06FFBC08494A68002A0CD0E4
:10B5600000280AD1EFF3108072B60A68044B1A6003
:10B5700000224A60002800D162B67047D81300202C
:10B5800000E100E0F8B5074608680C460526411CB6
:10B5900001253602002906D02946814019488160DC
:10B5A000206800F043FD6068411C02D0002100F0DB
:10B5B00034FD3968A06989194862607D217D3A6847
:10B5C00008439119C866386806CC80194261C16089
:10B5D000207B083C012814D1A068411C02D0002126
:10B5E00000F01BFDE068411C05D0854005488560E2
:10B5F000E06800F01BFD3A68E1689219A06891606C
:10B600001061F8BD0005005010B50349085C012128
:10B6100000F016FD10BD000044CA030010B5034938
:10B62000085C002100F00CFD10BD000044CA0300BE
:10B630007CB50024074E2546305D0122009500238D
:10B640001146019500F0B8FC641C042CF4D300F002
:10B6500003F87CBD44CA030010B500242046FFF760
:10B66000D3FF641C042CF9D310BD002901DA00209B
:10B67000704702685118016001207047F8B50D4607
:10B68000461C00206946087001246846FFF746FF03
:10B69000134A10682860116850689368081A1D1AC8
:10B6A000701C6D1CA84212D9002D0ED00D480E4CF6
:10B6B0000088246880051940800DA4028900204379
:10B6C0008918C8601068401C1060002401E08819C7
:10B6D000106068460078FFF73FFF2046F8BD000085
:10B6E00068150020C4CA030000140020034803C8E2
:10B6F000814201D101207047002070476815002069
:10B70000F8B52348416800293ED00E6821494C68AD
:10B7100087688078E11B0D022D0AED1C002814D1EA
:10B7200001201D4A000450601B4A403A50601B49EA
:10B73000400008601A4908601A49012008602F205B
:10B7400000F0E4FA124901208870B54200D2354673
:10B75000E81900020F4B000A403318600D4A516887
:10B76000001B091B0902090A0002000AC91C8142C8
:10B7700009D9506818602F2000F0C8FA0120074945
:10B78000400480390860F8BD00F06CFFF8BD00008F
:10B79000B4130020001501404013014080E200E096
:10B7A00000E100E00010014010B50E4900230A78C6
:10B7B0004C78A24212D0521CD2B20A70022A00D196
:10B7C0000B700A78074B920018339A580260886809
:10B7D00010180002000A8860012010BD03600020DC
:10B7E00010BD0000B413002038B50446684604704C
:10B7F00069460320ABBE204638BD0000F8B50D4CAD
:10B80000074620680225400840000E4620600029B7
:10B810000DD009A1032000F031FE206828432060EC
:10B820007A68002A02D0314638469047F8BDA843CE
:10B83000F5E70000B01300203A494E464F3A4765FD
:10B840006E65726174696E67206661696C75726598
:10B850000D0A0000F8B51F4C2078002839D0206967
:10B86000002807D00026E068002805D00025002E1B
:10B8700004D014E00126F6E70125F8E760780028F7
:10B8800027D1684652DF052804D0002804D0FFF7EE
:10B890002BFE04E0012602E0216900988847002D74
:10B8A00013D16078002814D1608869460880A068A8
:10B8B00061DF052804D0002804D0FFF715FE04E05E
:10B8C000012502E0E168A0688847002ED6D0002D4F
:10B8D000CDD0F8BDE01300201048018CC9B2012979
:10B8E00017D1818C090714D1018D09060A0F03D1E4
:10B8F000828D1206120F0ED0090F012903D1828DFD
:10B900001206120F07D0032903D1808D0006000F05
:10B9100001D000207047012070470000C00F00F0E8
:10B92000F0B5284C2146103948688B682278864645
:10B930009C46CF78667836E0182353436168521CE2
:10B94000C918A378D2B2934200D100220B78022BFF
:10B9500002D0032B27D123E003464D68194603E0AC
:10B96000A94204D00B46C96900291CD0F8E7002978
:10B9700019D08B4208D1C069002805D1124F01258A
:10B98000BD600025AC4601270D68C969D961002951
:10B9900009D00B685B190B6005E00174C06900E019
:10B9A00000210028F9D19642C6D1064962461039D5
:10B9B0008A604860CF70704501D00120F0BD002042
:10B9C000F0BD0000C413002000100140F8B52C4E5B
:10B9D000044670680025009041E0002C02D020460B
:10B9E000E46920E0264818231030017842684B4370
:10B9F000491CC9B2D21801708378994200D10570F0
:10BA00001178506801292CD1017C002929D1916835
:10BA10004160D16881601169C16051698161F178CB
:10BA2000002900D045604368B268164F991A090290
:10BA3000090AB94202D28268891806E0D11A0902BD
:10BA40008268090A8A4202D9511A016000E0056041
:10BA50004560012185600174C56100F0B1FE002CD4
:10BA6000BBD107481030017840788142BAD1716863
:10BA70000098814201D00120F8BD0020F8BD0000EF
:10BA8000B4130020FFFF7F0010B5002000F052FD2E
:10BA900013A1032000F0F2FCFFF7CAFD1649154878
:10BAA00008600020FFF7BAFD00F036FC0028FBD14B
:10BAB00013491248134A096800BF00BF00BF00BF06
:10BAC00000BF00BF00BF00BF914200D000BF0138DF
:10BAD000F2D11F20000300F017F8002010BD000075
:10BAE0003A494E464F3A496E73696465206D616903
:10BAF0006E0D0A000C00030050070050A0860100E4
:10BB0000041400200024F40010B5044602461EA1CF
:10BB1000032000F0D9FC00F0FFFB0028FBD16420DB
:10BB200000F0C0F828A1032000F0A8FC00F0F4FB0E
:10BB30000028FBD1642000F0B5F800F0FFF80028E1
:10BB400004D00020FFF760FD27A114E031A10320FD
:10BB500000F094FC00203749C0430860224636A11B
:10BB6000032000F0B1FC204613DF002807D000209E
:10BB7000FFF74AFD3CA1032000F080FC10BD2046E9
:10BB8000FFF7A8F810BD00003A494E464F3A5275EB
:10BB90006E6E696E67206E72665F626F6F746C6F37
:10BBA000616465725F6170705F7374617274207735
:10BBB00069746820616464726573733A2030782513
:10BBC0003038780D0A0000003A494E464F3A496E27
:10BBD000697469616C697A696E6720534420696E83
:10BBE000206D62720D0A00003A494E464F3A466196
:10BBF000696C65642072756E6E696E67206E726620
:10BC00005F6466755F6D62725F696E69745F7364AD
:10BC10000D0A00003A494E464F3A44697361626C1E
:10BC2000696E6720696E74657272757074730D0A3F
:10BC30000000000080E100E03A494E464F3A53656B
:10BC40007474696E6720534420766563746F722044
:10BC50007461626C6520626173653A2030782530CA
:10BC600038780D0A000000003A494E464F3A4661C6
:10BC7000696C65642072756E6E696E672073645FAF
:10BC8000736F66746465766963655F766563746F08
:10BC9000725F7461626C655F626173655F73657426
:10BCA0000D0A00007D21C90048430FD00849094A08
:10BCB000096800BF00BF00BF00BF00BF00BF00BFDA
:10BCC00000BF914200D000BF0138F2D170470000A0
:10BCD000041400200024F4007D21C90048430FD043
:10BCE0000849094A096800BF00BF00BF00BF00BF84
:10BCF00000BF00BF00BF914200D000BF0138F2D1A9
:10BD000070470000041400200024F40000280FD025
:10BD10000849094A096800BF00BF00BF00BF00BF53
:10BD200000BF00BF00BF914200D000BF0138F2D178
:10BD300070470000041400200024F4001FB5044BD9
:10BD40006C460FCB0FC4684618DF04B010BD00006E
:10BD50005CCA03008207D30EFF229A408907090EAE
:10BD600010B5994000280BDA03071B0F083B9C080D
:10BD70000C4BA400E318DC6994430C43DC6107E03E
:10BD80008408094BA400E418236893430B43236001
:10BD9000C106C90E012088400449086004490860B2
:10BDA00010BD000000ED00E000E400E080E200E0F3
:10BDB00000E100E002490120886002490860704704
:10BDC00000D3004004D00040F8B506460F46007985
:10BDD0001C2148431A4915464418E07E002801D02A
:10BDE0000820F8BD39463046FFF7CCFB656038695E
:10BDF000206028460025002813D0FF223068397FB4
:10BE00001D328550FF22306845328550032330684B
:10BE10001B020C4AC01842603068000B40B2FFF7AA
:10BE200099FF052230680421120280180160E5752F
:10BE30002576A5750121E1762846A576F8BD000096
:10BE40004C1400208000020070B505460C460079B5
:10BE50001C21484308494318284600F055F800289B
:10BE600001D0112070BD9A7500209C6098822846F0
:10BE700000F004F870BD00004C140020F8B5044632
:10BE800000791C2148431F4900264518FF272068D8
:10BE90001D37C6512068012181602946206800F0C5
:10BEA00019FD6968002913D027E0FF270137FF211A
:10BEB0001D31206800F0BEFB002802D1A88AB842DC
:10BEC000F5D1A88AB84203D02946206800F002FDC7
:10BED000A88AA97D8842E8D3A98AC81FF9380ED05C
:10BEE000FF271D373946206800F0A4FB0028F9D051
:10BEF00020680121C1600020A8753046F8BD0F26DA
:10BF0000F9E700004C14002000791C214843034944
:10BF10004018807D002800D0012070474C1400207C
:10BF2000F8B501791C225143204A00238D180522BF
:10BF30000168120289180B60696800290CD003247B
:10BF4000016824021A4B09198B600168C903CB0EE2
:10BF500001219940174B19600522016812028A18C5
:10BF6000D3685669976814690021C9435161D1604B
:10BF7000006805221202801881600161581C02D0FD
:10BF8000184600F041F8701C02D0304600F03CF832
:10BF9000601C02D0204600F037F8781C02D03846EA
:10BFA00000F032F80020E8766860F8BD4C140020FC
:10BFB0008402020080E100E070B552000A4399005B
:10BFC000049D0A432902059E0A43310405240A43BD
:10BFD000240780000721001909024018026070BD83
:10BFE00070B552000A439900049D0A432902059E38
:10BFF0000A43310405240A4324078000072100195D
:10C0000009024018026070BD1CB5002100910B466A
:10C0100001220191FFF7E4FF1CBD1CB500220B4675
:10C02000009211460192FFF7DBFF1CBD1CB50021F9
:10C0300000910B46012201911146FFF7D1FF1CBD73
:10C04000012282400348002901D082607047C2600B
:10C05000704700000005005000487047D9C0030039
:10C0600030B5194C0546207889B0002805D0607895
:10C07000854202D1002009B030BD20221349684614
:10C08000FEF772FE002069460875092000900B201B
:10C090000190082003900A2002900D4806900A485B
:10C0A000001DFFF73DFF002D01D0002200E0094AEE
:10C0B00005486946001DFFF787FE0028DBD10120F7
:10C0C00020706570D6E70000F4130020A4CA0300B6
:10C0D00000E0D7010DC90300F0B5C5B00C46002142
:10C0E00000914D984B991E46081817460390002C56
:10C0F00001D00A2000E00020019000F0F3FA0028AF
:10C100007ED104AD002E17D100986A46291820462A
:10C1100000F0C6FB002875D03846FEF737FEC2286F
:10C1200000D9C22004460098224628183946FEF756
:10C130001BFE009800190090009901980A1804A8A5
:10C14000441831328518002003E020212170401C62
:10C15000641C01998842F8D300270398864207D3CC
:10C16000202020706070A0702870E41C6D1C2CE0F2
:10C170004B98864202D24A98805D02E0311A4C9870
:10C18000405C22468446012102908B006046D840E4
:10C190000007000F092801D9373000E030300123B3
:10C1A0005B1AD054491EF0D220209070D41CFEF7A8
:10C1B000D7FD01680298085C8006C00E01D0029885
:10C1C00000E02E2028706D1C761C7F1C102FC4D31D
:10C1D0000D2028700A206870202020700099019896
:10C1E0000918433104A8009100F084FA002809D00E
:10C1F00000F078FA002805D100900398864200E00C
:10C2000000E099D3304645B0F0BDFFB5C7B000257A
:10C21000509F1C46059500F065FA002875D10598D9
:10C2200006AE311805AA489800F03AFB002836D02F
:10C230003846FF2701370300FEF7F4FE0705131BFE
:10C24000333F4B5725004998FEF7A0FD0599054659
:10C250004018FF2817D870182A464999FEF784FD20
:10C2600011E005982368391A3018499AFEF7C4FE80
:10C2700008E06068009005982368391A3018499AD8
:10C28000FEF7BAFE0546294605A8FFF7EEF905991F
:10C2900000283AD0B94238D806A800F02BFA4BB0A3
:10C2A000F0BDA16860680090019105982368391A73
:10C2B0003018499AFEF7A0FEE4E7201D07C86B4638
:10C2C00007C305982368391A3018499AFEF794FE77
:10C2D000D8E7201D0FC86D460FC505982368391A89
:10C2E0003018499AFEF788FECCE7204608300FC880
:10C2F00001AD0FC56068009005982368391A3018A1
:10C30000499AFEF779FEBDE7FFE70020C7E7000086
:10C31000004870470BC20300F0B595B0FFF7E6F98F
:10C32000002802D0002015B0F0BD4B484468866854
:10C3300021463140890009180C94CD680BE029048E
:10C34000A80D890D4018041920463040810042484C
:10C350000C940818C568641CA807F0D00020089049
:10C36000A807800F3D4B022807D0AA0AA805000F96
:10C3700084460EA99646002059E0204630408100B0
:10C380003548641C0818C068049486462804800D4B
:10C3900084463440301B8000AF0D001D874222D9F7
:10C3A0002D490C31002807D02B4AA400A2181446AE
:10C3B0000C34C2B2381A03E00C460021FAB2084627
:10C3C000C0B20390019202910094A8065C69400FEC
:10C3D000634672460899A047B84213D1FF1C0498DF
:10C3E000B9080C1830E01C48A200101800210C30CD
:10C3F0000090029101970391A8065C69400F634683
:10C400007246E8E7164980050D40000C05430C987C
:10C410003040810010480818C56017E027463740B3
:10C42000BA000D4F401CD719FF68641C80C16746D5
:10C430006045F3D3A80600971D69400F0EAB724606
:10C440000899A847002801D003484460FFF74EF937
:10C450000121484067E700006815002068190020A6
:10C460003F00FFFF00B5044AFF23936000231360E1
:10C47000536000F059F800BD68150020F8B5104D64
:10C480000E46074600206946AC68FFF7F7F800281B
:10C4900015D00C483C21808888437907890E0843D1
:10C4A0000F21890188438105890DB002014300985D
:10C4B0000246224092005219401CD1600090F8BD03
:10C4C00068150020C4CA0300F7B5154C82B00E46AB
:10C4D000074601206946A568FFF7D0F800281CD060
:10C4E00010483C21008988437907890E08430F21B1
:10C4F00089018843402108438105890DB002014329
:10C50000009802462A4092001219D160401C009007
:10C510002840800000190499C16005B0F0BD0000FA
:10C5200068150020C4CA0300014A516110617047B8
:10C530006819002070B506460020FFF791FD040041
:10C5400008D1FFF789FD0546FFF7E2FE324629468E
:10C55000FFF788FF204670BD016880684A68824204
:10C5600001D2521C00E000220868824201D1012061
:10C570007047002070478068884201D9481C704786
:10C5800000207047FEB504460E4600206946019023
:10C5900008706846FEF7C2FF2046FFF7DDFF070080
:10C5A0000AD0207C002807D004200190684600783B
:10C5B000FEF7D2FF0198FEBD2068416820460D4677
:10C5C000FFF7D9FF2168002F486006D02068016876
:10C5D0002046FFF7D0FF21680860E268012A15D0E5
:10C5E000022A17D0042A1AD0082A1DD010466168E2
:10C5F000684308183146FEF7B7FB204600F027F8DD
:10C6000021688A688242D1D28860CFE76168307839
:10C610004855F2E7616830886A008852EDE7616842
:10C620003068AA008850E8E7626803CEEB00D218B1
:10C6300003C2E2E74058002800D0012070470322DF
:10C64000120280184068084000D00120704701683D
:10C6500006C98A4201D3501A70478068401A401CAC
:10C660008018704770B501240B49600408600B49BD
:10C6700040108860094940398860094D6C602F205E
:10C68000FFF744FBAC60074D00242F20AC60FFF7A0
:10C690003DFBAC7070BD000080E100E04013014044
:10C6A00000100140B413002030B5FF220523CD7DDA
:10C6B000002409321B02C318002D8450986905D04C
:10C6C0004B7ECA68D054487E401C487630BD1FB5AA
:10C6D00001246B461C701972019206C86846904787
:10C6E0001FBD000010B50248FFF70EFC10BD000092
:10C6F000F813002070B50D460A460146012406488D
:10C70000FEF732FBEAB204490448FFF79DFB00281C
:10C7100000D00024204670BD68140020F8130020CB
:10C720000148007870470000E0130020FEB51F4C60
:10C730000025A768606802906846FFF735F8019009
:10C74000FFF7EEF806460198002822D00023009853
:10C75000616817E00E680A46864202D9301A0860FE
:10C7600012E0801BF31800261660D668D169B44623
:10C77000002E07D0FE183602360A566066469660CE
:10C78000D56115460029E5D128466160FFF71EF9FD
:10C7900006E02846FFF71AF9002801D1002E02D042
:10C7A0000298FEF7ADFF0020E070FEBDB41300203C
:10C7B00001200249000508607047000000E200E027
:10C7C00010B50E4B5968002906D002680C68A242C9
:10C7D00004D8A21A0A60C161586010BD0B4604E07B
:10C7E0000B46C969121B002904D00C689442F7D388
:10C7F000A41A0C600260C161D86110BDB41300209E
:10C80000F8B5214D6C68002C3CD0204800274068CA
:10C81000A968401A0602360A2068B04220D8361AA3
:10C82000C7192246107CE469002817D00020107434
:10C83000EB68002B0FD0916950699847011E00905A
:10C840000CD013A0FEF7C8FB1448FFF75FFA00985E
:10C85000FEF74AFE02E0516990698847002CDBD15F
:10C8600029786878814206D1401CC0B268700228DD
:10C8700001D10020687004490006800D18310F5066
:10C88000FFF796FFF8BD0000B4130020001501402B
:10C8900065727220636F646520256400A0860100C4
:10C8A00010B5144602460120002A0BD00846136832
:10C8B000FF2106A20131FEF79FFB01462046FEF74D
:10C8C000D4FE10BD0021216010BD00005B25303872
:10C8D000645D0000FF221D32002383508B8A8A682A
:10C8E000D25C8B8A5B1C8B82052109024018C261D5
:10C8F00070471FB500226B461A701972816801914A
:10C90000827506C8684690471FBD00000078012860
:10C9100001D1014988707047F4130020F0B50C462E
:10C92000012185B005464902FFF789FE032109026E
:10C930006F180026002826D0FF2125312846FFF752
:10C9400079FE00281FD0FF2025302E508120800046
:10C95000B860A07E002801D10120686002216846ED
:10C9600001700920C0012918086808600390E17D62
:10C9700068460172E0680190E675267606CC684646
:10C98000083C90472DE004212846FFF758FE002878
:10C9900027D0FF2109312846FFF74CFE002820D080
:10C9A00021462846FFF780FEE07D617E884218D14F
:10C9B000207E002807D0617EE268E0752069E06093
:10C9C000267666760AE0A07E002801D10120686004
:10C9D00081208000B860E675617EE2682046FFF73E
:10C9E00076FEFF271D3739462846FFF723FE00282D
:10C9F0000FD0A08AA17D884204D221462846FFF7A5
:10CA000069FF06E0EE51A17D002902D02046FFF724
:10CA100070FFFF27453739462846FFF70BFE0028F1
:10CA20000ED0EE51A07E002801D001202860E07DCC
:10CA3000002805D0E675617EE2682046FFF747FED4
:10CA400005B0F0BD151617181112131401000000DF
:10CA500000000000000000000000000002000000D4
:10CA600000000000000000000000000003000000C3
:10CA700000000000000000000000000004000000B2
:10CA800000000000000000000000000000030000A3
:10CA9000401400201C1400202000000001000000B1
:10CAA00000000000FFFFFFFFFFFFFFFFFFFFFFFF92
:10CAB000FFFFFFFF000000000000000000E0D701C2
:10CAC0000300000029000000010000000100000038
:10CAD0000100000001000000010000000100000052
:10CAE0000100000002000000004040404040404083
:10CAF0004040414141414140404040404040404031
:10CB000040404040404040404005020202020202D4
:10CB10000202020202020202022020202020202023
:10CB20002020200202020202020290909090909037
:10CB300010101010101010101010101010101010F5
:10CB40001010101002020202020288888888888869
:10CB50000808080808080808080808080808080855
:10CB6000080808080202020240000000E9CA0300A7
:10CB70004F766572666C6F770D0A00009CCB0300E0
:10CB8000B01300206C0000003EB0030008CC03008E
:10CB90001C140020640D00004EB0030000000000D3
:10CBA0000000000000000000000000000000000085
:10CBB0000000000000000000000000000000000075
:10CBC0000000000000000000000000000000000065
:10CBD0000000000000000000000000000000000055
:10CBE00000000000002000400000000070CB0300A7
:10CBF0000024F4000000000000100000000C0400FD
:08CC0000FDB703000000000075
:020000041000EA
:0410140000AC030029
:040000050003ACC187
:00000001FF
