:020000040001F9
:10B00000903F0020D5B00100EFB00100F1B0010089
:10B010000000000000000000000000000000000030
:10B02000000000000000000000000000F3B001007C
:10B030000000000000000000F5B00100F7B00100C2
:10B0400065B30100F9B00100BDB40100F9B0010021
:10B05000F9B0010000000000A5B10100F9B0010045
:10B06000F9B00100F9B00100F9B00100F9B0010038
:10B07000F9B00100F9B00100F9B00100F9B0010028
:10B08000F9B00100B9B30100F9B00100F9B0010055
:10B09000D9B30100F9B00100E1B30100F9B001003A
:10B0A000F9B00100F9B0010000000000000000004C
:10B0B0000000000000000000000000000000000090
:10B0C0000348854600F05CF800480047E9D70100D6
:10B0D000903F00200321094802680A4302600848A3
:10B0E00002680A4302600748804707480047FEE7B6
:10B0F000FEE7FEE7FEE7FEE7FEE70000240500406E
:10B10000540500401DB40100C1B0010030B50B462C
:10B11000014600202022012409E00D46D5409D4231
:10B1200005D31D469540491B2546954040191546B7
:10B13000521E002DF1DC30BD03460B439B0703D0AC
:10B1400009E008C9121F08C0042AFAD203E00B78EC
:10B15000491C0370401C521EF9D27047D2B201E064
:10B160000270401C491EFBD270470022F6E710B562
:10B1700013460A4604461946FFF7F0FF204610BD65
:10B18000064C0125064E05E02046E36807C82B4320
:10B1900098471034B442F7D3FFF796FFDCF2010072
:10B1A000FCF20100F0B50024FF268BB0013601252A
:10B1B00027460694304602F0F7FF002807D055488E
:10B1C0004068284203D0304602F0E6FF2C43361D8B
:10B1D0006D007F1CB6B2042FECD3FF257D352846C9
:10B1E00002F0E2FF002809D0284602F0D5FF6807E8
:10B1F000044306AA0121002002F0BAFF464D2007B1
:10B2000015D001270026384620420CD04348B20012
:10B21000111808690969C004C00E8903AA58890F6A
:10B22000002A00D090477F00761C042EEBD3002C20
:10B230006DDA00200890401E63E02819403007783E
:10B24000B906890E009100214156491C49D009A92F
:10B25000009802F00EFC002843D0B8090190009835
:10B2600001F0F0FE80002F580198002F02D0032833
:10B2700002D00DE0032834D1009808ABC208410782
:10B280009446985C490F01228A40104362469854C4
:10B29000009805210907800040180721090240187D
:10B2A000006806A98003800F0290009802F0E1FB7D
:10B2B0000028029802D0022802D012E0032810D100
:10B2C0000198032808D1029802281ED00221009874
:10B2D00002F020FF761CF6B2002F02D001990098F0
:10B2E000B847641C042CA8D3002E10D06A46012154
:10B2F000002002F03DFF06990098884207D0069092
:10B30000089800263446099097E70321DFE70BB041
:10B31000F0BD000000630040803600200065004062
:10B320008307FF22DB0E9A408907090E9940002807
:10B330000BDA0007000F0838830808489B001B1829
:10B34000D86990430843D8617047830804489B003C
:10B350001B181868904308431860704700ED00E020
:10B3600000E400E0F8B5FF270137384602F089FB1A
:10B3700001240F4D0F4E002808D0384602F089FBFB
:10B380000120A8607470002001F0B2FEFF2705378D
:10B39000384602F076FB002808D0384602F079FBE8
:10B3A0000220A860B470012001F0A2FEF8BD0000E8
:10B3B000000300406C36002010B5064900200860EC
:10B3C00048608860C860034940390860486003F0FD
:10B3D00095FC10BD4011014010B503F001FC10BDFB
:10B3E00010B50A48406800280DD0804701000C467F
:10B3F00008D007A000F06CF8642002F06BFB204638
:10B4000000F01CFB10BD02F063F810BDB43000204A
:10B4100065727220636F64652025640010B502F0C8
:10B42000A5F8002805D01F491D484860C8131E49CB
:10B4300088611E48018CC9B201290BD1828C120788
:10B4400008D1028D1206120F042A03D1828D120632
:10B45000120F0AD0012921D1818C09071ED1018D3B
:10B460000906090F0A2904D007E0114A0121916059
:10B47000F5E7828D1206120F05D00D290ED1808DB1
:10B480000006000F0AD10B480168012904D00A49BF
:10B49000016001680129FCD1C021416110BD00009B
:10B4A000DFFF07C000050040006C0040C00F00F047
:10B4B0000006004000EC06407593000010B50249FC
:10B4C000024803F057FD10BDC836002000200040A0
:10B4D0000FB410B503A9044B044A029800F032F8E7
:10B4E00010BC08BC04B01847DFD30100B030002006
:10B4F00030B47446641E2578641CAB4200D21D46ED
:10B50000635D5B00E31830BC184702E008C8121FF7
:10B5100008C1002AFAD170477047002001E001C13C
:10B52000121F002AFBD17047202804DA0121814034
:10B530000348014201D001207047002070470000FD
:10B54000FC06FFBCFFB58DB00446002596E025281B
:10B5500032D10027641C4D4A012100972378084608
:10B56000203B98400346134202D00743641CF5E792
:10B5700020782E2817D104200743641C20782A281D
:10B580000CD10E98641C02C800910E900BE000993B
:10B590000A22514330394018641C0090207801463B
:10B5A00030390929F3D9207800286BD0642808D0D5
:10B5B000692806D075281ED0109A0F9990476D1CE7
:10B5C0005BE00A200E99019001C90E91002802DA71
:10B5D00040422D2102E0390504D52B216A46117223
:10B5E000012103E0F90704D02021F7E70BAE0B910E
:10B5F0000DE00021FAE70A200E99019001C90E9191
:10B60000F7E70199FFF782FD3031761E317000288F
:10B61000F7D103A8801B20300190780701D500984E
:10B6200001E0012000900199884201DD401A00E00C
:10B6300000200027009006E002A8109AC05D0F9934
:10B6400090476D1C7F1C0B988742F5DB04E0109A35
:10B6500030200F9990476D1C0099481E00900029DA
:10B66000F5DC05E03078109A761C0F9990476D1C38
:10B670000199481E01900029F4DC641C2078002800
:10B6800000D064E7284611B0F0BD00000928010091
:10B69000F7B584B006460025178815802030029043
:10B6A000407B1446002806D03A462146059800F013
:10B6B0001DFF050009D1B078002823D005988646E3
:10B6C0002088001DB84202D90C2007B0F0BD6846A2
:10B6D00079DF0028F9D12188032072465054208850
:10B6E0001921401C80B22080115420887146401CD2
:10B6F00080B2208041186846008803F0CDFC218884
:10B7000040182080F078002817D0218803230A46AB
:10B71000F356C91C0598B942D6D802218154218814
:10B720000122491C89B2218042542188491C89B2D6
:10B73000218043542088401C20807068002817D046
:10B7400021880023C3560A46C91C0598B942BBD8B4
:10B750000221815421880A22491C89B22180425445
:10B760002188491C89B2218043542088401C2080B4
:10B77000308900280AD00094304601970622022121
:10B780000830059B03F0D6FC05009ED1308A0028C6
:10B790000AD0009430460197072203211030059B00
:10B7A00003F0C8FC050090D1308B00280AD000942B
:10B7B00030460197152214211830059B03F0BAFC7E
:10B7C000050082D1306A002806D03B462246059902
:10B7D00001F0F6FC0500D8D1706A002806D03B467F
:10B7E0002246059902F0C2F80500CED10298007BEE
:10B7F000002807D03B4622463046059903F02CF836
:10B800000500C2D13078002807D03B46224630469A
:10B81000059902F0DFF80500B7D1284655E700008A
:10B82000174A0021535C002B01D0012203E0491C80
:10B830000629F7D300221349012806D002280BD08D
:10B84000032810D0042818D112E04878002803D02B
:10B85000002A01D0012070478878002803D0002AF0
:10B8600001D002207047C878002801D0032070471B
:10B870000879002801D0042070470020704700009C
:10B88000353000208434002010B501220221002030
:10B8900001F0CEF9002801D0072824D10722022187
:10B8A000012001F0C5F9002801D007281BD1002193
:10B8B0000A22084601F0BCF9002801D0072812D15D
:10B8C00000221146022001F0B3F9002801D0072818
:10B8D00009D100221146032001F0AAF9002801D065
:10B8E000072800D1002010BD10B5ACB0012428A855
:10B8F00004723C2101A8FFF738FC0221684601715F
:10B9000084710621C1713C2110A8FFF72EFC032190
:10B9100010A801821548159020211FA8FFF725FCCB
:10B9200018A8C47740202390B4202490602120A838
:10B9300081832AA8299020A8048427A80A9000209F
:10B9400000900B4B1FAA10A901A800F053FB0100A7
:10B950000C4608D007A0FFF7BBFD642002F0A0F85A
:10B96000204600F06BF82CB010BD0000EE2F002038
:10B970002DE2010065727220636F6465202564000A
:10B9800010B5022000F0E4FF10BD000070B50024E7
:10B99000064D06E06968E000085C012102F040F90C
:10B9A000641C28788442F5D3002070BD60300020EC
:10B9B000F8B515460C460646052A01D20720F8BD03
:10B9C00002F0FCF9002803D102F0CAF90028F6D1F0
:10B9D000104900204E600C70C8608D6008610E4DEB
:10B9E0000DE0E00069688019009181786A46517025
:10B9F00000780A4A694602F05BF90028DFD1204648
:10BA0000641EE4B20028ECD1054A0021024800F08F
:10BA10004BF8F8BD60300020B4F201007DD4010085
:10BA200019D30100BFF34F8F03490248C860BFF329
:10BA30004F8FFEE70400FA0500ED00E00EB500218F
:10BA4000029000916A4601910148FFF7EBFF0EBD9D
:10BA50000140000010B58268C3689A1A03D001F053
:10BA6000ABFC002010BD052010BD002906D0002A27
:10BA700002D0531E134203D0092070470E20704796
:10BA80000160838000218160C1600846704710B565
:10BA90008268C3689A1A83889A4203D801F096FC98
:10BAA000002010BD042010BD094B5B68002B07D09F
:10BAB000002A07D0002805D00068037C002B03D0A3
:10BAC000082070470720704741744261002070478A
:10BAD00084300020FFB507469007002581B01E4640
:10BAE0001446002825D1002C23D002F0D9FD304681
:10BAF000114EF0603046103005704570029981702B
:10BB000044607560357001240C487570240504602C
:10BB100003211420FFF704FC09480460094CA760C6
:10BB200003211120FFF7FCFB6068B060002005B026
:10BB3000F0BD0720FBE700007430002080E200E049
:10BB400000E100E000150140FEB51F4B5B68002BD3
:10BB500030D000282ED0052901D20720FEBD436930
:10BB6000002B27D0437C012B26D0002702910446CE
:10BB70000025694616460D70684600F0F3F801A8E6
:10BB800003F0C2FA002819D0012101700F49446066
:10BB900049688160029907614661C16068460A4947
:10BBA000007948706846007800F0FAF803F05AF817
:10BBB0002846FEBD0820FEBD0F46D7E7684604258F
:10BBC000007800F0EDF8F3E7843000200015014024
:10BBD00010B50849496800290AD0002808D04169F1
:10BBE000002905D000210174022103F063F810BD83
:10BBF000082010BD8430002070B5164C0146A67890
:10BC00001548FFF727FF0546002E20D00020A07022
:10BC1000611C0122C81D02F019F901000C4616D062
:10BC20000EA0FFF755FC11490F48114A096800BFE3
:10BC300000BF00BF00BF00BF00BF00BF00BF9142F8
:10BC400000D000BF0138F2D12046FFF7F7FE2846AA
:10BC500070BD00009430002004370020657272200F
:10BC6000636F646520256400A08601001830002001
:10BC70000024F400F0B5274E89B01F460D0004469D
:10BC800072601CD0A888296882B22348FFF7EDFEB5
:10BC9000002815D1A889A96882B21F481030FFF783
:10BCA000E4FE00280CD120221C496846FFF744FA24
:10BCB00060690690207C002804D0012103E0072061
:10BCC00009B0F0BD0021684601750777607C002847
:10BCD00000D00E2069464875E0680290A068039085
:10BCE00020680190606800900A480D4A083002F010
:10BCF0006DF80028E4D1B0702068401CE0D0054801
:10BD0000083002F0D1F803490122491CC81D02F095
:10BD10009DF8D5E79430002004370020BCF20100E4
:10BD2000CDEE010010B501460C48FFF7B0FE04004F
:10BD300012D10B4802F082F900280DD108490748BA
:10BD40000839FFF787FE002806D105490122083986
:10BD5000034802F013F90446204610BD14370020B2
:10BD60009C30002030B5EFF3108172B6094A546858
:10BD70000123002C04D00370002900D162B630BD2D
:10BD80005360054B1D68054C254015601C60002262
:10BD90000270F1E7A830002080E100E0FC06FFBC63
:10BDA00008494A68002A0CD000280AD1EFF3108015
:10BDB00072B60A68044B1A6000224A60002800D15B
:10BDC00062B67047A830002000E100E070B505467B
:10BDD00008680C46411C04D002F0B6F9206802F055
:10BDE0007EF96068411C02D0002102F06FF92968D9
:10BDF000052212028918A0694862607D227D2968A7
:10BE00001043152292018918C86262682168286867
:10BE100002F0EDF9207D012812D1A068411C02D06A
:10BE2000002102F053F9E068411C04D002F08CF9C3
:10BE3000E06802F054F9A268E168286802F0C9F9E4
:10BE400070BD000009780448002902D0002101706B
:10BE500070470121FBE70000E82F0020F0B5054600
:10BE6000007D002493B00E4600280DD0012001462D
:10BE70001031684603940173717B4173817BF92013
:10BE80000140891C684681731C2104A8FFF76DF9E5
:10BE90006946087C02210843694608742A7DEF211F
:10BEA000002A02D01022104300E008406A461074B5
:10BEB000059407940894287D002800D003A80990D1
:10BEC00001270A94104697712E4A82800094B27B13
:10BED0000270F27B42708078F9221040801CE722C9
:10BEE00010404108490068468170317B017214217D
:10BEF0000BA8FFF73AF901A80B9068460C908786CB
:10BF0000C486078702A80F90A888AB1D0BAA04A9B6
:10BF1000A2DF002833D1B06800282ED06846877190
:10BF2000194981800094317C0170002001466846E7
:10BF300041708078F9210840801CE72108404108C1
:10BF400049006846817011A8B16800F08CFC064673
:10BF500014210BA8FFF709F901A80B9068460C9073
:10BF60008686C486068711A80F902A46E8880E3276
:10BF70000BA9A3DF002802D100E0EC81002013B060
:10BF8000F0BD0000192A000008290000F0B50C4699
:10BF900093B01F216A461180072600279180002850
:10BFA00009D0C17849070DD502A9FFF771FB002818
:10BFB00009D102AD01E000251780002C0ED0E078F9
:10BFC000002802D0304613B0F0BD01AA0AA92046CD
:10BFD000FFF75EFB0028F6D10AAA02E068460022BD
:10BFE000878068468088C3B268460088C1B2284608
:10BFF00072DFE8E7FFB581B01E460A9F13460400D2
:10C0000047D0002B45D0504D012028700020E8700B
:10C01000202219464D48FFF78FF800206F61C0437A
:10C020002E612881284607211830FFF79EF84748DF
:10C030003C212030FFF799F84448217820300170E6
:10C04000A1788170E178C170617841703F4A65697B
:10C0500023695563114613632031E368A268CB60FE
:10C060008A603A49E369A269CB638A63616A0029FD
:10C070001AD001463C310246483241628A60636A06
:10C080001B880B80616A436A898899800021436A12
:10C0900007E00E2005B0F0BD656AAD686D5C5554D3
:10C0A000491C9D888D42F7D8A16A00291CD0274AD7
:10C0B000943211460C398A608162A36A9B888B8016
:10C0C000A16A836A098819800021836A04E0A56A4D
:10C0D000AD686D5C5554491C9D888D42F7D82C2164
:10C0E0000A5D1A4940310A73216A002909D01649AC
:10C0F0000A310162226A52884A80216A026A0988EA
:10C1000011806168002900D04160104A0E4900206A
:10C11000B3322031C3001B1A85009B180C68401CE9
:10C1200063510828F6DB094A0020EB320301850041
:10C130009B188C68401C63510828F7DB0348029960
:10C140002030FFF723FFA5E71C30002084340020B7
:10C1500010B50188134C102915D0112919D01B29AD
:10C1600010D1007A00280DD1E0780521401CFEF79F
:10C17000CDFF084600F036F8002803D06169002999
:10C1800000D0884710BD817D0129FBD180882081A6
:10C1900010BD00216171808821898842F8D1012079
:10C1A000E8E700001C30002010B574DF0B4C0120C4
:10C1B00060710B490620C87000210948FFF7E6FEB0
:10C1C000002809D1E07800F00DF8002803D061695B
:10C1D000002900D08847002010BD00001C3000203E
:10C1E000A4340020F1B53F4C88B0207800280AD054
:10C1F0000898E07006A801F0F9F8069801250028D3
:10C2000004D065706AE0082009B0F0BD3548002709
:10C2100007211830FEF7A9FF334E7078002802D0AE
:10C22000E078012807D0B07800280CD0E078012809
:10C2300001D0022807D12169002903D025710820E7
:10C24000884700E027710898FFF7EAFAE070216953
:10C25000002909D0032801D0042805D1307800280E
:10C2600002D06079002811D0A77118216846FEF726
:10C270007CFF684607700772E1781A480B00183097
:10C28000FFF736F9052E080F191D2000A5710720AC
:10C290008847EAE7A57001906846057047820782E3
:10C2A00013E00221A170019068460570B1894182B6
:10C2B0003189018209E0684602F0ACFB02E0684681
:10C2C00002F0D4FBE078002803D0684673DF002832
:10C2D0009AD12169002901D0A0788847002093E7EE
:10C2E000A770F6E71C3000208434002073B586B0B8
:10C2F00004002FD06A46217C127F0020914227D073
:10C3000000250126684600950680458007A8019013
:10C31000E188608A6A46A4DF002819D16846007F58
:10C320002074608A0D49884216D0207D002813D0E1
:10C330000295039504950595E1886846018186720A
:10C3400041888181049001980590608A02A9A6DF46
:10C3500008B070BD0E20FBE70820F9E7FFFF0000E2
:10C3600038B50D4604001AD0002D18D0286820607A
:10C370000020C043608228792075FF2020740121AD
:10C380006846817007490180221D69460120A0DFAF
:10C39000002803D129462046FFF760FD38BD0E2056
:10C3A00038BD00000F18000038B5002824D000293F
:10C3B00022D00A88102A1AD0112A1AD0502A1BD14A
:10C3C0000446007D002817D0891D088862899042A4
:10C3D00012D1488902280FD1206800280CD00846C5
:10C3E0000C3000F039FA002807D0002006E08988D8
:10C3F00001E00021C943418238BD0120694608702F
:10C4000022682046904738BD70B5054601461C227B
:10C410000E48FEF791FE0E4C002626702968002972
:10C4200006D00822201DFEF787FE201D7ADF02E0DD
:10C430000748001D7BDF002807D1401E6080667022
:10C44000044A00210448FFF72FFB70BD503600203E
:10C450004C300020A5F001007CF20100F8B5214C21
:10C460000146028800261E48E589102A13D01E4F77
:10C47000112A1FD0122A2BD0502A1AD1881DC98800
:10C48000A94216D14189022913D10C3000F0E4F9F8
:10C4900000280CD112E08A88044642801048082205
:10C4A00018310C30FEF748FE6670002D01D100F007
:10C4B000CFFEF8BD0021C943418046703868FFF7C0
:10C4C00087FB0028F5D0A1690029F2D08847F8BD84
:10C4D0000348082208310C30FEF72EFEE7E7000083
:10C4E0004C300020503600207CF201007CB505461F
:10C4F00008880C460930904201D90C207CBD684662
:10C5000071DF0028FAD121880820685420881B2177
:10C51000401C80B220802954208800A9401C80B291
:10C520002080401906220131FEF706FE2088694668
:10C53000801D80B220800978002900D00121295473
:10C540002088401C208000207CBD000010B50446DF
:10C55000FFF784FF21460B4800F0CEF8204601F09B
:10C5600019FF2046FFF7F4FD204600F08DFA05483C
:10C5700021461C30FFF718FF02482146343000F0F6
:10C5800055F810BD9C33002070B5044686B00020DD
:10C59000C043A08208681D4B0E46A0610FCB6D46BC
:10C5A0000FC521461231684663DF0546014618A0D3
:10C5B000FEF78EFF1A4919481A4A096800BF00BFE2
:10C5C00000BF00BF00BF00BF00BF00BF914200D04E
:10C5D00000BF0138F2D1002D02D0284606B070BD50
:10C5E000A17C6846817410490182224604A9012079
:10C5F000A0DF0028F2D13146204600F063FC00287D
:10C60000ECD13146204600F0D5FFE7E790F201007B
:10C610006572726F7220256400000000A086010020
:10C62000183000200024F400231500000A88102A86
:10C6300010D0112A10D0502A11D1891D0A884388A0
:10C640009A420CD14A89012A09D18269002A06D06E
:10C65000097B1047898801E00021C9438182704726
:10C6600003B585B001216A46118200220092019231
:10C67000029203926A4691704189118006A9039142
:10C6800004A90291808A6946A6DF07B000BD0000B8
:10C6900030B5184B0D4604000FCB85B003936B46A5
:10C6A00007C324D0002D22D00020C043A0822868D8
:10C6B000A0610020A0752146684663DF002814D1E0
:10C6C00021786846817401210182A21C04A90120FD
:10C6D000A0DF002809D12946204602F016F80028DC
:10C6E00003D12946204602F068FB05B030BD0E207C
:10C6F000FBE7000080F2010010B500281BD00029E4
:10C7000019D00A88102A17D0112A17D0502A12D10E
:10C7100004468A1DC888238A1231984202D153895F
:10C72000022B0FD0A388984205D1A369002B02D019
:10C7300052892046984710BD898801E00021C943ED
:10C74000818210BD084600F087F8002800D0012043
:10C75000A07510BD07B584B000280DD0828A114B9A
:10C760009A420BD0827D002A08D06A46128B142A86
:10C7700006D9072007B000BD0E20FBE70820F9E727
:10C780000022009201920292039282896B461A80E3
:10C79000039106A9029101219970808A6946A6DF5A
:10C7A000E8E70000FFFF000030B52A4B0D4604000B
:10C7B0000FCB87B0059302AB07C349D0002D47D0FC
:10C7C000214602A863DF002840D1217868468171A4
:10C7D00000218180A21C01A90120A0DF002835D101
:10C7E00020460C300090638804222946012000F086
:10C7F00031FC00282AD1201D009002226388291DC7
:10C80000104600F027FC002820D12046143000906C
:10C8100063880122A91D032000F01CFC002815D10B
:10C8200020461C30009029466388062208310420E7
:10C8300000F010FC002809D1204624300090294641
:10C84000638806220E31052000F004FC07B030BDDD
:10C850000E20FBE7A0F201004178027808021043A5
:10C86000C007C00F70470A780270497841700220F3
:10C870007047000010B5254886B000680590002379
:10C880004822234905A802F079F901000C4608D096
:10C8900020A0FEF71DFE642001F002F92046FFF7FC
:10C8A000CDF86A460121002002F050F901000C4643
:10C8B00008D018A0FEF70CFE642001F0F1F8204625
:10C8C000FFF7BCF8032069460880684602F034F997
:10C8D00001000C4608D00FA0FEF7FAFD642001F01D
:10C8E000DFF82046FFF7AAF80D4802F01BF9010017
:10C8F0000C4608D007A0FEF7EBFD642001F0D0F84D
:10C900002046FFF79BF806B010BD00002CF2010096
:10C91000C830002065727220636F64652025640052
:10C920004DC501000149085C704700004CF2010050
:10C930000549095C05480069C840C007C00F00D020
:10C9400001200121484070474CF2010000050050D1
:10C9500005490B5C05494A6801209840034693430A
:10C960008B601040C860704748F20100000500501D
:10C9700010B50349085C012101F0EEFB10BD000079
:10C9800048F2010010B50349085C002101F0E4FB06
:10C9900010BD000048F201000549095C05484068E7
:10C9A000C840C007C00F00D0012001214840704797
:10C9B00048F20100000500507CB50024074E2546D2
:10C9C000305D0122009500231146019501F042FBE4
:10C9D000641C042CF4D300F003F87CBD48F2010081
:10C9E00010B500242046FFF7C3FF641C042CF9D3C4
:10C9F00010BD10B500242046FFF7C4FF641C042CB2
:10CA0000F9D310BD0246002010B5C043054B0021EC
:10CA10005C5C944201D1084610BD491C0429F7D33F
:10CA200010BD00004CF2010070B5104E00250C4600
:10CA3000306000290DD0012000F0A6F8002801D0B8
:10CA4000022005E0002000F09FF8002800D00B2015
:10CA50002070217806A0FEF73BFD7068002802D107
:10CA6000FEF712FF0546284670BD0000103000207A
:10CA70000D0A705F737461727475705F6273705FBA
:10CA8000657674202564000010B5104C018860683C
:10CA900010290DD011290AD1401E606007D1FEF780
:10CAA000F3FE002803D02168002900D0884710BD7C
:10CAB000002807D100F000FC002803D021680029DD
:10CAC00000D088476068401C606010BD10300020B6
:10CAD00010B5002000F0EEF9002801D0062807D19B
:10CAE000012000F0E7F9002801D0062800D100203D
:10CAF00010BD0000F3B581B00D460198FFF782FF2D
:10CB00000446042813D21D481D4F1E4E002D27D069
:10CB1000012D0DD0022D0AD160002018C0194578D2
:10CB2000002D04D0F168002901D028468847FEBDB9
:10CB3000610061187D5CCF19797800290BD071688C
:10CB40000A2251430F4A8068921CFEF7FDFF00281D
:10CB500001D10198B0700B48B97810300155DFE76A
:10CB60008068FFF735F80748610061181030C9196F
:10CB7000005D8D78A842D3D0FEBD000050F20100C8
:10CB800058340020FC2F002010B5FFF7D1FE10BD57
:10CB900010B50A2826D01CDC174A042825D00728FF
:10CBA00016D190881549884212D115A0FEF790FC45
:10CBB000FFF7FAFA014608280AD0040008D018A0A6
:10CBC000FEF786FC642000F06BFF2046FEF736FF80
:10CBD00010BD10280DD01128FAD100211348FFF7FD
:10CBE0003FFD10BD01F06CFF10BD1321908876DF72
:10CBF000E0E70121F2E70000E82F0020FFFF00003E
:10CC000073746172742061647620776974686F75DB
:10CC1000742077686974656C6973740D0A0000008C
:10CC200065727220636F646520256400D033002034
:10CC300070B50023042811D2440004190D4D012AB7
:10CC400002D101290DD0002246008019094E801919
:10CC500000290CD0012906D0022906D00723184646
:10CC600070BD0E30C2B22A55F9E74270F7E7827004
:10CC7000F5E700005834002010B5054A0146127A45
:10CC80000020D20702D0084600F054F810BD000082
:10CC9000FC2F0020F8B5064621480F468660C2608A
:10CCA0004160B00727D50025012211462846FFF72D
:10CCB000BFFF6D1C0446042D02D2002CF4D013E0FB
:10CCC000002C11D17A0804211648FEF771FE0400E9
:10CCD0000AD1FEF75BFE040006D11248124A002179
:10CCE000001FFEF7E1FE0446F00701D0FFF764FEE7
:10CCF000002C04D012E0F00701D0FFF75DFE0948D8
:10CD00000A4A00210C38FEF7CFFE040006D1054880
:10CD1000074A01210838FEF7C7FE04462046F8BD41
:10CD2000FC2F00205CF2010069CF010069D60100F0
:10CD300081B90100F8B55D4C0546607800260028F1
:10CD400003D000206070FFF74BFE0120584F2B00EE
:10CD5000FEF7CEFB18970D0D2E3D4A5F64686F6895
:10CD60006FA97777777777979A9DA0A9A9950020E3
:10CD7000FFF712FE00280AD00020FFF7F9FD022D70
:10CD800002D1E120C0000BE07D20400108E000203E
:10CD9000FFF7F8FD022D01D1C82001E0FF209130FE
:10CDA00025706421FEF7B2F96168414300222BE04F
:10CDB0000020FFF7F1FD002805D00020FFF7D8FD87
:10CDC00019204001ECE70020FFF7DCFDE4E700203C
:10CDD000FFF7E2FD002803D00020FFF7C9FDD3E7ED
:10CDE0000020FFF7CFFDD9E70020FFF7D5FD002891
:10CDF00003D00020FFF7BCFD02E00020FFF7C2FDDA
:10CE000025706068410000223868FEF79DFE0646E6
:10CE100035E00020FFF79CFD257007E000203FE093
:10CE200025702CE060700120FFF792FD0022616800
:10CE3000EAE760700120FFF78BFD60688100411810
:10CE4000E1E77868FEF7C4FE06461120401B01D0DA
:10CE5000002E03D00220FFF78BFD10E001280BD934
:10CE6000C82148436421FEF751F96168002241431B
:10CE70007868FEF769FE06460220FFF783FD30461C
:10CE8000F8BDFFF7ADFDCBE7FFF7AAFDC6E7FFF75B
:10CE9000A7FD04E0FFF7A4FD0020FFF773FD0120CC
:10CEA000FFF770FDBCE7FFF7A4FDB9E7FC2F0020FA
:10CEB00050F2010010B5FFF735FD032101F019F91B
:10CEC000002010BD70B500240546601C90B000071E
:10CED000000F08A9103008940870601C0007000FAC
:10CEE000103048708878F9263040801C88701C21EA
:10CEF00001A8FEF73AF96946087912210843694604
:10CF00000871029408A80494059407940690A87CDC
:10CF100008A9887113486946888411200094087014
:10CF2000002048708878E7213040801C0840400885
:10CF300040006946887014210AA8FEF716F909A86E
:10CF40000A9068460B900120694608864C868886C0
:10CF50000E942B4628880A330AAA01A9A2DF10B032
:10CF600070BD00002415000010B500780221FFF705
:10CF7000C1FD10BD38B50546144A15490320FFF719
:10CF800089FE01000C4608D012A0FEF7A1FA642029
:10CF900000F086FD2046FEF751FD69460020FFF7B0
:10CFA00043FD01000C4608D00AA0FEF791FA642068
:10CFB00000F076FD2046FEF741FD68460078022825
:10CFC00002D00020287038BD0120FBE791CB010082
:10CFD000CD0C000065727220636F646520256400CB
:10CFE0000022D243830004490428CA5002D30818FF
:10CFF000203002777047000080360020F0B5002511
:10D00000ED43002A02D00023042601E00423082671
:10D010000B4C04E09F00E7597F1C04D05B1CB3421B
:10D02000F8D32846F0BD26185DB2203635709E0034
:10D03000A151002AF5D1E11820310877F1E700006D
:10D040008036002002490918202008567047000049
:10D0500080360020FFB58FB015460E00074602D17E
:10D060000020FEF7EBFC002D02D10020FEF7E6FCCD
:10D070001C216846FEF779F86846017802200143D2
:10D0800068460170002401940394049405940121DE
:10D0900008A80694817068460784601C0107090F80
:10D0A0001031684607940177012001461031684627
:10D0B0004177807FF9210840801CE7210840410822
:10D0C000490068468177142109A8FEF74EF808A8A0
:10D0D000099007A80A9068468585C48505860D963F
:10D0E00009AA6946189B1298A2DF13B0F0BD000090
:10D0F00070B5084C050009D010342168002907D00C
:10D1000008682060496828468847F6E70834F4E74D
:10D1100070BD00006C360020F8B523484168002936
:10D120003ED00E6821494C6887688078E11B0D026B
:10D130002D0AED1C002814D101201D4A0004506066
:10D140001B4A403A50601B49400008601A49086079
:10D150001A49012008602F2000F0D6FC1249012056
:10D160008870B54200D23546E81900020F4B000A1C
:10D17000403318600D4A5168001B091B0902090A57
:10D180000002C91C000A814209D9506818602F208A
:10D1900000F0BAFC01200749400480390860F8BD5E
:10D1A00001F07EFAF8BD0000743000200015014047
:10D1B0004013014080E200E000E100E00010014087
:10D1C000F8B50646108814468446801D0D469842E0
:10D1D00001D90C20F8BD32880720062AFAD3192776
:10D1E000FF01184BBA4201D99A42F3D1718806293E
:10D1F000F0D3B94201D99942ECD19A4203D0994275
:10D2000001D08A42E6D8052160462954208812219F
:10D21000401C80B2208029542088401C80B220808D
:10D220004119308801F038FF2188401880B22080F1
:10D230004119708801F030FF2188401820800020BB
:10D24000F8BD0000FFFF000010B5FEF7F7FB10BDB2
:10D25000F8B5164800F07CF9144D00260C3D144C2E
:10D26000002807D0616900291CD001206A4610708F
:10D27000684616E02878002805D06169002911D099
:10D28000684606700DE0687800280DD0A16809484E
:10D2900000220068FEF758FC002803D0A16900298D
:10D2A00000D088472E70F8BD6168F0E75830002044
:10D2B000503600207CF2010010B500210122084602
:10D2C000FFF7B6FC002801D0072824D1072202214D
:10D2D0000120FFF7ADFC002801D007281BD1042254
:10D2E00002210020FFF7A4FC002801D0072812D15A
:10D2F000102200210220FFF79BFC002801D0072804
:10D3000009D1112200210320FFF792FC002801D04F
:10D31000072800D1002010BDF8B500260124154DC6
:10D3200024E06968F00047183878214681402A696E
:10D330000B46134218D08A432A6100F009FD3A785F
:10D340002146EB68914019400346934099420BD126
:10D350007978012901D0012100E000217B6841405A
:10D36000002B01D010469847761CF6B228788642EA
:10D37000D7D3F8BD6030002010B50E4900230A78DD
:10D380004C78A24212D0521CD2B20A70022A00D1AA
:10D390000B700A78074B920018339A58026088681D
:10D3A00010180002000A8860012010BD03600020F0
:10D3B00010BD000074300020826883881A40036822
:10D3C0009A5C0A708168491C81607047C2688388D2
:10D3D0001A4003689954C168491CC160704710B570
:10D3E0000446C0B2FEF79EFC204610BD002804D0C3
:10D3F0000349496E01600020704703207047000018
:10D40000243700203EB5112069460872062216A175
:10D4100002A87CDF01000C4608D015A0FEF758F8E2
:10D42000642000F03DFB2046FEF708FB0F20800142
:10D4300078DF002000901022694601900A803C228B
:10D440004A808880FF209130C88068467ADF0100DA
:10D450000C4608D006A0FEF73BF8642000F020FB45
:10D460002046FEF7EBFA3EBD4E6F72646963000022
:10D4700065727220636F646520256400F8B5074605
:10D48000114E0125BD403068FEF7A2FB002806D1F1
:10D490000E4C20690146294202D0A8432061F8BD04
:10D4A000384600F055FC0028E06801D0284300E031
:10D4B000A843E0602069002228432061A168306809
:10D4C000FEF742FBF8BD0000B4F20100603000201E
:10D4D000F8B51E4C2078002836D0E06800260028D9
:10D4E0000CD00025607800282ED1684652DF052830
:10D4F00006D0002806D0FEF7A1FA0BE00125F1E7DF
:10D50000012607E0009800F055FB2169002901D0B1
:10D5100000988847002D13D16078002814D16088C6
:10D5200069460880A06861DF052804D0002804D07F
:10D53000FEF784FA04E0012502E0E168A06888476C
:10D54000002ECFD0002DE5D0F8BD0000B430002073
:10D55000418805480288914204D34088814201D81D
:10D560000120704700207047503000201048018C87
:10D57000C9B2012917D1818C090714D1018D09067F
:10D580000A0F03D1828D1206120F0ED0090F012946
:10D5900003D1828D1206120F07D0032903D1808D8B
:10D5A0000006000F01D000207047012070470000E6
:10D5B000C00F00F030B58FB005461C216846FDF75E
:10D5C000D4FD694608780A2108436946087000249A
:10D5D00001940394049405940694A87C08A9887087
:10D5E000144869460884601C0007000F1030079437
:10D5F000087711204877887FF9210840801CE721AF
:10D6000008404008400069468877142109A8FDF7C2
:10D61000ACFD08A8099007A80A90012069468885F2
:10D62000CC8508860D942888AB1C09AAA2DF0FB010
:10D6300030BD00002515000010B5002904D006A05B
:10D64000FDF746FF142003E005A0FDF741FF12207F
:10D65000FFF712FB10BD00006C656E206F6E0000BE
:10D660006C656E206F66660010B50448017AC907C4
:10D6700002D00078FFF75EFB10BD0000FC2F0020F9
:10D68000F0B5284C2146103948688B6822788646C8
:10D690009C46CF78667836E0182353436168521C65
:10D6A000C918A378D2B2934200D100220B78022B82
:10D6B00002D0032B27D123E003464D68194603E02F
:10D6C000A94204D00B46C96900291CD0F8E70029FB
:10D6D00019D08B4208D1C069002805D1124F01250D
:10D6E000BD600025AC4601270D68C969D9610029D4
:10D6F00009D00B685B190B6005E00174C06900E09C
:10D7000000210028F9D19642C6D106496246103957
:10D710008A604860CF70704501D00120F0BD0020C4
:10D72000F0BD00008430002000100140F8B52C4E00
:10D73000044670680025009041E0002C02D020468D
:10D74000E46920E0264818231030017842684B43F2
:10D75000491CC9B2D21801708378994200D1057072
:10D760001178506801292CD1017C002929D19168B8
:10D770004160D16881601169C16051698161F1784E
:10D78000002900D045604368B268164F991A090213
:10D79000090AB94202D28268891806E0D11A090240
:10D7A0008268090A8A4202D9511A016000E00560C4
:10D7B0004560012185600174C56101F05BFA002CB0
:10D7C000BBD107481030017840788142BAD17168E6
:10D7D0000098814201D00120F8BD0020F8BD000072
:10D7E00074300020FFFF7F008CB000234C4A0521DD
:10D7F0001846FEF76FF901000C4608D049A0FDF766
:10D8000067FE642000F04CF92046FEF717F9182255
:10D8100047496846FDF790FCFF21013145480690D5
:10D8200040180791099108900323434A06A96846C6
:10D83000FEF720FA01000C4608D03AA0FDF748FE9A
:10D84000642000F02DF92046FEF7F8F80AA8FFF74B
:10D8500091FBFFF70FF8FFF7D5FD01F045F81C210C
:10D860006846FDF782FC0520C00301900F200004EC
:10D87000002502900095032168460173C581057457
:10D880002E4805902E4806906846FEF7BDFD010023
:10D890000C4608D023A0FDF71BFE642000F000F921
:10D8A0002046FEF7CBF8FEF71FF826A0FDF710FE86
:10D8B0000320FEF797FC01000C4608D019A0FDF7E5
:10D8C00007FE642000F0ECF82046FEF7B7F8214C84
:10D8D000FF26F536A078401CC0B2A070642800D1A5
:10D8E000A5702078002809D00D48A1789430FEF763
:10D8F000FDFC010002D018A0FDF7EAFD304600F063
:10D90000CFF848DF01000F46E4D006A0FDF7E0FDA8
:10D91000642000F0C5F83846FEF790F8DAE700001A
:10D920002433002065727220636F646520256400D3
:10D9300030F201002431002051EE010021E6010007
:10D9400049D201000D0A554152542053746172743A
:10D95000210D0A00E82F00200D0A2073656E642057
:10D960006572726F722025640D0A000070B514464E
:10D97000828805460E46921C2088911C41189942C7
:10D9800001D8FE2A01D90C2070BD521C32542088C7
:10D99000FF21401C80B2208031542088401C80B27E
:10D9A00020808119288801F077FB2188401880B2F7
:10D9B0002080AA88002A09D0A968002908D08019E7
:10D9C000FDF7BAFB2088A98840182080002070BD90
:10D9D000072070BDF8B50F460178144605460129A9
:10D9E00002D16878002806D02088821C9A422DD85F
:10D9F000012902D006E00720F8BD69784118891C8A
:10DA0000994223D8181A801E86B26846068021885B
:10DA1000B81C081869467DDF0028EDD12878022857
:10DA200005D169460988B14201D809210AE00821D7
:10DA3000012805D16878B04202D86A46108001E01A
:10DA40006846068068460088FE2801D90C20F8BD8B
:10DA50002288401CB8542088401C80B22080395451
:10DA600020886946401C20800988401820800020BA
:10DA7000F8BDC20843075B0F0120895C984008404D
:10DA800070470121890740180068002800D0012054
:10DA90007047012200219207801801607047000042
:10DAA0007D21C900484300280FD00849084A096869
:10DAB00000BF00BF00BF00BF00BF00BF00BF00BF6E
:10DAC000914200D000BF0138F2D1704718300020D9
:10DAD0000024F4007D21C900484300280FD00849E4
:10DAE000084A096800BF00BF00BF00BF00BF00BFF9
:10DAF00000BF00BF914200D000BF0138F2D1704793
:10DB0000183000200024F40000280FD00849094AEA
:10DB1000096800BF00BF00BF00BF00BF00BF00BF5B
:10DB200000BF914200D000BF0138F2D17047000021
:10DB3000183000200024F40070B50E4C0025207829
:10DB4000002801D0852513E00021A16061602161DA
:10DB5000E160094800680126304002D1032100F04D
:10DB60002FF801F037F8002801D1044886612670AB
:10DB7000284670BD6C36002000E100E00005004042
:10DB800038B50020694608706846FEF7EBF8084C87
:10DB90002078002801D1FFF7CFFFE068401CE0604B
:10DBA0000120A07068460078FEF7FAF838BD000042
:10DBB0006C36002010B5002801D1FFF799FA10BD8E
:10DBC0008207D30EFF229A408907090E10B59940AB
:10DBD00000280BDA03071B0F083B9C080C4BA40022
:10DBE000E318DC6994430C43DC6107E08408094BCB
:10DBF000A400E418236893430B432360C106C90EB5
:10DC000001208840044908600449086010BD0000F4
:10DC100000ED00E000E400E080E200E000E100E070
:10DC2000F3B581B00F46019800F022FD00281D4E8B
:10DC3000019816D0FFF706FA80192030007F80097E
:10DC4000032802D001280AD004E0019800F074FAF9
:10DC5000002804D00321019800F05CFAFEBD0221E7
:10DC6000F9E700F011FD0028F8D00198FFF7EAF974
:10DC700004468100C81D0C4AF93089180A6980B22F
:10DC800001252A430A6100F087FA002FE6D00198A7
:10DC9000FFF7D8F9800030580028DFD00348A540AE
:10DCA0004560FEBD803600200065004000630040F6
:10DCB000FEB515460E460446002700F0CFFC0028AE
:10DCC00001D008273CE0F27829462046FFF796F974
:10DCD0000546401C33D0B07800280BD00520000743
:10DCE000A1000918072000020918086802229043C1
:10DCF000086007E000217378204600910A460191F0
:10DD000000F0BCF9F078002810D00E48AA001018D6
:10DD1000317802690C4B1A400261E206D20C890785
:10DD2000890B0A4301690A43026109E00748327816
:10DD300040192030017F92011143017700E0042750
:10DD40003846FEBD00650040FFE0FCFF8036002045
:10DD500010B500F0F1F9002800D0012010BD00003E
:10DD600070B5144D2879002801D0082070BD1149E4
:10DD700000204039421E0B182033401CC0B21A70DC
:10DD80002028F8D300242046FFF72AF9641CE4B2C7
:10DD9000082CF8D303210620FFF712FFFF207D3067
:10DDA00000F0FAF901200449C007486001202871F9
:10DDB000002070BDC036002000630040024800799A
:10DDC000002800D001207047C0360020F8B5064674
:10DDD0000F4600791C2148431A4915464418E07E35
:10DDE000002801D00820F8BD39463046FDF7EEFF87
:10DDF00065603869206028460025002813D0FF227E
:10DE00003068397F1D328550FF2230684532855099
:10DE1000032330681B020C4AC01842603068000BB4
:10DE200040B2FFF7CDFE05223068042112028018AF
:10DE30000160E5752576A5750121E1762846A57670
:10DE4000F8BD0000C836002080000200F8B5037954
:10DE50001C246343134C81251C1903276668002387
:10DE6000AD003F02002E02D00668F619B560E67DCF
:10DE7000002E0ED0237E002B07D06168002902D02F
:10DE80000068C01945601120F8BD21610123227688
:10DE900004E0E2750025E1606576257600F01AF869
:10DEA000F8BD0000C836002070B5044600791C217A
:10DEB000074D48434019807E002808D1204600F0D5
:10DEC0007BFC20791C22012150434019817670BDD2
:10DED000C8360020F8B5044600791C21484326497D
:10DEE0004518A87E184302D1204600F065FC6868FA
:10DEF000002808D08121032220688900120280189E
:10DF000041600020F8BDFF204530216800220A5002
:10DF1000FF212531206800F057F90646FF2109311D
:10DF2000206800F051F90090FF214531206800F091
:10DF30004BF90746009838433043E9D03046384320
:10DF400007D12946206800F0CDFBE87D697E884234
:10DF5000DED80020E875002E01D00320F8BD002F88
:10DF600001D00F20F8BDA97E01200029216801D031
:10DF70000860C6E74860C4E7C836002070B50546AB
:10DF80000C4600791C21484308494318284600F0F4
:10DF900055F8002801D0112070BD9A7500209C60B2
:10DFA0009882284600F004F870BD0000C8360020B2
:10DFB000F8B5044600791C2148431F49002645183E
:10DFC000FF2720681D37C65120680121816029463E
:10DFD000206800F0E3FE6968002913D029E0FF27DC
:10DFE0000137FF211D31206800F0EEF8002802D132
:10DFF000A88AB842F5D1A88AB84203D02946206839
:10E0000000F0CCFEA88AA97D8842E8D3A98AC81F5F
:10E01000F93801D10F260AE0FF271D37394620685D
:10E0200000F0D2F80028F9D020680121C16000205A
:10E03000A8753046F8BD0000C836002000791C21C4
:10E04000484303494018807D002800D001207047D4
:10E05000C836002070B552000A439900049D0A4357
:10E060002902059E0A43310405240A43240780003F
:10E070000721001909024018026070BD70B55200F6
:10E080000A439900049D0A432902059E0A4331046C
:10E0900005240A43240780000721001909024018BB
:10E0A000026070BD70B552000A439900049D0A4396
:10E0B0002902059E0A43310405240A4324078000EF
:10E0C0000721001909024018026070BD1CB500222A
:10E0D0000B46009211460192FFF7E4FF1CBD1CB5F0
:10E0E000002100910B46012201911146FFF7DAFF52
:10E0F0001CBD05221207800082180720000210189C
:10E10000026803231B049A430260026809040A435D
:10E110000260704705221207800082180720000263
:10E120001018026803231B049A4302600268090462
:10E130000A4302607047000002490969C140C807EC
:10E14000C00F7047000500500121814001488160E7
:10E15000704700000005005001228240034800295A
:10E1600001D082607047C260704700000005005017
:10E1700038B5084B05241B68009324026B464118F0
:10E1800005E085005D592D192D69401C20C2814292
:10E19000F7D838BDB0F201000249401800210160F3
:10E1A00070470000006000400349401800680128E3
:10E1B00000D0002070470000006000400921C90124
:10E1C00041180868086070474058002800D00120B6
:10E1D000704705231B02C01881600261704703224B
:10E1E000120280184068084000D0012070470523C3
:10E1F0001B02C0184261C160704770B516460D46DB
:10E20000002405E0285DFDF78DFD0028FAD1641C8F
:10E21000B442F7D30D20FDF785FD0028FAD10A207E
:10E22000FDF780FD0028FAD170BD000010B5030095
:10E23000FDF75EF909172123062527292B2D160046
:10E2400015A0FDF745F90220FEF716FD0FE017A017
:10E25000FDF73EF96420FFF723FC2046FDF7EEFBB7
:10E2600010BD15A0FDF734F90320FDF7BBFF010039
:10E270000C46ECD110BD15A00AE01AA008E020A0C1
:10E2800006E024A004E02BA002E032A000E039A0C8
:10E29000FDF71EF910BD0000424C455F4144565F3A
:10E2A0004556545F464153540D0A00006572722072
:10E2B000636F64652025640020424C455F414456ED
:10E2C0005F4556545F49444C450D0A00424C455F3A
:10E2D0004144565F4556545F444952454354454472
:10E2E0000D0A0000424C455F4144565F4556545F5D
:10E2F00044495245435445445F534C4F570D0A001F
:10E30000424C455F4144565F4556545F534C4F570E
:10E310000D0A0000424C455F4144565F4556545F2C
:10E32000464153545F57484954454C4953540D0A8C
:10E3300000000000424C455F4144565F4556545F23
:10E34000534C4F575F57484954454C4953540D0A55
:10E3500000000000424C455F4144565F4556545F03
:10E3600057484954454C4953545F524551554553BC
:10E37000540D0A00424C455F4144565F4556545F78
:10E38000504545525F414444525F524551554553B3
:10E39000540D0A0070B504460088634D88B03A28D1
:10E3A0006ED01ADC02287FD010282DD011283ED044
:10E3B000132876D100231A468521A8887FDF010023
:10E3C0000C4608D059A0FDF783F86420FFF768FBDE
:10E3D0002046FDF733FB58A09FE0512876D0522805
:10E3E0003BD055285DD1A088132176DF01000C4673
:10E3F00008D04EA0FDF76CF86420FFF751FB2046D3
:10E40000FDF71CFB55A088E00720FEF735FC010056
:10E410000E4608D045A0FDF75BF86420FFF740FBEF
:10E420003046FDF70BFBA088A88053A075E00020C4
:10E43000FEF722FC01000C4608D03CA0FDF748F88E
:10E440006420FFF72DFB2046FDF7F8FA0020C043BB
:10E45000A880002028704CA05FE000231A461946CF
:10E46000A888A9DF01000C4608D030A0FDF730F8DD
:10E470006420FFF715FB2046FDF7E0FA46A04CE0CC
:10E48000A088132176DF01000C4608D027A0FDF7F5
:10E490001FF86420FFF704FB2046FDF7CFFA01E0E8
:10E4A00002E03CE045A038E0A088002167DF0100E1
:10E4B0000C4608D01DA0FDF70BF86420FFF7F0FA1A
:10E4C0002046FDF7BBFA44A027E0FFE71022A11D7C
:10E4D00004A8FCF731FE6846017C00291CD0007EB0
:10E4E000042803D0062801D0052815D1022918D008
:10E4F000012069460870FF2083308880A088A8DF4B
:10E5000001000C4608D009A0FCF7E2FF6420FFF7E9
:10E51000C7FA2046FDF792FA37A0FCF7D9FF08B0FA
:10E5200070BD0220E5E70000E82F00206572722030
:10E53000636F64652025640020626C655F676170AD
:10E540005F6576745F7365635F706172616D735F41
:10E55000726571756573740D0A200000626C655FE9
:10E5600067617474735F6576745F74696D656F75E8
:10E57000740D0A200000000020636F6E6E656374E6
:10E58000200D0A2000000000206469636F6E6E6534
:10E590006374200D0A200000626C655F676174740B
:10E5A000735F6576745F7379735F617474725F6DA6
:10E5B000697373696E670D0A20000000626C655F05
:10E5C00067617474635F6576745F74696D656F7598
:10E5D000740D0A200000000020626C655F6576748F
:10E5E0005F757365725F6D656D5F7265717565737B
:10E5F000740D0A2000000000626C655F676174742E
:10E60000735F6576745F72775F617574686F726946
:10E610007A655F726571756573740D0A200000007C
:10E6200010B5007800280FD108483B21808876DF9C
:10E6300001000C4608D006A0FCF74AFF6420FFF753
:10E640002FFA2046FDF7FAF910BD0000E82F002050
:10E6500065727220636F64652025640003490818A1
:10E6600020214156C817401C70470000803600200A
:10E670000449081820214156042901DB0120704774
:10E680000020704780360020044908182021415698
:10E69000042901D2012070470020704780360020F5
:10E6A00070B501240B49600408600B494010886074
:10E6B000094940398860094D6C602F20FFF724FA22
:10E6C000AC60074D00242F20AC60FFF71DFAAC7042
:10E6D00070BD000080E100E04013014000100140E7
:10E6E0007430002030B5FF220523CD7D002409328F
:10E6F0001B02C318002D8450986905D04B7ECA6850
:10E70000D054487E401C487630BD70B50024054684
:10E71000601C90B00007000F08A910300894087022
:10E72000601C0007000F103048708878F9263040D0
:10E73000801C88701C2101A8FCF717FD6946087928
:10E740001021084369460871029408A804940594AE
:10E7500007940690287808A9887103206946888460
:10E7600011200094087048708878E7213040801CA0
:10E770000840012630436946887014210AA8FCF736
:10E78000F4FC09A80A9068460B9069460E8614208E
:10E790004C8688862B4668880C330AAA01A9A2DF1A
:10E7A00010B070BD1FB501246B461C701972019228
:10E7B00006C8684690471FBDFF2325330268002125
:10E7C000D150FF2302680933D15000680121016054
:10E7D0007047000010B50446FCF7A6FE00280CD0D8
:10E7E000A007C00E002C0ADA2107090F0839890892
:10E7F000144A89008918C96906E0134810BDA108A8
:10E80000124A890089180968C1400806800F042847
:10E8100011D200280FD002280DD00D494B68E20616
:10E82000D20E01209040002B08D0620992008B5834
:10E8300003438B5004E00448401C10BD05490860A8
:10E84000002010BD00ED00E00120000000E400E029
:10E85000A830002000E100E0FFB50746806A81B0E3
:10E86000144600283DD0002538462030009033E083
:10E870000C20B96A68430E18B088801CFE2802D9A3
:10E880000C2005B0F0BD22880299401C88542088D5
:10E890001622401C80B2208002990A542088401C15
:10E8A00080B2208002994118308800F0F5FB218861
:10E8B000401880B22080B288002A0AD0B1680029AE
:10E8C0000FD0029BC018FCF737FC2088B188401895
:10E8D00020806D1C0098EDB2007BA842C8D80020B3
:10E8E000CFE70720CDE7000030B53EA103C98FB0C8
:10E8F0000A903E480B910C9000240CA93C48FDF76F
:10E90000C7FE01000D4608D03AA0FCF7E1FD6420E7
:10E91000FFF7C6F82846FDF791F8142105A8FCF783
:10E9200024FC0A2168468176B4210184344981831C
:10E930003449C18334480590022168460183062288
:10E940000AA92230FCF7F8FB294805A95030FDF749
:10E950002BFF14216846FCF708FC2C48009064212A
:10E960006846017301210294017110314173012045
:10E970000146103168468173012001461031684616
:10E98000C173012001462031684601741848694668
:10E990001C30FDF7E5FC01000C4608D015A0FCF783
:10E9A00097FD6420FFF77CF82046FDF747F81048F4
:10E9B0001C213430FCF7D9FB15480D900C480DA9EB
:10E9C0003430FDF7E1FD0146040008D009A0FCF752
:10E9D0007FFD6420FFF764F82046FDF72FF80FB0A5
:10E9E00030BD00001B10111012000000FBE10100FF
:10E9F0009C33002065727220636F6465202564007B
:10EA0000485800002A8F00000100010045BE0100A7
:10EA100039D6010070B504461248134D018A21828F
:10EA2000818A61820078002818D06879002815D181
:10EA300000F0F0FB002811D028462030E0600220D2
:10EA40000849207204202031C87006480021203077
:10EA5000FDF79CFA002804D1052000E00320A870EF
:10EA6000002070BD843400201C30002070B50446A6
:10EA700011480426018B2182818B618200780F4D21
:10EA8000002816D06879002813D100F0C3FB0028B5
:10EA90000FD028462030E060022020720648002176
:10EAA0002030C670FDF772FA002804D10620A87045
:10EAB00000E0AE70002070BD843400201C300020C7
:10EAC00010B50020FEF7D8F801000C4608D012A0BF
:10EAD000FCF7FEFC6420FEF7E3FF2046FCF7AEFFE8
:10EAE000FDF7F6FF01000C4608D00BA0FCF7F0FC88
:10EAF0006420FEF7D5FF2046FCF7A0FF3CDF0100B5
:10EB00000C4608D004A0FCF7E3FC6420FEF7C8FF25
:10EB10002046FCF793FF10BD65727220636F646539
:10EB200020256400002803D00249C86000207047F7
:10EB30000E207047B43000201CB5034901910091AC
:10EB4000694660DF1CBD0000E82F002070B50E464E
:10EB50000546144614211046FCF707FB012000214E
:10EB600020802161217326726572002D00D0A07271
:10EB7000002070BD10B5FCF755FF10BDF8B5002999
:10EB800003D08C070025002C01D00720F8BD0E4EC5
:10EB90000E4FB1607280736039680124214003D048
:10EBA0000A49254680310C60094910DF002803D04E
:10EBB000002DEBD03C60F8BD3470FEF7E1FF16206D
:10EBC000FFF708FEF8BD0000B430002000E100E0CF
:10EBD00075EB01000148007870470000B430002058
:10EBE000FEB51F4C0025A768606802906846FEF7D6
:10EBF000C3FB0190FEF744FD06460198002822D091
:10EC000000230098616817E00E680A46864202D920
:10EC1000301A086012E0801BF31800261660D668D0
:10EC2000D169B446002E07D0FE183602360A566067
:10EC300066469660D56115460029E5D12846616093
:10EC4000FEF774FD06E02846FEF770FD002801D1AE
:10EC5000002E02D00298FEF75FFA0020E070FEBDA1
:10EC60007430002001200249000508607047000050
:10EC700000E200E010B50E4B5968002906D002688A
:10EC80000C68A24204D8A21A0A60C161586010BD83
:10EC90000B4604E00B46C969121B002904D00C681E
:10ECA0009442F7D3A41A0C600260C161D86110BD10
:10ECB000743000207CB50D460646002469460C7071
:10ECC0006846FDF74FF801A800F01EFA00280DD0A5
:10ECD00005704660684608490079487068460078C3
:10ECE000FDF75EF8FFF7BEFF20467CBD68460424B2
:10ECF0000078FDF755F8F7E784300020F8B5214D8E
:10ED00006C68002C3CD0204800274068A968401A55
:10ED10000602360A2068B04220D8361AC7192246A1
:10ED2000107CE469002817D000201074EB68002BD9
:10ED30000FD0916950699847010000900CD013A042
:10ED4000FCF7C6FB1448FEF7DFFE0098FCF776FEE2
:10ED500002E0516990698847002CDBD129786878F6
:10ED6000814206D1401CC0B26870022801D1002047
:10ED7000687004490006800D18310F50FFF772FFCC
:10ED8000F8BD00007430002000150140657272204B
:10ED9000636F646520256400A0860100FF221D3298
:10EDA000002383508B8A8A68D25C8B8A5B1C8B829F
:10EDB000052109024018C261704770B58EB0054642
:10EDC0001C216846FCF7D1F9694608780C210843F4
:10EDD00069460870002401940394049405940694F1
:10EDE000287808A98870022069460884601C0007FA
:10EDF000000F10300794087711204877887FF92199
:10EE00000840801CE7210840012630436946887786
:10EE1000142109A8FCF7A9F908A8099007A80A90E5
:10EE200069468E851420CC85088668882B1D09AA22
:10EE3000A2DF0EB070BD1FB500226B461A701972AA
:10EE400081680191827506C8684690471FBD000021
:10EE500070B50178002907D0012901D0022902D11B
:10EE60004068FCF7EBFD70BD134C124D607828181C
:10EE7000FCF7C2FE6078401CC2B2A818627020384D
:10EE8000C07F0A2801D0142AEDD30A490B48FDF7A8
:10EE900061FC014608280AD0050008D008A0FCF74C
:10EEA00017FB6420FEF7FCFD2846FCF7C7FD002099
:10EEB000607070BD10310020E82F00209C330020CE
:10EEC00065727220636F6465202564007CB50178EB
:10EED000264D002934D001290CD002292DD16A46B3
:10EEE0001170C068691C01900122C81DFEF7AEFFB9
:10EEF000684630E0406801781D48FCF7C8FD0126EF
:10EF00001B4C002803D069460E70019006E0A068F3
:10EF1000E168081A05D0002069460870084669684B
:10EF20008847A068E168081AA188884206D80F4976
:10EF30000122491CC81DFEF789FF7CBDAE707CBD57
:10EF40000B480A491030FCF785FD002806D0032045
:10EF5000694608706846696888477CBD0349012294
:10EF600008460830FFF70AF87CBD00009430002006
:10EF700004370020F0B50C46012185B00546490252
:10EF8000FFF72DF9032109026F180026002824D06D
:10EF9000FF2125312846FFF717F900281DD0FF2053
:10EFA00025302E5081208000B860A07E002801D13D
:10EFB000012068600221684601702846FFF7FEF8CC
:10EFC0000390E17D68460172E0680190E67526765F
:10EFD00062686846216890472DE004212846FFF7C3
:10EFE000FEF8002827D0FF2109312846FFF7ECF86A
:10EFF000002820D021462846FFF774FBE07D617E83
:10F00000884218D1207E002807D0617EE268E07532
:10F010002069E060267666760AE0A07E002801D1AD
:10F020000120686081208000B860E675617EE2683A
:10F030002046FFF7B7FBFF271D3739462846FFF765
:10F04000C3F800280FD0A08AA17D884204D22146AF
:10F050002846FFF7A3FE06E0EE51A17D002902D06D
:10F060002046FFF7E8FEFF27453739462846FFF7D9
:10F07000ABF800280ED0EE51A07E002801D0012070
:10F080002860E07D002805D0E675617EE2682046B4
:10F09000FFF788FB05B0F0BD0870000A4870022039
:10F0A0007047000038B51549154A488890420FD07E
:10F0B0004A78144C521CD2B24A70237B934208D334
:10F0C000091D75DF002803D0A169002900D08847F9
:10F0D00038BD00254D70217C002907D03B2176DF0B
:10F0E000002803D0A169002900D088476169002960
:10F0F000EED068460570884738BD00004C300020CF
:10F10000FFFF00005036002010B509494B788C787D
:10F110005A1CD2B2944200D100220C78944201D100
:10F12000002010BD0270486818214B43C01810BD64
:10F1300084300020FFB583B016460C9D0D9C1F4601
:10F14000022200950194039800F00CF8002807D1E2
:10F150003B461022314600950194039800F002F8D6
:10F1600007B0F0BDFFB583B0074600200C9C864673
:10F17000268805463AE07868A90042181188684652
:10F1800081805188C1800022694601A865DF00287E
:10F1900039D1684601780598814226D17046002809
:10F1A00001D0002200E002222088891842180D991F
:10F1B0008A4227D8714600290AD1401C80B220809B
:10F1C000069A049911542088401C2080012086460C
:10F1D000218806980A18694601A865DF002812D11F
:10F1E000694620880978401820806D1C3888A8421C
:10F1F000C1DC704600280AD02088801B401E80B2E7
:10F20000FF2802D90C2007B0F0BD069988550020D0
:10F21000F9E7000004480179002902D1007B0028A9
:10F2200000D00120704700003C30002001000007A2
:10F230000B00000009000000080000000A000000A8
:10F240000000000000E0D701151617181112131462
:10F2500018340020383400206434002011000300EA
:10F26000F5CA010012000300F5CA010013000300F3
:10F27000F5CA010014000300F5CA01003036002071
:10F280009ECADC240EE5A9E093F3A3B50000406E0E
:10F2900023D1BCEA5F782315DEEF121200000000D4
:10F2A000FDB8175509AB0649B9F3BC4A0000C20EB8
:10F2B00000000050E436002003000000FFFFFFFFC5
:10F2C000FFFFFFFFFFFFFFFFFFFFFFFF000000004A
:10F2D0000000000000E0D70103000000FCF2010084
:10F2E000E82F0020E00000000AB50100DCF3010077
:10F2F000C8300020C80E00001AB501000000000050
:10F30000FFFF010002000A1801000F1801000000B1
:10F3100000000000000000000000000000000000ED
:10F320000000000000000000000000000024F400C5
:10F3300000000000000000000000000000000000CD
:10F3400000000000000000000000000000000000BD
:10F35000F035002000000000103600200000000002
:10F36000000000000000000000000000000000009D
:10F37000000000000000000000000000000000008D
:10F38000000000000000000000000000000000007D
:10F39000000000000000000000000000000000006D
:10F3A000000000000000000000000000000000005D
:10F3B00000200040000000000000000000000000ED
:10F3C000000000000000000000000000000000003D
:0CF3D00000000000000000000000000031
:040000050001B0C185
:00000001FF
