:020000040000FA
:1000000050260020150400001D0400001F040000FD
:10001000210400002304000025040000000000006B
:1000200000000000000000000000000027040000A5
:1000300029040000000000002B0400002D04000033
:10004000B10600002F040000E10900002F040000A9
:100050002F0400002F040000A50400002F0400005E
:100060002F0400002F0400002F0400002F040000C4
:100070002F0400002F0400002F0400002F040000B4
:100080002F040000090700002F0400002F040000C7
:10009000210700002F040000250700002F040000A6
:1000A0002F0400002F0400002F0400002F04000084
:1000B0002F0400002F0400000000000000000000DA
:1000C0002F0400002F0400002F0400002F04000064
:1000D0002F0400002F0400002F0400000000000087
:1000E0000000000000000000000000000000000010
:1000F0000000000000000000000000000000000000
:1001000000000000000000000000000000000000EF
:1001100000000000000000000000000000000000DF
:10040000DFF80CD000F03CF80048004769220000FB
:10041000502600200648804706480047FEE7FEE7D2
:10042000FEE7FEE7FEE7FEE7FEE7FEE7FEE7FEE7A4
:10043000490700000104000040EA01039B0703D0C4
:1004400009E008C9121F08C0042AFAD203E011F813
:10045000013B00F8013B521EF9D27047D2B201E0D5
:1004600000F8012B491EFBD270470022F6E710B5B9
:1004700013460A4604461946FFF7F0FF204610BD12
:10048000064C074D06E0E06840F0010394E80700E1
:1004900098471034AC42F6D3FFF7B6FFAC3A0000F1
:1004A000CC3A00002DE9F04700268CB0DFF85C91D3
:1004B000B0464FF48075012437460596284602F071
:1004C00059FC38B1D9F80403204203D0284602F081
:1004D00047FC26432D1D64007F1CADB2082FEDD3D1
:1004E0004FF4BE74204602F045FC48B1204602F0AD
:1004F00037FC46F0004605AA0121002002F01CFC52
:10050000434D16F0FF0F14D00127002437420CD0C2
:10051000404800EB840108680968C0F3042055F8DE
:100520002420C1F3014102B190477F00641C082CD4
:10053000ECD3002E67DA4FF0FF30CDE908800026BB
:100540003446281910F8507F90F9000027F0C008B1
:10055000401C44D009A9404601F0DEFF58B34FEAE1
:100560009719404601F0BAFB55F820701FB1B9F158
:10057000030F03D00FE0B9F1030F30D108A84FEA01
:10058000D80108F00702435C4FF0010C0CFA02FCA2
:1005900043EA0C0343544FF0A04101EB8800D0F82C
:1005A000000705A9C0F3014A404601F0B5FF18B1A4
:1005B000BAF1020F03D012E0BAF1030F0FD1B9F173
:1005C000030F08D1BAF1020F1BD00221404602F0FE
:1005D0008EFB761CF6B217B149464046B847641CFC
:1005E000042CAED3002E0ED06A460121002002F06A
:1005F000A3FB05990098884205D0059008980990BA
:100600009DE70321E2E70CB0BDE8F0870060004001
:10061000200500201065004000F01F0201219140DC
:1006200040094FF0E02202EB8000C0F880127047D2
:1006300000F01F020121914040094FF0E02202EB3F
:100640008000C0F88011704700F01F020121914026
:1006500040094FF0E02202EB8000C0F80011704723
:1006600000F01F020121914040094FF0E02202EB0F
:100670008000C0F80011704700F01F020121914076
:1006800040094FF0E02202EB8000C0F800127047F2
:100690004907090E002803DA00F00F00024A00E0C3
:1006A000024A81547047000014ED00E000E400E0CD
:1006B0002DE9F0414FF48077384601F035FF0124F1
:1006C000104EA50748B1384601F035FF0120C5F8A6
:1006D00008037470002001F009FB4FF4827738465C
:1006E00001F022FF00280BD0384601F024FF022041
:1006F000C5F80803B470BDE8F041012001F0F6BA76
:10070000BDE8F0810C05002004480021016441642B
:100710008164C1640160416002F096BE0011014035
:1007200002F00ABE074810B5406830B18047002883
:1007300007D0BDE8104000F003BBBDE8104001F059
:1007400053BC10BDA4000020F0B596480023021D44
:1007500001780125101D4FF08056062907D1147825
:10076000240704D10478C4F30314032C02D006290F
:1007700004D00FE08D4F8C4C7C670EE0147824077A
:1007800008D10478C4F30314032C06D0042C04D03D
:10079000052C02D0062907D00EE0D6F84442844F3B
:1007A000C4F342343C6002E01478240704D1047896
:1007B000C4F30314032C02D0062906D011E07D4CAB
:1007C000276827F0807727600EE01478240708D187
:1007D0000478C4F30314032C06D0042C04D0052C95
:1007E00002D0062907D00EE0734C23606360704C82
:1007F000241F236002E01478240704D10478C4F392
:100800000314032C02D0062905D00CE0684F032402
:1008100064373C600AE01478240704D10478C4F3F8
:100820000314032C02D006290DD014E0634F0524D5
:100830003C60624C78342560604C083423603F246F
:100840003F1D3C6002E01478240704D10478C4F30F
:100850000314052C02D0062957D068E058490968CE
:10086000584A11605649091D0968121D1160544902
:1008700008310968121D116051490C310968121DB7
:1008800011604F4910310968121D11604C49143133
:100890000968121D11604A4918310968494A203215
:1008A000116047491C310968121D1160444920310B
:1008B0000968121D1160424924310968121D116036
:1008C0003F4928310968121D11603D492C310968E2
:1008D000121D11603A49303109683A4A40321160BC
:1008E000374934310968121D1160354938310968BA
:1008F000121D116032493C310968121D11603049E6
:1009000040310968121D116002E0117809070ED10B
:100910000078C0F30310032803D0042801D0052871
:1009200005D1D6F85802284900F04F000860214848
:100930007438016841F470010160BFF34F8FBFF359
:100940006F8F4FF01021D1F80002002803DBD1F89F
:100950000402002821DA1D4A15601D480468002C95
:10096000FCD01524C1F800420568002DFCD0C1F868
:10097000044201680029FCD0136001680029FCD002
:10098000BFF34F8F0B48F0380168124A01F4E06161
:1009900011430160BFF34F8FFEE710490E48086016
:1009A000F0BD0000E00F00F00DF0ADBA00C0074050
:1009B0003C050040FCED00E00C01004010560040FA
:1009C0000404001020C50040E40E004004E501408E
:1009D00000E401400400FA050090D0032400002048
:1009E0000448017F04480029024901D002F0E9BE11
:1009F00002F058BE7805002000200040014A02495C
:100A000000F026B86F1F0000A000002002E008C818
:100A1000121F08C1002AFAD170477047002001E078
:100A200001C1121F002AFBD17047000001212028BC
:100A300003DA81400548014003E0402802DA20380B
:100A4000814009B10120704700207047FC06FFBCBF
:100A50002DE9F04116460F460446002503E03946CD
:100A6000B0476D1C641C20780028F8D12846BDE8EA
:100A7000F0812DE9FC47002517880646158090F87F
:100A80002D001446894630B13A462146484600F0CA
:100A900051FD050009D1B0784FF00C0A18B3208839
:100AA000C846001DB84202D95046BDE8FC876846DA
:100AB00079DF0028F9D12088032108F80010208868
:100AC0001921401C80B2208008F800102088401CAA
:100AD00080B2208000EB0801BDF8000002F0E9FEC2
:100AE000218808442080F0780222C8B1218896F934
:100AF000033001F1030C4846BC45D5D84254218847
:100B00004FF0010C491C89B2218000F801C02188F6
:100B1000491C89B2218009F801302088401C2080BE
:100B20007068B8B1218890F9003001F1030C484693
:100B3000BC45B9D8425421880A22491C89B2218077
:100B400042542188491C89B2218009F8013020884B
:100B5000401C2080308950B1CDE900474B46062229
:100B6000022106F1080002F0F1FE05009DD1308A55
:100B700050B1CDE900474B460722032106F1100092
:100B800002F0E4FE050090D1308B50B1CDE9004772
:100B90004B461522142106F1180002F0D7FE05007D
:100BA00083D1306A30B13B462246494601F008F90C
:100BB0000500DBD1706A30B13B462246494601F060
:100BC0002BFC0500D2D196F82C0038B13B462246CA
:100BD0004946304602F0B0FA0500C7D1307838B146
:100BE0003B4622464946304601F048FC0500BDD14F
:100BF00028465AE7134A0021535C0BB1012203E057
:100C0000491C0629F8D300220F49012806D00228E2
:100C100009D003280CD0042812D10DE0487810B177
:100C20000AB101207047887810B10AB102207047DC
:100C3000C87808B103207047087908B104207047CC
:100C400000207047410000201C04002010B5012244
:100C50000221002000F0C4FE08B1072810D10722AD
:100C60000221012000F0BCFE08B1072808D10021B4
:100C70000A22084600F0B4FE08B1072800D100207F
:100C800010BD022000F06CBD70B50024064D06E0DA
:100C90006868012110F8340001F000FD641C287818
:100CA0008442F5D3002070BD5C000020F8B51546E5
:100CB0000C460646052A01D20720F8BD01F0CAFD00
:100CC00018B901F099FD0028F7D1114900204E60B4
:100CD0000C70C1E902500F4D08610DE006EBC40035
:100CE0006968009181788DF8011000780A4A694698
:100CF00001F022FD0028E0D12000A4F10104E4B2BB
:100D0000ECD1BDE8F840054A0021024800F04CB89B
:100D10005C000020843A0000911F0000A91E000022
:100D2000BFF34F8F04480168044A01F4E0611143A6
:100D30000160BFF34F8FFEE70CED00E00400FA0501
:100D40000EB500210091CDE901106A4644F2010080
:100D5000FFF7E6FF0EBD10B58268C3689A1A03D08C
:100D600001F0F2F8002010BD052010BD29B112B12C
:100D7000531E134203D0092070470E2070470160B4
:100D8000838000218160C1600846704710B5826889
:100D9000C3689A1A83889A4203D801F0DFF80020CA
:100DA00010BD042010BD0000074B5B6823B12AB1C1
:100DB00020B10068037C1BB10820704707207047F2
:100DC0004174426100207047800000202DE9F04707
:100DD000074698461446894690074FF0000526D1ED
:100DE0002CB302F0AFF8134E06F11000C6F80C80D9
:100DF0000570457080F802904460756035707570BC
:100E00001420FFF709FC07211420FFF741FC1420F0
:100E1000FFF71AFC0848076007211120FFF738FC8C
:100E20000548001F0068B0600020BDE8F08707207B
:100E3000FBE7000070000020081501402DE9FC4789
:100E4000DFF87890D9F8043073B368B3052902D27B
:100E50000720BDE8FC87436933B3437C012B25D0D1
:100E6000002704460025884616468DF8005068463F
:100E700000F0CAF801A802F051FDC8B101210170CB
:100E80000F4944600968C0E90218C0E904769DF87A
:100E9000040089F801009DF8000000F0D7F8142044
:100EA000FFF7EAFB2846D4E70820D2E70F46D8E749
:100EB00004259DF8000000F0C9F8F3E78000002049
:100EC000041501400649496839B130B1416921B181
:100ED00000210174022102F093BA0820704700003B
:100EE0008000002070B50A4E01460A48B578FFF729
:100EF00032FF04464DB10020B070711C0122C81DA4
:100F000001F0EEFC08B1FFF71BFF204670BD0000AA
:100F100090000020B8050020F0B5284E89B01F468B
:100F20000D00044672603BD0A888296882B224482C
:100F3000FFF71CFF002834D1A889A96882B2204895
:100F40001030FFF713FF00282BD120221D496846DF
:100F5000FFF772FA60690690207C00B101208DF8DD
:100F600014008DF81C70607C00B10E208DF8150007
:100F7000E0680290A068039020680190606800908B
:100F80000E48114A6946083001F076FC002808D165
:100F9000B0702068401C04D09DF81D0018B106E018
:100FA000072009B0F0BD0548083001F0F1FC034905
:100FB0000122491CC81D01F093FCF2E790000020BB
:100FC000B80500208C3A00000536000010B5014637
:100FD0000B48FFF7DBFE040010D10A4801F022FEA7
:100FE00060B9084906480839FFF7B5FE30B9054928
:100FF00001220839034801F08FFD0446204610BD48
:10100000C80500209800002030B5EFF3108172B6BB
:101010000B4A9468012324B10370002900D162B601
:1010200030BD9360074B1D68074C254015601C6060
:101030005C6854605A175A6000220270EDE70000A5
:10104000D805002080E100E0FC06FFBC09498A6861
:10105000002A0ED000280CD1EFF3108072B60B6876
:10106000054A13604B68536000228A60002800D153
:1010700062B67047D805002000E100E02DE9F0419C
:10108000064608680C46294F411C4FF0010505D063
:1010900005FA00F13960206801F00FFE6068411C1C
:1010A00002D0002101F000FE3079214901EB40100F
:1010B000A169007F00283068C0F8241524D0607D25
:1010C000217D32680843C2F86C05D4E9001230680B
:1010D000C0F80C15C0F8142523E0A068411C02D00C
:1010E000002101F0E1FDE068411C04D085403D6035
:1010F000E06801F0E2FDD4E902123068C0F808258A
:10110000C0F81015BDE8F081607D227D3168104384
:10111000C1F86C05D4E900123068C0F81425C0F895
:101120000C15207D0128D8D0ECE700000805005000
:1011300078050020F0B50C4693B01F210726ADF8C6
:101140000010ADF80410002750B1C17849070DD543
:101150006A4602A9FFF78DFC002808D102AD02E023
:101160000025ADF800706CB1E07810B1304613B0D6
:10117000F0BD01AA0AA92046FFF77BFC0028F6D1A2
:101180000AAA02E00022ADF80470BDF80400C3B260
:10119000BDF80000C1B2284672DFE8E72DE9F0474C
:1011A0001F46DDF8208013468946040042D0EBB389
:1011B000404D012000262870EE70202219463E483E
:1011C000FFF73AF9C5E904784FF6FF702881AE6160
:1011D0003948AE83AE773C212030FFF746F93648D8
:1011E000217820300170A1788170E178C170617838
:1011F00041703149D4E90423C1E90C23D4E9022325
:10120000C1E90A23D4E90623C1E90E23616AE1B1E9
:1012100000F13C0100F1480241628A60636A1B8868
:101220000B80616A436A8988998000E002E00021AE
:10123000436A07E00E20BDE8F087656AAD686D5C23
:101240005554491C9D888D42F7D8A16AD9B11A4AD4
:101250009432A2F10C018A608162A36A9B888B8020
:10126000A16A836A098819800021836A04E0A56A5B
:10127000AD686D5C5554491C9D888D42F7D894F833
:101280002C1080F82C10216A49B10A490A310162F8
:10129000226A52884A80216A026A0988118061683C
:1012A00001B141604946BDE8F04703482030FFF7EF
:1012B00041BF0000280000201C04002010B5018858
:1012C000144C102918D011291CD01B2919D1007ACF
:1012D000002816D1E078401C0521B0FBF1F201FB9B
:1012E000120000BF00F036F800280AD0616900291A
:1012F00007D0BDE810400847C17B012901D1808893
:10130000208110BD00216171808821898842F8D137
:101310000120E7E72800002010B574DF0B4C012006
:101320000B4960710020E0710620C8700021084858
:10133000FFF700FF002807D1E07800F00BF810B1AC
:10134000616901B18847002010BD0000280000201D
:101350003C0400202DE9F0413D4C804686B02078C9
:1013600048B184F8038004A800F008FE0498012521
:1013700028B1657067E0082006B0BDE8F08100275D
:10138000A761344EA783A777707810B1E078012861
:1013900006D0B07858B1E078012801D0022806D1F3
:1013A000216919B125710820884700E0277140465E
:1013B000FFF720FCE070216939B1032801D004282F
:1013C00003D1307808B1607990B1A7710097029786
:1013D000019703978DF800708DF808701C48E1782C
:1013E0001830052925D2DFE801F03008111D210051
:1013F000E771A57107208847E8E7A57001908DF88F
:101400000050ADF80C70ADF80A7014E00221A17024
:1014100001908DF80050B089ADF80C003089ADF81E
:101420000A0008E0684601F0CBFE02E0684601F0E1
:10143000EBFEE07818B1684673DF00289CD1216983
:1014400009B1A0788847002096E7A770F7E7000069
:10145000280000201C04002070B5054601461C220F
:101460000F48FEF7E9FF0F4C00262670286830B1C0
:10147000016861604068A060201D7ADF02E00948D1
:10148000001D7BDF00280AD14FF6FF706080667078
:10149000BDE87040044A00210448FFF785BC70BDD8
:1014A000F004002048000020BD3800006C3A000025
:1014B00070B51E4C068800231B49E289102E15D0FA
:1014C0001B4D112E1CD0122E29D0502E17D130F8C2
:1014D000061F914213D14189022910D10C3000F02E
:1014E000F7F888B1BDE8704000F0B0BC84884C804B
:1014F0000469CC60406908614B70002AF2D070BD6D
:101500004FF6FF7048804B702868FFF7DBFC00281F
:10151000F5D0A1690029F2D0BDE870400847826883
:10152000CA60C0680861DDE748000020F0040020C0
:101530006C3A00007CB5054608880C46093090429C
:1015400001D90C207CBD68466DDF0028FAD12188C6
:101550000820685420881B21401C80B22080295418
:101560002088401C80B220802844DDF801100160F2
:10157000BDF8051081802088801D80B220809DF8F4
:101580000010490800D0012129542088401C2080E7
:1015900000207CBD10B50446FFF78AFF21460748AE
:1015A00000F040F8204601F033FC2046FFF786FEAD
:1015B0002046BDE8104000F05DB900009403002013
:1015C00030B5174B0D4604000FCB85B08DE80F00EA
:1015D00023D015B34FF6FF70A0822868A0610020C9
:1015E000A0752146684663DF002814D120788DF865
:1015F00012000120ADF81000A21C04A9A0DF0028F1
:1016000009D12946204601F0D4FC002803D12946FF
:10161000204601F06BFF05B030BD0E20FBE7000057
:10162000703A000010B5002823D0002921D00A8884
:10163000102A19D0112A19D0502A1AD104468A1D0D
:1016400031F8060F238A0C31984202D15389022BBC
:1016500010D0A38898420CD1A369002B09D05289DD
:101660002046BDE810401847898801E04FF6FF7119
:10167000818210BD084600F02BF800B10120A07552
:1016800010BD07B584B068B1828AA2F57F43FF3BE5
:101690000AD0827D42B1BDF81820142A06D907204D
:1016A00007B000BD0E20FBE70820F9E700220092FA
:1016B0000192029203928289039106A90291ADF8E8
:1016C000002001218DF80210808A6946A6DFE7E735
:1016D000007800F00100704700B5134889B000237E
:1016E000006807905022114907A801F0EDFD08B1EC
:1016F000FFF726FB6A460121002001F0CFFD08B16B
:10170000FFF71EFB1720ADF81000684601F0BCFD86
:1017100008B1FFF715FB064801F0ACFD002801D029
:10172000FFF70EFB09B000BD1C3A0000B800002016
:10173000951500000149085C704700003C3A000024
:101740000549095C05480068C84010F0010000D058
:10175000012080F0010070473C3A00001005005065
:1017600007490A5C074801680120064B90401B1D91
:1017700020EA01021A600840191D08607047000045
:10178000383A0000040500500249085C012101F0CC
:10179000C7BA0000383A00000249085C002101F095
:1017A000BFBA0000383A00000549095C05480068E6
:1017B000C84010F0010000D0012080F00100704707
:1017C000383A0000040500507CB50024084E254638
:1017D0000122305D009500231146019501F02EFA9B
:1017E000641C042CF4D3BDE87C4000F003B8000076
:1017F000383A000010B500242046FFF7C5FF641CEE
:10180000042CF9D310BD10B500242046FFF7C4FF07
:10181000641C042CF9D310BD10B50246064B4FF0E2
:10182000FF3000215C5C944201D1084610BD491C88
:101830000429F7D310BD00003C3A000070B50C4EEF
:101840000C004FF0000530600BD0012000F0A4F830
:1018500008B1022004E0002000F09EF800B10B2047
:101860002070706810B9FFF7F1F90546284670BD81
:101870001C00002010B51A4C0188606810290ED099
:1018800011292BD1401E606028D1FFF7DFF9002815
:1018900024D02168002921D0BDE810400847D0B9E4
:1018A00000210122084600F09BF808B107280FD15B
:1018B00007220221012000F093F808B1072807D180
:1018C00004220221002000F08BF820B1072802D06A
:1018D000216801B188476068401C606010BD00004D
:1018E0001C00002010B5002000F0BAF908B106284D
:1018F00006D1012000F0B4F908B1062800D100207B
:1019000010BD00002DE9F0470D468146FFF784FF2A
:101910000446042838D2DFF878801C481D4EA8F110
:10192000100735B3012D0ED0022D2DD104EB44004C
:1019300030444578002D27D0F968002924D0284666
:10194000BDE8F047084704EB4401755C0E4471782C
:1019500059B179680E4A01EB810149000E3A80685D
:10196000FFF76CFA08B987F80290B17808F804100C
:10197000E0E78068FFF7A6FA04EB4401314418F869
:1019800004008D78A842D5D0BDE8F087403A000029
:1019900018000020F0030020FFF7D2BE01460F48D8
:1019A00010B54088042907D007290ED00A2914D180
:1019B000BDE8104001F04ABC132176DF0BE000289F
:1019C0000BD0BDE81040FFF7BBB9A0F57F41FF3950
:1019D00003D1FFF7A1FC0828F1D110BD00000020C1
:1019E00070B50023042810D20D4D00EB4004012AED
:1019F00002D101290CD00022094E00EB40003044F6
:101A000061B1012906D0022906D00723184670BD0E
:101A10000E30C2B22A55F9E74270F7E78270F5E757
:101A2000F0030020044A01460020127AD20702D0B7
:101A3000084600F053B87047080000202DE9F04137
:101A4000064621480F464160C0E90262B00725D52D
:101A50000025012211462846FFF7C2FF6D1C0446EF
:101A6000042D02D2002CF4D012E08CB97A080421A3
:101A70001648FFF71BF904000AD1FFF705F9040027
:101A800006D11248124A0021001FFFF78DF90446C3
:101A9000F00701D0FFF798FE24B112E0F00701D063
:101AA000FFF792FE09480B4A00210C38FFF77CF93A
:101AB000040006D10548084A01210838FFF774F9E7
:101AC00004462046BDE8F081080000204C3A0000A2
:101AD000711C0000F5200000830C00002DE9F04788
:101AE0005D4C05460026607818B100206070FFF755
:101AF00081FE0120594F4FF47A694FF4C87A4FF0B4
:101B00006408182D5AD2DFE805F0910C0C293845ED
:101B10005A5F636A636AA372727272729194979A3F
:101B2000A3A30020FFF740FE00284FF0000008D0DC
:101B3000FFF72AFE022D02D14FF4E16008E048468B
:101B400006E0FFF729FE022D01D1C82000E0504633
:101B5000B0FBF8F12570606841432AE00020FFF7F0
:101B600023FE00284FF0000004D0FFF70DFE4FF4D5
:101B70004870EDE7FFF710FEE7E70020FFF714FEDF
:101B800000284FF0000002D0FFF7FEFDD7E7FFF777
:101B900003FEDCE70020FFF707FE00284FF00000FF
:101BA00002D0FFF7F1FD01E0FFF7F6FD2570606858
:101BB000410000223868FFF741F9064633E0002073
:101BC000FFF7CEFD257007E000203EE025702AE0FB
:101BD00060700120FFF7C4FD00226168EAE76070D1
:101BE0000120FFF7BDFD606800EB8001E1E7786848
:101BF000FFF768F90646D5F1110000D01EB10220AA
:101C0000FFF7C2FD0FE001280AD9C8214843B0FB05
:101C1000F8F16068002241437868FFF70FF9064643
:101C20000220FFF7B9FD3046BDE8F087FFF7E2FD7F
:101C3000CCE7FFF7DFFDC7E7FFF7DCFD04E0FFF7C8
:101C4000D9FD0020FFF7A8FD0120FFF7A5FDBDE7A6
:101C5000FFF7D9FDBAE7000008000020403A000075
:101C600010B5FFF767FD032101F031F8002010BD2A
:101C700000780221FFF746BE05494FF0FF320828E1
:101C800041F8202002D3084480F848207047000023
:101C900020050020F0B54FF0FF3512B100230826D3
:101CA00001E008230C260C4C05E000BF54F823701B
:101CB0007F1C04D05B1CB342F8D32846F0BD261825
:101CC0005DB286F8305044F82310002AF5D1E118AF
:101CD00081F84800F1E7000020050020024908448F
:101CE00090F93000704700002005002070B5084CC6
:101CF000050009D010342168002907D00868206049
:101D0000496828468847F6E70834F4E770BD0000C4
:101D10000C0500202DE9F05F26484168F1B3DFF89B
:101D200098B00E688146DBF8004087688078E11B38
:101D300021F07F45ED1CB0B9DFF880804FF4803092
:101D4000C8F84403C8F804031120FEF765FC11200D
:101D5000FEF77AFC4FF0010AC8F800A02F2000F02F
:101D6000F3FB89F802A0B54200D23546124BE819C0
:101D70003C3320F07F401860DBF800105A46091B06
:101D800021F07F41001BC91C20F07F4081420FD908
:101D9000106818602F2000F0D7FB00E004E0BDE8D9
:101DA000F05F1120FEF768BCBDE8F05F01F0CAB833
:101DB000BDE8F09F700000200415014000100140B4
:101DC0002DE9F04117880646B81D14460D46984285
:101DD00002D90C20BDE8F0813188072206290AD3F8
:101DE0004FF4486C4FF6FF73614501D9994202D117
:101DF0007088062801D21046ECE7604501D9984268
:101E0000F9D1994203D0984201D08142F3D80520FC
:101E1000E85520881221401C80B220802954208857
:101E2000401C80B220804119308801F042FD218899
:101E3000084480B220804119708801F03AFD218861
:101E4000084420800020C5E7FEF77ABFF8B51348A4
:101E500000F042F9114D0026114C0C3D30B1616982
:101E6000B9B101208DF80000684611E0287820B152
:101E7000616971B18DF80060F6E7687858B1A168C2
:101E8000084800220068FEF7D9FF10B1A16901B12E
:101E900088472E70F8BD6168F2E70000540000200A
:101EA000F00400206C3A00002DE9F04100260125E5
:101EB000144C22E06068226900EBC607387805FA06
:101EC00000F1114217D08A43226100F08DFC0246D6
:101ED0003878E36805FA00F1194002FA00F39942F4
:101EE00009D17978012901D0012100E00021514078
:101EF0007A6802B19047761CF6B220788642D9D330
:101F0000BDE8F0815C0000200E4910B50A784C78DD
:101F10000023A24212D0521CD2B20A70022A00D16F
:101F20000B70084A0B78183252F823200260886838
:101F3000104420F07F408860012010BD0360002025
:101F400010BD000070000020826883881A4003687A
:101F50009A5C0A708168491C81607047C2688388F6
:101F60001A4003689954C168491CC160704710B594
:101F70000446C0B2FFF72AF8204610BD20B103493D
:101F8000496E01600020704703207047E40500207F
:101F90002DE9F041124E07460125BD403068FEF79D
:101FA00091FF002805D10F4C2069284203D0A84397
:101FB0002061BDE8F081384600F016FC0028E0689A
:101FC00001D0284300E0A843E06020692843206155
:101FD000A1683068BDE8F0410022FEF72FBF000085
:101FE000843A00005C000020F8B51C4C20780028E2
:101FF00032D0E068002658B10025607800282BD147
:10200000684648DF052805D030B1FEF799FE0AE0A2
:102010000125F2E7012606E0009800F017FB216990
:1020200009B1009888479DB96078002814D160886C
:10203000ADF800006946A06861DF052803D020B133
:10204000FEF77EFE04E0012502E0D4E902018847A4
:10205000002ED2D0002DE6D0F8BD0000A400002054
:1020600070B50E460446007918494FF4A27501EB8D
:102070004010017F2068A1B14FF4887100F098FEF4
:102080004FF49071206800F093FE4FF49271206835
:1020900000F08EFE2946206800F08AFE0C49206878
:1020A00009E04FF48E7100F072FE2946206800F0BE
:1020B0006EFE08492068C0F80413206800F0EAFAB0
:1020C0003146BDE8704000F0C7BA00007805002036
:1020D0001003020080000200054940880A889042EF
:1020E00004D34988884201D80120704700207047F6
:1020F0004C0000200348017AC90702D00078FFF79E
:10210000EDBC7047080000202DE9F043264CA4F1F7
:1021100010092278D9F8048099F80350404694F8C1
:1021200001C0D9F8086031E002EB42036168521C3B
:1021300001EBC301A378D2B2934200D100220B7805
:10214000022B02D0032B21D11DE003464F68194614
:1021500003E0B94203D00B46C969B9B1F9E7A9B1A7
:102160008B4205D1C06918B9104E0125B560002613
:102170000F68C969D96149B10B683B440B6005E040
:102180000174C06900E000210028F9D19445CBD149
:10219000C9E9010689F80350404502D00120BDE895
:1021A000F0830020FBE700008000002000100140C9
:1021B0002DE9F0412A4F0446002607F11005D7F813
:1021C00004803EE002D02046E4691DE0287869687A
:1021D00000EB4002401CC0B201EBC2012870AA789B
:1021E000904200D12E700A784868012A2BD1027CD7
:1021F0004ABB8A684260CA6882600A69C2604969EB
:102200008161F97801B146604368BA68DFF854C06B
:10221000991A21F07F41614502D28268114406E09B
:10222000D11A826821F07F418A4202D9511A016095
:1022300000E006604660012186600174C66101F01D
:10224000C1F8002CBED1287869788842BED179685F
:10225000414502D00120BDE8F0810020FBE70000ED
:1022600070000020FFFF7F000023A8B0584A05211E
:102270001846FEF7ABFD08B1FEF762FD182255497E
:102280006846FEF7D9F85448069054494FF48070D8
:10229000CDE9070109900723514A06A96846FEF7D0
:1022A0003BFE08B1FEF74CFD4E4A40F6CD410320FF
:1022B000FFF7C4FB08B1FEF743FD01A90020FFF7BB
:1022C000BDFA08B1FEF73CFDFFF706FA9DF80C00D9
:1022D00045A120F00F00401C20F0F00010308DF8D8
:1022E0000C000B2203A87CDF08B1FEF729FD0024B7
:1022F00000941020ADF800003C200194ADF80200DD
:10230000ADF804404FF4C870ADF8060068467ADFB7
:1023100008B1FEF715FD374800902D486946783022
:10232000FFF74EF908B1FEF70BFD3C2101A8FEF7BF
:102330009CF802208DF804008DF8064005208DF8E9
:1023400007003C2110A8FEF790F82B4801251590B6
:10235000ADF8505020211FA8FEF787F840202390A9
:102360008DF87F50B4202490244B1FAA10A900940C
:1023700001A8FEF713FF08B1FEF7E2FC1C21684636
:10238000FEF773F84FF42030CDE900404FF4702091
:10239000029003208DF80C0019480590194806900A
:1023A000ADF80E408DF810406846FFF755F808B1BB
:1023B000FEF7C6FC14A0FEF721FB0320FEF7CAFFC0
:1023C00000E03EDF0028FCD0FEF7BAFCF9E7000091
:1023D0001C030020203A00001C0100201C020020E9
:1023E000A93500009D1900004E6F726469635F5546
:1023F00041525400BD2D000004000020ED2D0000CE
:10240000F92E0000491E00000D0A55415254205378
:1024100074617274210D0A0070B5144682880546F5
:102420000E46921C2088911C0144994201D8FE2A34
:1024300001D90C2070BD521C32542088FF21401C51
:1024400080B2208031542088401C80B220808119C5
:10245000288801F02EFA2188084480B22080AA88BA
:1024600042B1A96841B13044FDF7E6FF2088A98850
:1024700008442080002070BD072070BDF8B50E46CE
:10248000017814460546012901D1687830B12088C9
:10249000821C9A422DD8012902D006E00720F8BDFF
:1024A00069780144891C994223D8181A801E87B282
:1024B000ADF800702188B01C084469467DDF002813
:1024C000EDD12878022805D1BDF80010B94201D815
:1024D00009210AE00821012805D16878B84202D80C
:1024E000ADF8000001E0ADF80070BDF80000FE2876
:1024F00001D90C20F8BD2288401CB0542088401C13
:1025000080B2208031542088401C2080BDF800100B
:10251000084420800020F8BDC20800F00703012015
:10252000895C98400840704700F1804000680028AE
:1025300000D00120704708B500F180400021016003
:102540000068009008BD000000283ED01F49204AC6
:10255000096800BF00BF00BF00BF00BF00BF00BFD1
:1025600000BF91422FD000BF00BF00BF00BF00BF1F
:1025700000BF00BF00BF00BF00BF00BF00BF00BF63
:1025800000BF00BF00BF00BF00BF00BF00BF00BF53
:1025900000BF00BF00BF00BF00BF00BF00BF00BF43
:1025A00000BF00BF00BF00BF00BF00BF00BF00BF33
:1025B00000BF00BF00BF00BF00BF00BF00BF00BF23
:1025C00000BF00BF00BF0138C3D170472400002006
:1025D0000024F40070B50E4C0025207808B1852544
:1025E00014E00021A16061602161E1600948006898
:1025F000012610F0010F03D10721002000F02CF874
:1026000000F094FE08B9044806602670284670BDA4
:102610000C05002000E100E01805004038B500205E
:102620008DF800006846FEF7EFFC074C207808B9EB
:10263000FFF7D0FFE068401CE0600120A0709DF82B
:102640000000FEF703FD38BD0C050020002801D175
:10265000FFF74CBB704700004907090E002804DA59
:102660000A4B00F00F021A4401E0094BC218117026
:1026700000F01F020121914042094FF0E02000EBE1
:102680008200C0F88012C0F80011704714ED00E01D
:1026900000E400E0C0F3073040B270472DE9F0419C
:1026A0000E46074600F036FC204D0028384616D06E
:1026B000FFF714FB284490F848008009032802D053
:1026C00001280AD003E0384600F022FB28B103219C
:1026D0003846BDE8F04100F00ABB0221F8E700F0FF
:1026E00025FC00281FD03846FFF7F8FA04464FF4BF
:1026F000807000EB84000E4A81B202EB8400026815
:1027000042F001020260084600F02AFB002E0AD0C7
:102710003846FFF7E3FA55F82000002803D00549B2
:102720000120A0400860BDE8F081000020050020E5
:1027300010650040046300402DE9FC41DFF89C80F7
:10274000044608EB0400002790F930001346C01738
:102750000E46401C01D008273DE0F278194620467D
:10276000FFF798FA0546401C34D0B07850B14FF0CE
:10277000A04000EB8400D0F8001721F00201C0F85F
:10278000001707E000217378204600910A46019166
:1027900000F066FAF078A0B11148317800EB8500BE
:1027A0000268104B1A4002604FF4F8524FF4403365
:1027B00002EA042203EA01410A4301680A43026073
:1027C00009E008EB0500327810F8481F41EA821151
:1027D000017000E004273846BDE8FC812005002098
:1027E00010650040FFE0FCFF10B500F091FA0028F2
:1027F00000D0012010BD000070B5144D95F85400B4
:1028000008B1082070BD0020411E2A18401CC0B22B
:1028100082F830102028F8D300242046FFF72CFA45
:10282000641CE4B20C2CF8D307210620FFF714FF38
:102830004FF4BE7000F094FA05494FF00040086074
:10284000012085F85400002070BD00002005002004
:1028500004630040034890F85400002800D0012091
:1028600070470000200500200121B1EB507F01D10D
:1028700001207047002070472DE9F041054600799E
:10288000164F904607EB40140E46E07E10B108202C
:10289000BDE8F081707F20772846FEF7EFFBC4F893
:1028A000048031692160B8F1000F03D0317F2846E0
:1028B000FFF7D6FB287907EB4010007F0028286837
:1028C00001D0082100E00421C0F800150020E075C7
:1028D0002076A0750121E176A076D9E77805002061
:1028E0002DE9F04105460079284E904606EB40144C
:1028F0000F46207F18B10846FFF7B6FF80B1626827
:1029000000234FF404704FF4017172B12A7906EB81
:102910004212127F002A2A6805D0C2F8080304E098
:102920001020BDE8F081C2F80813E27DB2B1227E2A
:102930007AB162685AB12A7906EB4212127F1AB153
:102940002968C1F8040302E02868C0F804131120C4
:10295000E7E72761012384F8188005E084F81780F1
:102960000020E760607620762879424606EB40102A
:102970003946007F0028284603D0BDE8F04100F02A
:1029800073B8BDE8F04100F01BB8000078050020E6
:1029900070B504460079094D05EB4010017F002910
:1029A0000AD1807E002807D1204600F07CFB2179E7
:1029B000012005EB4111887670BD000078050020EC
:1029C0002DE9F05F04460079264901EB4015A87E09
:1029D000184302D1204600F066FB68680028206892
:1029E00006D04FF40171C0F804130020BDE8F09F39
:1029F0004FF4A276314600F0CAF9B1464FF4927A0C
:102A00004FF4847B5146206800F0BCF906465946D5
:102A1000206800F0B7F980464946206800F0B2F916
:102A2000074648EA07003043ECD056EA070007D1D2
:102A30002946206800F0A4FAE87D697E8842E1D842
:102A40000020E8750EB10320D0E70FB10F20CDE7CD
:102A5000A97E01200029216801D00860C5E74860EF
:102A6000C3E70000780500202DE9F05F89460446A1
:102A70004FF488759A46904600260068294600F073
:102A800097F94FF4A2773946206800F091F9206851
:102A9000C0F83495C0F838852068BAF1000F14D01A
:102AA000D0F8001241F02001C0F800122179DFF8BF
:102AB000648008EB4110406850B120684FF4047105
:102AC000C0F804133046BDE8F09F01210160EDE736
:102AD000AA46B9464FF4927B5146206800F063F94C
:102AE00007464946206800F05EF9054659462068C9
:102AF00000F059F9014647EA05000843ECD0237974
:102B0000002208EB4310C27501B10326002DD9D075
:102B10000F26D7E7780500202DE9F0470546007914
:102B20003F4E904606EB40140F46207F18B10846F2
:102B3000FFF79AFE30B1284600F074F820B111205A
:102B4000BDE8F0871020FBE784F81680A760002717
:102B5000A78228794FF0010806EB40143E46207FFB
:102B60000028286825D04FF49079494600F020F9D4
:102B70004FF4AC7A5146286800F01AF92868A17D14
:102B8000A268C0F84425C0F848152868C0F8088035
:102B90006068F0B94946286800F005F9804651465A
:102BA000286800F000F958EA0001F3D058BBA77577
:102BB0000FE04FF48E7A514600F0E9F82868C0F82B
:102BC00008802146286800F081FC61684FF480701D
:102BD00089B13046B4E75146286800F0D3F810B9FF
:102BE000A08A4845F7D1A08A484505D021462868E3
:102BF00000F06CFC00E08146A08AA17D8842EAD307
:102C0000A08A484501D10F26D1E75146286800F037
:102C1000B9F80028F9D02868C0F80C80C7E7000090
:102C2000780500200079044901EB4010807D0028E0
:102C300000D00120704700007805002070B541EAFF
:102C40004201DDE904564FF0A04441EA830141EA24
:102C5000052104EB800041EA0641C0F8001770BD71
:102C600070B541EA4201DDE904564FF0A04441EA63
:102C7000830141EA052104EB800041EA0641C0F8E6
:102C8000001770BD70B541EA4201DDE904564FF00E
:102C9000A04441EA830141EA052104EB800041EAB6
:102CA0000641C0F8001770BD1CB500220B4600920B
:102CB00011460192FFF7E6FF1CBD1CB500210091F3
:102CC0000B46012201911146FFF7DCFF1CBD4FF0BE
:102CD000A04202EB800202F5E060D2F8002722F465
:102CE00040320260026842EA0141016070474FF0E1
:102CF000A04202EB800202F5E060D2F8002722F445
:102D000040320260026842EA0141016070470000FF
:102D100002490968C14001F00100704710050050E8
:102D20000122824011B10348026070470148001D32
:102D3000FAE700000805005018B5084B6C4601443E
:102D40001B68009306E000BF54F82030D3F810351C
:102D5000401C08C28142F7D818BD0000803A00002C
:102D6000034908B50844002101600068009008BDCF
:102D70000060004002494058012800D00020704700
:102D8000006000404058002800D00120704708B57E
:102D9000002242504058009008BDD0F8040308407B
:102DA00000D0012070474058002800D00120704713
:102DB00008B5002242504058009008BD70B5164634
:102DC0000D46002405E0285DFEF700F90028FAD141
:102DD000641CB442F7D30D20FEF7F8F80028FAD1AE
:102DE0000A20FEF7F3F80028FAD170BD10B550B1F3
:102DF00003280CD10220FEF715FE002807D0BDE8FD
:102E00001040FDF79DBFBDE8104000F01FBA10BD97
:102E100070B5384D044600886E8888B03B2839D09C
:102E20000DDC02283AD0102815D011281BD0132809
:102E300022D100231A46852130467FDF23E0512826
:102E400030D052281AD0552850D0562814D1A088F6
:102E5000132176DF17E00720FEF7E4FD08B1FDF748
:102E60006FFFA08807E00020FEF7DCFD08B1FDF74A
:102E700067FF4FF6FF70688008B070BD00231A46E8
:102E800019463046A9DF0028F6D008B0BDE87040EA
:102E9000FDF756BFA088132176DFF4E7A088002154
:102EA00067DFF0E71022A11D04A8FDF7C5FA9DF821
:102EB00010100029E0D09DF81800042803D006283F
:102EC00001D00528D8D102290ED001208DF80000AC
:102ED0004FF4C170ADF80400A0886946A8DF00284F
:102EE000CAD0FDF72DFFC7E70220EFE7A088172122
:102EF000ADDFC8E7000000200078002807D10448B3
:102F00003B21408876DF002801D0FDF719BF7047CC
:102F1000000000200449084490F93000082801DB33
:102F20000120704700207047200500200449084414
:102F300090F93000082801D2012070470020704726
:102F40002005002070B501260A48710400250160A3
:102F5000094C4810C4F84803C4F8080366602F20E1
:102F6000FFF7F2FAA660054C2F20A560FFF7ECFAF8
:102F7000A57070BD80E100E00010014070000020ED
:102F800070B50446C87D0D4600284FF48471204674
:102F90000AD0FFF7FCFED4F818056A7EE968885469
:102FA000687E401C687670BDFFF7F1FED4F8180506
:102FB00070BD30B58FB00024054607949DF81C0005
:102FC0001C2120F00F00401C20F0F00010308DF884
:102FD0001C009DF81D0020F00F00401C20F0F000A8
:102FE00010308DF81D009DF81E0020F00600801C9A
:102FF0008DF81E006846FDF738FA9DF80000019430
:1030000040F010008DF8000007A8CDE904400394BB
:10301000069428788DF83A000320ADF838000D9416
:103020009DF83400142120F00F00401C20F0F00027
:1030300010308DF834009DF8350020F00F00401C52
:1030400020F0F00010308DF835009DF8360020F0AB
:103050000600801C20F0180040F001008DF83600BA
:1030600008A8FDF702FA0EA808900DA80990012003
:10307000ADF828001420ADF82A40ADF82C0068887F
:1030800005F10C0308AA6946A2DF0FB030BD1FB5D9
:1030900001238DF800308DF808100192D0E900125C
:1030A000684690471FBD10B5044600684FF4927102
:1030B000FFF76DFE4FF484712068FFF768FE20680B
:1030C0000121016010BD000010B50446FDF7AEFC03
:1030D00030B1002C07DA154904F00F00084404E071
:1030E00042F2010010BD1249601800784109082918
:1030F00014D299B1012911D004290FD005290DD07E
:103100000C480122816861B1610950F8213004F056
:103110001F04A240134340F8213005E042F20200B0
:1031200010BD2046FDF79CFA002010BD14ED00E014
:1031300000E400E0D80500202DE9F0410746806A50
:1031400014468846C8B3002531E000BFB96A05EBD4
:10315000450001EB8006B088801CFE2802D90C20B7
:10316000BDE8F0812288401C08F802002088162261
:10317000401C80B2208008F800202088401C80B2CB
:10318000208000EB0801308800F093FB2188084480
:1031900080B22080B28842B1B16871B14044FDF77D
:1031A0004BF92088B188084420806D1CEDB297F857
:1031B0002C00A842CAD80020D2E7FFE70720CFE7BB
:1031C00010B50F490F4C0A8A42818A8A8281097898
:1031D00091B1617981B9E17971B102210172084936
:1031E00004202031C870064800212030FDF7A2FFDE
:1031F000002804D1052000E00320A070002010BDAD
:103200001C0400202800002010B50E490E4C0A8B2B
:1032100042818A8B82810A78042182B1627972B9F3
:10322000E27962B10222027206482030C1700021A8
:10323000FDF780FF002804D10620A07000E0A170F7
:10324000002010BD1C0400202800002010B5002024
:10325000FEF7E8FB08B1FDF773FDFEF743FB08B18D
:10326000FDF76EFD32DF002803D0BDE81040FDF70A
:1032700067BD10BD18B10349C860002070470E201B
:1032800070470000A40000201CB503490191009183
:10329000694660DF1CBD00000000002070B50E46CE
:1032A000054614461C211046FDF7DFF8012020805A
:1032B0000021A16121752672657205B1A0720020FE
:1032C00070BDFDF72DBD00002DE9F041074619B195
:1032D00088074FF0000402D00720BDE8F081104DB0
:1032E00010480126A9606A806B60006810F0010F29
:1032F00003D034460020FDF79BF90B49384610DF18
:10330000070005D014B10020FDF7AAF93846E4E71C
:103310002E70FFF783F9BDE8F0411620FFF7D4BE09
:10332000A400002000E100E0C33200000148007862
:1033300070470000A40000202DE9F84F204C002524
:103340006846D4E901B6FEF7DFFD8046FEF7DCFEF5
:103350000746A946B8F1000F25D00023009ACC46B5
:10336000606819E007680146974202D9BA1A0260FC
:1033700014E0C1F800C0D1F80C80D21BC8693B44EE
:103380008A46B8F1000F07D0F71827F07F47C1E948
:103390000178CAF81C500D460028E3D16060284629
:1033A000FEF706FF04E02846FEF702FF00B917B15A
:1033B0005846FEF7AFFC84F80390BDE8F88F000094
:1033C000700000200D4B10B5596831B102680C68CF
:1033D000A24204D8A21A0A60C161586010BD0B460F
:1033E00003E00B46C969121B21B10C689442F8D363
:1033F000A41A0C600260C161D86110BD7000002089
:103400007CB5064600240D468DF800406846FDF761
:10341000FBFD01A800F082FA70B105700949466011
:103420009DF8040048709DF80000FDF70FFE142081
:10343000FDF722F920467CBD04249DF80000FDF72D
:1034400005FEF7E7800000202DE9F0411D4D6C6876
:10345000002C35D01C4800270068A968B846401ADF
:1034600020F07F462068B04215D82246361A07441D
:10347000E469107C68B182F81080EB6833B1D2E95E
:103480000501984728B1FDF75BFC02E0D2E9051081
:103490008847002CE6D129786878814206D1401C03
:1034A000C0B26870022801D185F8018005486978AA
:1034B000183040F82170BDE8F0411420FDF7DCB869
:1034C000BDE8F081700000200415014070B50C4685
:1034D00005464FF48E71FFF75AFCA18AA068405C44
:1034E000A18A491CA182C5F81C0570BD30B58FB0FA
:1034F00005461C216846FCF7B8FF00249DF8000033
:10350000019440F00C008DF800000394049405949D
:10351000069428788DF836000220ADF834000C941B
:103520009DF83000142120F00F00401C20F0F00026
:1035300010308DF830009DF8310020F00F00401C55
:1035400020F0F00010308DF831009DF8320020F0AE
:103550000600801C20F0180040F001008DF83200B9
:1035600007A8FCF782FF0DA807900CA8089001207F
:10357000ADF824001420ADF82640ADF82800688886
:103580002B1D07AA6946A2DF0FB030BD1FB5002270
:103590008DF800208DF80810816801918275D0E9BE
:1035A0000012684690471FBD70B5017841B10129EE
:1035B00001D0022921D14068BDE87040FDF7C0BBB1
:1035C0000F4C0E4D20782844FDF78CFC2078401CD1
:1035D000C2B2A818227010F8010C0A2801D0142ACF
:1035E0000BD3064901F52370FEF74BF8082802D0EB
:1035F00008B1FDF7A5FB0020207070BD0801002078
:10360000000000207CB50178244D81B301290BD046
:1036100002292BD18DF80010C068691C019001228D
:10362000C81DFFF75DF92EE0406801781C48FDF7E2
:10363000ADFB1B4C012618B18DF80060019006E02F
:10364000A068E168081A05D000208DF800006968BC
:1036500068468847A068E168081AA188884207D8A8
:103660000E490122491CC81DFFF73AF97CBD01E053
:10367000AE70FBE70A4809491030FDF76CFB30B12A
:1036800003208DF80000696868468847EEE7034923
:10369000012201F10800FFF73FFAE7E79000002060
:1036A000B80500202DE9FF470C4605464FF4007190
:1036B000FFF773FB01274FF40178002618B34FF48E
:1036C000927949462846FFF75DFBE0B14946284616
:1036D000FFF75DFBC5F80883A07E00B96F6002208C
:1036E0008DF80000D5F88004C5F880040390E07DD3
:1036F0008DF80800E0680190E6752676D4E900129E
:103700006846904727E004212846FFF746FB10B3A0
:103710004FF484712846FFF735FBE0B12146284677
:10372000FFF72EFCE07D617E884214D1207E38B107
:10373000617EE268E0752069E0602676667607E0E3
:10374000A07E00B96F60C5F80883E675617EE26807
:103750002046FFF79CFC4FF48E7841462846FFF741
:1037600011FB88B1A08AA17D884204D22146284657
:10377000FFF7ACFE08E041462846FFF708FBA17DB5
:1037800011B12046FFF702FF4FF4A27841462846C8
:10379000FFF7F8FA002812D041462846FFF7F7FA5B
:1037A000A07E00B12F60E07D002808D0E675617E24
:1037B000E26804B02046BDE8F047FFF768BCBDE80A
:1037C000FF872DE9FF410C464FF4927705463946B5
:1037D000FFF7E9FA0026C0B139462846FFF7E8FAB4
:1037E00002208DF80000D5F88004C5F8800403900D
:1037F000D5F83C058DF80800E0680190E67526765E
:10380000D4E900126846904724E04FF4887739469F
:103810002846FFF7C8FAE8B139462846FFF7C8FA44
:10382000D5F83C05C1B2E07D884213D1207E60B15D
:10383000E268D5F8000220F02000C5F80002207EE2
:10384000E0752069E060267601E0E675E2682046D2
:10385000FFF71DFC4FF4A27739462846FFF7A3FA7D
:1038600068B139462846FFF7A3FAE07D38B1E6751E
:10387000D5F83C05E268C1B22046FFF708FC4FF4DA
:10388000907631462846FFF78EFA00280FD0314651
:103890002846FFF78DFAA07D002808D0D5F84C0502
:1038A00004B0C1B22046BDE8F041FFF76FBEBDE8ED
:1038B000FF810870000A48700220704738B515492A
:1038C0004888A0F57F42FF3A23D04A78124C521C18
:1038D000D2B24A70237B93420AD3091D75DF0028B8
:1038E00017D0A169002914D001B0BDE830400847C5
:1038F00000254D70217C29B13B2176DF10B1A169F3
:1039000001B188476169002903D08DF800506846ED
:10391000884738BD48000020F00400200A4A10B54E
:1039200053789478591CC9B28C4200D10021147884
:103930008C4201D1002010BD0170506803EB43019F
:1039400000EBC10010BD0000800000202DE9FC410B
:103950001646DDE90854CDE900541F468046022290
:1039600000F00CF8002807D1CDE900543B461022A6
:103970003146404600F002F8BDE8FC812DE9FC5FCD
:103980000026DDE90C4B994692468E4680462788F4
:10399000354630E0D8F80400002200EB8500694687
:1039A0000068019001A865DF002830D19DF8000073
:1039B00050451FD10EB1002100E0022122880844A9
:1039C0001118594522D846B9521C90B2208009F8E6
:1039D00000E02088401C20800126218801A801EBFE
:1039E0000902694665DF002811D120889DF8001082
:1039F000084420806D1CB8F80000A842CADC56B10B
:103A00002088C01B401E80B2FF2802D90C20BDE8D0
:103A1000FC9F09F807000020F9E7000001000007FB
:103A2000080000000600000005000000070000007C
:103A30000000000000E0D701111213140D0E0F104A
:103A4000B0030020D0030020FC0300200D00030081
:103A5000051900000E000300051900000F00030007
:103A6000051900001000030005190000D004002013
:103A70009ECADC240EE5A9E093F3A3B50000406ED6
:103A8000000000509805002003000000FFFFFFFF2A
:103A9000FFFFFFFFFFFFFFFFFFFFFFFF0000000032
:103AA000000000000000D60107010000CC3A000031
:103AB00000000020B80000000C0A0000843B000059
:103AC000B8000020982500001C0A00000000FFFF3D
:103AD00001000200000000000000000000000000E3
:103AE00000000000000000000000000000000000D6
:103AF0000090D00300000000000000000000000063
:103B000000000000000000000000000000000000B5
:103B100000000000000000000000000000000000A5
:103B20000000000000000000000000000000000095
:103B30000000000000000000000000000000000085
:103B40000000000000000000000000000000000075
:103B50000000000000000000000000000000000065
:103B600000000000002000400000000000000000F5
:103B70000000000000000000000000000000000045
:043B80000000000041
:0400000500000401F2
:00000001FF
