:020000040007F3
:10800000D0510020498407005184070053840700A1
:1080100055840700578407005984070000000000BA
:108020000000000000000000000000005B8407006A
:108030005D840700000000005F8407006184070082
:1080400063840700638407002189070063840700B5
:108050006384070063840700638407006384070068
:108060006384070063840700638407006384070058
:1080700063840700D58507006384070063840700D5
:108080006384070039860700638407006384070060
:108090005D8607006384070061860700638407002C
:1080A0006384070063840700638407006384070018
:1080B00063840700638407000000000000000000E4
:1080C00063840700638407006384070063840700F8
:1080D00063840700638407006384070000000000D6
:1080E0000000000000000000000000000000000090
:1080F0000000000000000000000000000000000080
:10810000000000000000000000000000000000006F
:10811000000000000000000000000000000000005F
:10840000DFF80CD000F090F800480047ED9307002B
:10841000D0510020056885F308884068FF2464B2C5
:10842000EFF30585002D01D1A646004725460646F7
:1084300021273FBAF0B40024002500260027F0B41D
:10844000F92040B200470000064880470648004730
:10845000FEE7FEE7FEE7FEE7FEE7FEE7FEE7FEE7F4
:10846000FEE7FEE78586070001840700202A04DB7B
:10847000203A00FA02F1002070479140C2F1200337
:1084800020FA03F3194390407047000000487047FA
:10849000FCA6070040EA01039B0703D009E008C9D6
:1084A000121F08C0042AFAD203E011F8013B00F8B9
:1084B000013B521EF9D27047421C10F8011B0029E3
:1084C000FBD1801A70472DE9F05F054600209246E7
:1084D0009B4688460646814640241BE02846414686
:1084E0004746224600F032F853465A46C01A914198
:1084F00010D3114618462246FFF7B8FF2D1A67EB36
:1085000001084F46224601200021FFF7AFFF17EB7D
:1085100000094E41201EA4F10104DFDC484631462B
:108520002A464346BDE8F09F064C074D06E0E0684A
:1085300040F0010394E8070098471034AC42F6D3AA
:10854000FFF762FF0CA707002CA70700202A04DB17
:10855000203A21FA02F00021704721FA02F3D040BC
:10856000C2F12002914008431946704700F01F02F3
:10857000012191404009800000F1E020C0F8801204
:10858000704700F01F02012191404009800000F176
:10859000E020C0F80011704700F01F020121914057
:1085A0004009800000F1E020C0F800127047000090
:1085B000BFF34F8F05480168054A01F4E06111439C
:1085C0000160BFF34F8F00BFFDE700000CED00E03E
:1085D0000400FA053EB500248DF80040684600F01E
:1085E00027FC01F003FEC8B910480F490268AAB180
:1085F000D1F8081311F0010F10D004600068029048
:108600000B4800688DF8040001A90A4801F0D0FC6D
:10861000084801F0B7FC08B101F0FCF89DF8000033
:1086200000F02AFC3EBD000000D0004000D1004018
:1086300008D5004020A6070007480021C0F84011D7
:10864000C0F84411C0F84811C0F84C11C0F800112E
:10865000C0F8041101F034BE0010014001F0CCBD9F
:10866000074810B5406830B18047002807D0BDE802
:10867000104000F0C3BBBDE8104000F08DBD10BD40
:10868000242C0020F0B598480023021D0178012514
:10869000101D4FF08056062907D11478240704D105
:1086A0000478C4F30314032C02D0062904D00FE08D
:1086B0008F4F8E4C7C670EE01478240708D1047825
:1086C000C4F30314032C06D0042C04D0052C02D0D0
:1086D000062907D00EE0D6F84442864FC4F3423450
:1086E0003C6002E01478240704D10478C4F3031436
:1086F000032C02D0062906D011E07F4C276827F012
:10870000807727600EE01478240708D10478C4F33A
:108710000314032C06D0042C04D0052C02D0062907
:108720000AD011E04FF08044C4F80C31C4F8103185
:10873000704C241F236002E01478240704D10478CD
:10874000C4F30314032C02D0062905D00CE0694FB2
:10875000032464373C600AE01478240704D10478C9
:10876000C4F30314032C02D006290DD014E0634F88
:1087700005243C60614C78342560604C08342360EB
:108780003F243F1D3C6002E01478240704D10478A4
:10879000C4F30314052C02D0062957D068E05849C9
:1087A0000968584A11605649091D0968121D11606F
:1087B000534908310968121D116051490C3109688B
:1087C000121D11604E4910310968121D11604C498B
:1087D00014310968121D1160494918310968494A64
:1087E0002032116046491C310968121D116044494C
:1087F00020310968121D1160414924310968121D98
:1088000011603F4928310968121D11603C492C3123
:108810000968121D11603A4930310968394A4032FD
:108820001160374934310968121D116034493831FB
:108830000968121D116032493C310968121D11602E
:108840002F4940310968121D116002E011780907B3
:108850000ED10078C0F30310032803D0042801D000
:10886000052805D1D6F85802274900F04F000860C6
:1088700021487438016841F470010160BFF34F8FE3
:10888000BFF36F8F4FF01021D1F80002002803DBF7
:10889000D1F80402002822DA1C4A15601C4804683A
:1088A000002CFCD01524C1F800420568002DFCD036
:1088B000C1F8044201680029FCD013600168002956
:1088C000FCD0BFF34F8F0C48F0380168114A01F417
:1088D000E06111430160BFF34F8F00BFFDE70F4917
:1088E0000D480860F0BD0000E00F00F00DF0ADBADB
:1088F00000C007403C050040FCED00E01056004081
:108900000404001020C50040E40E004004E50140CE
:1089100000E401400400FA050090D003482C002038
:108920000448017F04480029024901D001F0D9BD63
:1089300001F048BD8C2C0020002000400FB41CB575
:108940000A46521ECDE9000207A9054B6A46069861
:1089500000F018F8009A002111701CBC5DF814FB9F
:10896000E78D070002E008C8121F08C1002AFAD1EB
:1089700070477047002001E001C1121F002AFBD19F
:10898000704700002DE9FF4F8DB00F4605460026C9
:1089900006E025280BD0DDE90F1290476D1C761CF0
:1089A00028780028F5D111B03046BDE8F08F0024BA
:1089B000A246A1460122EC4900E0044315F8013F1C
:1089C000203B02FA03F00842F7D128782A2810D079
:1089D0006FF02F022878A0F13001092914D80AEB92
:1089E0008A0102EB410144F0020400EB010A6D1C14
:1089F000F0E701CF5FEA000A03D544F40054CAF15E
:108A0000000A44F002046D1C28782E2817D115F8AE
:108A1000010F44F004042A280ED06FF02F022878AA
:108A2000A0F1300109290AD809EB890102EB4101C3
:108A300000EB01096D1CF2E757F8049B6D1C2878C8
:108A40006C280FD006DC4C2817D068280DD06A2877
:108A500014D104E0742810D07A280FD10DE044F42A
:108A600000140AE044F4801401E044F440146978EE
:108A7000814202D104F580146D1C6D1C2A786E2A87
:108A80001FD00CDC632A31D004DC002A8BD0582A9A
:108A900011D1A3E0642A68D0692A0CD165E0732A59
:108AA0002ED004DC6F2A73D0702A04D19BE0752A83
:108AB0006FD0782A6ED01046DDE90F129047761CF1
:108AC00050E1C4F30250022806D0032809D004283C
:108AD00001CF09D0066045E101CFF117C0E900617F
:108AE00040E101CF06803DE106703BE117F8040B41
:108AF0008DF8000000208DF80100EB46012003E016
:108B000057F804BB4FF0FF3061074FF0000102D46B
:108B10000DE008F10101884649450FDA8045F8DB90
:108B20001BF808100029F4D108E008F1010188467B
:108B30008142FADB1BF808100029F6D1DDE90F238A
:108B4000AAEB08008146214600F036F9304400EBDC
:108B5000080604E0DDE90F121BF8010B9047B8F19D
:108B60000108F7D221464846F7E00A21C4F3025330
:108B70004FF0000B0891022B04D001CFC117032B3B
:108B800009D00AE0FF1D27F00707F7E8020108E017
:108B900032E01FE020E000B2C117042B01D140B247
:108BA000C117031E71F1000307DA4FF0000CD0EB80
:108BB0000C006CEB01012D2302E0230504D52B23CF
:108BC0008DF82430012303E0E30701D02023F7E7E9
:108BD000984658E00A2110E010210EE010204FF0D6
:108BE000000B08900CE010214FF0000B44F004043F
:108BF0004FF00809089103E008214FF0000B08919D
:108C0000C4F30253022B04D001CF0021032B06D062
:108C100006E0FF1D27F00707F7E8020103E080B236
:108C2000042B00D1C0B24FF0000823072BD5702AC7
:108C300007D0DDF820C08CF0100C5CEA0B0C05D0DE
:108C40000EE040238DF82430012308E050EA0103B0
:108C500006D030238DF824308DF825200223984645
:108C6000DDF820C08CF0080C5CEA0B0C0BD150EA4C
:108C7000010301D1630706D530238DF824304FF06E
:108C80000108A9F10109582A04D038A20B9208AAB8
:108C90000A920BE03AA2F9E75B46089AFFF713FC49
:108CA0000B9B9B5C0A9A521E0A92137050EA0102B7
:108CB000F2D10A98ADEB000000F1200B600702D55D
:108CC00024F4803401E04FF00109D94502DDA9EB1D
:108CD0000B0000E0002000EB0B0141440890AAEBE0
:108CE000010AE00306D4DDE90F232146504600F0D7
:108CF00063F806444FF0000908E009A911F80900DB
:108D0000DDE90F12904709F10109761CC145F4DB3A
:108D1000E0030CD5DDE90F232146504600F04CF866
:108D2000064404E0DDE90F1230209047761C0899D4
:108D3000481E08900029F5DC08E00A980A99007896
:108D4000491C0A91DDE90F129047761CBBF1000126
:108D5000ABF1010BF1DC21465046DDE90F2300F0B9
:108D600019F806446D1C1BE6092801003031323326
:108D70003435363738396162636465660000000057
:108D80003031323334353637383941424344454641
:108D9000000000002DE9F041044600251E4617465C
:108DA000880404D405E039462020B0476D1C641EB9
:108DB000F9D52846BDE8F0812DE9F04104460025AB
:108DC0001E469046C80301D5302700E020278804BE
:108DD00004D505E041463846B0476D1C641EF9D500
:108DE0002846BDE8F0814A68002A06D00A68531C6C
:108DF0000B6010704868401E48607047024603A12F
:108E0000012001F079F8FFF7D3FB00003A455252F8
:108E10004F523A726563656976656420616E2065BC
:108E200072726F723A20307825303878210D0A003E
:108E300030B5EFF3108172B60D4A9468012324B166
:108E40000370002900D162B630BD93604FF0E0237B
:108E5000D3F88051074C25401560C3F88041D3F802
:108E6000844154605A17C3F8842100220270E8E755
:108E7000AC2C0020FC06FFBC0B498A68002A11D0EC
:108E800000280FD1EFF3108072B60B684FF0E0228C
:108E9000C2F800314B68C2F8043100228A60002811
:108EA00000D162B670470000AC2C00202DE9F041E3
:108EB000064608680C46411C4FF0A0474FF00105DC
:108EC00006D005FA00F1C7F80815206800F0D2FDB9
:108ED0006068411C02D0002100F0C3FD30792049B8
:108EE00001EB4010A169007F00283068C0F824150C
:108EF00025D0607D227D31681043C1F86C05D4E92E
:108F000000123068C0F80C15C0F8142524E0A068E1
:108F1000411C02D0002100F0A4FDE068411C05D0F6
:108F20008540C7F80855E06800F0A4FDD4E90212B6
:108F30003068C0F80825C0F81015BDE8F081607DE4
:108F4000217D32680843C2F86C05D4E9001230680C
:108F5000C0F81425C0F80C15207D0128D7D0ECE707
:108F60008C2C00200249085C012100F08DBD00001E
:108F7000D2A507000249085C002100F085BD000071
:108F8000D2A507007CB50024084E25460122305D9D
:108F9000009500231146019500F036FD641C042C59
:108FA000F4D3BDE87C4000F003B80000D2A5070070
:108FB00010B500242046FFF7D5FF641C042CF9D31C
:108FC00010BD002901DA00207047026811440160D9
:108FD00001207047F8B5461C00208DF800000D46B2
:108FE00001246846FFF724FF114A10682860D2E97F
:108FF00000109568081A2B1A701C5B1C98420FD938
:1090000063B10C480C4B294000681B6802EB8101DE
:1090100063F39F20C8601068401C1060002401E0CA
:10902000881910609DF80000FFF726FF2046F8BD64
:10903000B82D002054A60700442C0020034803C884
:10904000814201D10120704700207047B82D0020D7
:109050002DE9F05F26484168F1B3DFF898B00E685B
:109060008146DBF8004087688078E11B21F07F456E
:10907000ED1CB0B9DFF880804FF48030C8F84403AD
:10908000C8F804031120FFF771FA1120FFF779FAED
:109090004FF0010AC8F800A02F2000F037FB89F834
:1090A00002A0B54200D23546124BE8193C3320F0FD
:1090B0007F401860DBF800105A46091B21F07F4101
:1090C000001B20F07F40C91C81420FD91068186036
:1090D0002F2000F01BFB00E004E0BDE8F05F112052
:1090E000FFF75ABABDE8F05F01F020B8BDE8F09F85
:1090F000042C002004150140001001400E4910B559
:109100000A784C780023A24212D0521CD2B20A70C4
:10911000022A00D10B70084A0B78183252F823202B
:1091200002608868104420F07F408860012010BDF4
:109130000360002010BD0000042C002070B50E4C10
:1091400006460D00206820F0010020600FD00BA122
:10915000032000F0ABFE206840F00200206072683F
:10916000002A07D029463046BDE87040104720F05D
:109170000200F3E770BD0000002C00203A494E4683
:109180004F3A47656E65726174696E672066616902
:109190006C7572650D0A0000F8B51D4C207800282A
:1091A00034D0206928B10026E06820B1002526B11E
:1091B00013E00126F8E70125F9E76078002825D1BA
:1091C000684648DF052803D020B1FFF717FE04E00A
:1091D000012602E02169009888479DB9607800283F
:1091E00014D16088ADF800006946A06861DF0528E9
:1091F00003D020B1FFF702FE04E0012502E0D4E92C
:1092000002018847002ED8D0002DD0D0F8BD000034
:10921000242C002070B50E460446007918494FF4FE
:10922000A27501EB4010017F2068A1B14FF4887155
:1092300000F02DFF4FF49071206800F028FF4FF4EC
:109240009271206800F023FF2946206800F01FFF7C
:109250000C49206809E04FF48E7100F007FF2946A1
:10926000206800F003FF08492068C0F80413206854
:1092700000F0C5FA3146BDE8704000F0A4BA000025
:109280008C2C002010030200800002002DE9F04326
:10929000264CA4F110092278D9F8048099F80350DB
:1092A000404694F801C0D9F8086031E002EB42036F
:1092B0006168521C01EBC301A378D2B2934200D182
:1092C00000220B78022B02D0032B21D11DE0034694
:1092D0004F68194603E0B94203D00B46C969B9B1DA
:1092E000F9E7A9B18B4205D1C06918B9104E012523
:1092F000B56000260F68C969D96149B10B683B4464
:109300000B6005E00174C06900E000210028F9D17C
:109310009445CBD1C9E9010689F80350404502D0F4
:109320000120BDE8F0830020FBE70000142C0020A2
:10933000001001402DE9F0412A4F0446002607F1B4
:109340001005D7F804803EE002D02046E4691DE015
:109350002878696800EB4002401CC0B201EBC201F2
:109360002870AA78904200D12E700A784868012AA5
:109370002BD1027C4ABB8A684260CA6882600A6953
:10938000C26049698161F97801B146604368BA6891
:10939000DFF854C0991A21F07F41614502D28268FA
:1093A000114406E0D11A826821F07F418A4202D935
:1093B000511A016000E00660466001218660017478
:1093C000C66100F05FFF002CBED128786978884222
:1093D000BED17968414502D00120BDE8F08100206E
:1093E000FBE70000042C0020FFFF7F0010B50020E9
:1093F00000F0B6FD0DA1032000F058FDFFF7C2FDFF
:1094000010490F48C1F800070020FFF7B3FD00BF67
:1094100000F0AAFC0028FBD10B4800F0EBF84FF459
:10942000F83000F013F8002010BD00003A494E4615
:109430004F3A496E73696465206D61696E0D0A006B
:109440000C00030040000050A086010070B50546E6
:10945000024621A1032000F04FFD00BF00F084FC74
:109460000028FBD12C4C204600F00AF92BA1032048
:1094700000F01CFD00F078FC0028FBD1204600F035
:10948000FFF800F089F920B10020FFF76BFD2BA158
:1094900017E035A1032000F009FD4FF0E0214FF067
:1094A000FF30C1F88001C1F884012A4636A10320AB
:1094B00000F022FD284613DF40B10020FFF752FDE7
:1094C0003DA1BDE87040032000F0F0BC2846BDE897
:1094D0007040FEF79FBF00003A494E464F3A527522
:1094E0006E6E696E67206E72665F626F6F746C6F0E
:1094F000616465725F6170705F737461727420770C
:1095000069746820616464726573733A20307825E9
:109510003038780D0A000000A08601003A494E4616
:109520004F3A496E697469616C697A696E67205354
:109530004420696E206D62720D0A00003A494E4661
:109540004F3A4661696C65642072756E6E696E672C
:10955000206E72665F6466755F6D62725F696E69C8
:10956000745F73640D0A00003A494E464F3A4469ED
:109570007361626C696E6720696E74657272757072
:1095800074730D0A000000003A494E464F3A536585
:109590007474696E6720534420766563746F72201B
:1095A0007461626C6520626173653A2030782530A1
:1095B00038780D0A000000003A494E464F3A46619D
:1095C000696C65642072756E6E696E672073645F86
:1095D000736F66746465766963655F766563746FDF
:1095E000725F7461626C655F626173655F736574FD
:1095F0000D0A000000283ED01F49204A096800BF1C
:1096000000BF00BF00BF00BF00BF00BF00BF91424E
:109610002FD000BF00BF00BF00BF00BF00BF00BF12
:1096200000BF00BF00BF00BF00BF00BF00BF00BF42
:1096300000BF00BF00BF00BF00BF00BF00BF00BF32
:1096400000BF00BF00BF00BF00BF00BF00BF00BF22
:1096500000BF00BF00BF00BF00BF00BF00BF00BF12
:1096600000BF00BF00BF00BF00BF00BF00BF00BF02
:1096700000BF0138C3D17047482C00200024F400FB
:1096800000283ED01F49204A096800BF00BF00BF24
:1096900000BF00BF00BF00BF00BF91422FD000BF7E
:1096A00000BF00BF00BF00BF00BF00BF00BF00BFC2
:1096B00000BF00BF00BF00BF00BF00BF00BF00BFB2
:1096C00000BF00BF00BF00BF00BF00BF00BF00BFA2
:1096D00000BF00BF00BF00BF00BF00BF00BF00BF92
:1096E00000BF00BF00BF00BF00BF00BF00BF00BF82
:1096F00000BF00BF00BF00BF00BF00BF00BF0138F8
:10970000C3D17047482C00200024F40000283ED02C
:109710001F49204A096800BF00BF00BF00BF00BF4B
:1097200000BF00BF00BF91422FD000BF00BF00BFED
:1097300000BF00BF00BF00BF00BF00BF00BF00BF31
:1097400000BF00BF00BF00BF00BF00BF00BF00BF21
:1097500000BF00BF00BF00BF00BF00BF00BF00BF11
:1097600000BF00BF00BF00BF00BF00BF00BF00BF01
:1097700000BF00BF00BF00BF00BF00BF00BF00BFF1
:1097800000BF00BF00BF00BF00BF0138C3D170479A
:10979000482C00200024F4001FB5044B0FCB8DE8AB
:1097A0000F00684618DF04B010BD0000ECA50700EC
:1097B00000F01F02012191404009800000F1E020EB
:1097C000C0F8801170474907090E002806DA00F03A
:1097D0000F0202F1E02282F8141D03E000F1E02202
:1097E00082F8001400F01F0201219140400980001E
:1097F00000F1E020C0F88012C0F800117047000BA3
:1098000040B270470121B1EB507F01D10120704778
:109810000020704703490120C1F80803091D0860B2
:109820007047000000D000402DE9F0410546007966
:10983000164F904607EB40140E46E07E10B108200C
:10984000BDE8F081707F20772846FFF72FFB5FEAA5
:10985000080060603169216003D0317F2846FFF73E
:10986000D9FC287907EB4010007F0028286801D038
:10987000082100E00421C0F800150020E0752076E2
:10988000A0750121E176A076DAE700008C2C00209B
:109890002DE9F047054600793F4E904606EB40140F
:1098A0000F46207F18B10846FFF7ACFF30B12846BD
:1098B00000F074F820B11120BDE8F0871020FBE71C
:1098C00084F81680A7600027A78228794FF0010846
:1098D00006EB40143E46207F0028286825D04FF430
:1098E0009079494600F0D3FB4FF4AC7A5146286892
:1098F00000F0CDFB2868A17DA268C0F84425C0F81F
:1099000048152868C0F808806068F0B9494628689A
:1099100000F0B8FB80465146286800F0B3FB58EAD7
:109920000001F3D058BBA7750FE04FF48E7A514673
:1099300000F09CFB2868C0F808802146286800F0E9
:109940001BFD61684FF4807089B13046B4E7514621
:10995000286800F086FB10B9A08A4845F7D1A08A94
:10996000484505D02146286800F006FD00E0814604
:10997000A08AA17D8842EAD3A08A484501D10F265A
:10998000D1E75146286800F06CFB0028F9D0286820
:10999000C0F80C80C7E700008C2C00200079044937
:1099A00001EB4010807D002800D0012070470000AE
:1099B0008C2C002070B5044600791149002601EB7B
:1099C000401520682A7FC0F80065686888B1207952
:1099D00001EB4010007F0028206801D0094901E018
:1099E00008498C39C0F808132068FFF708FFFFF713
:1099F000DFFE204600F052FBEE766E6070BD000088
:109A00008C2C00201003020070B541EA4201DDE910
:109A100004564FF0A04441EA830141EA052104EBDA
:109A2000800041EA0641C0F8001770BD70B541EAF8
:109A30004201DDE904564FF0A04441EA830141EAC6
:109A4000052104EB800041EA0641C0F8001770BD13
:109A50001CB5002100910B4601220191FFF7E6FFA2
:109A60001CBD1CB500220B46009211460192FFF767
:109A7000DDFF1CBD1CB5002100910B4601220191A8
:109A80001146FFF7D3FF1CBD01224FF0A0438240D7
:109A900011B1C3F808257047C3F80C2570470000C2
:109AA000004870471D9B070030B5184C054689B02B
:109AB000207828B16078854202D1002009B030BDFD
:109AC000202213496846FEF7E5FC00208DF81400BB
:109AD00006200090082001900520039007200290A6
:109AE0000C4806900948001DFFF764FF0DB10022E5
:109AF00000E0094A05486946001DFFF795FE002869
:109B0000DCD1012020706570D7E70000382C0020E0
:109B100034A6070000E0D701B5A307002DE9F04FF8
:109B2000C1B00D004FF0000140914D984B991C467B
:109B3000174601EB000B01D00A2000E00020804610
:109B400000F038FB00287CD16E46BCB9409840AA92
:109B50003118284600F0F6FB002872D03846FEF790
:109B6000ABFCC22800D9C220054640982A463044A2
:109B70003946FEF78FFC4098284440904FF0200A69
:109B8000409901EB080231320DEB01050DEB0206A5
:109B9000002002E005F801AB401C4045FAD3002745
:109BA0005C4508D305F801AB05F801AB05F801AB3E
:109BB00006F801AB2DE04B98844202D24A98005D32
:109BC00002E0211A4C98405C2B4681460246012156
:109BD000880022FA00F000F00F00092801D9373080
:109BE00000E03030C1F1010C491E03F80C00EFD247
:109BF0009D1C05F801ABFEF749FC016811F809004E
:109C000010F03E0F01D0484600E02E2006F8010B70
:109C1000641C7F1C102FC3D30D2030700A2070707D
:109C200085F800A04099684641444331409100F0D6
:109C3000C7FA30B100F0BEFA18B9002040905C4578
:109C40009ED341B02046BDE8F08F2DE9F043C7B068
:109C500000251C46904689464E9F459500F0AAFA7D
:109C600000287AD1459805AE311845AA484600F03B
:109C700069FB002835D0072F27D2DFE807F0041250
:109C80001B35424F5D004046FEF716FC05464598E1
:109C90002918FF2919D830442A464146FEF7FAFB15
:109CA00013E045982368C0F5807130444246FEF7C2
:109CB00045FE09E06068009045982368C0F5807112
:109CC00030444246FEF73AFE0546294645A8FFF7CE
:109CD00078F9459978B3B1F5807F3ED805A800F0B2
:109CE0006FFA47B0BDE8F083D4E90101CDE9000186
:109CF00045982368C0F5807130444246FEF71EFE49
:109D0000E2E7201D07C88DE8070045982368C0F5E5
:109D1000807130444246FEF711FED5E7201D0FC882
:109D20008DE80F0045982368C0F5807130444246A5
:109D3000FEF704FEC8E710E004F1080001AD0FC80B
:109D400085E80F006068009045982368C0F5807131
:109D500030444246FEF7F2FDB6E70020C1E70000BE
:109D6000004870474B9C07002DE9F04F87B0FFF784
:109D700065F918B1002007B0BDE8F08F454ED6E96F
:109D8000014704EA070006EB8000A146641CC56891
:109D90000CE000BFC5F3891000EB9550044404EAC1
:109DA000070006EB8000A146C568641CA807F1D037
:109DB00005F003004FF0000B022805D0AA0A01A805
:109DC000C5F38313002153E004EA070006EB80008B
:109DD00004F1010A0AEA0704C268381B80004FEA4E
:109DE0009558001DC5F38913804521D929490C31A7
:109DF00038B106EB840400F0FF0CA8EB00000C3433
:109E000004E00C46002108F0FF0C0846C0B2CDE982
:109E10000210CDE9004CD6F81444C5F3C2005946EF
:109E2000A047404511D108F103080AEB98042AE045
:109E3000002106EB84000C300090CDE901810391F4
:109E4000C5F3C200D6F81444EAE760F38F1509EAB7
:109E5000070006EB8000C56016E000BF04EA070CAF
:109E600006EB8C0C491CDCF80CC040F804CB641CDD
:109E70009942F3D3C5F3C2000093D6F8105401AB56
:109E80005946A84700B17460FFF7D8F880F0010088
:109E900071E70000B82D0020034AFF2393600023E0
:109EA0001360536000F054B8B82D00202DE9F8433A
:109EB0000F4F88460446002569462846BE68FFF7CE
:109EC00089F8002812D00B480021406861F3820015
:109ED000009964F3C50001EA060265F3891007EBF7
:109EE000820268F39F20491CD0600091BDE8F8838E
:109EF000B82D002054A607002DE9F843124D8846DE
:109F000004460127914669463846AE68FFF762F875
:109F1000002817D00D480021806861F38200009965
:109F200064F3C50001EA060267F3891005EB8202BB
:109F300068F39F20491CD0600091314005EB8101FE
:109F4000C1F80C90BDE8F883B82D002054A6070096
:109F5000024A02F5826203C270470000B82D002059
:109F600070B506460020FFF79FFD040008D1FFF7FB
:109F700097FD0546FFF7F4FE32462946FFF78CFFB2
:109F8000204670BD016880684A68824201D2521C36
:109F900000E000220868824201D1012070470020C1
:109FA00070478068884201D9481C7047002070477C
:109FB0002DE9F84304464FF000080E468DF8008066
:109FC0006846FEF735FF2046FFF7DCFF07000AD0A2
:109FD000207C40B14FF004089DF80000FEF74CFFD4
:109FE0004046BDE8F8832068416820460D46FFF7EB
:109FF000D8FF2168486037B1206801682046FFF724
:10A00000D0FF21680860E268012A14D0022A16D025
:10A01000042A19D0082A1CD06068314605FB0200CA
:10A02000FEF738FA204600F075F821688A68824207
:10A03000D2D28860D0E7616830784855F2E761682D
:10A04000308821F81500EDE76168306841F8250097
:10A05000E8E7D6E90001626802EBC502C2E9000147
:10A06000E0E74058002800D00120704708B50022E2
:10A0700042504058009008BDD0F80403084000D07A
:10A08000012070474058002800D00120704708B5D3
:10A09000002242504058009008BD000070B50346B1
:10A0A00000791B4901EB40101968027F4FF0FF3027
:10A0B000002AD1F80C25D1F81465D1F80855D1F84B
:10A0C000104504D0C1F80C05C1F8140503E0C1F82F
:10A0D0001405C1F80C051968C1F80805C1F8100588
:10A0E000501C02D01046FFF7B3FC701C02D0304663
:10A0F000FFF7AEFC601C02D02046FFF7A9FC681CED
:10A1000004D02846BDE87040FFF7A2BC70BD000037
:10A110008C2C0020016806C98A4201D3501A70476E
:10A120008068401A401C10447047000070B501263A
:10A1300070044FF0E0210025C1F88001084C401068
:10A14000C4F84803C4F8080366602F20FFF7DEFA5E
:10A15000A660044C2F20A560FFF7D8FAA57070BD4B
:10A1600000100140042C002070B50546C87D0C4647
:10A1700000284FF4847128460AD0FFF777FFD5F8FE
:10A180001805627EE1688854607E401C607670BD70
:10A19000FFF76CFFD5F8180570BD1FB501238DF8CA
:10A1A00000308DF808100192D0E9001268469047FF
:10A1B0001FBD00000148FFF7F1BB00003C2C002050
:10A1C00070B50D460A46014601240648FEF762F9BD
:10A1D000EAB204490448FFF75BFB00B100242046C3
:10A1E00070BD0000B82C00203C2C002001480078F5
:10A1F00070470000242C00202DE9F84F204C00254A
:10A200006846D4E901B6FEF779FF8046FFF73EF8CD
:10A210000746A946B8F1000F25D00023009ACC4686
:10A22000606819E007680146974202D9BA1A0260CD
:10A2300014E0C1F800C0D1F80C80D21BC8693B44BF
:10A240008A46B8F1000F07D0F71827F07F47C1E919
:10A250000178CAF81C500D460028E3D160602846FA
:10A26000FFF768F804E02846FFF764F800B917B173
:10A270005846FEF7EDFE84F80390BDE8F88F000025
:10A28000042C00200D4B10B5596831B102680C68E0
:10A29000A24204D8A21A0A60C161586010BD0B46E0
:10A2A00003E00B46C969121B21B10C689442F8D334
:10A2B000A41A0C600260C161D86110BD042C00209A
:10A2C0002DE9F0411D4D6C68002C35D01C4800274D
:10A2D0000068A968B846401A20F07F462068B0425E
:10A2E00015D82246361A0744E469107C68B182F812
:10A2F0001080EB6833B1D2E90501984728B1FEF729
:10A300007DFD02E0D2E905108847002CE6D12978CE
:10A310006878814206D1401CC0B26870022801D121
:10A3200085F8018005486978183040F82170BDE84B
:10A33000F0411420FEF730B9BDE8F081042C002074
:10A340000415014010B5144602004FF001000CD076
:10A350000846136806A24FF48071FEF7EFFA014633
:10A360002046BDE81040FEF72CBE0021216010BD44
:10A370005B253038645D000070B50C4605464FF42F
:10A380008E71FFF773FEA18AA068415CA08A401C11
:10A39000A082C5F81C1570BD1FB500228DF80020E5
:10A3A0008DF80810816801918275D0E90012684625
:10A3B00090471FBD0078012801D10149887070477E
:10A3C000382C00202DE9FF470C4605464FF400715C
:10A3D000FFF752FE01274FF40178002618B34FF41F
:10A3E000927949462846FFF73CFEE0B149462846A7
:10A3F000FFF73CFEC5F80883A07E00B96F6002201D
:10A400008DF80000D5F88004C5F880040390E07D45
:10A410008DF80800E0680190E6752676D4E9001210
:10A420006846904727E004212846FFF725FE10B331
:10A430004FF484712846FFF714FEE0B12146284608
:10A44000FFF792FEE07D617E884214D1207E38B114
:10A45000617EE268E0752069E0602676667607E056
:10A46000A07E00B96F60C5F80883E675617EE2687A
:10A470002046FFF792FE4FF48E7841462846FFF7BC
:10A48000F0FD88B1A08AA17D884204D221462846E9
:10A49000FFF772FF08E041462846FFF7E7FDA17D80
:10A4A00011B12046FFF778FF4FF4A27841462846C5
:10A4B000FFF7D7FD002812D041462846FFF7D6FD0A
:10A4C000A07E00B12F60E07D002808D0E675617E97
:10A4D000E26804B02046BDE8F047FFF75EBEBDE885
:10A4E000FF872DE9FF410C464FF492770546394628
:10A4F000FFF7C8FD0026C0B139462846FFF7C7FD63
:10A5000002208DF80000D5F88004C5F8800403907F
:10A51000D5F83C058DF80800E0680190E6752676D0
:10A52000D4E900126846904724E04FF48877394612
:10A530002846FFF7A7FDE8B139462846FFF7A7FDF3
:10A54000D5F83C05C1B2E07D884213D1207E60B1D0
:10A55000E268D5F8000220F02000C5F80002207E55
:10A56000E0752069E060267601E0E675E268204645
:10A57000FFF713FE4FF4A27739462846FFF782FD16
:10A5800068B139462846FFF782FDE07D38B1E675AF
:10A59000D5F83C05E268C1B22046FFF7FEFD4FF456
:10A5A000907631462846FFF76DFD00280FD03146E2
:10A5B0002846FFF76CFDA07D002808D0D5F84C0593
:10A5C00004B0C1B22046BDE8F041FFF7E5BEBDE8EA
:10A5D000FF81111213140D0E0F1000000100000076
:10A5E0000000000000000000000000000200000069
:10A5F0000000000000000000000000000300000058
:10A600000000000000000000000000000400000046
:10A610000000000000000000000000000003000037
:10A62000802C00205C2C0020200000000100000095
:10A6300000000000FFFFFFFFFFFFFFFFFFFFFFFF26
:10A64000FFFFFFFF000000000000000000E0D70156
:10A6500003010000290000000100000001000000CB
:10A6600001000000010000000100000001000000E6
:10A670000100000002000000004040404040404017
:10A6800040404141414141404040404040404040C5
:10A690004040404040404040400502020202020269
:10A6A00002020202020202020220202020202020B8
:10A6B00020202002020202020202909090909090CC
:10A6C000101010101010101010101010101010108A
:10A6D00010101010020202020202888888888888FE
:10A6E00008080808080808080808080808080808EA
:10A6F00008080808020202024000000079A60700CC
:10A700004F766572666C6F770D0A00002CA7070004
:10A71000002C00205C0000006489070088A7070067
:10A720005C2C0020742500007489070000000000E4
:10A730000000000000000000000000000000000019
:10A740000000000000000000000000000000000009
:10A7500000000000000000000000000000000000F9
:10A760000000000000000000002000400000000089
:10A7700000A707000090D003001000000030080080
:08A780003D91070000000000FC
:020000041000EA
:041014000080070051
:020000041000EA
:0410180000E00700ED
:04000005000784016B
:00000001FF
