:020000040001F9
:10B0000040360020D5B00100EFB00100F1B00100E2
:10B010000000000000000000000000000000000030
:10B02000000000000000000000000000F3B001007C
:10B030000000000000000000F5B00100F7B00100C2
:10B04000E5B30100F9B001003DB50100F9B0010020
:10B05000F9B001000000000025B20100F9B00100C4
:10B06000F9B00100F9B00100F9B00100F9B0010038
:10B07000F9B00100F9B00100F9B00100F9B0010028
:10B08000F9B0010039B40100F9B00100F9B00100D4
:10B0900059B40100F9B0010061B40100F9B0010038
:10B0A000F9B00100F9B0010000000000000000004C
:10B0B0000000000000000000000000000000000090
:10B0C0000348854600F070F80048004745F9010044
:10B0D000403600200321094802680A4302600848FC
:10B0E00002680A4302600748804707480047FEE7B6
:10B0F000FEE7FEE7FEE7FEE7FEE70000240500406E
:10B10000540500409DB40100C1B0010030B50B46AC
:10B11000014600202022012409E00D46D5409D4231
:10B1200005D31D469540491B2546954040191546B7
:10B13000521E002DF1DC30BD03460B439B0703D0AC
:10B1400009E008C9121F08C0042AFAD203E00B78EC
:10B15000491C0370401C521EF9D27047D2B201E064
:10B160000270401C491EFBD270470022F6E710B562
:10B1700013460A4604461946FFF7F0FF204610BD65
:10B18000421C0178401C0029FBD1801A704730B561
:10B1900004460020034600E05B1C934203D2E05CBF
:10B1A000CD5C401BF8D030BD064C0125064E05E0B5
:10B1B0002046E36807C82B4398471034B442F7D3BE
:10B1C000FFF782FFE03802000039020070B58C18EA
:10B1D0000578401C6B075B0F01D10378401C2A11D6
:10B1E00006D10278401C03E00678401C0E70491C12
:10B1F0005B1EF9D12B0705D40023521E0DD40B7012
:10B20000491CFAE70378401CCB1A921C03E01D7816
:10B210005B1C0D70491C521EF9D5A142D8D30020E9
:10B2200070BD0000F0B50024FF268BB0013601256B
:10B2300027460694304604F04FFF002807D05548B3
:10B240004068284203D0304604F03EFF2C43361DB0
:10B250006D007F1CB6B2042FECD3FF257D35284648
:10B2600004F03AFF002809D0284604F02DFF6807B3
:10B27000044306AA0121002004F012FF464D2007D6
:10B2800015D001270026384620420CD04348B20092
:10B29000111808690969C004C00E8903AA58890FEA
:10B2A000002A00D090477F00761C042EEBD3002CA0
:10B2B0006DDA00200890401E63E0281940300778BE
:10B2C000B906890E009100214156491C49D009A9AF
:10B2D000009804F0DBFC002843D0B80901900098E6
:10B2E00002F0EAF980002F580198002F02D00328BD
:10B2F00002D00DE0032834D1009808ABC208410702
:10B300009446985C490F01228A4010436246985443
:10B3100000980521090780004018072109024018FC
:10B32000006806A98003800F0290009804F0AEFC2C
:10B330000028029802D0022802D012E0032810D17F
:10B340000198032808D1029802281ED002210098F3
:10B3500004F081FE761CF6B2002F02D0019900980D
:10B36000B847641C042CA8D3002E10D06A460121D3
:10B37000002004F095FE06990098884207D00690B8
:10B38000089800263446099097E70321DFE70BB0C1
:10B39000F0BD000000630040342C00200065004038
:10B3A0008307FF22DB0E9A408907090E9940002887
:10B3B0000BDA0007000F0838830808489B001B18A9
:10B3C000D86990430843D8617047830804489B00BC
:10B3D0001B181868904308431860704700ED00E0A0
:10B3E00000E400E0F8B5FF270137384604F056FCCA
:10B3F00001240F4D0F4E002808D0384604F056FCAB
:10B400000120A8607470002002F0E2F9FF270537E0
:10B41000384604F043FC002808D0384604F046FCC7
:10B420000220A860B470012002F0D2F9F8BD00003B
:10B4300000030040202C002010B5064900200860C1
:10B4400048608860C860034940390860486007F078
:10B450003DFE10BD4011014010B507F0A9FD10BD23
:10B4600010B50A48406800280DD0804701000C46FE
:10B4700008D007A000F06CF8642004F037FC2046E8
:10B4800000F0B4FB10BD03F001FF10BD042200204A
:10B4900065727220636F64652025640010B503F047
:10B4A00043FF002805D01F491D484860C8131E49A6
:10B4B00088611E48018CC9B201290BD1828C120708
:10B4C00008D1028D1206120F042A03D1828D1206B2
:10B4D000120F0AD0012921D1818C09071ED1018DBB
:10B4E0000906090F0A2904D007E0114A01219160D9
:10B4F000F5E7828D1206120F05D00D290ED1808D31
:10B500000006000F0AD10B480168012904D00A493E
:10B51000016001680129FCD1C021416110BD00001A
:10B52000DFFF07C000050040006C0040C00F00F0C6
:10B530000006004000EC06407593000010B502497B
:10B54000024807F062FE10BD7C2C00200020004065
:10B550000FB410B503A9044B044A029800F032F866
:10B5600010BC08BC04B018470DE2010018220020EE
:10B5700030B47446641E2578641CAB4200D21D466C
:10B58000635D5B00E31830BC184702E008C8121F77
:10B5900008C1002AFAD170477047002001E001C1BC
:10B5A000121F002AFBD17047202804DA01218140B4
:10B5B0000348014201D0012070470020704700007D
:10B5C000FC06FFBCFFB58DB00446002596E025289B
:10B5D00032D10027641C4D4A012100972378084688
:10B5E000203B98400346134202D00743641CF5E712
:10B5F00020782E2817D104200743641C20782A289D
:10B600000CD10E98641C02C800910E900BE00099BA
:10B610000A22514330394018641C009020780146BA
:10B6200030390929F3D9207800286BD0642808D054
:10B63000692806D075281ED0109A0F9990476D1C66
:10B640005BE00A200E99019001C90E91002802DAF0
:10B6500040422D2102E0390504D52B216A461172A2
:10B66000012103E0F90704D02021F7E70BAE0B918D
:10B670000DE00021FAE70A200E99019001C90E9110
:10B68000F7E70199FFF742FD3031761E317000284F
:10B69000F7D103A8801B20300190780701D50098CE
:10B6A00001E0012000900199884201DD401A00E08C
:10B6B00000200027009006E002A8109AC05D0F99B4
:10B6C00090476D1C7F1C0B988742F5DB04E0109AB5
:10B6D00030200F9990476D1C0099481E009000295A
:10B6E000F5DC05E03078109A761C0F9990476D1CB8
:10B6F0000199481E01900029F4DC641C2078002880
:10B7000000D064E7284611B0F0BD00000928010010
:10B7100010B500280CD000290AD002780B789A4284
:10B7200006D10622491C401CFFF731FD002801D03C
:10B73000002010BD012010BDF7B584B006460025DD
:10B740001788158020300290407B1446002806D0D0
:10B750003A462146059801F017F9050009D1B0785D
:10B76000002823D0059886462088001DB84202D9BB
:10B770000C2007B0F0BD684679DF0028F9D1218898
:10B7800003207246505420881921401C80B220802A
:10B79000115420887146401C80B2208041186846B0
:10B7A000008807F0C4FD218840182080F078002828
:10B7B00017D0218803230A46F356C91C0598B942BD
:10B7C000D6D80221815421880122491C89B22180C6
:10B7D00042542188491C89B2218043542088401C4E
:10B7E00020807068002817D021880023C3560A469D
:10B7F000C91C0598B942BBD80221815421880A226C
:10B80000491C89B2218042542188491C89B2218077
:10B8100043542088401C2080308900280AD000949E
:10B8200030460197062202210830059B07F0D8FD1B
:10B8300005009ED1308A00280AD000943046019736
:10B84000072203211030059B07F0CAFD050090D1A7
:10B85000308B00280AD0009430460197152214211D
:10B860001830059B07F0BCFD050082D1306A002826
:10B8700006D03B462246059902F012F80500D8D1C1
:10B88000706A002806D03B462246059904F0EFF87E
:10B890000500CED10298007B002807D03B46224607
:10B8A0003046059906F0C6FF0500C2D13078002861
:10B8B00007D03B4622463046059904F04FF9050073
:10B8C000B7D1284655E70000174A0021535C002BEA
:10B8D00001D0012203E0491C0629F7D300221349B5
:10B8E000012806D002280BD0032810D0042818D134
:10B8F00012E04878002803D0002A01D001207047C8
:10B900008878002803D0002A01D002207047C87828
:10B91000002801D0032070470879002801D00420B6
:10B920007047002070470000C1200020D82500206B
:10B9300010B501220221002001F006FD002801D0EF
:10B94000072824D107220221012001F0FDFC002854
:10B9500001D007281BD100210A22084601F0F4FC7F
:10B96000002801D0072812D100221146022001F040
:10B97000EBFC002801D0072809D100221146032042
:10B9800001F0E2FC002801D0072800D1002010BD02
:10B9900010B598B03C2101A8FFF7E7FB02226846EA
:10B9A0000271012405218471C171848216480690B8
:10B9B000202110A8FFF7D9FB10A8047044700021C3
:10B9C000817012911391C470282014901E2015903C
:10B9D00010A804711920C0011690B42017900B48CC
:10B9E00000900B4B10AA01A800F0F8FB01000C46D8
:10B9F00008D008A0FFF7ACFD642004F05DF92046F4
:10BA000000F0F4F818B010BDEE1F0020D5C1010001
:10BA10001501020065727220636F64652025640061
:10BA2000F8B52A4E102132462948FFF797FB294CDA
:10BA30000820E0602648254600900C35082730464F
:10BA400005F060FE0021296007E02968009A4B009C
:10BA5000491C2960D05205F055FEB04201D07F1E2E
:10BA6000F3D21B48E16806F053F801000D4608D0F8
:10BA700019A0FFF76DFD642004F01EF9284600F0C0
:10BA8000B5F81348E16805F0DFFC014606280AD046
:10BA9000050008D010A0FFF75BFD642004F00CF94E
:10BAA000284600F0A3F800206070032000F0BAFCE4
:10BAB00001000C4608D008A0FFF74AFD642004F0FE
:10BAC000FBF8204600F092F8F8BD0000FFFF0000F0
:10BAD0005C250020E81F002065727220636F64659A
:10BAE00020256400F0B50F468DB0002116466D4646
:10BAF0000F24621A825C6A54491C1029F9D3284623
:10BB00000D211030FFF731FB0020221A395C521949
:10BB1000401C11740328F8D368464DDF0020211A19
:10BB20004919203109783154401C0328F7D30DB04E
:10BB3000F0BD10B5022001F09BFA10BD70B50024D5
:10BB4000064D06E06968E000085C012104F074F924
:10BB5000641C28788442F5D3002070BD9821002011
:10BB6000F8B515460C460646052A01D20720F8BD51
:10BB700004F030FA002803D104F0FEF90028F6D1D1
:10BB8000104900204E600C70C8608D6008610E4D39
:10BB90000DE0E00069688019009181786A46517073
:10BBA00000780A4A694604F08FF90028DFD1204660
:10BBB000641EE4B20028ECD1054A0021024800F0DE
:10BBC000A3F8F8BD98210020C438020059E901000B
:10BBD00085DA0100BFF34F8F03490248C860BFF305
:10BBE0004F8FFEE70400FA0500ED00E00EB50021DE
:10BBF000029000916A4601910148FFF7EBFF0EBDEC
:10BC000001400000F7B5244C82B060880E468142A6
:10BC10003FD800256846214F057000F035F922789D
:10BC20006078A188884201DA401C00E00020C0B2A0
:10BC3000904204D16846007800F044F927E0657826
:10BC40006078884201DA401C00E00020607068469D
:10BC5000007800F037F9BD4219D0A068EF000499D0
:10BC6000C151029900290CD0002E0AD060883246BA
:10BC70004543E0682818FFF75FFAA0683818868007
:10BC800002E0002138188180002005B0F0BD0420BA
:10BC9000FBE70920F9E70000AC210020FFFF0000CE
:10BCA00010B50D4C03E0401C00E00020207020780F
:10BCB000617881420FD021786088E268484380181B
:10BCC000A368CA00D1189A58898890472078A1881B
:10BCD0008842EADAE7E710BDAC21002030B5CB009E
:10BCE00008339DB293070024002B01D0072030BDFC
:10BCF000044B9A605219DA605C701C70588099800D
:10BD0000002030BDAC210020094B5B68002B07D020
:10BD1000002A07D0002805D00068037C002B03D040
:10BD20000820704707207047417442610020704727
:10BD3000CC21002010B50446082902D00020FFF7CE
:10BD400055FF21686068884710BD00001CB501914F
:10BD50000090034A08216846FFF754FF1CBD00000D
:10BD600035BD0100FFB507469007002581B01E468E
:10BD70001446002825D1002C23D006F09BFA30462B
:10BD8000114EF06030461030057045700299817098
:10BD900044607560357001240C487570240504609A
:10BDA00003211420FFF7FCFA09480460094CA7603E
:10BDB00003211120FFF7F4FA6068B060002005B09D
:10BDC000F0BD0720FBE70000BC21002080E200E07E
:10BDD00000E100E000150140FEB51F4B5B68002B41
:10BDE00030D000282ED0052901D20720FEBD43699E
:10BDF000002B27D0437C012B26D00027029104463C
:10BE00000025694616460D70684600F03DF801A809
:10BE100007F0D0FA002819D0012101700F494460C1
:10BE200049688160029907614661C16068460A49B4
:10BE3000007948706846007800F044F807F0FAF896
:10BE40002846FEBD0820FEBD0F46D7E768460425FC
:10BE5000007800F037F8F3E7CC210020001501400E
:10BE600010B50849496800290AD0002808D041695E
:10BE7000002905D000210174022107F003F910BD4B
:10BE8000082010BDCC21002030B5EFF3108172B630
:10BE9000094A54680123002C04D00370002900D102
:10BEA00062B630BD5360054B1D68054C25401560DA
:10BEB0001C6000220270F1E7E021002080E100E038
:10BEC000FC06FFBC08494A68002A0CD000280AD1A9
:10BED000EFF3108072B60A68044B1A6000224A60C1
:10BEE000002800D162B67047E021002000E100E0A8
:10BEF000F0B504468BB0008800F0E2FC0590208885
:10BF000003F0BCF80646A0680090657A68460574A0
:10BF10001E4F20880022397800F022FD0598002865
:10BF200031D06079400710D50721304604F050FE2B
:10BF3000002813D0082269460A7422884A828E8219
:10BF4000069004A801F0D2FE08E02088B97800F03D
:10BF5000F5FC002802D0304603F07AF80321684649
:10BF600001712188C18060794007C10F6846017264
:10BF7000A0794007C10F6846417201788172C5728D
:10BF800001A801F0B3FE0BB0F0BD00003421002089
:10BF900010B586B014216846FFF7E7F800210122AA
:10BFA00068460091027102916421017311462031AB
:10BFB0004173114620318173002001466846C173E8
:10BFC0001146203101746946084800F01BFB01004E
:10BFD0000C4608D006A0FFF7BBFA642003F06CFE05
:10BFE0002046FFF703FE06B010BD000034250020F8
:10BFF00065727220636F646520256400F0B50546A4
:10C00000007D002493B00E4600280DD0012001468B
:10C010001031684603940173717B4173817BF92071
:10C020000140891C684681731C2104A8FFF79DF814
:10C030006946087C02210843694608742A7DEF217D
:10C04000002A02D01022104300E008406A46107413
:10C05000059407940894287D002800D003A809902F
:10C0600001270A94104697712E4A82800094B27B71
:10C070000270F27B42708078F9221040801CE72227
:10C0800010404108490068468170317B01721421DB
:10C090000BA8FFF76AF801A80B9068460C908786FA
:10C0A000C486078702A80F90A888AB1D0BAA04A915
:10C0B000A2DF002833D1B06800282ED068468771EF
:10C0C000194981800094317C017000200146684646
:10C0D00041708078F9210840801CE7210840410820
:10C0E00049006846817011A8B16800F0A0FE0646BC
:10C0F00014210BA8FFF739F801A80B9068460C90A3
:10C100008686C486068711A80F902A46E8880E32D4
:10C110000BA9A3DF002802D100E0EC81002013B0BE
:10C12000F0BD0000192A00000829000010B50B49D5
:10C130000B4806F0D7FAC1B20848183800F028FAC0
:10C14000002809D0082807D00649884204D00649AB
:10C15000884201D0FFF74AFD10BD00004C250020A9
:10C16000F81F00200430000001340000F0B50C4638
:10C1700093B01F216A46118007260027918000286E
:10C1800009D0C17849070DD502A9FFF7D5FA0028D3
:10C1900009D102AD01E000251780002C0ED0E07817
:10C1A000002802D0304613B0F0BD01AA0AA92046EB
:10C1B000FFF7C2FA0028F6D10AAA02E06846002278
:10C1C000878068468088C3B268460088C1B2284626
:10C1D00072DFE8E710B5FFF709FD10BDFFB581B0CC
:10C1E0001E460A9F1346040047D0002B45D0504DF1
:10C1F000012028700020E870202219464D48FEF7E3
:10C200009BFF00206F61C0432E61288128460721D3
:10C210001830FEF7AAFF47483C212030FEF7A5FF63
:10C220004448217820300170A1788170E178C17094
:10C23000617841703F4A656923695563114613630C
:10C240002031E368A268CB608A603A49E369A26959
:10C25000CB638A63616A00291AD001463C310246E9
:10C26000483241628A60636A1B880B80616A436A54
:10C27000898899800021436A07E00E2005B0F0BD4F
:10C28000656AAD686D5C5554491C9D888D42F7D830
:10C29000A16A00291CD0274A943211460C398A60C1
:10C2A0008162A36A9B888B80A16A836A098819804E
:10C2B0000021836A04E0A56AAD686D5C5554491C91
:10C2C0009D888D42F7D82C210A5D1A4940310A73A6
:10C2D000216A002909D016490A310162226A52886E
:10C2E0004A80216A026A098811806168002900D0A9
:10C2F0004160104A0E490020B3322031C3001B1A9E
:10C3000085009B180C68401C63510828F6DB094A1D
:10C310000020EB32030185009B188C68401C6351A0
:10C320000828F7DB034802992030FFF71FFFA5E735
:10C33000A8200020D825002010B50188134C102912
:10C3400015D0112919D01B2910D1007A00280DD140
:10C35000E0780521401CFEF7D9FE084600F062F89F
:10C36000002803D06169002900D0884710BD817D75
:10C370000129FBD18088208110BD00216171808856
:10C3800021898842F8D10120E8E70000A820002098
:10C3900010B5022801D003280ED1084C607800287F
:10C3A0000AD000206070E07800F03CF8002803D04C
:10C3B0006169002900D0884710BD0000A820002036
:10C3C00010B5084A1179002909D0002111710146E0
:10C3D000044807221830FEF7AFFE002010BD0820E9
:10C3E00010BD0000A820002010B574DF0B4C012008
:10C3F00060710B490620C87000210948FFF7B6FE9E
:10C40000002809D1E07800F00DF8002803D0616918
:10C41000002900D08847002010BD0000A82000207F
:10C42000F8250020F1B53F4C88B0207800280AD0CC
:10C430000898E07006A801F08DFF069801250028F5
:10C4400004D065706AE0082009B0F0BD35480027C7
:10C4500007211830FEF789FE334E7078002802D08D
:10C46000E078012807D0B07800280CD0E0780128C7
:10C4700001D0022807D12169002903D025710820A5
:10C48000884700E027710898FFF71EFAE0702169DD
:10C49000002909D0032801D0042805D130780028CC
:10C4A00002D06079002811D0A77118216846FEF7E4
:10C4B0005CFE684607700772E1781A480B00183076
:10C4C000FFF756F8052E080F191D2000A57107204B
:10C4D0008847EAE7A57001906846057047820782A1
:10C4E00013E00221A170019068460570B189418274
:10C4F0003189018209E0684606F0E8F902E0684601
:10C5000006F010FAE078002803D0684673DF0028B0
:10C510009AD12169002901D0A0788847002093E7AB
:10C52000A770F6E7A8200020D8250020FFB51748FF
:10C530000F46817981B01E46002907D000210446AC
:10C5400081712034277126730D460DE0082005B057
:10C55000F0BD2068A9004058E9004A1B0199511814
:10C560000722FEF7E9FD6D1CBD42F2D3002509E06C
:10C57000A068A900405803992A0151181022FEF71B
:10C58000DBFD6D1CB542F3D30020E0E7A8200020BE
:10C5900073B586B004002FD06A46217C127F00203C
:10C5A000914227D0002501266846009506804580E7
:10C5B00007A80190E188608A6A46A4DF002819D1A3
:10C5C0006846007F2074608A0D49884216D0207D1D
:10C5D000002813D00295039504950595E1886846D7
:10C5E0000181867241888181049001980590608A5A
:10C5F00002A9A6DF08B070BD0E20FBE70820F9E70E
:10C60000FFFF000038B50D4604001AD0002D18D0E9
:10C61000286820600020C043608228792075FF20B0
:10C62000207401216846817007490180221D6946F6
:10C630000120A0DF002803D129462046FFF7DEFCB9
:10C6400038BD0E2038BD00000F18000038B5002896
:10C6500024D0002922D00A88102A1AD0112A1AD0F0
:10C66000502A1BD10446007D002817D0891D088858
:10C670006289904212D1488902280FD1206800288F
:10C680000CD008460C3000F0CBFB002807D000206F
:10C6900006E0898801E00021C943418238BD0120BC
:10C6A0006946087022682046904738BD70B5054637
:10C6B00001461C220E48FEF73FFD0E4C0026267058
:10C6C0002968002906D00822201DFEF735FD201D0F
:10C6D0007ADF02E00748001D7BDF002807D1401EFB
:10C6E00060806670044A00210448FFF70DFB70BDAE
:10C6F000A4270020D8200020393302003C38020053
:10C70000F8B5214C0146028800261E48E589102A0A
:10C7100013D01E4F112A1FD0122A2BD0502A1AD103
:10C72000881DC988A94216D14189022913D10C302C
:10C7300000F076FB00280CD112E08A880446428083
:10C740001048082218310C30FEF7F6FC6670002DF8
:10C7500001D101F0EDF8F8BD0021C94341804670D8
:10C760003868FFF77DFB0028F5D0A1690029F2D0D9
:10C770008847F8BD0348082208310C30FEF7DCFC7E
:10C78000E7E70000D8200020A42700203C38020062
:10C7900010B503490A7D091D05F061FE10BD0000BA
:10C7A000C0270020034B10B50246D97D181D05F0A7
:10C7B00043FE10BDC0270020034B10B50246197E72
:10C7C000181D05F039FE10BDC0270020F0B5044645
:10C7D000028839488DB0014615310191102A09D0DF
:10C7E000112A4FD01A2A49D1217A090901294DD994
:10C7F00001234CE0027D417D05468A43011D07A8C7
:10C8000005F02DFE142207A902A8FEF795FC0026CC
:10C8100029483746143008900AE0710002A8081829
:10C8200083881D220097281D089905F0C5FD761CF8
:10C830000298B042F1D8287DA688C043C0B205F066
:10C84000DFFD1E49884216D0400040198680012332
:10C850003246281D019905F025FE01233246281D88
:10C86000089905F01FFEA07D022809D00023124977
:10C87000A28816311CE00420FFF7B8F90DB0F0BD16
:10C880000123F4E70023A288001D12E000230A49D7
:10C890000546A2881731001D05F004FE207A000924
:10C8A000022801D9012300E000230349A28818319E
:10C8B000281D05F0F7FDE1E7C0270020FFFF00007D
:10C8C00070B50B4E05460024317D2A46301D05F01B
:10C8D000B3FD002809D0B17D2A46301D05F0ACFD1E
:10C8E000002801D0022400E00124204670BD000091
:10C8F000C027002010B50024204606F04FFD002878
:10C9000005D0641CE4B2182CF6D3182010BD0448DE
:10C9100001220168A24011430160204610BD0000C1
:10C92000C027002010B5044606F038FD002802D0CC
:10C9300001480019407E10BDC027002070B5054693
:10C940000C46084606F02AFD002806D003482A4671
:10C950000119497E001D05F06FFD70BDC027002044
:10C9600070B5064615460C46084606F017FD002829
:10C9700007D004482B46011919313246001D05F035
:10C9800091FD70BDC02700207CB5054608880C4687
:10C990000930904201D90C207CBD684671DF002827
:10C9A000FAD121880820685420881B21401C80B2BD
:10C9B00020802954208800A9401C80B22080401982
:10C9C00006220131FEF7B8FB20886946801D80B23F
:10C9D00020800978002900D0012129542088401C9A
:10C9E000208000207CBD00007FB504460121684600
:10C9F00081714A4981804A4A01A90120A0DF0028AB
:10CA00007ED1228825463C35002A09D044482B4651
:10CA1000801C00904348616800F056FE00287BD1DE
:10CA20002289002A0AD03E482B460A3000903D4811
:10CA3000E168401F00F048FE00286DD1228A002ADC
:10CA40000AD037482B461230009036486169001FE3
:10CA500000F03AFE00285FD1228B002A0AD030482D
:10CA60002B461A3000902F48E169801E00F02CFE02
:10CA7000002851D1228C002A0AD029482B46223086
:10CA800000902848616AC01E00F01EFE002843D1B5
:10CA9000228D002A0AD022482B462A3000902148B5
:10CAA000E16A401E00F010FE002835D1216B0029FC
:10CAB0000ED002A806F054FA19482B4632300090E6
:10CAC0001848082202A9801F00F0FEFD002823D18B
:10CAD000606B00280BD012492B463A310091027945
:10CAE00001681048401C00F0EFFD002814D1A16B34
:10CAF000002910D002A805F017F80948423000E0DC
:10CB00000AE0009007482B46072202A9273000F0D0
:10CB1000DBFD002800D1002004B070BD0A18000021
:10CB20004E210020292A000010B50446FFF74EFED2
:10CB3000204604F0F5FD204600F036FB204603F0C9
:10CB400071FB2046FFF7F8FB2046FFF7D9FD214691
:10CB5000034800F00FF921460248FFF777FD10BDAA
:10CB6000BC23002034250020F0B50646FF368C4655
:10CB70000546613689B01746F08A19490E9A8842EF
:10CB80002CD0D41CA0B269460880082823D861465E
:10CB9000684601714771837101AF002A03D0F81C08
:10CBA0000F99FEF7C9FA0020FF3504900590069012
:10CBB00041350790EA8B69460A8201228A7488828D
:10CBC00006910797F08A04A9A6DF002804D16946D8
:10CBD0000988A14200D00C2009B0F0BD0820FBE775
:10CBE000FFFF0000FEB50546887A0C460A2805D8E6
:10CBF000207C0A2802D8207E0A2801D90720FEBD01
:10CC00002068286060686860A07AA874217C782019
:10CC10004155217EDE204155FF2000217730C94358
:10CC20004153012168468171384981802A46083282
:10CC300001A90120A0DF0028E1D1002726462036E7
:10CC400009E0A06B7900415A28896A46A1DF0028D3
:10CC5000D5D17F1CFFB2B07DB842F2D8207A00282F
:10CC600002D1607A002806D021463C31284604F0E3
:10CC700077FF0028C3D12146284602F0C9FA0028D0
:10CC8000BDD12146284603F0A3FC0028B7D1214698
:10CC9000284601F029FA0028B1D12146284605F09E
:10CCA0002DFA0028ABD1207A002812D02846FF3078
:10CCB0004F3023460090433308221549284600F0A0
:10CCC00025F900289BD12146284600F077F9002855
:10CCD00095D1607A00280DD02846FF305F300C498E
:10CCE00023460090403308221131284600F00EF907
:10CCF000002884D12146284601F094FF00289BD1CA
:10CD000021463E31284601F049FFFEBD12180000C1
:10CD1000222A000030B51446827C85B08A4225D98B
:10CD20000A2251430918FF306130C28A104D143174
:10CD3000AA4219D06D462C800022019202920392E1
:10CD400004920988A9800121A9712A81039504937D
:10CD5000C08A01A9A6DF002804D169460988A1423A
:10CD600000D00C2005B030BD0820FBE70720F9E714
:10CD7000FFFF000030B502460B88FF32613287B0FA
:10CD8000102B23D0112B3BD0502B3DD0512B1BD13E
:10CD90000C460546891D0878012815D149886A4640
:10CDA000284605F043FA00280ED0296828460029B5
:10CDB0000AD0072269460A710A880A814A884A818C
:10CDC0000594026801A9904707B030BD04468888E1
:10CDD000D08260890028F7D001216B4619720020AB
:10CDE00000901980588002A80190D08A61896A4613
:10CDF000A4DF0028E8D061680029E5D08847E3E790
:10CE00000020C043D082DFE703F01CFBDCE770B5F5
:10CE100004460D460846FEF7B3F92080656070BDF4
:10CE20004178027808021043C007C00F70470A78A3
:10CE300002704978417002207047000010B52B48FD
:10CE400086B0406805902A4B48222A4905A806F07A
:10CE500043F801000C4608D027A0FEF779FB6420B8
:10CE600002F02AFF2046FEF7C1FE6A46012100209B
:10CE700006F006F801000C4608D01FA0FEF768FB7C
:10CE8000642002F019FF2046FEF7B0FE684605F068
:10CE9000EDFF01000C4608D017A0FEF759FB6420F7
:10CEA00002F00AFF2046FEF7A1FE164805F0D4FF67
:10CEB00001000C4608D010A0FEF74AFB642002F0E7
:10CEC000FBFE2046FEF792FE0F4806F037F8010001
:10CED0000C4608D008A0FEF73BFB642002F0ECFEF5
:10CEE0002046FEF783FE06B010BD000000380200A9
:10CEF000BD2E0200C422002065727220636F64653B
:10CF00002025640029CB0100512F0200FFB5002429
:10CF1000601C91B000070F46000F69461030029464
:10CF2000087218784872887AF9263040801C887216
:10CF30001D461C2103A8FEF718F96946087B02214B
:10CF4000084369460873A9780A07F721002A02D026
:10CF50000822104300E00840102210436A46107374
:10CF600002A80494089006940794099401209071F3
:10CF70009780009468781070A8785070907830404E
:10CF8000801C0840EF2108404008400090701421A8
:10CF90000BA8FEF7EAF801A80B9068466A460C90C9
:10CFA0009486D4861398108711980F9400890BAA41
:10CFB00003A91A9BA2DF15B0F0BD0000F0B58FB039
:10CFC0000D4606461C216846FEF7CFF868460178F4
:10CFD0000E200143684601700024019403940494D8
:10CFE0000594012708A806948770154968460184AE
:10CFF00046200794415D684601774335297941779A
:10D00000807FF9210840801CE72108404108490041
:10D0100068468177142109A8FEF7A7F808A80990A7
:10D0200007A80A9068468485C485078633460D9410
:10D03000FF333089573309AA6946A2DF0FB0F0BD2C
:10D04000322A00000149085C704700000C380200D9
:10D050000549095C05480069C840C007C00F00D0F9
:10D0600001200121484070470C38020000050050A3
:10D0700005490B5C05494A680120984003469343E3
:10D080008B601040C86070470838020000050050EF
:10D0900010B50349085C012102F0F6FF10BD000045
:10D0A0000838020010B50349085C002102F0ECFFCB
:10D0B00010BD0000083802000549095C05484068B9
:10D0C000C840C007C00F00D0012001214840704770
:10D0D00008380200000500507CB50024074E2546A4
:10D0E000305D0122009500231146019502F07AFF80
:10D0F000641C042CF4D300F003F87CBD0838020053
:10D1000010B500242046FFF7C3FF641C042CF9D39C
:10D1100010BD10B500242046FFF7C4FF641C042C8A
:10D12000F9D310BD0246002010B5C043054B0021C5
:10D130005C5C944201D1084610BD491C0429F7D318
:10D1400010BD00000C38020070B5104E00250C46D2
:10D15000306000290DD0012000F0A6F8002801D091
:10D16000022005E0002000F09FF8002800D00B20EE
:10D170002070217806A0FEF7EBF97068002802D134
:10D18000FEF7D6FB0546284670BD00009C20002017
:10D190000D0A705F737461727475705F6273705F93
:10D1A000657674202564000010B5104C0188606815
:10D1B00010290DD011290AD1401E606007D1FEF759
:10D1C000B7FB002803D02168002900D0884710BD94
:10D1D000002807D100F0E0FB002803D021680029D7
:10D1E00000D088476068401C606010BD9C20002013
:10D1F00010B5002000F0EAF9002801D0062807D178
:10D20000012000F0E3F9002801D0062800D1002019
:10D2100010BD0000F3B581B00D460198FFF782FF05
:10D220000446042813D21D481D4F1E4E002D27D042
:10D23000012D0DD0022D0AD160002018C0194578AB
:10D24000002D04D0F168002901D028468847FEBD92
:10D25000610061187D5CCF19797800290BD0716865
:10D260000A2251430F4A8068921CFEF7B5FD002840
:10D2700001D10198B0700B48B97810300155DFE743
:10D280008068FEF7EDFD0748610061181030C9198C
:10D29000005D8D78A842D3D0FEBD0000103802009A
:10D2A000AC2500208820002010B5FFF7D1FE10BD6E
:10D2B00010B5011F1F4804241F4AE44340880B0097
:10D2C000FEF756F90E0B0A0A1A0A0A080A0A0A2277
:10D2D000272E330A05F050FB10BD132176DF0FE037
:10D2E0000400F9D015A0FEF733F9642002F0E4FC45
:10D2F0002046FEF77BFC10BD9042FCD1FFF774F88E
:10D3000001460828ECD110BD9042FCD000212046F7
:10D3100003E09042F7D021460AE002F0DDFB10BDA9
:10D320009042FCD000210520F7E79042F7D005217C
:10D330000020F2E7E81F0020FFFF00006572722066
:10D34000636F64652025640070B50023042811D242
:10D35000440004190D4D012A02D101290DD00022EB
:10D3600046008019094E801900290CD0012906D0E9
:10D37000022906D00723184670BD0E30C2B22A55C6
:10D38000F9E74270F7E78270F5E70000AC2500206E
:10D3900010B5054A0146127A0020D20702D008468D
:10D3A00000F054F810BD000088200020F8B50646B3
:10D3B00021480F468660C2604160B00727D500252E
:10D3C000012211462846FFF7BFFF6D1C0446042DBD
:10D3D00002D2002CF4D013E0002C11D17A080421E1
:10D3E0001648FEF7BDFB04000AD1FEF7A7FB0400B8
:10D3F00006D11248124A0021001FFEF785FC0446A0
:10D40000F00701D0FFF768FE002C04D012E0F0070F
:10D4100001D0FFF761FE09480A4A00210C38FEF7E7
:10D4200073FC040006D10548074A01210838FEF7BD
:10D430006BFC04462046F8BD882000201C38020002
:10D44000DDD5010095F3010033BB0100F8B55D4C5B
:10D45000054660780026002803D000206070FFF7A2
:10D460004FFE0120584F2B00FEF782F818970D0D44
:10D470002E3D4A5F64686F686FA9777777777797F3
:10D480009A9DA0A9A9950020FFF716FE00280AD0B2
:10D490000020FFF7FDFD022D02D1E120C0000BE0CE
:10D4A0007D20400108E00020FFF7FCFD022D01D1A6
:10D4B000C82001E0FF20913025706421FDF726FE91
:10D4C0006168414300222BE00020FFF7F5FD0028B2
:10D4D00005D00020FFF7DCFD19204001ECE700201B
:10D4E000FFF7E0FDE4E70020FFF7E6FD002803D0AA
:10D4F0000020FFF7CDFDD3E70020FFF7D3FDD9E7EC
:10D500000020FFF7D9FD002803D00020FFF7C0FD61
:10D5100002E00020FFF7C6FD257060684100002290
:10D520003868FEF759FC064635E00020FFF7A0FDFD
:10D53000257007E000203FE025702CE0607001209E
:10D54000FFF796FD00226168EAE760700120FFF7AF
:10D550008FFD606881004118E1E77868FEF780FC84
:10D5600006461120401B01D0002E03D00220FFF7F9
:10D570008FFD10E001280BD9C82148436421FDF735
:10D58000C5FD6168002241437868FEF725FC064628
:10D590000220FFF787FD3046F8BDFFF7B1FDCBE76E
:10D5A000FFF7AEFDC6E7FFF7ABFD04E0FFF7A8FD10
:10D5B0000020FFF777FD0120FFF774FDBCE7FFF7C0
:10D5C000A8FDB9E7882000201038020010B5FFF749
:10D5D00039FD032102F02EFD002010BD10B50078AA
:10D5E0000221FFF717FE10BD38B50546144A15494C
:10D5F0000320FFF7DBFE01000C4608D012A0FDF768
:10D60000A7FF642002F058FB2046FEF7EFFA6946B8
:10D610000020FFF799FD01000C4608D00AA0FDF795
:10D6200097FF642002F048FB2046FEF7DFFA6846C9
:10D630000078022802D00020287038BD0120FBE7C6
:10D64000B1D20100CD0C000065727220636F646579
:10D65000202564000022D243830004490428CA50D4
:10D6600002D308182030027770470000342C0020C5
:10D67000F0B50025ED43002A02D00023042601E086
:10D68000042308260B4C04E09F00E7597F1C04D0BC
:10D690005B1CB342F8D32846F0BD26185DB2203695
:10D6A00035709E00A151002AF5D1E118203108778C
:10D6B000F1E70000342C0020024909182020085608
:10D6C00070470000342C0020FFB58FB01E46154671
:10D6D0000F0002D10020FEF789FA002D02D10020B0
:10D6E000FEF784FA1C216846FDF73FFD6846017885
:10D6F00002200143684601700024019403940494BD
:10D700000594012108A80694817068460F99018448
:10D7100007943178017771784177807FF92108404B
:10D72000801CE721084041084900684681771421A0
:10D7300009A8FDF71AFD08A8099007A80A906846ED
:10D740008585C485058604480D9709AA6946008821
:10D75000189BA2DF13B0F0BD4E210020002807D097
:10D760000449814204D80449814201D9012070470B
:10D77000002070471C2200202C220020044A01684F
:10D78000914201D0083101E0014938390160704708
:10D79000942D002070B50D4D04460A462846AC4233
:10D7A00008D1FF2401342146104603F069FFA0424E
:10D7B0000AD070BDFF2CFCD82146104603F052FF62
:10D7C000002801D0204670BD284670BDFFFF000034
:10D7D00070B5084C050009D010342168002907D025
:10D7E00008682060496828468847F6E70834F4E767
:10D7F00070BD0000202C0020F8B5234841680029A6
:10D800003ED00E6821494C6887688078E11B0D0284
:10D810002D0AED1C002814D101201D4A000450607F
:10D820001B4A403A50601B49400008601A49086092
:10D830001A49012008602F2002F072FA12490120D3
:10D840008870B54200D23546E81900020F4B000A35
:10D85000403318600D4A5168001B091B0902090A70
:10D860000002C91C000A814209D9506818602F20A3
:10D8700002F056FA01200749400480390860F8BDDB
:10D8800004F018FDF8BD0000BC2100200015014087
:10D890004013014080E200E000E100E000100140A0
:10D8A000F8B50646108814468446801D0D469842F9
:10D8B00001D90C20F8BD32880720062AFAD319278F
:10D8C000FF01184BBA4201D99A42F3D17188062957
:10D8D000F0D3B94201D99942ECD19A4203D099428E
:10D8E00001D08A42E6D805216046295420881221B9
:10D8F000401C80B2208029542088401C80B22080A7
:10D900004119308805F013FD2188401880B220802D
:10D910004119708805F00BFD2188401820800020F7
:10D92000F8BD0000FFFF000010B5FEF75FF910BD65
:10D93000F8B5164801F0EAFC144D00260C3D144CD5
:10D94000002807D0616900291CD001206A461070A8
:10D95000684616E02878002805D06169002911D0B2
:10D96000684606700DE0687800280DD0A168094867
:10D9700000220068FEF730FA002803D0A1690029D0
:10D9800000D088472E70F8BD6168F0E7E4200020E1
:10D99000A42700203C38020010B5002101220846CF
:10D9A000FFF7D2FC002801D0072824D1072202214A
:10D9B0000120FFF7C9FC002801D007281BD1042251
:10D9C00002210020FFF7C0FC002801D0072812D157
:10D9D000102200210220FFF7B7FC002801D0072801
:10D9E00009D1112200210320FFF7AEFC002801D04D
:10D9F000072800D1002010BD7FB50C46002802D0BA
:10DA0000012004B070BD20790026002806D01B4DEF
:10DA100001281CD0022828D00F20F2E70296039696
:10DA2000E0680190694601A804F0FEF900280AD0D8
:10DA300002988188E18000882081694609880298DF
:10DA400004F06CFA00E00A2002212171D9E70C4BA6
:10DA50006A460021A01D04F0A5F9002807D0084956
:10DA600008398E60CE600A28CBD12846C9E7044821
:10DA70008188019804F052FAF5E700001D1D0000AE
:10DA8000F0210020F8B500260124154D24E0696836
:10DA9000F00047183878214681402A690B46134226
:10DAA00018D08A432A6102F05FFA3A782146EB687F
:10DAB000914019400346934099420BD1797801294E
:10DAC00001D0012100E000217B684140002B01D002
:10DAD00010469847761CF6B228788642D7D3F8BD10
:10DAE0009821002010B592B00221684601701549B6
:10DAF0004180154981800121C180402102A8FDF7A4
:10DB000034FB12A102A8FFF782F9684610900120A9
:10DB10000146203110A801710020014610A8417172
:10DB200002A8FEF761FF01000C4608D00CA0FDF72B
:10DB30000FFD642002F0C0F82046FEF757F812B03F
:10DB400010BD000015190000EEEE00004E6F72646B
:10DB5000696353656D69636F6E647563746F72009A
:10DB600065727220636F64652025640010B50E49EC
:10DB700000230A784C78A24212D0521CD2B20A700A
:10DB8000022A00D10B700A78074B920018339A587A
:10DB90000260886810180002000A8860012010BD29
:10DBA0000360002010BD0000BC2100203EB5094DDF
:10DBB000383538CD0093029501946B465880998092
:10DBC0009A71054900220978FEF7CAFE684600F0FE
:10DBD0008DF83EBD783802003421002010B504785D
:10DBE00000222300FDF7C4FC070605070D1D262CA7
:10DBF00006000A7010BD01220A7002898A8182889B
:10DC000014E002220A7002898A818288CA81C2686D
:10DC10008A60007C062802D00020087410BD012014
:10DC2000FBE703220A70C2888A810289CA81C06820
:10DC3000886010BD04230B70C0888881CA8110BD24
:10DC40000520087010BD000070B5064D0646002482
:10DC5000A0002958002901D030468847641C082CB0
:10DC6000F6D370BDC42C00200EB5002910D01129A8
:10DC70000ED00022009202926A46508001910D2936
:10DC800007D0862907D009201070104600F03CF814
:10DC90000EBD0B20F8E70A20F6E7000001490968ED
:10DCA00008470000F420002070B5054D064600240A
:10DCB000A000295830468847641C022CF8D370BD58
:10DCC00058380200F8B507460024064E064D04E019
:10DCD000A000315838468847641CE8788442F7DB56
:10DCE000F8BD0000D42B00202421002070B5054D84
:10DCF00006460024A000295830468847641C022CA0
:10DD0000F8D370BD7838020001490968084700005F
:10DD1000BC3802007FB50446406800280BD00020C4
:10DD2000039020780026414D0300FDF721FC066D8D
:10DD30000606304E7B6D0120F2E7A08900F00AFA5A
:10DD4000002804D1E08904F00BF900285CD0A089F8
:10DD500000F0FBF9014668464180E08904F0FAF8DA
:10DD600001466846017120780128606807D00028C4
:10DD700009D00420694608706068039020E00028FC
:10DD8000F8D00320F6E70120F4E708463AE0A0893E
:10DD900000F0E0F9002804D1E08904F0E1F800285F
:10DDA00032D0A08900F0D1F969464880E08904F0BA
:10DDB000D1F8694608716068002804D00520087011
:10DDC000A0680290E1E70220F9E7A08900F0C2F91B
:10DDD000002819D0E089002816D1A08900F0B5F9F3
:10DDE00069464880E08904F0B5F8FF20694608716B
:10DDF000606800280FD0072008706E70AE7003F0C6
:10DE0000C3F8684602F07CFF6878002802D06E7084
:10DE100003F0BAF87FBD062168460170408803F020
:10DE200041F9EAE7082069460870AEE710210020B2
:10DE300000B5104987B00978890702D4022007B0DD
:10DE400000BD0D49884201D10420F8E7052269464A
:10DE50000A7001220A71C88000221146684602F049
:10DE60007BFB002803D003F081FF0020E7E70820B8
:10DE7000E5E70000E8210020FFFF000000B50F48A3
:10DE800087B00078800702D4022007B000BD0620CA
:10DE90006946087000221146684602F05DFB0028C2
:10DEA00009D007480178002901D00121017303F04E
:10DEB0005DFF0020E9E70820E7E70000E8210020F7
:10DEC000C42D002010B58CB014216846FDF74DF923
:10DED0001D480078810703D56846FFF7B5FE30E09E
:10DEE000C0072ED1012000F05BF900F0DDF901241C
:10DEF0006846047502F0F2FB0300FDF739FB0C07DE
:10DF00001107111B190A191B1317131B0B200CB037
:10DF100010BD022000F044F9012000F027F9DBE7F2
:10DF2000002000E003206946087603E00220FAE7BB
:10DF3000684604760022114605A802F00DFB03F0A6
:10DF400015FF0020E3E70000E821002038B50400B9
:10DF500014D0694603F068FF002813D06846008893
:10DF60000101094809188889002809D0A27A002AE5
:10DF700006D0401E88810020A07238BD052038BD23
:10DF8000062038BD0A2038BDA42D00201FB501A9E8
:10DF9000684603F007FF04B010BD07B513460A46F4
:10DFA0006946002003F0FEFE0EBD07B513460A4683
:10DFB0000021684603F0F6FE0EBD002805D00029BA
:10DFC00003D00068086000207047052070470000FB
:10DFD00038B50D46040017D0002D15D0694603F062
:10DFE00023FF002812D068460088616802010848B3
:10DFF00012189089401C9081296060680C3068601C
:10E000000120A072002038BD052038BD0A2038BD8F
:10E01000A42D002010B5002804D00323002205F011
:10E02000B9FA10BD052010BD10B50223002205F07D
:10E03000B1FA10BD10B5002A03D0022305F0AAFAE8
:10E0400010BD052010BD000010B5064A5178082902
:10E0500006D08B00044C491CE0505170002010BDCC
:10E060000C2010BDE8210020C42C002038B5044647
:10E070000A480D460078800701D4022038BD002CE4
:10E080000AD06946284605F095FB0028F6D1694676
:10E0900009882180658038BD052038BDE821002031
:10E0A00010B504460E480078800701D4022010BD48
:10E0B000002C10D0218802290FD80A4A08018018A4
:10E0C00042896088121AD21E07D405F069FB00202D
:10E0D0002080608010BD052010BD042010BD000010
:10E0E000E8210020A42D00207FB50646087E0D46BD
:10E0F000002827D0E869002824D000241FE0E86920
:10E10000E1004318002069460390087B0A21084378
:10E1100069460873D9790A2060438019C907E0303D
:10E12000C90F1A1D0191029000921A889B1C03A925
:10E13000304603F059FF002805D1641CE4B2287E64
:10E14000A042DCD8002004B070BD03218903401A2E
:10E1500080B2704703218903401A0349884201D8DD
:10E160000120704700207047FE3F000002490A78F6
:10E1700082430A7070470000E821002010B5044671
:10E180000078182802D1FEF7B5FB207010BD10B53D
:10E1900004460078182802D1FEF7ACFB207010BDB1
:10E1A00002490A7802430A7070470000E821002003
:10E1B00070B5064600200546862906D0112902D0F2
:10E1C000002903D070BD012500E001200E4C002A7B
:10E1D00002460FD061793046FEF7C2FB2A4621790C
:10E1E0003046FEF7BDFB002261783046FEF7B8FBF3
:10E1F000002204E061783046FEF7B2FB2A4621781F
:10E200003046FEF7ADFB70BD3821002038B504461E
:10E210006846047069460320ABBE204638BD000046
:10E22000F8B506461C481F46007815460C46C00740
:10E230000AD03046FFF792FA002807D0002C07D00A
:10E24000A00507D00620F8BD0120F8BD0220F8BDCA
:10E250000320F8BD3068A04204D8A80271680019F4
:10E26000884201D90520F8BD002D11D0684603F081
:10E27000CFFC00280ED00098022147600660017292
:10E28000A101090C8181058203F07EFD0020F8BD0B
:10E290000420F8BD0720F8BD0022002010B5084674
:10E2A00003F0D2FC10BD0000F0B52648264C001B40
:10E2B0000309264819464069421C03D10120000782
:10E2C00040698002224A12789646D2070CD000207C
:10E2D000F0BD1D4C15012C192568002D03D0646874
:10E2E000002C00D0491E521C9A42F2D3002420E098
:10E2F000E2B2002594462A460FE0134E1701BE19DC
:10E300003768002F02D07768002F05D1767BAE42A8
:10E3100002D93546D6B2B446521C9A42EDD3624673
:10E320001501094AAA185060157BAD02401B641CF8
:10E3300010608C42DCD30648714601221143017003
:10E34000C5E700002C2200201C2200200010001035
:10E3500000220020002804D00349496E01600020FB
:10E360007047032070470000D42D0020F8B5074601
:10E370001E481E46007815460C46C0070ED038468B
:10E38000FFF7ECF900280BD0002D0BD0002C09D0A2
:10E3900028462043800707D00620F8BD0120F8BD9D
:10E3A0000220F8BD0320F8BD3868A04204D8B100AF
:10E3B00078680919884201D20520F8BD002E11D0D5
:10E3C000684603F025FC00280ED0009806990760E7
:10E3D000416001210172C5600461868203F0D4FCB2
:10E3E0000020F8BD0420F8BD0720F8BD0022002061
:10E3F00070B5174B0446186E182148431549C018CC
:10E400000A78950715D5022C02D0032C1CD102E006
:10E4100001F0B6FF18E04A78521CD2B24A70032AC3
:10E4200012D900224A70082104F010F903F0DAFB37
:10E430000AE0500708D5FB2002400A70586E0028F9
:10E4400002D0022002430A7003F05AFC70BD0000A3
:10E45000D42D0020002200203EB51120694608720C
:10E460000C221CA102A87CDF01000C4608D01DA0D4
:10E47000FDF76EF8642001F01FFC2046FDF7B6FBA7
:10E480001B4878DF01000C4608D016A0FDF760F8A5
:10E49000642001F011FC2046FDF7A8FB002000904D
:10E4A00001900621684601800C2141801421818061
:10E4B000FF212D31C1807ADF01000C4608D009A070
:10E4C000FDF746F8642001F0F7FB2046FDF78EFBD0
:10E4D0003EBD00004E6F726469635F4D6F7573657A
:10E4E0000000000065727220636F6465202564007F
:10E4F000C203000070B5002801D0012070BD164C89
:10E500000025207B002801D0257301E000F09CF855
:10E5100020780300FDF72CF8081E05080B0E1E11CD
:10E520001A1E00F01BF870BD00F07EF870BD00F000
:10E5300061F870BD00F038F870BD608806490001D0
:10E5400020394018406802F0A9F870BD656002F0FB
:10E55000B3F870BD0F2070BDC42D002070B51049F8
:10E5600000208A1C0D460346203D0C18A67A002E7A
:10E5700008D0A37204016419A689002E02D1A47BDD
:10E58000012C08D0401C80B20228EED30B704B80C7
:10E5900004484B6070BD108000F046F870BD00006C
:10E5A000C42D00201D1D000010B50F4C6088010116
:10E5B000204620380818818900290BD005202070BA
:10E5C0000A48022181800168002301220848FFF7E0
:10E5D00027FE10BD4168002301220548FFF720FEF9
:10E5E0000421217010BD0000C42D0020F82100205E
:10E5F0001C22002038B50A4908480B6889884268FF
:10E60000890059185388032404700020DB1C0090F3
:10E610009BB20448FFF7AAFE38BD0000C42D0020BD
:10E62000F82100201C22002010B506494888091D49
:10E6300003F04AFC002802D0FFF7DCFF10BDFFF713
:10E64000B3FF10BDC42D0020F0B51D481D4907784B
:10E650000246012502268C88203A3B00FCF788FF01
:10E66000080517171A212C2C16170189491C01813E
:10E670000021418001730B01D35C002B08D00023E3
:10E680004418491C89B2A3720229F4D30570F0BD65
:10E690000123F5E742685288D21CA2188A800670CE
:10E6A000F0BD45880B682D01AA1855680D605360B0
:10E6B00014818E80062100E007210170F0BD00006A
:10E6C000C42D0020F8210020F0B504460088384D04
:10E6D0008DB050281DD0522802D0542826D103E0F6
:10E6E000A08801F09DF821E0062069460870A08806
:10E6F00000F0C4FC69464880A2888A8000F056F980
:10E70000A0880022E978FEF72BF96846FFF7C6FAE1
:10E710000CE0207B012809D1A07A012806D12089AC
:10E720002449884202D1A08801F0B6F8A878FEF703
:10E73000F9F8002819D008A8FEF72AF8142208A929
:10E7400003A8FCF7F9FC002403AE0BE06000871976
:10E75000B888A978FEF7F2F8002802D0B88801F04E
:10E760005FF8641C0398A042F0D86878FEF7DAF8E6
:10E77000002819D008A8FEF70BF8142208A903A84E
:10E78000FCF7DAFC002403AE0BE060008719B888C0
:10E790006978FEF7D3F8002802D0B88801F07CF839
:10E7A000641C0398A042F0D803F0AAFF0DB0F0BD9E
:10E7B000EC200020022900003EB50446408869464E
:10E7C00048802078002814D001281DD002280FD1BD
:10E7D000207900280CD0608800F082FB0E49884226
:10E7E00006D00E490122C978FEF7BAF803F088FF77
:10E7F0003EBD002008700846FFF750FA608800F020
:10E800006FFB01F00DF83EBD012168460170A18843
:10E810008180FFF743FA3EBDFFFF0000EC2000209F
:10E8200010B50446007801280DD1608800F0F8FF8B
:10E83000608800F081F9002805D003496088012232
:10E84000C978FEF78DF810BDEC20002010B5104CF3
:10E8500000202070FEF74EF86070FEF74BF8A070B5
:10E86000FEF748F8E070FEF745F820716178182946
:10E870000BD0A178182908D0E178182905D01828DC
:10E8800003D001202070002010BD032010BD000027
:10E89000EC200020F0B585B000F0A0F86846FDF748
:10E8A00077FF00246D460C4F0EE060004619B088DB
:10E8B00000F0E4FBB84205D10849B0880122C978CC
:10E8C000FEF74EF8641CA4B20098A042EDD803F005
:10E8D00017FF05B0F0BD0000FFFF0000EC20002096
:10E8E00010B50178072902D1408800F0D5FF10BD8E
:10E8F00010B504460A4841782046FEF71FF8002864
:10E900000CD0084800210C224A4312185288A24217
:10E9100001D1C8B210BD491C0829F4D3FF2010BD95
:10E9200004210020F427002070B5094D094E002471
:10E930000C206043401940887178FDF7FFFF0028E4
:10E9400004D0641C082CF3D3FF2070BDE0B270BD6E
:10E95000F427002004210020F8B50746114E0125B8
:10E96000BD403068FDF77CFA002806D10E4C2069C6
:10E970000146294202D0A8432061F8BD384601F083
:10E98000F3FA0028E06801D0284300E0A843E060E3
:10E990002069002228432061A1683068FDF71CFA35
:10E9A000F8BD0000C4380200982100201CB5054ABB
:10E9B0009168D268019200910022694602F068F8DD
:10E9C0001CBD00004438020003480021C943818077
:10E9D0000121017000207047F820002010B5044884
:10E9E00001F082FF0349888003F0B6FE10BD0000ED
:10E9F000FFFF0000F8200020F1B582B0029800F07F
:10EA00003DFB00241649032501272646884209D0EC
:10EA10006A46082102F012F8002803D1019886887E
:10EA20000568841D2B46324621460298A9DF04283A
:10EA300004D0082804D00B2807D002E0112000E001
:10EA40000020002F00D10B20FEBD0027A80701D514
:10EA50000125E7E73443F6D0002426460325E1E705
:10EA6000FFFF0000F1B582B0029800F007FB0746F7
:10EA70001B48874201D11B48FEBD01252A466D1C5B
:10EA80000026ADB26B460821384602F007F80400B4
:10EA900002D0072C21D021E0019903230B600A1D2D
:10EAA000891D0298AADF040004D00C2C08D0052C84
:10EAB00008D008E00821384602F08AF804460DE044
:10EAC000012600E000240821384602F06BF80028F7
:10EAD00000D00324002ED1D100E00C242046FEBD3E
:10EAE000FFFF0000023000001FB504460078012837
:10EAF00015D12079012812D1608802AA012101F0E4
:10EB00009DFF00280BD10221684601706188418079
:10EB100003980178684601710549096888470448E7
:10EB2000044908388088884201D003F015FE1FBDD3
:10EB300000210020FFFF00001CB500F09FFA6A468C
:10EB4000012101F07BFF002801D000201CBD0198AD
:10EB500000781CBDF8B5074E074C084D07463246F5
:10EB600061883846A7DFA84203D16088401C6080D6
:10EB7000F5E7F8BDFFFF0000F8200020033000009B
:10EB80008188054A914204D00088002801D00120E4
:10EB90007047002070470000FFFF0000F0B58FB005
:10EBA0000F4605461C216846FCF7DFFA68460178E7
:10EBB00004200143684601700024019403940494E6
:10EBC0000594012608A806948670154968460184B4
:10EBD00007943978017779784177807FF921084067
:10EBE000801CE7210840410849006846817708A851
:10EBF000047114210AA8FCF7B8FA08A80A9007A81B
:10EC00000B90684606864486868609A82B460E9099
:10EC1000FF3328896F330AAA6946A2DF0FB0F0BD1F
:10EC20004C2A000070B590B00C4606461C21684680
:10EC3000FCF79BFA6A461078022108431070002501
:10EC40000195039504950595012008AA06959071F4
:10EC50001A486A46908434200795005D1077352065
:10EC6000005D5077907FF9210840801CE721084023
:10EC70004008400090773034208808AA1070000ABD
:10EC80005070A0789070E078D070042414210AA805
:10EC9000FCF76BFA09A80A9007A80B906A4614863D
:10ECA0005586948608A833460E90FF333089673323
:10ECB0000AAA6946A2DF10B070BD00004A2A00000F
:10ECC00030B599B0182112A8FCF74FFA012403259A
:10ECD00010A90D818C722046CC722030087320461A
:10ECE000203048732046203088730D8202208874BB
:10ECF0002046CC7420300875204620304875887531
:10ED00000C838D76CC7608774877887748216846DB
:10ED1000FCF72BFA2648009026480190002069460F
:10ED200008724C728D7212A903916946087405909D
:10ED30000876882207908A841F49FF2208910232B0
:10ED400069460A8608A98874CD7488750E902120BA
:10ED5000087300204873401C0007000F203008751E
:10ED600000204875401C0007000F10A920300870D3
:10ED700021204870887008A9087748770020887794
:10ED8000401C0007000F2030C87769460B48FDF78C
:10ED900029FF040009D0214609A0FCF7D9FB642013
:10EDA00000F08AFF2046FCF721FF19B030BD0000BB
:10EDB00061030200C328020000200020BC230020C1
:10EDC00065727220636F6465202564003EB5044659
:10EDD00000780D46022815D10322611C6846FCF715
:10EDE000ABF90322211D02A8FCF7A6F901AA02A98A
:10EDF0002846FCF777FE032201A96846FCF7C7F90D
:10EE0000002801D000203EBD01203EBD10B50C46BB
:10EE1000FFF76EFDFF280AD00C2148430549072261
:10EE20004118091D2046FCF787F9002010BD052078
:10EE300010BD0000F427002070B5018890B01029A3
:10EE400049D1011D2C2202A8FCF776F96846234E11
:10EE5000007B344602AD03282AD001F0C1FF68468A
:10EE6000007B00280ED001280CD0022820D118E009
:10EE70000E99281D1131FCF74BFC002802D0684682
:10EE8000048815E00DAA6946072001F07FFF0028DD
:10EE9000EED10DE00E99281D491CFFF797FF0028C1
:10EEA000EDD10DAA6946072001F070FF0028F1D1CD
:10EEB00068460089291D00F0A1FEB4420BD06846C7
:10EEC0000089214600F088F86846018941800121C7
:10EED0000170FEF7E9FE10B070BD0000FFFF0000FA
:10EEE000084A00210C234B43D35A834204D10C20FF
:10EEF0004143881840887047491C0829F2D30248CA
:10EF000070470000F4270020FFFF00000620704734
:10EF100010B50E4C182060700D4A0E4900200C23CD
:10EF200043435B18401C5A800828F8D3FDF7E2FCE5
:10EF30006070182804D00548C01C71DF002801D07B
:10EF4000032010BD01202070002010BD04210020EE
:10EF5000FFFF0000F427002070B504460D46401C5A
:10EF600000F006FA002810D01022691C601CFCF783
:10EF70000EF900280AD0002629462046113111300A
:10EF8000FCF7C6FB01463046084370BD0126F3E797
:10EF90000188002903D142189278002A01D001206B
:10EFA0007047491C0829F6D30020704710B50C465D
:10EFB0000346FFF7EDFF00280BD018882188884210
:10EFC00006D10822A11C981CFCF7E1F8002801D00A
:10EFD000002010BD012010BD10B502F0BFF810BD1B
:10EFE00010B50446007888B0002826D1207907287B
:10EFF00023D1608801AA072101F020FD00281CD13F
:10F0000001F0EEFE1BE0694660880988884216D050
:10F0100004990298FFF7A0FF002810D06088FFF73E
:10F020005FFF01466846C182002101756188018346
:10F030000188418305A8FEF737FE08B010BD03AA7A
:10F040006946072001F0A2FE0028DCD1F5E70000A8
:10F0500070B50446FFF744FF0546204601F0F3FC77
:10F06000054904468D4204D0002C02D1284602F006
:10F0700075F8204670BD0000FFFF000010B5FFF7D7
:10F0800037FCFF2804D00C2148430249085A10BD20
:10F09000014810BDF4270020FFFF00003EB50446E4
:10F0A00001F09EFE10E0019920464631FFF77EFFF9
:10F0B000002806D1019920462A31FFF777FF002862
:10F0C00002D0684600893EBD6A4602A9072001F0C9
:10F0D0005DFE0028E7D101483EBD0000FFFF0000B3
:10F0E0007CB514460A000A49897802D015688D4219
:10F0F00004D3002B04D01D688D4201D204207CBDB6
:10F100000193134602460094024802F09DF87CBD2C
:10F11000042100205428002070B50C46054610211B
:10F120000948FCF722F80948002D09D0002C07D027
:10F130008470620029460448FBF7FEFF002070BD82
:10F1400000218170FAE700005428002004210020EB
:10F15000F8B50F46002804D00120FFF707F801207A
:10F16000F8BD397900290AD00026254D01290BD098
:10F17000244C022920681FD003293BD125E001F04F
:10F180009BFA0121397133E000200101695C0229F9
:10F190000BD0401C80B20228F7D30220FFF700F802
:10F1A0000120FEF7E3FF1848F8BD0401601940682C
:10F1B00001F074FA2E551BE001460023012213488A
:10F1C000FFF72EF80221A18011E001F067FA0C4947
:10F1D0002368203149880A01094951184D68256082
:10F1E0004B60A3880B810221A18005498E543E719A
:10F1F0000028D9D00120FEF7B9FF0E20F8BD00008D
:10F20000A42D0020F82100201D1D00001C2200203C
:10F210007FB50646887A0D46002833D0E868002876
:10F2200030D000242BE0E868E10043180020694654
:10F230000390087B022108436946087399790907FE
:10F2400002D00821084301E0F721084010210843BB
:10F25000694608730A2060438119D8791431C007C0
:10F26000C00F1A1D0291019000921A889B1C03A9DD
:10F27000304602F0B9FE002805D1641CE4B2A87A39
:10F28000A042D0D8002004B070BD0000F8B51E4CDC
:10F290002078002836D0E068002600280CD0002511
:10F2A000607800282ED1684652DF052806D0002855
:10F2B00006D0FCF79BFC0BE00125F1E7012607E0F7
:10F2C000009800F083FD2169002901D0009888474B
:10F2D000002D13D16078002814D160886946088019
:10F2E000A06861DF052804D0002804D0FCF77EFC6C
:10F2F00004E0012502E0E168A0688847002ECFD035
:10F30000002DE5D0F8BD000004220020418805480A
:10F310000288914204D34088814201D8012070477D
:10F3200000207047DC2000201048018CC9B2012960
:10F3300017D1818C090714D1018D09060A0F03D159
:10F34000828D1206120F0ED0090F012903D1828D72
:10F350001206120F07D0032903D1808D0006000F7B
:10F3600001D000207047012070470000C00F00F05E
:10F370000021425C002A01D001207047491C10295D
:10F38000F7D300207047800701D00020704701208C
:10F390007047000010B50448017AC90702D0007810
:10F3A000FEF754F810BD000088200020FFB5244D62
:10F3B00081B0287A1F460E46084304D0039A002ED7
:10F3C00004D0002104E0052005B0F0BD1C49103137
:10F3D000019803F043FC0446014600220198FEF721
:10F3E000E7FE002F03D021460198FEF73DFC112CCB
:10F3F0000FD006DC002C0AD0082C08D00D2C05D12B
:10F4000005E0862C11D00F48201800D00324204698
:10F41000DAE73246E9780198FDF7A2FAA978039A6B
:10F420000198FDF79DFA0024F1E73246E97801984A
:10F43000FDF796FAA978039A0198FDF791FAE6E7A5
:10F4400038210020FECFFFFFFEB517460C00064610
:10F4500004D02078C00704D0012003E000217EDF23
:10F46000FEBD0220694608713046FFF707FE1749C6
:10F470000546884208D001A800902B463A4621460E
:10F48000304600F025F806E020782146C0073046D7
:10F4900003D000F081F804460BE07EDF0446002034
:10F4A0000090002C08D0002201232946304603F0AA
:10F4B00097F8002C02D006E00122F5E768460179B2
:10F4C000304603F0B3F82046FEBD0000FFFF000009
:10F4D000FFB585B000252E4601AA07210E9F08988A
:10F4E00001F0ACFA040009D1029D029818354030B1
:10F4F0000079C607F60F01D0029D343507982043E6
:10F5000012D1002D10D0002E05D128461230FFF761
:10F510003FFD002808D029462A461231059885DF8C
:10F5200004460020387023E0002C01D0052C1FD1A8
:10F5300006980078C0070DD003AB01220721089878
:10F5400001F0ACFA04000AD10721089801F0A4FBED
:10F55000040004D1069905987EDF040008D0072135
:10F56000089801F01FFB002802D0052800D00324D2
:10F57000002000903878002801D0012300E000230B
:10F58000002C07D000220899059803F029F820469E
:10F5900009B0F0BD0122F6E7FEB50F46064601F0C0
:10F5A00041FA05461848854220D001AB01220721C7
:10F5B000284601F073FA04000AD10721284601F019
:10F5C0006BFB040004D1394630467EDF040008D0CE
:10F5D0000721284601F0E6FA002802D0052800D0CD
:10F5E000032401200090002C0BD002E00324002013
:10F5F0000090002201232946304602F0F1FF204608
:10F60000FEBD0122F6E70000FFFF0000F7B5114D37
:10F610000F46164629780098FDF790F9002812D079
:10F620000098FFF72BFD04460B4884420BD0697805
:10F630000098FDF783F9002806D033463A46214664
:10F64000009801F0C3F8FEBD324639460098FEF737
:10F65000ADFAFEBD34210020FFFF0000F1B586B0F9
:10F660000698FDF75FF9002821D06846FDF790F86D
:10F6700000246E4618E060008519A8880699FDF7F9
:10F680005DF900280FD00B4FA888B978FDF756F91F
:10F690000590A888F978FDF751F90146A88801235B
:10F6A000059AFFF783FE641C0098A042E3D807B0D8
:10F6B000F0BD000038210020F0B5284C214610395B
:10F6C00048688B68227886469C46CF78667836E014
:10F6D000182353436168521CC918A378D2B29342CD
:10F6E00000D100220B78022B02D0032B27D123E07C
:10F6F00003464D68194603E0A94204D00B46C96988
:10F7000000291CD0F8E7002919D08B4208D1C06924
:10F71000002805D1124F0125BD600025AC46012708
:10F720000D68C969D961002909D00B685B190B60A4
:10F7300005E00174C06900E000210028F9D196427B
:10F74000C6D10649624610398A604860CF7070455C
:10F7500001D00120F0BD0020F0BD0000CC21002030
:10F7600000100140F8B52C4E04467068002500904A
:10F7700041E0002C02D02046E46920E0264818230E
:10F780001030017842684B43491CC9B2D21801704D
:10F790008378994200D105701178506801292CD1E5
:10F7A000017C002929D191684160D168816011698B
:10F7B000C16051698161F178002900D045604368DA
:10F7C000B268164F991A0902090AB94202D2826830
:10F7D000891806E0D11A09028268090A8A4202D908
:10F7E000511A016000E005604560012185600174E7
:10F7F000C56103F027FC002CBBD10748103001780D
:10F8000040788142BAD171680098814201D00120CC
:10F81000F8BD0020F8BD0000BC210020FFFF7F00E4
:10F82000FEB504461948002684422DD02046FFF735
:10F83000E3F8050012D00B2D14D0112D10D0144870
:10F8400028181BD00921684601702046FFF716FCD6
:10F85000014668464180848002950DE0022102E065
:10F8600001260BE00321684601702046FFF706FCE5
:10F870000146684641808480FEF710FA054832460A
:10F8800081782046FDF76CF8FEBD0000FFFF000008
:10F89000FECFFFFFEC200020FEB504460026FFF758
:10F8A000E1F80546112818D004DC002D13D00C2DEA
:10F8B00005D114E0862D25D0134828181BD0092126
:10F8C000684601702046FFF7D9FB01466846418033
:10F8D000848002950DE0012102E001260BE0072162
:10F8E0006846017084802046FFF7C8FB01466846E1
:10F8F0004180FEF7D3F90548324641782046FDF7AE
:10F900002FF8FEBD0821EBE7FECFFFFFEC20002023
:10F91000F8B5054600780C460026204210D100209C
:10F92000694608706846FCF7AFFA2878014621421C
:10F9300002D120432870012668460078FCF7C2FAFD
:10F940003046F8BD88B003F011FC6846FDF74CFE68
:10F95000FDF774FA394A0A210820FCF7BFF90100C3
:10F960000C4608D036A0FBF7F3FD642000F0A4F9A4
:10F970002046FCF73BF96946087801F003FCFEF7E6
:10F980006BFDFEF7AFF8FCF703FBFFF799F92F4883
:10F9900051210160642141600121816001730146B0
:10F9A0002B4802F093FEFBF7F3FF1C2101A8FBF7A5
:10F9B000DCFB0521C90302910F21090400200391FA
:10F9C0000190032269460A7448820875069021480E
:10F9D000079001A8FCF76AFE01000C4608D018A0A9
:10F9E000FBF7B6FD642000F067F92046FCF7FEF84F
:10F9F00019480121002209040068FCF7EDF9010013
:10FA00000C4608D00EA0FBF7A3FD642000F054F9CB
:10FA10002046FCF7EBF8FCF703F8FCF741F948DF68
:10FA200001000C46F9D006A0FBF792FD642000F01F
:10FA300043F92046FCF7DAF8EFE700000C2300203A
:10FA400065727220636F6465202564004C25002078
:10FA5000F81F002029D901000038020008B5002352
:10FA600000936B4618809970DA70009808BD70B5E5
:10FA70001446828805460E46921C2088911C411827
:10FA8000994201D8FE2A01D90C2070BD521C325473
:10FA90002088FF21401C80B2208031542088401CE7
:10FAA00080B220808119288803F041FC2188401809
:10FAB00080B22080AA88002A09D0A968002908D02D
:10FAC0008019FBF739FB2088A98840182080002086
:10FAD00070BD072070BD00001CB51B4A1278002ABB
:10FAE0000FD0FF2800DBFF20FF2900DBFF210022D1
:10FAF000009201924BB242B200211448FDF734F853
:10FB000015E0134A904200DB1046914200DB11469B
:10FB10006A46107000050B01000F0343537008097B
:10FB200090706B46032201210848FDF7F3F8002886
:10FB300009D0082807D00749884204D006498842DE
:10FB400001D0FCF753F81CBDE81F0020BC230020A7
:10FB5000FF0F00000430000001340000F8B50F462C
:10FB6000017814460546012902D16878002806D09C
:10FB70002088821C9A422DD8012902D006E0072055
:10FB8000F8BD69784118891C994223D8181A801E3B
:10FB900086B2684606802188B81C081869467DDF51
:10FBA0000028EDD12878022805D169460988B1429C
:10FBB00001D809210AE00821012805D16878B0425E
:10FBC00002D86A46108001E06846068068460088D0
:10FBD000FE2801D90C20F8BD2288401CB85420888A
:10FBE000401C80B22080395420886946401C208007
:10FBF0000988401820800020F8BD0000F8B5FF24D7
:10FC00000F46054600291FD0104EB5421CD01048A3
:10FC1000012241782846FCF7A3FE2846FEF768FE3D
:10FC20000446FF2804D1FEF77FFE0446FF280BD0D0
:10FC30000C21484307490246401845808E52001D5A
:10FC400007223946FBF778FA2046F8BDFFFF00008F
:10FC500004210020F427002070B50B4D0E46A84269
:10FC600001D1002000E0401C84B209E0214630466A
:10FC700001F020FD002801D0204670BD641CA4B214
:10FC8000FF2CF3D9284670BDFFFF0000C2084307D0
:10FC90005B0F0120895C984008407047012189076B
:10FCA00040180068002800D0012070470122002180
:10FCB00092078018016070477D21C90048430028E1
:10FCC0000FD00849084A096800BF00BF00BF00BF45
:10FCD00000BF00BF00BF00BF914200D000BF01388D
:10FCE000F2D17047A42000200024F4007D21C90037
:10FCF000484300280FD00849084A096800BF00BFE0
:10FD000000BF00BF00BF00BF00BF00BF914200D0D6
:10FD100000BF0138F2D17047A42000200024F40075
:10FD200000280FD00849094A096800BF00BF00BF7A
:10FD300000BF00BF00BF00BF00BF914200D000BFA6
:10FD40000138F2D170470000A42000200024F40004
:10FD500070B50E4C00252078002801D0852513E0D1
:10FD60000021A16061602161E1600948006801260D
:10FD7000304002D1032100F02FF803F0D9F8002819
:10FD800001D1044886612670284670BD202C0020D1
:10FD900000E100E00005004038B500206946087029
:10FDA0006846FCF771F8084C2078002801D1FFF76D
:10FDB000CFFFE068401CE0600120A070684600783A
:10FDC000FCF780F838BD0000202C002010B500287A
:10FDD00001D1FDF7FDFC10BD8207D30EFF229A4032
:10FDE0008907090E10B5994000280BDA03071B0F8D
:10FDF000083B9C080C4BA400E318DC6994430C43BB
:10FE0000DC6107E08408094BA400E41823689343ED
:10FE10000B432360C106C90E0120884004490860D5
:10FE20000449086010BD000000ED00E000E400E0BF
:10FE300080E200E000E100E0F3B581B00F460198F8
:10FE400001F068FA00281D4E019816D0FDF734FC29
:10FE500080192030007F8009032802D001280AD0B1
:10FE600004E0019800F008F9002804D0032101986B
:10FE700000F0F1F8FEBD0221F9E701F057FA002881
:10FE8000F8D00198FDF718FC04468100C81D0C4A03
:10FE9000F93089180A6980B201252A430A6100F005
:10FEA00013F9002FE6D00198FDF706FC80003058CA
:10FEB0000028DFD00348A5404560FEBD342C00205B
:10FEC0000065004000630040FEB515460E4604463E
:10FED000002701F015FA002801D008273CE0F2784D
:10FEE00029462046FDF7C4FB0546401C33D0B078B8
:10FEF00000280BD005200007A100091807200002E8
:10FF00000918086802229043086007E0002173780E
:10FF1000204600910A46019100F078F8F078002818
:10FF200010D00E48AA001018317802690C4B1A4004
:10FF30000261E206D20C8907890B0A4301690A4370
:10FF4000026109E00748327840192030017F9201B0
:10FF50001143017700E004273846FEBD00650040EC
:10FF6000FFE0FCFF342C002010B500F085F80028DD
:10FF700000D0012010BD000070B5144D2879002874
:10FF800001D0082070BD114900204039421E0B18D5
:10FF90002033401CC0B21A702028F8D30024204619
:10FFA000FDF758FB641CE4B2082CF8D303210620AB
:10FFB000FFF712FFFF207D3000F086F80120044992
:10FFC000C007486001202871002070BD742C0020FB
:10FFD0000063004002480079002800D001207047EB
:10FFE000742C002070B552000A439900049D0A4306
:10FFF0002902059E0A43310405240A432407800090
:020000040002F8
:100000000721001909024018026070BD70B5520046
:100010000A439900049D0A432902059E0A433104BC
:1000200005240A432407800007210019090240180B
:10003000026070BD052212078000821807200002AE
:100040001018026803231B049A4302600268090423
:100050000A430260704705221207800082180720B9
:1000600000021018026803231B049A43026002680E
:1000700009040A430260704702490969C140C80780
:10008000C00F70470005005001228240034800293C
:1000900001D082607047C2607047000000050050C8
:1000A00038B5084B05241B68009324026B464118A1
:1000B00005E085005D592D192D69401C20C2814243
:1000C000F7D838BDC038020002494018002101604D
:1000D0007047000000600040034940180068012894
:1000E00000D0002070470000006000400921C901D5
:1000F00041180868086070474058002800D0012067
:1001000070470322120280184068084000D0012086
:100110007047000010B5B0B00300FBF729FA0930B2
:100120000611131A1C1E425E110005200BE038A0B8
:10013000FBF70EFA6420FFF7BFFD2046FBF756FDE4
:1001400030B010BD0220FDF723F901000C46EED1BE
:10015000F6E70420F7E70320F5E70320FDF718F999
:1001600001000C4608D02AA0FBF7F2F96420FFF743
:10017000A3FD2046FBF73AFDFCF736F9E5E7002042
:10018000FDF706F901000C4608D021A0FBF7E0F9C5
:100190006420FFF791FD2046FBF728FD02F0ECFB01
:1001A000CEE708200090019001AB02AA694622A880
:1001B00001F094FC01000C4608D015A0FBF7C8F92B
:1001C0006420FFF779FD2046FBF710FD02AA22A864
:1001D000019B0099FCF7AAF9B7E7104810498088FD
:1001E0008842ADD0694601F04BFB01460528A7D0F7
:1001F000040008D006A0FBF7ABF96420FFF75CFD14
:100200002046FBF7F3FC04A80130FCF7D9F89CE783
:1002100065727220636F646520256400E81F00200A
:10022000FFFF000070B50546008888B03A2868D006
:1002300041DC464C022868D0102850D0112838D113
:100240000020FDF7A5F801000D4608D040A0FBF7FF
:100250007FF96420FFF730FD2846FBF7C7FC00203C
:10026000C04360806078002823D03C48E16801F0FA
:100270004FFC01000D4608D035A0FBF769F964205A
:10028000FFF71AFD2846FBF7B1FC3448E16801F09E
:10029000DBF8014606280AD0050008D02CA0FBF7A1
:1002A00057F96420FFF708FD2846FBF79FFC002064
:1002B000607008B070BD51282BD05528F9D1A8889E
:1002C000132176DF01000C46F3D021A0FBF740F9A3
:1002D0006420FFF7F1FC2046FBF788FCE9E70720E4
:1002E000FDF756F801000E4608D019A0FBF730F9CB
:1002F0006420FFF7E1FC3046FBF778FCA8886080BB
:10030000D7E7A888132176DFDCE70021608867DF64
:10031000D8E71022A91D04A8FAF70EFF6846017C51
:100320000029C6D0007E042803D0062801D0052865
:10033000BFD1022908D0012069460870FF20833010
:100340008880A888A8DFBDE70220F5E7E81F002025
:1003500065727220636F6465202564005C2500204F
:100360000978022906D00548052904D0062901D1BB
:100370000021017070470121FBE70000E81F002009
:1003800010B5134A00215170017A012911D00229B8
:100390000ED18189491C8181C189491C89B2C181E1
:1003A000028A914204D1002102F050F901F01AFCB6
:1003B00010BD838AC28A991AFF2901DC89B201E043
:1003C000FF210131511889B2C1829942EBD010BD91
:1003D0000022002030B50446508985B00D46022821
:1003E00016D12068002813D010460C30FCF718FDF9
:1003F000002801D0022000E0032069460870298807
:10040000684681806988C180226869462046904795
:1004100005B030BD10B5036886B0002B0FD00424A2
:100420006B461C7014889C805288DA80CA891A81B5
:100430000A8A5A811231039102686946904706B0D0
:1004400010BD0000F0B50246FF320F4604468D1D78
:100450006132C988D0890023012689B0814215D133
:100460006989204601290CD10168002909D0297B1E
:10047000002908D0012904D169460E73026803A936
:10048000904709B0F0BD69460B73F7E76089814278
:1004900011D1698920460129F3D101680029F0D0E2
:1004A000297B002905D00129EBD106216A46117369
:1004B000E4E70521FAE72046FF304130468A254B24
:1004C000B14206D1002211461846FFF7C7FA029042
:1004D00029E0C689B14206D1002211461846FFF72D
:1004E000BDFA02902FE01B4B528811339142E9D0A4
:1004F000C08B8142F0D002A801900022A07C1AE0BB
:100500000A2353431B191B8B8B4212D11148012123
:100510002B30FFF7A3FA0090694601980988018003
:100520006946498841802A4602A92046FFF752FFC2
:10053000A7E7521CD2B29042E2D802AA204601F0AC
:1005400075FE00289DD002AA39462046FFF762FFBB
:1005500097E70000222A0000F7B51C4D0E46014621
:100560006A6F002082B0032A2DD82C4678340827E1
:10057000636CBF1BBB4226D8286F10188007800F02
:100580001C2250434019FAF7D7FD686F401C68677A
:10059000002E17D0216C606C40184007800E0019A7
:1005A0000023009009E00498D9000A18009806CAB0
:1005B00006C06846FDF7E2F85B1CB342F3D3606CFB
:1005C00080196064012005B0F0BD0000E42C00201B
:1005D0007FB50646087C0D46002827D068690028AC
:1005E00024D000241FE06869E10043180020694618
:1005F0000390087B0E21084369460873D9790A20C5
:1006000060438019C9077A30C90F1A1D0191029001
:1006100000921A889B1C03A9304601F0E5FC0028D3
:1006200005D1641CE4B2287CA042DCD8002004B0D0
:1006300070BD0389CA1C9A1802814289511AC91EC9
:1006400041817047F7B50D460121890247180446DC
:100650000026083402202880BC4217D22068401CA3
:1006600014D02046FEF78CFA00280DD00A48A16865
:100670004268914200D94160608881000C19298844
:100680000C340818C01CE6E70126F5E7029800289C
:1006900000D00670FEBD0000E821002008B5002152
:1006A000009101460223024A0248FDF75FFE08BDA1
:1006B000D83802001C22002008B500200090044811
:1006C00002230168034A0448FDF750FE08BD0000FC
:1006D000F8210020D03802001C220020F8B50025A7
:1006E000354F2C462E4600953448B102006840181C
:1006F0000168B94205D1324A4168891830D00129D0
:100700000CD000218A0082580346521C36D00320A8
:100710002C4922018854641CA4B21BE000990029D2
:100720000CD0284B022221015A54274A1368254A2B
:10073000891802224B60641C0A81A4B2224900225B
:100740000860091DFFF77EFF1F488088022831D00E
:1007500008200543761CB6B2032EC5D3E8B2F8BD17
:100760001849002322018B5451180A4648600E3262
:100770000831FFF767FF02200543CCE7491CFF293A
:10078000C0D911490A68002A0CD00E4A022123015F
:10079000D1549A1850600B48118120304480641C59
:1007A000A4B204E002200B608880012000900120A8
:1007B0000543CFE70420CCE7DEC0ADDE1C220020DD
:1007C00002FEE10EA42D0020F821002070B5194D85
:1007D0000E4604462C3523CD86B00295009001913B
:1007E0006846448082808371134D2046A978FCF7C7
:1007F000A5F8002803D03046FEF72AFC0FE00721B9
:10080000304600F0CFF9002809D0052807D1092289
:1008100069460A73CC81049003A8FDF767FA0022A9
:1008200029782046FCF79CF86846FDF75FFA06B089
:1008300070BD00007838020034210020F0B585B08A
:100840000746FCF76FF8002814D06846FBF7A0FFB6
:1008500000246D460BE060004619B0883946FCF76D
:100860006DF8002802D0B08802F098FA641C009855
:10087000A042F0D805B0F0BD70B5054D0646002485
:10088000A000295830468847641C052CF8D370BD59
:10089000643802003EB50F4D002414206043401917
:1008A00002F052FE641C082CF7D30821502001915D
:1008B0000A490124C2000290074B0094881800F0F6
:1008C00070FD002801D003203EBD03484470002085
:1008D0003EBD0000F42A00201C21002064280020D6
:1008E00010B500F04BFA10BD10B500F04BFA10BD7A
:1008F000F0B5002585B00095019502950395044655
:10090000418868464180217901712E4621796088AD
:1009100002F0F4FD22780421404F1300FAF728FE7C
:100920000A0606361C1C383E43484B4D00280DD0A5
:10093000417CC9070AD002F019FE6846067020788B
:10094000012800D00020694608722AE0012069468B
:100950000870A068029024E000280ED08268A36886
:100960009A420AD1427CD30707D07B6852085B1CAD
:1009700052000A437B6042741FE0022069460870FF
:10098000E06803900DE0FFF777FF16E0032006E034
:1009900068460170E06802906846F4E70520694601
:1009A00008700846EFE7062069460870E068D1E75E
:1009B00001250720F3E7E06802907868002824D03A
:1009C000174E0024142027464743B819417C4A0794
:1009D00003D48907C90F29421CD08178F05B00F04D
:1009E000F7F8002816D014214C43325B69464A8040
:1009F000B9198A7869460A71862808D009216A4699
:100A0000117002906846FFF737FF05B0F0BD08206F
:100A10000870F7E7641C082CD4D3F6E71C210020EB
:100A2000F42A002010B500F073FA10BD08B5138841
:100A30009B0000936B4600F0DBF908BD10B5002366
:100A400000F0D6F910BD38B50546002420460AE06E
:100A50008178284600F0A6F8002802D0052800D0AA
:100A600003240098401C00906946284602F058FD77
:100A70000028EDD1002C07D1284600F051FA0028BB
:100A800002D0072802D00324204638BD0724FBE704
:100A900010B51346002200F0E3F910BDFFB581B098
:100AA000049815460E46002804D0072E05D0082EBF
:100AB00019D102E00E2005B0F0BD002D13D0082D95
:100AC00011D8019800F037FA00280CD000200090CF
