:020000040001F9
:10B00000D0330020D5B00100EFB00100F1B0010055
:10B010000000000000000000000000000000000030
:10B02000000000000000000000000000F3B001007C
:10B030000000000000000000F5B00100F7B00100C2
:10B04000E1B30100F9B0010039B50100F9B0010028
:10B05000F9B001000000000025B20100F9B00100C4
:10B06000F9B00100F9B00100F9B00100F9B0010038
:10B07000F9B00100F9B00100F9B00100F9B0010028
:10B08000F9B0010035B40100F9B00100F9B00100D8
:10B0900055B40100F9B001005DB40100F9B0010040
:10B0A000F9B00100F9B0010000000000000000004C
:10B0B0000000000000000000000000000000000090
:10B0C0000348854600F070F80048004795F20100FB
:10B0D000D03300200321094802680A43026008486F
:10B0E00002680A4302600748804707480047FEE7B6
:10B0F000FEE7FEE7FEE7FEE7FEE70000240500406E
:10B100005405004099B40100C1B0010030B50B46B0
:10B11000014600202022012409E00D46D5409D4231
:10B1200005D31D469540491B2546954040191546B7
:10B13000521E002DF1DC30BD03460B439B0703D0AC
:10B1400009E008C9121F08C0042AFAD203E00B78EC
:10B150000370401C491C521EF9D27047D2B201E064
:10B160000270401C491EFBD270470022F6E710B562
:10B1700013460A4604461946FFF7F0FF204610BD65
:10B18000421C0178401C0029FBD1801A704730B561
:10B1900004460020034600E05B1C934203D2E05CBF
:10B1A000CD5C401BF8D030BD064C0125064E05E0B5
:10B1B000E36807CC2B430C3C98471034B442F7D3D8
:10B1C000FFF782FF042B0200242B020070B58C18BD
:10B1D0000578401C6B075B0F01D10378401C2A11D6
:10B1E00006D10278401C03E006780E70401C491C12
:10B1F0005B1EF9D12B0705D40023521E0DD40B7012
:10B20000491CFAE70378401CCB1A921C03E01D7816
:10B210000D70491C5B1C521EF9D5A142D8D30020E9
:10B2200070BD0000F0B50024FF268BB0013601256B
:10B2300027460694304604F08BFB002807D054487C
:10B240004068284203D0304604F07AFB2C43361D78
:10B250006D007F1CB6B2042FECD3FF257D35284648
:10B2600004F076FB002809D0284604F069FB680743
:10B27000044306AA0121002004F04EFB454D20079F
:10B2800014D00127002627420CD04348B2001118E1
:10B2900008690969C004C00E8903AA58890F002AE9
:10B2A00000D090477F00761C042EECD3002C6DDA82
:10B2B00000200890401E63E0281940300778B90646
:10B2C000890E009100214156491C49D009A90098D6
:10B2D00004F01CF9002843D0B8090190009802F04E
:10B2E0009FF880002F580198002F02D0032802D029
:10B2F0000DE0032834D1009808ABC20841079446FA
:10B30000985C490F01228A40104362469854009885
:10B31000052109078000401807210902401800682C
:10B3200006A98003800F0290009804F0EFF800282F
:10B33000029802D0022802D012E0032810D101980E
:10B34000032808D1029802281ED00221009804F098
:10B35000C6FA761CF6B2002F02D001990098B847C1
:10B36000641C042CA8D3002E10D06A4601210020B2
:10B3700004F0D2FA06990098884207D006900898FF
:10B3800000263446099097E70321DFE70BB0F0BDB4
:10B3900000630040C8290020006500408307FF22A9
:10B3A000DB0E9A408907090E994000280BDA000746
:10B3B000000F0838830808489B001818C369934396
:10B3C0000B43C3617047830804489B001B1818682F
:10B3D000904308431860704700ED00E000E400E08F
:10B3E000F8B5FF20013004F099F8002401250E4E35
:10B3F0000E4F002807D00E4804600120B0607D7019
:10B40000002002F09BF8FF20053004F087F80028A8
:10B4100008D00748001D04600220B060BD70012004
:10B4200002F08CF8F8BD000000030040B4290020B1
:10B430000001004010B5064900200860486088609F
:10B44000C860034940390860486006F04FFF10BDEE
:10B450004011014010B506F0BBFE10BD10B50A4802
:10B46000406800280DD0804701460C0008D007A096
:10B4700000F06CF8642004F073F8204600F046FBFE
:10B4800010BD03F0ABFB10BD70210020657272206F
:10B49000636F64652025640010B503F0EDFB0028A0
:10B4A00005D01F491D484860C8131E4988611E48C1
:10B4B000018CC9B201290BD1828C120708D1028DEF
:10B4C0001206120F042A03D1828D1206120F0AD01F
:10B4D000012921D1818C09071ED1018D0906090F8F
:10B4E0000A2904D007E0114A01219160F5E7828D15
:10B4F0001206120F05D00D290ED1808D0006000F07
:10B500000AD10B480168012904D00A490160016889
:10B510000129FCD1C021416110BD0000DFFF07C03F
:10B5200000050040006C0040C00F00F00006004025
:10B5300000EC06407593000010B50249024806F081
:10B540006EFF10BD102A0020002000400FB410B57F
:10B5500003A9044B044A029800F032F810BC08BC5E
:10B5600004B0184791DE01008821002030B47446F1
:10B57000641E2578641CAB4200D21D46635D5B00EF
:10B58000E31830BC184702E008C8121F08C1002A9F
:10B59000FAD170477047002001E001C1121F002A54
:10B5A000FBD17047202804DA012181400348014281
:10B5B00001D001207047002070470000FC06FFBC4E
:10B5C000FFB58DB00446002506E025280AD0109A64
:10B5D0000F999047641C6D1C20780028F5D12846EF
:10B5E00011B0F0BD00270121484A009700E0074351
:10B5F000641C23780846203B98401042F7D12078FD
:10B600002E2817D1042007436078641C2A280CD107
:10B610000E98641C02C800910E900BE000990A225B
:10B62000514330394018641C00902078014630396D
:10B630000929F3D920780028D1D0642808D06928B6
:10B6400006D075281ED0109A0F9990476D1C5BE0AC
:10B650000A200E99019001C90E91002802DA404299
:10B660002D2102E0390504D52B216A4611720121F2
:10B6700003E0F90704D02021F7E70BAE0B910DE0B2
:10B680000021FAE70A200E99019001C90E91F7E70F
:10B690000199FFF73BFD3031761E31700028F7D15C
:10B6A00003A8801B20300190780701D5009801E0A5
:10B6B000012000900199884201DD401A00E000203D
:10B6C0000027009006E002A8109AC05D0F999047ED
:10B6D0006D1C7F1C0B988742F5DB04E0109A30202C
:10B6E0000F9990476D1C0099481E00900029F5DCC9
:10B6F00005E03078109A761C0F9990476D1C0199DF
:10B70000481E01900029F4DC641C65E7092801004B
:10B7100010B500280CD000290AD002780B789A4284
:10B7200006D10622401C491CFFF731FD002801D03C
:10B73000002010BD012010BDF7B584B006460025DD
:10B740001788158020300290407B1446002806D0D0
:10B750003A462146059801F035F8050009D1B07840
:10B76000002823D0059886462088001DB84202D9BB
:10B770000C2007B0F0BD684679DF0028F9D1218898
:10B7800003207246505420881921401C80B220802A
:10B79000115420887146401C80B2208041186846B0
:10B7A000008806F0D0FE218840182080F07800281C
:10B7B00017D0218803230A46F356C91C0598B942BD
:10B7C000D6D80221815421880122491C89B22180C6
:10B7D00042542188491C89B2218043542088401C4E
:10B7E00020807068002817D021880023C3560A469D
:10B7F000C91C0598B942BBD80221815421880A226C
:10B80000491C89B2218042542188491C89B2218077
:10B8100043542088401C2080308900280AD000949E
:10B8200030460197062202210830059B06F0EAFE09
:10B8300005009ED1308A00280AD000943046019736
:10B84000072203211030059B06F0DCFE050090D195
:10B85000308B00280AD0009430460197152214211D
:10B860001830059B06F0CEFE050082D1306A002814
:10B8700006D03B462246059901F0C8FE0500D8D106
:10B88000706A002806D03B462246059903F072FDF7
:10B890000500CED10298007B002807D03B46224607
:10B8A0003046059906F046F80500C2D130780028E8
:10B8B00007D03B4622463046059903F08FFD050030
:10B8C000B7D1284655E70000174A0021535C002BEA
:10B8D00001D0012203E0491C0629F7D300221349B5
:10B8E000012806D002280BD0032810D0042818D134
:10B8F00012E04878002803D0002A01D001207047C8
:10B900008878002803D0002A01D002207047C87828
:10B91000002801D0032070470879002801D00420B6
:10B9200070470020704700003D2000206C2300205D
:10B9300010B501220221002001F0C2FB002801D035
:10B94000072824D107220221012001F0B9FB002899
:10B9500001D007281BD100210A22084601F0B0FBC4
:10B96000002801D0072812D100221146022001F040
:10B97000A7FB002801D0072809D100221146032087
:10B9800001F09EFB002801D0072800D1002010BD47
:10B9900010B598B03C2101A8FFF7E7FB02216846EB
:10B9A0000171012484710621C17103218182114832
:10B9B0000690202110A8FFF7D8FB10A8C4702820FB
:10B9C0001490B42015900020014600900A4B10AA54
:10B9D00001A800F0C3FA01460C0008D00748FFF7A1
:10B9E000B5FD642003F0A2FD204600F08FF818B0EA
:10B9F00010BD0000FC1F002081F901009809020021
:10BA0000F0B50F468DB0002116466D460F24621A20
:10BA1000825C6A54491C1029F9D328460D21103044
:10BA2000FFF7A3FB0020221A395C5219401C117445
:10BA30000328F8D368464DDF0020211A4919203128
:10BA400009783154401C0328F7D30DB0F0BD10B570
:10BA5000022001F0DFF910BD70B50024064D06E0AC
:10BA60006968E000085C012103F020FE641C28786E
:10BA70008442F5D3002070BD14210020F8B515468E
:10BA80000C460646052A01D20720F8BD03F0E6FE63
:10BA9000002803D103F0B4FE0028F6D1104900209D
:10BAA0004E600C70C8608D6008610E4D0DE0E000C6
:10BAB00069688019009181786A46517000780A4A55
:10BAC000694603F03FFE0028DFD12046641EE4B241
:10BAD0000028ECD1054A0021024800F023F8F8BD07
:10BAE00014210020E82A0200CDE50100F1D7010071
:10BAF000BFF34F8F04490348C860BFF34F8F00BFA7
:10BB0000FDE700000400FA0500ED00E00EB500219D
:10BB1000029000916A4601910148FFF7E9FF0EBDCE
:10BB200001400000094B5B68002B07D0002A07D0BA
:10BB3000002805D00068037C002B03D00820704744
:10BB4000072070474174426100207047382100206F
:10BB5000FFB507469007002581B01E461446002811
:10BB600025D1002C23D005F0E1FB3046114EF060CA
:10BB700030461030057045700299817044607560E0
:10BB8000357001240C4875702405046003211420CD
:10BB9000FFF704FC09480460094CA7600321112049
:10BBA000FFF7FCFB6068B060002005B0F0BD072027
:10BBB000FBE700002821002080E200E000E100E037
:10BBC00000150140FEB51F4B5B68002B30D00028EC
:10BBD0002ED0052901D20720FEBD4369002B27D0B6
:10BBE000437C012B26D0002702910446002569469C
:10BBF00016460D70684600F03DF801A806F0ECFC12
:10BC0000002819D0012101700F4944604968816002
:10BC1000029907614661C16068460A490079487027
:10BC20006846007800F044F806F014FB2846FEBD94
:10BC30000820FEBD0F46D7E768460425007800F0CF
:10BC400037F8F3E7382100200015014010B5084906
:10BC5000496800290AD0002808D04169002905D088
:10BC600000210174022106F01DFB10BD082010BD4B
:10BC70003821002030B5EFF3108172B6094A5468BC
:10BC80000123002C04D00370002900D162B630BD1E
:10BC90005360054B1D68054C254015601C60002253
:10BCA0000270F1E74C21002080E100E0FC06FFBCBF
:10BCB00008494A68002A0CD000280AD1EFF3108006
:10BCC00072B60A68044B1A6000224A60002800D14C
:10BCD00062B670474C21002000E100E0F0B5044658
:10BCE0008BB0008800F00AFD0590208802F0E4FE89
:10BCF0000646A0680090657A684605741E4F208845
:10BD00000022397800F04AFD0598002831D060798A
:10BD1000400710D50721304604F012FA002813D04E
:10BD2000082269460A7422884A828E82069004A8F4
:10BD300001F04EFE08E02088B97800F01DFD0028D3
:10BD400002D0304602F0A2FE03216846017121882C
:10BD5000C18060794007C10F68460172A079400731
:10BD6000C10F6846417201788172C57201A801F065
:10BD70002FFE0BB0F0BD0000B0200020F0B505464E
:10BD8000007D002493B00E4600280DD0012001460E
:10BD90006846103103940173717B4173817BF920F4
:10BDA00001406846891C81731C2104A8FFF7DDF956
:10BDB0006946087C02210843694608742A7DEF2100
:10BDC000002A02D01022104300E008406A46107496
:10BDD000059407940894287D002800D003A80990B2
:10BDE00001270A9410469771304A82800094B27BF2
:10BDF0000270F27B42708078F9221040F722801C9A
:10BE00001040EF2108404108490068468170317BAD
:10BE1000017214210BA8FFF7A8F901A80B9068463E
:10BE20000C908786C486078702A80F90A888AB1D50
:10BE30000BAA04A9A2DF002835D1B068002830D0B1
:10BE4000684687711A4981800094317C0170002016
:10BE50000146684641708078F9210840F721801C2E
:10BE60000840EF210840410849006846817011A848
:10BE7000B16800F0AEFD064614210BA8FFF775F976
:10BE800001A80B9068460C908686C486068711A888
:10BE90000F902A46E8880E320BA9A3DF002802D1B2
:10BEA00000E0EC81002013B0F0BD0000192A000072
:10BEB0000829000010B50B490B4805F093FCC1B2EE
:10BEC0000848743800F0DEF9002809D0082807D0A7
:10BED0000649884204D00649884201D0FFF716FE81
:10BEE00010BD0000F0220020F41F002004300000EC
:10BEF00001340000F0B50C4693B01F216A46118052
:10BF0000072600279180002809D0C17849070DD560
:10BF100002A9FFF711FC002809D102AD01E00025BC
:10BF20001780002C0ED0E078002802D0304613B0E5
:10BF3000F0BD01AA0AA92046FFF7FEFB0028F6D1B2
:10BF40000AAA02E068460022878068468088C3B259
:10BF500068460088C1B2284672DFE8E7FFB581B0C5
:10BF60001E460A9F1346040047D0002B45D0504D73
:10BF7000012028700020E870202219464D48FFF764
:10BF8000DBF800206F61C0432E612881284607211D
:10BF90001830FFF7EAF847483C212030FFF7E5F872
:10BFA0004448217820300170A1788170E178C17017
:10BFB000617841703F4A656923695563114613638F
:10BFC0002031E368A268CB608A603A49E369A269DC
:10BFD000CB638A63616A00291AD001463C3102466C
:10BFE000483241628A60636A1B880B80616A436AD7
:10BFF000898899800021436A07E00E2005B0F0BDD2
:10C00000656AAD686D5C5554491C9D888D42F7D8B2
:10C01000A16A00291CD0274A943211460C398A6043
:10C020008162A36A9B888B80A16A836A09881980D0
:10C030000021836A04E0A56AAD686D5C5554491C13
:10C040009D888D42F7D82C210A5D1A4940310A7328
:10C05000216A002909D016490A310162226A5288F0
:10C060004A80216A026A098811806168002900D02B
:10C070004160104A0E490020B3322031C3001B1A20
:10C0800085009B180C68401C63510828F6DB094AA0
:10C090000020EB32030185009B188C68401C635123
:10C0A0000828F7DB034802992030FFF723FFA5E7B4
:10C0B000242000206C23002010B50188134C102987
:10C0C00015D0112919D01B2910D1007A00280DD1C3
:10C0D000E0780521401CFFF719F8084600F04EF8FB
:10C0E000002803D06169002900D0884710BD817DF8
:10C0F0000129FBD18088208110BD002161718088D9
:10C1000021898842F8D10120E8E70000242000209E
:10C1100010B5022801D003280ED1084C6078002801
:10C120000AD000206070E07800F028F8002803D0E2
:10C130006169002900D0884710BD0000242000203C
:10C1400010B574DF0B4C012060710B490620C870DC
:10C1500000210948FFF7CEFE002809D1E07800F061
:10C160000DF8002803D06169002900D0884700201D
:10C1700010BD0000242000208C230020F1B53F4C8E
:10C1800088B0207800280AD00898E07006A801F04E
:10C1900023FF06980125002804D065706AE0082076
:10C1A00009B0F0BD3548002707211830FEF7DDFF44
:10C1B000334E7078002802D0E078012807D0B0789C
:10C1C00000280CD0E078012801D0022807D121698D
:10C1D000002903D025710820884700E027710898BE
:10C1E000FFF772FBE0702169002909D0032801D014
:10C1F000042805D13078002802D06079002811D0B9
:10C20000A77118216846FEF7B0FF684607700772ED
:10C21000E1781A480B001830FFF7A8F9052E080F2F
:10C22000191D2000A57107208847EAE7A570019035
:10C23000684605704782078213E00221A1700190D1
:10C2400068460570B18941823189018209E06846FA
:10C2500005F060FC02E0684605F088FCE078002804
:10C2600003D0684673DF00289AD12169002901D0E4
:10C27000A0788847002093E7A770F6E724200020E5
:10C280006C23002073B586B004002FD06A46217C51
:10C29000127F0020914227D0002501266846009594
:10C2A0000680458007A80190E188608A6A46A4DF7D
:10C2B000002819D16846007F2074608A0D498842A1
:10C2C00016D0207D002813D002950395049505957E
:10C2D000E1886846018186724188818104900198D5
:10C2E0000590608A02A9A6DF08B070BD0E20FBE7AA
:10C2F0000820F9E7FFFF000038B50D4604001AD00A
:10C30000002D18D0286820600020C0436082287962
:10C310002075FF2020740121684681700749018043
:10C32000221D69460120A0DF002803D129462046AE
:10C33000FFF724FD38BD0E2038BD00000F180000A7
:10C3400038B5002824D0002922D00A88102A1AD013
:10C35000112A1AD0502A1BD10446007D002817D07C
:10C36000C8886289891D904212D1488902280FD15C
:10C37000206800280CD008460C3000F023FB002871
:10C3800007D0002006E0898801E00021C9434182EE
:10C3900038BD01206946087022682046904738BDA4
:10C3A00038B50446086820600020C043E082488910
:10C3B0000D46208301216846817009490180221DB4
:10C3C00069460120A0DF002809D12946204600F057
:10C3D000E9FB002803D12946204600F09BFB38BD2D
:10C3E00010180000FEB500250E4602226946009591
:10C3F0000A804D8002A901914189C08A6A46A5DF61
:10C400000400064804D0844206D135700020FEBDE9
:10C4100002A800F0D0FA30702046FEBD01340000C2
:10C4200030B50446C08A134A8BB090421FD006AA8A
:10C43000204600F00FFC6946054608800020019068
:10C44000029003900490E2888A8002228A71088117
:10C4500006A803910490E08A01A9A6DF002804D170
:10C4600069460988A94200D00C200BB030BD0820D5
:10C47000FBE70000FFFF000038B50A88102A10D043
:10C48000112A10D0502A12D0532A09D1C988C28843
:10C49000914205D102216A461170026869469047AF
:10C4A00038BD898801E00021C943C18238BDCA88EE
:10C4B0004389891D9A42F9D10446084649890229CF
:10C4C000F4D121680029F1D00C3000F074FA002872
:10C4D00001D0002000E00120694608702046226853
:10C4E000DDE7000070B5054601461C220E48FEF748
:10C4F00023FE0E4C002626702968002906D008224B
:10C50000201DFEF719FE201D7ADF02E00748001DFE
:10C510007BDF002807D1401E60806670044A00213E
:10C520000448FFF7FFFA70BD382500205420002092
:10C530005D250200602A0200F8B5214C0146028800
:10C5400000261E48E589102A13D01E4F112A1FD03D
:10C55000122A2BD0502A1AD1881DC988A94216D177
:10C560004189022913D10C3000F02CFA00280CD19B
:10C5700012E08A8804464280104808220C301831A4
:10C58000FEF7DAFD6670002D01D101F087F8F8BDE5
:10C590000021C943418046703868FFF757FB0028E7
:10C5A000F5D0A1690029F2D08847F8BD03480822D8
:10C5B0000C300831FEF7C0FDE7E7000054200020F2
:10C5C00038250020602A020010B503490A7D091DA4
:10C5D00004F081FF10BD000054250020034B10B56E
:10C5E0000246D97D181D04F063FF10BD54250020BC
:10C5F000034B10B50246197E181D04F059FF10BDFB
:10C6000054250020F0B5044602883A488DB0014612
:10C6100015310191102A09D0112A50D01A2A4AD175
:10C62000217A090901294ED901234DE0027D417D7E
:10C6300005468A43011D07A804F04DFF142207A9EF
:10C6400002A8FEF779FD00262A48374614300890E4
:10C650000AE0710002A8081883881D220097281D8F
:10C66000089904F0E5FE761C0298B042F1D8287DC6
:10C67000A688C043C0B204F0FFFE1F49884217D00D
:10C6800040004019868001233246281D019904F09C
:10C6900045FF01233246281D089904F03FFFA07D85
:10C6A00002280AD000231349A2881631281D1DE054
:10C6B0000420FFF72BFA0DB0F0BD0123F3E70023B0
:10C6C000A288001D12E000230A490546A2881731FE
:10C6D000001D04F023FF207A0009022801D901235C
:10C6E00000E000230349A2881831281D04F016FF3A
:10C6F000E1E7000054250020FFFF000070B50B4E5D
:10C7000005460024317D2A46301D04F0D1FE002864
:10C7100009D0B17D2A46301D04F0CAFE002801D0A0
:10C72000022400E00124204670BD000054250020B2
:10C7300010B50024204605F043FF002805D0641CF6
:10C74000E4B2182CF6D3182010BD04480122016869
:10C75000A24011430160204610BD00005425002076
:10C7600010B5044605F02CFF002802D0014800193E
:10C77000407E10BD5425002070B505460C46084685
:10C7800005F01EFF002806D003482A460119497EFD
:10C79000001D04F08DFE70BD5425002070B50646C6
:10C7A00015460C46084605F00BFF002807D0044844
:10C7B0002B4601193246001D193104F0AFFE70BD41
:10C7C000542500207CB5054608880C460930904267
:10C7D00001D90C207CBD684671DF0028FAD1218880
:10C7E0000820685420881B21401C80B220802954D6
:10C7F000208800A9401C80B2208040190622013107
:10C80000FEF79AFC20886946801D80B22080097856
:10C81000002900D0012129542088401C20800020BC
:10C820007CBD00007FB504460121684681714A49FC
:10C8300081804A4A01A90120A0DF00287ED12288F8
:10C8400025463C35002A09D044482B46801C0090E0
:10C850004348616800F0ECFD00287BD12289002A62
:10C860000AD03E482B460A3000903D48E168401F00
:10C8700000F0DEFD00286DD1228A002A0AD0374858
:10C880002B461230009036486169001F00F0D0FD41
:10C8900000285FD1228B002A0AD030482B461A305C
:10C8A00000902F48E169801E00F0C2FD002851D1A0
:10C8B000228C002A0AD029482B4622300090284892
:10C8C000616AC01E00F0B4FD002843D1228D002A09
:10C8D0000AD022482B462A3000902148E16A401EA7
:10C8E00000F0A6FD002835D1216B00290ED002A84A
:10C8F00005F046FC19482B463230009018480822B3
:10C9000002A9801F00F094FD002823D1606B00284D
:10C910000BD012492B463A31009102790168104838
:10C92000401C00F085FD002814D1A16B002910D017
:10C9300002A804F0DDFA0948423000E00AE0009065
:10C9400007482B46072202A9273000F071FD002876
:10C9500000D1002004B070BD0A180000CA200020D9
:10C96000292A000010B5044601460D48FFF784FD52
:10C970000B4821461838FFF7E3FC2046FFF7DCFDA3
:10C980002046FFF73FFE204604F00EF9204600F057
:10C99000DDFA204603F012F82046FFF78DFB10BDAC
:10C9A0009422002070B504460D460846FEF7E8FBC9
:10C9B0002080656070BD41780278080210438007CE
:10C9C000C00F70474178027808021043C007C00FBB
:10C9D00070470A7802704978417002207047000061
:10C9E00010B52B4886B0406805900023482229499D
:10C9F00005A805F081FB01460C0008D026A0FEF733
:10CA0000A5FD642002F092FD2046FFF77FF86A46FC
:10CA10000121002005F058FB01460C0008D01EA0A3
:10CA2000FEF794FD642002F081FD2046FFF76EF8CA
:10CA3000684605F03FFB01460C0008D016A0FEF743
:10CA400085FD642002F072FD2046FFF75FF815486F
:10CA500005F026FB01460C0008D00FA0FEF776FD7E
:10CA6000642002F063FD2046FFF750F80E4805F001
:10CA700075FB01460C0008D007A0FEF767FD642097
:10CA800002F054FD2046FFF741F806B010BD00004B
:10CA9000242A02003422002065727220636F6465CC
:10CAA0002025640065C901007121020010B58AB01B
:10CAB00069461348FFF796FC01460C0008D011A008
:10CAC000FEF744FD642002F031FD2046FFF71EF81A
:10CAD0000F4C68460078217888430CD001A800F0FC
:10CAE00031F901A90648FFF79BFC002805D008286A
:10CAF00001D0FFF70BF80AB010BD01202070FAE753
:10CB00009422002065727220636F646520256400A2
:10CB1000E81F002070B590B00D4606461C216846FF
:10CB2000FEF723FB68460178022001436846017046
:10CB300000240194039404940594012108A8069408
:10CB400081701749684601840794827FF92002406A
:10CB50006846921C8277E9790177297A4177E72044
:10CB600002405108490068468177142109A8FEF760
:10CB7000FCFA68890EA905F0EBFC014608A80990AB
:10CB800007A80A9068468185C48501860EA80D9085
:10CB90003346B0880E3309AA6946A2DF10B070BDD3
:10CBA000492A0000F0B5002406460D46601C010726
:10CBB0009DB0090F08A810310D940175817DF927EA
:10CBC0003940891C8175297941751C2106A8FEF719
:10CBD000CCFA6846017E20200143684601760DA804
:10CBE00007940B9009940A9401220C9408A8827669
:10CBF0001749684601870594817D3940891C8175F4
:10CC00006B790375AB794375E720014011436846A2
:10CC100081751421FEF7A9FA24210FA8FEF7A5FAC1
:10CC20000EA8009005A8019018AA0FA9304600F0A0
:10CC300011F801466846018114214481818118A8B8
:10CC40000490B088B31D6A4606A9A2DF1DB0F0BDEE
:10CC5000352A0000F8B50878002716460C4600284B
:10CC600000D00127A079218900070905000C090DD2
:10CC70000843711C05F06CFC401CC5B2A07AA18968
:10CC800000070905000C090D0843711905F060FC47
:10CC90004019C5B2A07B218A00070905000C090DC7
:10CCA0000843711905F054FC4019C5B2607800289A
:10CCB00020D00220711907430091608A05F048FCDA
:10CCC0000099227D0A54401C0099C0B2627D0A542A
:10CCD000401C0099C0B2A27D0A54401C0099C0B209
:10CCE000E27D0A54401C0099C0B2227E0A54401CC6
:10CCF0004019C5B2A07800280DD004200743A07EBB
:10CD0000A18B00070905000C090D0843711905F0F6
:10CD10001FFC4019C5B2E078002805D00820074361
:10CD2000A07F70556D1CEDB22079002807D010202F
:10CD300007437119208C05F00BFC4019C5B2377000
:10CD40002846F8BDF8B50025254E044605707078D4
:10CD500000282ED002282CD00021617000282AD073
:10CD6000012828D00021A1701E4FE5700101257116
:10CD7000C81942882281795CA171C188A181017999
:10CD8000A17241892182007AA073154920460822A8
:10CD9000091D1230FEF7D0F970780101C919CA894E
:10CDA000A283401C097BC0B2A1767070042804D015
:10CDB00004E00121D1E70121D5E775700848001D85
:10CDC00081791B31C9B281713B2908D93C39817104
:10CDD0004179491CC9B241713B2900D94571F8BD5F
:10CDE000E81F0020B02200200149085C70470000C5
:10CDF000302A02000549095C05480069C840C0079F
:10CE0000C00F00D00120012148407047302A0200A5
:10CE10000005005005490B5C05494A68012098400F
:10CE2000034693438B601040C86070472C2A020071
:10CE30000005005010B50349085C012102F060FDB7
:10CE400010BD00002C2A020010B50349085C002127
:10CE500002F056FD10BD00002C2A02000549095CB5
:10CE600005484068C840C007C00F00D0012001211C
:10CE7000484070472C2A0200000500507CB5002471
:10CE8000074E2546305D012200950023114601958D
:10CE900002F0ECFC641C042CF4D300F003F87CBD1D
:10CEA0002C2A020010B500242046FFF7C3FF641CA3
:10CEB000042CF9D310BD10B500242046FFF7C4FFA1
:10CEC000641C042CF9D310BD0246002010B5C043E9
:10CED000054B00215C5C944201D1084610BD491C01
:10CEE0000429F7D310BD0000302A020070B5104E9F
:10CEF00000250C46306000290DD0012000F0A6F876
:10CF0000002801D0022005E0002000F09FF8002852
:10CF100000D00B202070217806A0FEF717FB706868
:10CF2000002802D1FEF704FD0546284670BD00002A
:10CF30001C2000200D0A705F737461727475705F3D
:10CF40006273705F657674202564000010B5104C24
:10CF50000188606810290DD011290AD1401E606037
:10CF600007D1FEF7E5FC002803D02168002900D096
:10CF7000884710BD002807D100F0C4FB002803D06B
:10CF80002168002900D088476068401C606010BD9F
:10CF90001C20002010B5002000F0D0F9002801D09E
:10CFA000062807D1012000F0C9F9002801D0062881
:10CFB00000D1002010BD0000F3B581B00D460198EE
:10CFC000FFF782FF0446042813D21D481D4F1E4E52
:10CFD000002D27D0012D0DD0022D0AD16000201880
:10CFE000C0194578002D04D0F168002901D02846E9
:10CFF0008847FEBD610061187D5CCF1979780029F2
:10D000000BD071680A2251430F4A8068921CFEF7C8
:10D01000D9FD002801D10198B0700B48B9781030C3
:10D020000155DFE78068FEF711FE074861006118CF
:10D030001030C919005D8D78A842D3D0FEBD000024
:10D04000342A0200402300200820002010B5FFF7FA
:10D05000D1FE10BD10B502461448042A40880ED0F7
:10D060001349072A1AD00A2A06D00E2A03D1884269
:10D0700001D0FFF71BFD10BD04F0A2FD10BD132170
:10D0800076DF0FE00400F9D00AA0FEF75FFA642013
:10D0900002F04CFA2046FEF739FD10BD8842FCD163
:10D0A000FFF74EF801460828ECD110BDE81F00201C
:10D0B000FFFF000065727220636F646520256400C5
:10D0C00070B50023042811D2440004190D4D012A23
:10D0D00002D101290DD0002246008019094E801985
:10D0E00000290CD0012906D0022906D007231846B2
:10D0F00070BD0E30C2B22A55F9E74270F7E7827070
:10D10000F5E700004023002010B5054A0146127AD9
:10D110000020D20702D0084600F050F810BD0000F1
:10D1200008200020F8B506461F4800248660C2602B
:10D1300041600F46B00720D5002501221146284640
:10D14000FFF7BEFF6D1C0446042D02D2002CF4D064
:10D1500013E0002C11D17A0804211448FEF78EFC4C
:10D1600004000AD1FEF778FC040006D10F48104AEB
:10D170000021001FFEF7D6FC0446F00701D0FFF7A0
:10D180007DFE002C0ED109480A4A00210C38FEF71A
:10D19000C9FC040006D10548074A01210838FEF7FA
:10D1A000C1FC04462046F8BD08200020402A0200A9
:10D1B0004DD30100E5EC01004FBA0100F8B55D4C1C
:10D1C000054660780026002803D000206070FFF735
:10D1D00069FE0120584F2B00FEF7C8F918970D0D76
:10D1E0002E3D4A5F64686F686FA977777777779786
:10D1F0009A9DA0A9A9950020FFF730FE00280AD02B
:10D200000020FFF717FE022D02D1E120C0000BE045
:10D210007D20400108E00020FFF716FE022D01D11D
:10D22000C82001E0FF20913025706421FDF76EFFDA
:10D230006168414300222BE00020FFF70FFE002829
:10D2400005D00020FFF7F6FD19204001ECE7002093
:10D25000FFF7FAFDE4E70020FFF700FE002803D007
:10D260000020FFF7E7FDD3E70020FFF7EDFDD9E74A
:10D270000020FFF7F3FD002803D00020FFF7DAFDC0
:10D2800002E00020FFF7E0FD257060684100002209
:10D290003868FEF797FC064635E00020FFF7BAFD38
:10D2A000257007E000203FE025702CE06070012031
:10D2B000FFF7B0FD00226168EAE760700120FFF728
:10D2C000A9FD606881004118E1E77868FEF7BEFCBF
:10D2D00006461120401B01D0002E03D00220FFF78C
:10D2E000A9FD10E001280BD9C82148436421FDF7AE
:10D2F0000DFF6168002241437868FEF763FC064633
:10D300000220FFF7A1FD3046F8BDFFF7CBFDCBE7CC
:10D31000FFF7C8FDC6E7FFF7C5FD04E0FFF7C2FD54
:10D320000020FFF791FD0120FFF78EFDBCE7FFF71E
:10D33000C2FDB9E708200020342A020010B5FFF72B
:10D3400053FD032102F0BAFA002010BD10B5007899
:10D350000221FFF731FE10BD38B50546144A1549C4
:10D360000320FFF7DFFE01460C0008D01248FEF74D
:10D37000EDF8642002F0DAF82046FEF7C7FB6946B4
:10D380000020FFF7B3FD01460C0008D00A48FEF765
:10D39000DDF8642002F0CAF82046FEF7B7FB6846C5
:10D3A0000078022802D00020287038BD0120FBE759
:10D3B00055D00100CD0C0000980902000022D24394
:10D3C000830004490428CA5002D308182030027789
:10D3D00070470000C8290020F0B50025ED43002A61
:10D3E00002D00023042601E0042308260B4C04E0AD
:10D3F0009F00E7597F1C04D05B1CB342F8D328463A
:10D40000F0BD26185DB2203635709E00A151002A6D
:10D41000F5D1E11820310877F1E70000C829002094
:10D42000024909182020085670470000C82900202A
:10D43000FFB58FB01E4615460F0002D10020FEF743
:10D4400065FB002D02D10020FEF760FB1C21684621
:10D45000FDF78BFE684601780220014368460170A3
:10D4600000240194039404940594012108A80694CF
:10D47000817068460F99018407943178017771783B
:10D480004177807FF9210840F721801C0840EF2177
:10D4900008404108490068468177142109A8FDF732
:10D4A00064FE08A8099007A80A9068468585C48587
:10D4B000058604480D9709AA69460088189BA2DFD3
:10D4C00013B0F0BDCA200020002807D004498142D3
:10D4D00004D80449814201D90120704700207047D7
:10D4E0008C2100209C210020044A0168914201D037
:10D4F000083101E00149383901607047282B0020CC
:10D5000070B50D4D04460A462846AC4208D1FF24AA
:10D5100001342146104603F005FBA0420AD070BD3D
:10D52000FF2CFCD82146104603F0EEFA002801D06B
:10D53000204670BD284670BDFFFF000070B5084C46
:10D54000050009D010342168002907D00868206040
:10D55000496828468847F6E70834F4E770BD0000BC
:10D56000B4290020F8B52348416800293ED00E6850
:10D5700021494C6887688078E11B0D022D0AED1C5B
:10D58000002814D101201D4A000450601B4A403A73
:10D5900050601B49400008601A4908601A49012080
:10D5A00008602F2001F0F6FF124901208870B54273
:10D5B00000D23546E81900020F4B000A40331860CC
:10D5C0000D4A5168001B091B0902090A0002000AE2
:10D5D000C91C814209D9506818602F2001F0DAFF78
:10D5E00001200749400480390860F8BD03F09EFE21
:10D5F000F8BD000028210020001501404013014023
:10D6000080E200E000E100E000100140F8B50646CD
:10D61000108814468446801D0D46984201D90C207E
:10D62000F8BD32880720062AFAD31927FF01184BC4
:10D63000BA4201D99A42F3D171880629F0D3B9428E
:10D6400001D99942ECD19A4203D0994201D08A4241
:10D65000E6D805216046295420881221401C80B25A
:10D66000208029542088401C80B2208041193088B5
:10D6700004F069FF2188401880B220804119708829
:10D6800004F061FF2188401820800020F8BD0000D0
:10D69000FFFF000010B5FEF739FA10BDF8B51648C7
:10D6A00001F0DCFA144D00260C3D144C002807D084
:10D6B000616900291CD001206A461070684616E096
:10D6C0002878002805D06169002911D068460670C5
:10D6D0000DE0687800280DD0A16809480022006894
:10D6E000FEF770FA002803D0A169002900D088470E
:10D6F0002E70F8BD6168F0E760200020382500201A
:10D70000602A020010B5002101220846FFF7D8FC6C
:10D71000002801D0072824D1072202210120FFF789
:10D72000CFFC002801D007281BD1042202210020B1
:10D73000FFF7C6FC002801D0072812D110220021D3
:10D740000220FFF7BDFC002801D0072809D11122D3
:10D7500000210320FFF7B4FC002801D0072800D1E6
:10D76000002010BD7FB50C46002802D0012004B077
:10D7700070BD20790026002806D01B4D01281CD042
:10D78000022828D00F20F2E702960396E068019065
:10D79000694601A803F0EAFC00280AD002988188B3
:10D7A000E1800088208169460988029803F058FDCD
:10D7B00000E00A2002212171D9E70C4B6A460021C2
:10D7C000A01D03F091FC002807D0084908398E609D
:10D7D000CE600A28CBD12846C9E704488188019841
:10D7E00003F03EFDF5E700001D1D00005C21002058
:10D7F000F8B500260124154D23E06968F0004718AC
:10D80000387821462A698140114218D08A432A611A
:10D8100001F0ECFF3A782146EB689140194003464D
:10D82000934099420BD17978012901D0012100E080
:10D8300000217B684140002B01D010469847761CA0
:10D84000F6B228788642D8D3F8BD00001421002013
:10D8500010B50E4900230A784C78A24212D0521C0F
:10D86000D2B20A70022A00D10B700A78074B9200DC
:10D8700018339A580260886810180002000A8860FD
:10D88000012010BD0360002010BD000028210020F1
:10D890003EB5094D38CD0093029501946B465880F2
:10D8A00099809A71054900220978FEF777FF68464A
:10D8B00000F08EF83EBD0000D42A0200B020002007
:10D8C00010B5047800222300FDF750FE0706050777
:10D8D0000D1D262C06000A7010BD01220A70028957
:10D8E0008A81828814E002220A7002898A818288F1
:10D8F000CA81C2688A60007C062802D000200874B1
:10D9000010BD0120FBE703220A70C2888A810289C8
:10D91000CA81C068886010BD04230B70C0888881EC
:10D92000CA8110BD0520087010BD000070B5064DFD
:10D9300006460024A0002958002901D03046884717
:10D94000641C082CF6D370BD582A00200EB500299F
:10D9500010D011290ED00022009202926A46508007
:10D9600001910D2907D0862907D009201070104693
:10D9700000F03CF80EBD0B20F8E70A20F6E70000A7
:10D9800001490968084700007020002070B5054D66
:10D9900006460024A000295830468847641C022C03
:10D9A000F8D370BD7C2A0200F8B507460024064E65
:10D9B000064D04E0A000315838468847641CE878DA
:10D9C0008442F7DBF8BD000068290020A020002079
:10D9D00070B5054D06460024A000295830468847FA
:10D9E000641C022CF8D370BD9C2A0200014909680E
:10D9F00008470000E02A02007FB50446406800287E
:10DA00000BD00020039020780026414D0300FDF745
:10DA1000ADFD066D0606304E7B6D0120F2E7A08954
:10DA200000F0DAF9002804D1E08903F03BFC00287B
:10DA30005CD0A08900F0CAF9014668464180E089BF
:10DA400003F02AFC014668460171207801286068CD
:10DA500007D0002809D00420694608706068039048
:10DA600020E00028F8D00320F6E70120F4E708467C
:10DA70003AE0A08900F0B0F9002804D1E08903F071
:10DA800011FC002832D0A08900F0A0F96946488036
:10DA9000E08903F001FC694608716068002804D041
:10DAA00005200870A0680290E1E70220F9E7A0894C
:10DAB00000F092F9002819D0E089002816D1A08939
:10DAC00000F084F969464880E08903F0E5FBFF2017
:10DAD00069460871606800280FD0072008706E70D2
:10DAE000AE7002F009FD684602F0C2FB68780028BB
:10DAF00002D06E7002F000FD7FBD06216846017005
:10DB0000408802F087FDEAE7082069460870AEE722
:10DB10008C20002000B5104987B00978890702D40D
:10DB2000022007B000BD0D49884201D10420F8E76A
:10DB3000052269460A7001220A71C8800022114636
:10DB4000684601F0FBFF002803D003F0B1FA002083
:10DB5000E7E70820E5E7000054210020FFFF000070
:10DB600000B50F4887B00078800702D4022007B0C4
:10DB700000BD06206946087000221146684601F083
:10DB8000DDFF002809D007480178002901D00121D4
:10DB9000017303F08DFA0020E9E70820E7E70000B1
:10DBA00054210020582B002010B58CB01421684659
:10DBB000FDF7DBFA1D480078810703D56846FFF7BB
:10DBC000B5FE30E0C0072ED1012000F02BF900F0A7
:10DBD000ADF901246846047502F042F80300FDF730
:10DBE000C5FC0C071107111B190A191B1317131B6E
:10DBF0000B200CB010BD022000F014F9012000F041
:10DC0000F7F8DBE7002000E003206946087603E030
:10DC10000220FAE7684604760022114605A801F0C2
:10DC20008DFF03F045FA0020E3E7000054210020B7
:10DC300038B5040014D0694603F098FA002813D0D0
:10DC4000684600880101094809188889002809D018
:10DC5000A27A002A06D0401E88810020A07238BD1A
:10DC6000052038BD062038BD0A2038BD382B0020DD
:10DC70001FB501A9684603F037FA04B010BD07B517
:10DC800013460A466946002003F02EFA0EBD07B57A
:10DC900013460A460021684603F026FA0EBD002806
:10DCA00005D0002903D000680860002070470520D7
:10DCB0007047000038B50D46040017D0002D15D070
:10DCC000694603F053FA002812D06846008861685C
:10DCD0000201084812189089401C908129606068F0
:10DCE0000C3068600120A072002038BD052038BDCE
:10DCF0000A2038BD382B002010B5002804D003239B
:10DD0000002204F059FD10BD052010BD10B50223FE
:10DD1000002204F051FD10BD10B5002A03D00223EB
:10DD200004F04AFD10BD052010BD000010B5064AE4
:10DD30005178082906D08B00044C491CE0505170E2
:10DD4000002010BD0C2010BD54210020582A0020B6
:10DD500038B504460A480D460078800701D40220F1
:10DD600038BD002C0AD06946284604F035FE00284C
:10DD7000F6D1694609882180658038BD052038BD07
:10DD80005421002010B504460E480078800701D4C5
:10DD9000022010BD002C10D0218802290FD80A4A79
:10DDA0000801801842896088121A032A07D404F0F7
:10DDB00009FE00202080608010BD052010BD0420D9
:10DDC00010BD000054210020382B002003218903BE
:10DDD000401A80B27047000003218903401A0349AA
:10DDE000884201D80120704700207047FE3F0000A4
:10DDF00002490A7882430A707047000054210020CB
:10DE000010B504460078182802D1FEF791FC207066
:10DE100010BD10B504460078182802D1FEF788FC22
:10DE2000207010BD02490A7802430A707047000052
:10DE30005421002070B5064600200546862906D0EC
:10DE4000112902D0002903D070BD012500E0012076
:10DE50000E4C002A02460FD061793046FEF79EFC38
:10DE60002A4621793046FEF799FC00226178304637
:10DE7000FEF794FC002204E061783046FEF78EFC49
:10DE80002A4621783046FEF789FC70BDB420002078
:10DE900038B504466846047069460320ABBE204688
:10DEA00038BD0000F8B506461C481F4600781546E8
:10DEB0000C46C0070AD03046FFF706FB002807D003
:10DEC000002C07D0A00507D00620F8BD0120F8BD22
:10DED0000220F8BD0320F8BD3068A04204D8A80293
:10DEE00071680019884201D90520F8BD002D10D0B5
:10DEF000684603F02FF800280DD000980221C0C01A
:10DF00000170A101090C8180058103F0DFF8002078
:10DF1000F8BD0420F8BD0720F8BD00006C210020EA
:10DF200010B5084603F032F810BD0000F0B52648E1
:10DF3000264C001B0309264819464069421C03D1A0
:10DF40000120000740698002224A12789646D207D3
:10DF50000CD00020F0BD1D4C15012C192568002D9A
:10DF600003D06468002C00D0491E521C9A42F2D3A0
:10DF7000002420E0E2B2002594462A460FE0134E2A
:10DF80001701BE193768002F02D07768002F05D11E
:10DF9000767BAE4202D93546D6B2B446521C9A427E
:10DFA000EDD362461501094AAA185060157BAD02EF
:10DFB000401B641C10608C42DCD306487146012271
:10DFC00011430170C5E700009C2100208C21002036
:10DFD000001000106C210020002804D00349496E75
:10DFE000016000207047032070470000682B00206C
:10DFF000F8B507461E481E46007815460C46C00771
:10E000000ED03846FFF760FA00280BD0002D0BD059
:10E01000002C09D028462043800707D00620F8BDF1
:10E020000120F8BD0220F8BD0320F8BD3868A042E9
:10E0300004D8B10078680919884201D20520F8BDDA
:10E04000002E11D0684602F085FF00280ED00098FF
:10E0500006990760416001210172C56004618682F2
:10E0600003F034F80020F8BD0420F8BD0720F8BD07
:10E070006C21002070B5174B0446186E18214843D8
:10E080001549C0180A78950715D5022C02D0032C23
:10E090001CD102E001F028FD18E04A78521CD2B2EF
:10E0A0004A70032A12D900224A70082103F008FBA3
:10E0B00002F03AFF0AE0500708D5FB2002400A7040
:10E0C000586E002802D0022002430A7002F0BAFF04
:10E0D00070BD0000682B00206C2100203EB511208F
:10E0E000694608720A221CA102A87CDF01460C00C6
:10E0F00008D01C48FDF72AFA642001F017FA2046E0
:10E10000FDF704FD0720C00178DF01460C0008D0B0
:10E110001448FDF71BFA642001F008FA2046FDF7C9
:10E12000F5FC0021FF20913000916A46019110809A
:10E13000430053809180D08068467ADF01460C000E
:10E1400008D00848FDF702FA642001F0EFF92046F4
:10E15000FDF7DCFC3EBD00004E6F726469635F42F8
:10E16000505300009809020070B5002801D001202A
:10E1700070BD164C0025207B002801D0257301E0DE
:10E1800000F09CF820780300FDF7F0F9081E050860
:10E190000B0E1E111A1E00F01BF870BD00F07EF869
:10E1A00070BD00F061F870BD00F038F870BD608897
:10E1B0000649000120394018406801F031FD70BD6A
:10E1C000656001F03BFD70BD0F2070BD582B002035
:10E1D00070B5104900208A1C0D460346203D0C18DE
:10E1E000A67A002E08D0A37204016419A689002E15
:10E1F00002D1A47B012C08D0401C80B20228EED3AF
:10E200000B704B8004484B6070BD108000F046F8E6
:10E2100070BD0000582B00201D1D000010B50F4CD4
:10E2200060880101204620380818818900290BD018
:10E23000052020700A480221818001680023012204
:10E240000848FFF72FFE10BD416800230122054852
:10E25000FFF728FE0421217010BD0000582B00207C
:10E26000642100208C21002038B50A4908480B6839
:10E270008988426889005918538803240470002053
:10E28000DB1C00909BB20448FFF7B2FE38BD0000D3
:10E29000582B0020642100208C21002010B5064955
:10E2A0004888091D02F0B2FF002802D0FFF7DCFF0A
:10E2B00010BDFFF7B3FF10BD582B0020F0B51D486F
:10E2C0001D4907780246012502268C88203A3B002A
:10E2D000FDF74CF9080517171A212C2C1617018980
:10E2E000491C01810021418001730B01D35C002B8B
:10E2F00008D000234418491C89B2A3720229F4D320
:10E300000570F0BD0123F5E742685288D21CA218BF
:10E310008A800670F0BD45880B682D01AA185568E3
:10E320000D60536014818E80062100E0072101708A
:10E33000F0BD0000582B002064210020F0B50446F9
:10E340000088384D8DB050281DD0522802D0542856
:10E3500026D103E0A08800F00BFF21E006206946EB
:10E360000870A08800F0A8FB69464880A2888A80CF
:10E3700000F054F9A0880022E978FEF70FFA684609
:10E38000FFF7FEFA0CE0207B012809D1A07A0128D2
:10E3900006D120892449884202D1A08800F024FFB8
:10E3A000A878FEF7DDF9002819D008A8FEF70CF9C7
:10E3B000142208A903A8FCF7BFFE002403AE0BE05B
:10E3C00060008719B888A978FEF7D6F9002802D02E
:10E3D000B88800F0CDFE641C0398A042F0D868789D
:10E3E000FEF7BEF9002819D008A8FEF7EDF81422B0
:10E3F00008A903A8FCF7A0FE002403AE0BE0600010
:10E400008719B8886978FEF7B7F9002802D0B8886C
:10E4100000F0EAFE641C0398A042F0D803F0F0F983
:10E420000DB0F0BD68200020022900003EB5044672
:10E430004088694648802078002814D001281DD0E3
:10E4400002280FD1207900280CD0608800F068FAEB
:10E450000E49884206D00E490122C978FEF79EF97E
:10E4600003F0CEF93EBD002008700846FFF788FA99
:10E47000608800F055FA00F07BFE3EBD0121684641
:10E480000170A1888180FFF77BFA3EBDFFFF00008D
:10E490006820002010B50446007801280DD160885E
:10E4A00000F066FE608800F07FF9002805D003497F
:10E4B00060880122C978FEF771F910BD682000203C
:10E4C00010B5104C00202070FEF732F96070FEF796
:10E4D0002FF9A070FEF72CF9E070FEF729F92071F2
:10E4E000617818290BD0A178182908D0E17818296B
:10E4F00005D0182803D001202070002010BD032073
:10E5000010BD000068200020F0B585B000F09EF836
:10E510006846FEF759F800246D460C4F0EE0600087
:10E520004619B08800F0C8FAB84205D10849B08849
:10E530000122C978FEF732F9641CA4B20098A04207
:10E54000EDD803F05DF905B0F0BD0000FFFF00005D
:10E550006820002010B50178072902D1408800F01A
:10E5600043FE10BD10B504460A4841782046FEF728
:10E5700003F900280CD0084800210C224A43121845
:10E580005288A24201D1C8B210BD491C0829F4D357
:10E59000FF2010BD802000208825002070B5094D87
:10E5A000094E00240C206043401940887178FEF722
:10E5B000E3F8002804D0641C082CF3D3FF2070BDBE
:10E5C000E0B270BD8825002080200020F8B5074605
:10E5D000104E0125BD403068FDF738FB00280DD1F5
:10E5E0000D4C2069284207D1384601F0FFF8002879
:10E5F000E06804D0284303E0A8432061F8BDA843A5
:10E60000E0602069002228432061A1683068FDF79E
:10E61000D9FAF8BDE82A0200142100201CB5054AE9
:10E620009168D268019200910022694601F0E8FCED
:10E630001CBD0000682A020003480021C9438180F4
:10E6400001210170002070477420002010B504489B
:10E6500001F00AFC0349888003F0FEF810BD0000B9
:10E66000FFFF000074200020F1B582B0029800F096
:10E6700023FA00241649032501272646884209D09B
:10E680006A46082101F092FC002803D1019886888F
:10E690000568841D2B46324621460298A9DF0428CE
:10E6A00004D0082804D00B2807D002E0112000E095
:10E6B0000020002F00D10B20FEBD0027A80701D5A8
:10E6C0000125E7E73443F6D0002426460325E1E799
:10E6D000FFFF0000F1B582B0029800F0EDF90746A7
:10E6E0001B48874201D11B48FEBD01252A466D1CEF
:10E6F0000026ADB26B460821384601F087FC0400C5
:10E7000002D0072C21D021E0019903230B600A1DC0
:10E71000891D0298AADF040004D00C2C08D0052C17
:10E7200008D008E00821384601F00AFD04460DE053
:10E73000012600E000240821384601F0EBFC002807
:10E7400000D00324002ED1D100E00C242046FEBDD1
:10E75000FFFF0000023000001FB5044600780128CA
:10E7600015D12079012812D1608802AA012101F077
:10E770001DFC00280BD10221684601706188418090
:10E78000039801786846017105490968884704487B
:10E79000044908388088884201D003F05DF81FBD25
:10E7A0007C200020FFFF00001CB500F085F96A46C0
:10E7B000012101F0FBFB002801D000201CBD0198C5
:10E7C00000781CBDF8B5074E074C084D0746324689
:10E7D00061883846A7DFA84203D16088401C60806A
:10E7E000F5E7F8BDFFFF00007420002003300000B3
:10E7F0008188054A914204D00088002801D0012078
:10E800007047002070470000FFFF00003EB504463F
:10E8100000780D46022815D10322611C6846FCF7DA
:10E820008BFC0322211D02A8FCF786FC01AA02A989
:10E830002846FDF7E5F8032201A96846FCF7A7FC86
:10E84000002801D000203EBD01203EBD10B50C4681
:10E85000FFF788FEFF280AD00C214843054907220C
:10E8600041182046091DFCF767FC002010BD05205B
:10E8700010BD00008825002070B5018890B01029D7
:10E8800049D1011D2C2202A8FCF756FC6846234EF4
:10E89000007B344602AD03282AD001F059FD6846BA
:10E8A000007B00280ED001280CD0022820D118E0CF
:10E8B0000E99281D1131FCF72BFF002802D0684665
:10E8C000048815E00DAA6946072001F017FD00280D
:10E8D000EED10DE00E99281D491CFFF797FF002887
:10E8E000EDD10DAA6946072001F008FD0028F1D1FD
:10E8F00068460089291D00F0C1FDB4420BD068466E
:10E900000089214600F086F868460189418001218E
:10E910000170FFF73BF810B070BD0000FFFF000072
:10E92000084A00210C234B43D35A834204D10C20C4
:10E930004143881840887047491C0829F2D302488F
:10E940007047000088250020FFFF000010B50E4C26
:10E95000182060700D4A0E4900200C2343435B18B9
:10E96000401C5A800828F8D3FDF7E2FE6070182892
:10E9700004D00548C01C71DF002801D0032010BD61
:10E9800001202070002010BD80200020FFFF00002B
:10E990008825002070B504460D46401C00F090F913
:10E9A000002810D01022691C601CFCF7F0FB002826
:10E9B0000AD000262946204611311130FCF7A8FE66
:10E9C00001463046084370BD0126F3E7018800295F
:10E9D00003D142189278002A01D001207047491CC7
:10E9E0000829F6D30020704710B50C460346FFF700
:10E9F000EDFF00280BD018882188884206D1082214
:10EA0000A11C981CFCF7C3FB002801D0002010BDFE
:10EA1000012010BD10B501F059FE10BD10B504461F
:10EA2000007888B0002826D12079072823D1608873
:10EA300001AA072101F0BAFA00281CD101F088FCD4
:10EA40001BE0694660880988884216D004990298BC
:10EA5000FFF7A0FF002810D06088FFF761FF014694
:10EA60006846C18200210175618801830188418364
:10EA700005A8FEF78BFF08B010BD03AA6946072062
:10EA800001F03CFC0028DCD1F5E7000070B504463D
:10EA9000FFF746FF0546204601F08DFA054904467A
:10EAA0008D4204D0002C02D1284601F00FFE2046F2
:10EAB00070BD0000FFFF000010B5FFF753FDFF28F9
:10EAC00004D00C2148430249085A10BD014810BD2A
:10EAD00088250020FFFF00003EB5044601F038FC09
:10EAE00010E0019920464631FFF77EFF002806D14D
:10EAF000019920462A31FFF777FF002802D06846A7
:10EB000000893EBD6A4602A9072001F0F7FB0028F4
:10EB1000E7D101483EBD0000FFFF0000F8B50F46F9
:10EB2000002804D00120FFF763F90120F8BD3979EE
:10EB300000290AD00026254D01290BD0244C02299A
:10EB400020681FD003293BD125E001F077F801218F
:10EB5000397133E000200101695C02290BD0401CAF
:10EB600080B20228F7D30220FFF75CF90120FFF7FB
:10EB70003FF91848F8BD04016019406801F050F8E9
:10EB80002E551BE00146002301221348FFF78AF9A6
:10EB90000221A18011E001F043F80C4923682031E3
:10EBA00049880A01094951184D6825604B60A388BE
:10EBB0000B810221A18005498E543E710028D9D0D5
:10EBC0000120FFF715F90E20F8BD0000382B0020BA
:10EBD000642100201D1D00008C210020F8B51E4C72
:10EBE0002078002836D0E068002600280CD00025C8
:10EBF000607800282ED1684652DF052806D000280C
:10EC000006D0FCF783FF0BE00125F1E7012607E0C2
:10EC1000009800F015FD2169002901D0009888476F
:10EC2000002D13D16078002814D1608869460880CF
:10EC3000A06861DF052804D0002804D0FCF766FF37
:10EC400004E0012502E0E168A0688847002ECFD0EB
:10EC5000002DE5D0F8BD0000702100204188054856
:10EC60000288914204D34088814201D80120704734
:10EC700000207047582000201048018CC9B201299B
:10EC800017D1818C090714D1018D09060A0F03D110
:10EC9000828D1206120F0ED0090F012903D1828D29
:10ECA0001206120F07D0032903D1808D0006000F32
:10ECB00001D000207047012070470000C00F00F015
:10ECC0000021425C002A01D001207047491C102914
:10ECD000F7D300207047800701D000207047012043
:10ECE0007047000010B50448017AC90702D00078C7
:10ECF000FEF764FA10BD000008200020FFB5244D87
:10ED000081B0287A1F460E46084304D0039A002E8D
:10ED100004D0002104E0052005B0F0BD1C491031ED
:10ED2000019803F0BFF80446014600220198FFF75E
:10ED300081F8002F03D021460198FEF707FE112C21
:10ED40000FD006DC002C0AD0082C08D00D2C05D1E1
:10ED500005E0862C11D00F48C44200D00324204681
:10ED6000DAE73246E9780198FDF718FDA978039AA9
:10ED70000198FDF713FD0024F1E73246E978019888
:10ED8000FDF70CFDA978039A0198FDF707FDE6E76A
:10ED9000B4200020FECFFFFFFEB517460C0006464C
:10EDA00004D02078C00704D0012003E000217EDFDA
:10EDB000FEBD0220694608713046FFF77DFE174907
:10EDC0000546884208D001A800902B463A462146C5
:10EDD000304600F025F806E020782146C00730468E
:10EDE00003D000F081F804460BE07EDF04460020EB
:10EDF0000090002C08D0002201232946304602F062
:10EE00002BFC002C02D006E00122F5E768460179D0
:10EE1000304602F047FC2046FEBD0000FFFF000028
:10EE2000FFB585B000252E4601AA07210E9F089840
:10EE300001F0BCF8040008D1029D4420405D183563
:10EE4000C607F60F01D0029D34350798204312D132
:10EE5000002D10D0002E05D128461230FFF7B6FD48
:10EE6000002808D029462A461231059885DF044635
:10EE70000020387023E0002C01D0052C1FD106980B
:10EE80000078C0070DD003AB01220721089801F0DC
:10EE9000BDF804000AD10721089801F0B5F9040073
:10EEA00004D1069905987EDF040008D00721089850
:10EEB00001F030F9002802D0052800D003240020FA
:10EEC00000903878002801D0012300E00023002CB6
:10EED00007D000220899059802F0BEFB204609B031
:10EEE000F0BD0122F6E70000FEB50F46064601F030
:10EEF00059F805461848854220D001AB0122072168
:10EF0000284601F083F804000AD10721284601F0C1
:10EF10007BF9040004D1394630467EDF040008D076
:10EF20000721284601F0F6F8002802D0052800D075
:10EF3000032401200090002C0BD002E003240020C9
:10EF40000090002201232946304602F085FB20462E
:10EF5000FEBD0122F6E70000FFFF0000F7B5114DEE
:10EF60000F46164629780098FDF706FC002812D0B7
:10EF70000098FFF7A1FD04460B4884420BD0697846
:10EF80000098FDF7F9FB002806D033463A462146A3
:10EF9000009800F0DDFEFEBD324639460098FEF7CF
:10EFA00077FCFEBDB0200020FFFF0000F1B586B069
:10EFB0000698FDF7D5FB002821D06846FDF704FB35
:10EFC00000246E4618E060008519A8880699FDF7B0
:10EFD000D3FB00280FD00B4FA888B978FDF7CCFBE6
:10EFE0000590A888F978FDF7C7FB0146A88801239A
:10EFF000059AFFF783FE641C0098A042E3D807B08F
:10F00000F0BD0000B4200020F0B5284C2146103996
:10F0100048688B68227886469C46CF78667836E0CA
:10F02000182353436168521CC918A378D2B2934283
:10F0300000D100220B78022B02D0032B27D123E032
:10F0400003464D68194603E0A94204D00B46C9693E
:10F0500000291CD0F8E7002919D08B4208D1C069DB
:10F06000002805D1124F0125BD600025AC460127BF
:10F070000D68C969D961002909D00B685B190B605B
:10F0800005E00174C06900E000210028F9D1964232
:10F09000C6D10649624610398A604860CF70704513
:10F0A00001D00120F0BD0020F0BD0000382100207B
:10F0B00000100140F8B52C4E044670680025009001
:10F0C00041E0002C02D02046E46920E026481823C5
:10F0D0001030017842684B43491CC9B2D218017004
:10F0E0008378994200D105701178506801292CD19C
:10F0F000017C002929D191684160D1688160116942
:10F10000C16051698161F178002900D04560436890
:10F11000B268164F991A0902090AB94202D28268E6
:10F12000891806E0D11A09028268090A8A4202D9BE
:10F13000511A016000E0056045600121856001749D
:10F14000C56103F08FF8002CBBD10748103001785F
:10F1500040788142BAD171680098814201D0012083
:10F16000F8BD0020F8BD000028210020FFFF7F002F
:10F17000FEB504461948002684422DD02046FFF7EC
:10F1800073FA050012D00B2D14D0112D10D0144895
:10F19000C5421BD00921684601702046FFF78CFC50
:10F1A000014668464180848002950DE0022102E01C
:10F1B00001260BE00321684601702046FFF77CFC26
:10F1C0000146684641808480FEF7DAFB05483246F6
:10F1D00081782046FDF7E2FAFEBD0000FFFF000047
:10F1E000FECFFFFF68200020FEB504460026FFF793
:10F1F00071FA0546112818D004DC002D13D00C2D0F
:10F2000005D114E0862D25D01348C5421BD0092115
:10F21000684601702046FFF74FFC01466846418072
:10F22000848002950DE0012102E001260BE0072118
:10F230006846017084802046FFF73EFC0146684620
:10F240004180FEF79DFB0548324641782046FDF798
:10F25000A5FAFEBD0821EBE7FECFFFFF68200020E6
:10F26000F8B5054600780C46002620420FD1002054
:10F27000694608706846FCF7FDFC2878204202D1F8
:10F2800020432870012668460078FCF711FD3046BF
:10F29000F8BD000088B003F079F86846FEF75CF826
:10F2A000FDF79EFB6946087801F024FAFEF716FF89
:10F2B000FCF76EFB02F086FB02F026FA1C2101A887
:10F2C000FBF753FF0521C90302910F210904002018
:10F2D00003910190032269460A74488208751E480A
:10F2E00006901E48079001A8FDF7FCF801460C00A7
:10F2F00008D01B48FCF72AF9642000F017F92046D3
:10F30000FCF704FC17480121002209040068FCF7FF
:10F3100059FC01460C0008D01148FCF717F964208D
:10F3200000F004F92046FCF7F1FB0320FCF726FF70
:10F3300001460C0001D00CA004E048DF01460C009F
:10F34000FBD00748FCF702F9642000F0EFF82046F4
:10F35000FCF7DCFBF1E70000ADFA010095D60100F7
:10F3600098090200242A020065727220636F6465A6
:10F370002025640070B5144682880E460546208814
:10F38000111D4118921C994201D8FE2A01D90C2066
:10F3900070BD521C32542088FF21401C80B2208056
:10F3A00031542088401C80B220808119288803F0C5
:10F3B000CAF82188401880B22080AA88002A09D083
:10F3C000A968002908D08019FBF7B6FE2088A98813
:10F3D00040182080002070BD072070BDF8B50F4692
:10F3E000017814460546012902D16878002806D024
:10F3F0002088821C9A422DD8012902D006E00720DD
:10F40000F8BD69784118891C994223D8181A801EC2
:10F4100086B2684606802188B81C081869467DDFD8
:10F420000028EDD12878022805D169460988B14223
:10F4300001D809210AE00821012805D16878B042E5
:10F4400002D86A46108001E0684606806846008857
:10F45000FE2801D90C20F8BD2288401CB854208811
:10F46000401C80B22080395420886946401C20808E
:10F470000988401820800020F8BD0000F8B5FF245E
:10F480000F46054600291FD0104EB5421CD010482B
:10F49000012241782846FDF781F92846FFF762F8F6
:10F4A0000446FF2804D1FFF779F80446FF280BD063
:10F4B0000C21484307490246401845808E520722D6
:10F4C0003946001DFBF738FE2046F8BDFFFF00005F
:10F4D000802000208825002070B50B4D0E46A842E4
:10F4E00001D1002000E0401C84B209E021463046F2
:10F4F00001F032FB002801D0204670BD641CA4B28C
:10F50000FF2CF3D9284670BDFFFF0000C208430757
:10F510005B0F0120895C98400840704701218907F2
:10F5200040180068002800D0012070477D21C900E4
:10F5300048430FD00849094A096800BF00BF00BF0F
:10F5400000BF00BF00BF00BF00BF914200D000BF9E
:10F550000138F2D170470000842100200024F4001B
:10F560007D21C90048430FD00849094A096800BFF6
:10F5700000BF00BF00BF00BF00BF00BF00BF91427F
:10F5800000D000BF0138F2D1704700008421002074
:10F590000024F40000280FD00849094A096800BF78
:10F5A00000BF00BF00BF00BF00BF00BF00BF91424F
:10F5B00000D000BF0138F2D1704700008421002044
:10F5C0000024F40070B50E4C00252078002801D0EE
:10F5D000852513E00021A16061602161E160094897
:10F5E00000680126304002D1032100F02FF802F01C
:10F5F000AFFD002801D1044886612670284670BD01
:10F60000B429002000E100E00005004038B50020EA
:10F61000694608706846FCF72DFB084C20780028E6
:10F6200001D1FFF7CFFFE068401CE0600120A0702F
:10F6300068460078FCF73CFB38BD0000B429002088
:10F6400010B5002801D1FDF779FF10BD8207D30E58
:10F65000FF229A408907090E10B5994000280BDA5D
:10F6600003071B0F083B9C080C4BA400E318DC6944
:10F6700094430C43DC6107E08408094BA400E418C0
:10F68000236893430B432360C106C90E01208840C1
:10F69000044908600449086010BD000000ED00E066
:10F6A00000E400E080E200E000E100E0F3B581B0BA
:10F6B000054601F081F81F4F0028284617D0FDF7B6
:10F6C000AFFEC0192030007F8009032802D0012836
:10F6D0000BD005E018480069E840C007C00F04D00F
:10F6E0000321284600F0FBF8FEBD0221F9E701F0F6
:10F6F0006FF80028F8D02846FDF792FE04468000F7
:10F70000C11D0E4AF9318018026989B201263243BF
:10F710000261084600F014F902980028E4D0284657
:10F72000FDF77EFE800038580028DDD00448A64052
:10F730004660FEBDC829002000050050006500405D
:10F7400000630040FEB5044625480E4600192021FE
:10F7500041560027C8171346401C01D008273CE03B
:10F76000F27819462046FDF737FE0546401C33D097
:10F77000B07800280BD005200007A1000918072049
:10F7800000020918086802229043086007E000217F
:10F790007378204600910A46019100F07BF8F078DA
:10F7A000002810D00F48AA001018317802690E4BBB
:10F7B0001A400261E206D20C8907890B0A430169EB
:10F7C0000A43026109E00648327840192030017F7F
:10F7D00092011143017700E004273846FEBD000086
:10F7E000C829002000650040FFE0FCFF03490969CB
:10F7F000C140C807C00F00D001207047000500506D
:10F8000070B5144D2879002801D0082070BD114929
:10F8100000204039421E0B182033401CC0B21A7021
:10F820002028F8D300242046FDF7C8FD641CE4B26C
:10F83000082CF8D303210620FFF708FFFF207D30B6
:10F8400000F07EF801200449C007486001202871BB
:10F85000002070BD082A00200063004002480079A3
:10F86000002800D001207047082A002070B55200FF
:10F870000A439900049D0A432902059E0A43310464
:10F8800005240A43240780000721001909024018B3
:10F89000026070BD70B552000A439900049D0A438E
:10F8A0002902059E0A43310405240A4324078000E7
:10F8B0000721001909024018026070BD05221207D5
:10F8C00080008218072000021018026803231B041E
:10F8D0009A430260026809040A43026070470522E5
:10F8E0001207800082180720000210180268032304
:10F8F0001B049A430260026809040A4302607047CD
:10F90000012282400348002901D082607047C26012
:10F91000704700000005005038B5084B05241B68EF
:10F92000009324026B46411805E085005D592D19AE
:10F930002D69401C20C28142F7D838BDE42A02005C
:10F94000024940180021016070470000006000403B
:10F95000034940180068012800D0002070470000CB
:10F96000006000404058002800D00120704703226A
:10F97000120280184068084000D001207047000043
:10F9800010B5002811D003280ED10220FDF7BCFBD2
:10F9900001460C0008D006A0FBF7D8FD6420FFF755
:10F9A000C5FD2046FCF7B2F810BD02F009F910BD04
:10F9B00065727220636F64652025640070B504462B
:10F9C000008888B03A2834D00DDC2C4D022834D081
:10F9D00010281CD0112804D10020C04368800020CA
:10F9E000287008B070BD51282BD05528F9D1A088B7
:10F9F000132176DF01460C00F3D021A0FBF7A6FD12
:10FA00006420FFF793FD2046FCF780F8E9E7072024
:10FA1000FDF77AFB01460E0008D019A0FBF796FD12
:10FA20006420FFF783FD3046FCF770F8A0886880FB
:10FA3000D7E7A088132176DFDCE70021688867DF3D
:10FA4000D8E71022A11D04A8FBF776FB6846017CCD
:10FA50000029C6D0007E042803D0062801D005283E
:10FA6000BFD1022908D0012069460870FF208330E9
:10FA70008880A088A8DFBDE70220F5E7E81F002006
:10FA800065727220636F64652025640010B5087884
:10FA9000002805D0022802D103490020087010BDBB
:10FAA000FDF704F810BD0000E81F002010B5007835
:10FAB00000280FD108483B21408876DF01460C0022
:10FAC00008D006A0FBF742FD6420FFF72FFD20467B
:10FAD000FCF71CF810BD0000E81F002065727220C2
:10FAE000636F64652025640010B5134A00215170CE
:10FAF000017A012911D002290ED18189491C818105
:10FB0000C189491C89B2C181028A914204D1002174
:10FB100001F0D6FD01F008FA10BD838AC28A991A55
:10FB2000FF2901DC89B201E0FF210131511889B2BE
:10FB3000C1829942EBD010BD6C210020F7B51C4D5D
:10FB40000E4601466A6F002082B0032A2DD82C464B
:10FB500078340827636CBF1BBB4226D8286F101867
:10FB60008007800F1C2250434019FBF7E5FA686FAD
:10FB7000401C6867002E17D0216C606C401840074D
:10FB8000800E00190023009009E00498D9000A189B
:10FB900006CA009806C06846FDF7A6FC5B1CB34287
:10FBA000F3D3606C80196064012005B0F0BD0000E3
:10FBB000782A00200389CA1C9A1802814289511AA6
:10FBC000C91E418170470000F7B50D460121890229
:10FBD00047180446002608340220288012E02046F8
:10FBE000FEF706FE002817D00C48A1684268914233
:10FBF00000D94160608881000C1929880818C01C50
:10FC000028800C34BC4202D22068401CE7D1029804
:10FC1000002800D00670FEBD0126EBE7542100202D
:10FC200008B50021009101460223024A0248FEF76E
:10FC3000DFF908BDFC2A02008C21002008B5002055
:10FC40000090044802230168034A0448FEF7D0F9F3
:10FC500008BD000064210020F42A02008C2100204D
:10FC6000F8B50025354F2C462E4600953448B10294
:10FC7000006840180168B94205D1324A41688918C4
:10FC800030D001290CD000218A0082580346521C32
:10FC900036D003202C4922018854641CA4B21BE0F6
:10FCA000009900290CD0284B022221015A54274ADE
:10FCB0001368254A891802224B60641C0A81A4B289
:10FCC000224900220860091DFFF77EFF1F48808837
:10FCD000022831D008200543761CB6B2032EC5D3C6
:10FCE000E8B2F8BD1849002322018B5451180A4686
:10FCF00048600E320831FFF767FF02200543CCE76A
:10FD0000491CFF29C0D911490A68002A0CD00E4AA3
:10FD100002212301D1549A1850600B4811812030E0
:10FD20004480641CA4B204E002200B60888001209F
:10FD3000009001200543CFE70420CCE7DEC0ADDE14
:10FD40008C21002002FEE10E382B002064210020CF
:10FD500070B5184D0E46044623CD86B0029500902E
:10FD600001916846448082808371134D2046A978B2
:10FD7000FCF702FD002803D03046FEF787FE0FE0B7
:10FD80000721304600F0C6F9002809D0052807D120
:10FD9000092269460A73CC81049003A8FDF718FE76
:10FDA000002229782046FCF7F9FC6846FDF710FE92
:10FDB00006B070BDC82A0200B0200020F0B585B0A2
:10FDC0000746FCF7CDFC002814D06846FCF7FCFB86
:10FDD00000246D460BE060004619B0883946FCF7F8
:10FDE000CBFC002802D0B08802F0FCF8641C00981C
:10FDF000A042F0D805B0F0BD70B5054D0646002410
:10FE0000A000295830468847641C052CF8D370BDE3
:10FE1000882A02003EB50F4D00241420604340198B
:10FE200002F0A4FC641C082CF7D308215020019197
:10FE30000A490124C2000290074B0094881800F080
:10FE400002FD002801D003203EBD0348447000207D
:10FE50003EBD00008828002098200020F8250020C2
:10FE600010B500F043FA10BD10B500F043FA10BD14
:10FE7000F0B5002585B000950195029503950446DF
:10FE8000418868464180217901712E462179608838
:10FE900002F046FC22780421404F1300FBF766FB7A
:10FEA0000A0606361C1C383E43484B4D00280DD030
:10FEB000417CC9070AD002F06BFC684606702078C6
:10FEC000012800D00020694608722AE00120694616
:10FED0000870A068029024E000280ED08268A36811
:10FEE0009A420AD1427CD30707D07B6852085B1C38
:10FEF00052000A437B6042741FE00220694608708A
:10FF0000E06803900DE0FFF777FF16E0032006E0BE
:10FF100068460170E06802906846F4E7052069468B
:10FF200008700846EFE7062069460870E068D1E7E8
:10FF300001250720F3E7E06802907868002824D0C4
:10FF4000174E0024142027464743B819417C4A071E
:10FF500003D48907C90F29421CD08178F05B00F0D7
:10FF6000EFF8002816D014214C43325B69464A80D2
:10FF7000B9198A7869460A71862808D009216A4623
:10FF8000117002906846FFF737FF05B0F0BD0820FA
:10FF90000870F7E7641C082CD4D3F6E798200020FB
:10FFA0008828002010B500F06BFA10BD10B50023B2
:10FFB00000F0D6F910BD38B50546002420460AE009
:10FFC0008178284600F0A6F8002802D0052800D045
:10FFD00003240098401C00906946284602F0B2FBBA
:10FFE0000028EDD1002C07D1284600F051FA002856
:10FFF00002D0072802D00324204638BD0724FBE79F
:020000040002F8
:1000000010B51346002200F0E3F910BDFFB581B032
:10001000049815460E46002804D0072E05D0082E59
:1000200019D102E00E2005B0F0BD002D13D0082D2F
:1000300011D8019800F037FA00280CD00020009069
:100040003146019802F06CFB041E26D0E068A842FD
:1000500012D2002709E00720E5E7207CC019C1B2D1
:100060002A4800F028FC7F1CFFB2E068B842F4D8B0
:10007000204602F07BFB10E0A84217D9EFB207E060
:10008000207CC019C1B2214800F015FC7F1CFFB2D2
:10009000E068B842F4D8002C08D1FF211C48019F29
:1000A00002F03EFB041E05D00780A670207CFF28CE
:1000B00002D00AE01120B6E72946144800F094FB6C
:1000C0002074FF2813D001200090E560217C0F48A8
:1000D00000F0DAFB02000ED0ABB23146049800F01B
:1000E00073FA009800280FD0082E06D00CE02046A6
:1000F00002F03CFBDEE7032095E7049804990088B2
:1001000049688000801F888000208CE778280020C4
:10011000FFFF000070B5002402F002FB05000CD0C8
:100120006868002804D000F0DAF9040000D0032445
:10013000284602F02DFB204670BD052070BD000052
:100140007CB50D460646072903D0082D01D00720AF
:100150007CBD00200090019068468570294630469D
:1001600002F0DEFA040004D0607CC00703D0002057
:100170007CBD05207CBD217C214800F085FB020070
:1001800025D029466846E36800F0B1F9684602F0D8
:10019000B5FA2346083369463046626800F018F91C
:1001A0000246607C1749430704D5830702D54B6894
:1001B0005B1E4B60FB25FD23002A0AD0112A0DD0BF
:1001C000862A14D0072A00D0032210467CBD0320C3
:1001D0007CBD01210843284018400EE04A68521CAB
:1001E0004A6004210843184060740022EDE74B6820
:1001F00028405B1C4B60022108436074E5E7000067
:1002000078280020982000207CB50D46072903D0CF
:10021000082D01D007207CBD002602F081FA0400E1
:1002200003D06068002802D01BE005207CBD217C43
:100230000E4800F029FB024600200090019068461D
:100240008570002A0FD02946E36800F050F968460F
:1002500002F054FA211D684600F029F906460928E3
:1002600001D030467CBD03207CBD000078280020F2
:100270000149096808470000842A020070B588B067
:100280001748FDF753FD002802D0032008B070BDC9
:10029000FDF78AFC002801D08620F7E700F0EAF994
:1002A0000020104C0290E61F03900DE0694604A860
:1002B000FDF700FD00988088801B85B204A8FDF73B
:1002C000B7FC284600F08AF902AA04A92046FDF7E7
:1002D000D6FC0028EAD00449012008700020D5E7A8
:1002E000F9D9010007C000008C20002010B500F0F3
:1002F0009FF910BD10B500F0A3F910BD70B505460B
:100300000320800386B014460E46281880B20F4A98
:100310006946FDF7B4FC002805D103A96846FDF73E
:10032000C9FC002802D0002006B070BDA57003985B
:10033000408820800498606003988088FDF746FD1F
:1003400030806846FDF774FC0120EDE79020002026
:100350000248002141608160704700008C2000202D
:10036000F0B587B01D46144607460E46FF280CD848
:10037000084600F019F9002807D003AA314638468C
:1003800000F0FAF8002809D102E0072007B0F0BD1C
:1003900001A903A8FDF78EFC002801D00520F5E790
:1003A000A6700198002D408820800AD0820028681D
:1003B000904204D802996068FAF7BEFE03E0042078
:1003C000E4E70298606003A8FDF732FC0020DDE757
:1003D0007FB588B01D460C460646FF2834D8A07865
:1003E00000F0E2F800282FD0606806902088694667
:1003F0008883304600F078F969460880A0780321A8
:10040000890340186946488006A8019001200881A8
:10041000A17803AA304600F0AFF805280A9815D055
:10042000002802D00AA8FDF7ADFC694603A8FDF735
:1004300063FC002817D007281FD008281BD00E28DF
:1004400019D003200CB070BD0720FBE7002805D0B1
:100450000AAA694603A8FDF75FFCEAE7694603A814
:10046000FDF754FCE5E7002D03D0294603A8FDF76E
:1004700016FC0020E6E71120E4E78620E2E7000012
:1004800010B5024800F0AAF810BD0000FFFF000000
:1004900010B5FF2801D9072010BD00F0A7F800F023
:1004A0002BF8002010BD10B500F0F8F810BD70B5A5
:1004B00004460D46807800F077F800280BD021889C
:1004C0002846FDF745FC002804D0072805D0092858
:1004D00000D0032070BD072070BD862070BD01B51F
:1004E0006846FDF74FFC002800D0032008BD10B57A
:1004F0009BB200F069F810BDF0B589B000261C4F22
:1005000004963846059603E0204600F083F820461E
:1005100000F08EF80446B84207D000F0E5F804AACF
:1005200006A9FDF7B4FB0A28EED0124DA8780028E2
:1005300019D1BC4217D00320800301272018AF70C7
:1005400080B2FDF7E7FA08280FD000280BD0AE7074
:10055000092269460A704C80FF220A7103900296B4
:100560006846FFF785FE09B0F0BD6F70FBE700003D
:10057000FFFF00008C2000207CB5054616460C4687
:10058000084600F011F80020032100908903019033
:100590006818611880B289B26B463246FDF768FB75
:1005A000002800D005207CBD07280BD0012809D0E9
:1005B000082807D0052805D0062803D0042801D034
:1005C000002070470120704710B5502463439BB250
:1005D0008170DB1C99084260018010BD10B5024992
:1005E000FCF78EFF10BD00002829002010B504463E
:1005F0000648844207D006492046FCF781FFA04206
:1006000001D1012010BD002010BD0000FFFF00003F
:100610004829002010B50446044900F07DFE034936
:100620002046203100F078FE10BD0000282900206F
:1006300010B50249FEF750FF10BD00004829002008
:1006400070B50A49FEF748FF0446094D08E000F07E
:1006500031F8002807D005492046FEF73DFF044643
:10066000AC42F4D170BD204670BD000028290020A6
:10067000FFFF000010B508484021FAF776FDFF247F
:1006800001342146044800F037FA0348214620305F
:1006900000F032FA10BD00002829002010B5FF2814
:1006A00004D80146024800F057FA10BD002010BDE2
:1006B0002829002010B5FF2804D80146024800F080
:1006C0004BFA10BD002010BD4829002010B50C4683
:1006D000FDF748FFFF2803D00C21484301490C5285
:1006E00010BD00008825002003218903401880B236
:1006F000704700007CB5054600F0BCF901460C00CF
:1007000008D029A0FAF722FF6420FEF70FFF204649
:10071000FBF7FCF9002D0DD000F002FB01460C00A8
:1007200008D021A0FAF712FF6420FEF7FFFE204652
:10073000FBF7ECF900200090019068460078012258
:1007400010438121084030304106490E684601704F
:100750000721417010218170C17802231143194390
:10076000C170017911431943017100F00FFB041EA0
:1007700009D021460CA0FAF7E9FE6420FEF7D6FE68
:100780002046FBF7C3F90B4800F0E8FA041E09D035
:10079000214605A0FAF7DAFE6420FEF7C7FE2046E0
:1007A000FBF7B4F97CBD000065727220636F64656D
:1007B00020256400E9080200044908182021415658
:1007C000042901DB0120704700207047C829002060
:1007D0000449081820214156042901D201207047FC
:1007E00000207047C8290020F8B50F46060028D021
:1007F0003068002825D07068002822D0FF2400250A
:100800001CE02946706800F07FF9002808D0FF2C12
:1008100000D12C46281B401CB8420DD12046F8BD03
:10082000FF2C06D108E02146304600F044F8641C55
:10083000E4B2AC42F7D3FF246D1CEDB2B068A8421D
:10084000DFD8FF20F8BDF8B50400069E089D079884
:1008500018D0002916D0002B14D007466F439742BA
:1008600010D8C21DD208B2420CD800280AD0002DE0
:1008700008D0E560A0600AC481B2184600F03CF9D7
:100880000020F8BD0720F8BD70B504000D4610D05B
:10089000206800280DD0606800280AD0FF2D08D0FD
:1008A00000F05AF9002804D0E0682168684308186D
:1008B00070BD002070BD70B504000D460FD02068DB
:1008C00000280CD06068002809D0FF2D07D000F068
:1008D00043F9002803D02946606800F049F970BD4B
:1008E00010B501F0A9F910BD1CB501780B00FAF79D
:1008F0003DFE0F1F1F091F2027481F461F48334872
:100900001F431F0069462048FBF76CFD01460C00A1
:1009100008D01EA0FAF71AFE6420FEF707FE204654
:10092000FBF7F4F868460078002801D0FCF7BEF821
:100930001CBD00210191408801A9FFF7D1FF1CBD1A
:10094000FDF70EF901460E28F9D00829F7D0044624
:10095000002CF4D00DA006E00320FBF70FFC0146AD
:100960000400ECD00CA0FAF7F1FD6420FEF7DEFDE8
:100970002046FBF7CBF81CBD00F0B4F81CBD0169A4
:1009800000E081680C46E3E7942200206572722043
:10099000636F64652025640065727220636F64650F
:1009A0002025640070B586B0044614216846FAF725
:1009B000DCFB608869468880FDF7B2FF69464880A5
:1009C000267800200822072105253300FAF7CEFDFE
:1009D0000A06060B0D0F1416281A1D256B461970F2
:1009E00058721A7219E00D2009E00E2007E06A46DD
:1009F00011705072157210E00F2000E0102069464F
:100A000008700AE06846057007E006216846017034
:100A1000A0680290A188684641806846FCF7C4FF40
:100A200006B070BD10B50446007886B000281AD014
:100A3000012816D10E49608801224979FBF7AEFEE4
:100A400014216846FAF791FB6088694648806088FF
:100A5000FEF732F869468880002008706846FCF787
:100A6000A3FF06B010BDE08800F04EF9F9E70000E2
:100A7000A020002070B5FFF701FC00282ED1FFF761
:100A8000C9F900282AD101F0E5F8002826D101F0A3
:100A9000EBF9002822D1FDF713FD00281ED1FDF748
:100AA000CBFD00281AD1FDF751FF002816D10C4CC0
:100AB000401EE08000251820A56020716071FBF7C2
:100AC00037FE2071182809D0FBF732FE6071182814
