:020000040001F9
:10B00000B0480020D5B00100EFB00100F1B0010060
:10B010000000000000000000000000000000000030
:10B02000000000000000000000000000F3B001007C
:10B030000000000000000000F5B00100F7B00100C2
:10B0400001B40100F9B0010055B50100F9B00100EB
:10B05000F9B001000000000041B20100F9B00100A8
:10B06000F9B00100F9B00100F9B00100F9B0010038
:10B07000F9B00100F9B00100F9B00100F9B0010028
:10B08000F9B0010055B40100F9B00100F9B00100B8
:10B0900075B40100F9B001007DB40100F9B0010000
:10B0A000F9B00100F9B0010000000000000000004C
:10B0B0000000000000000000000000000000000090
:10B0C0000348854600F07EF800480047FDF1010086
:10B0D000B04800200321094802680A43026008487A
:10B0E00002680A4302600748804707480047FEE7B6
:10B0F000FEE7FEE7FEE7FEE7FEE70000240500406E
:10B1000054050040B5B40100C1B0010030B50B4694
:10B11000014600202022012409E00D46D5409D4231
:10B1200005D31D469540491B2546954040191546B7
:10B13000521E002DF1DC30BD10B5431A934209D2E6
:10B140008318881803E0401E01785B1E1970521E98
:10B15000F9D210BD03460B439B0703D009E008C991
:10B16000121F08C0042AFAD203E00B78491C0370AE
:10B17000401C521EF9D210BDD2B201E00270401C38
:10B18000491EFBD270470022F6E710B513460A4667
:10B1900004461946FFF7F0FF204610BD421C017817
:10B1A000401C0029FBD1801A704730B504460020AE
:10B1B000034600E05B1C934203D2E05CCD5C401B85
:10B1C000F8D030BD064C0125064E05E02046E36868
:10B1D00007C82B4398471034B442F7D3FFF774FFE6
:10B1E000202A0200402A020070B58C180578401C05
:10B1F0006B075B0F01D10378401C2A1106D102783E
:10B20000401C03E00678401C0E70491C5B1EF9D1FF
:10B210002B0705D40023521E0DD40B70491CFAE7EE
:10B220000378401CCB1A921C03E01D785B1C0D7048
:10B23000491C521EF9D5A142D8D3002070BD000090
:10B24000F0B50024FF268BB0013601252746069471
:10B25000304604F0EBFA002807D0554840682842F1
:10B2600003D0304604F0DAFA2C43361D6D007F1C03
:10B27000B6B2042FECD3FF257D35284604F0D6FA6C
:10B28000002809D0284604F0C9FA6807044306AA32
:10B290000121002004F0AEFA464D200715D0012709
:10B2A0000026384620420CD04348B20011180869E5
:10B2B0000969C004C00E8903AA58890F002A00D06A
:10B2C00090477F00761C042EEBD3002C6DDA002013
:10B2D0000890401E63E0281940300778B906890EAF
:10B2E000009100214156491C49D009A9009804F059
:10B2F000A7F8002843D0B8090190009801F08CFF0E
:10B3000080002F580198002F02D0032802D00DE0B2
:10B31000032834D1009808ABC20841079446985CD2
:10B32000490F01228A401043624698540098052133
:10B33000090780004018072109024018006806A983
:10B340008003800F0290009804F07AF80028029899
:10B3500002D0022802D012E0032810D1019803285D
:10B3600008D1029802281ED00221009804F01DFA8C
:10B37000761CF6B2002F02D001990098B847641CE1
:10B38000042CA8D3002E10D06A460121002004F01E
:10B3900031FA06990098884207D00690089800264E
:10B3A0003446099097E70321DFE70BB0F0BD0000BA
:10B3B00000630040A83E0020006500408307FF2294
:10B3C000DB0E9A408907090E994000280BDA000726
:10B3D000000F0838830808489B001B18D869904361
:10B3E0000843D8617047830804489B001B181868FD
:10B3F000904308431860704700ED00E000E400E06F
:10B40000F8B5FF270137384604F025F801240F4D21
:10B410000F4E002808D0384604F025F80120A86017
:10B420007470002001F084FFFF270537384604F0D0
:10B4300012F8002808D0384604F015F80220A86059
:10B44000B470012001F074FFF8BD0000000300405B
:10B45000943E002010B506490020086048608860CE
:10B46000C860034940390860486006F09DFE10BD81
:10B470004011014010B506F009FE10BD10B5094895
:10B48000406800280AD08047040006D0014606A084
:10B4900000F06AF8204600F043FB10BD03F052FBB9
:10B4A00010BD00004835002065727220636F64652E
:10B4B0002025640010B503F093FB002805D01F4938
:10B4C0001D484860C8131E4988611E48018CC9B2D6
:10B4D00001290BD1828C120708D1028D1206120F9E
:10B4E000042A03D1828D1206120F0AD0012921D11C
:10B4F000818C09071ED1018D0906090F0A2904D084
:10B5000007E0114A01219160F5E7828D1206120FC2
:10B5100005D00D290ED1808D0006000F0AD10B48F1
:10B520000168012904D00A49016001680129FCD1A0
:10B53000C021416110BD0000DFFF07C000050040D1
:10B54000006C0040C00F00F00006004000EC064018
:10B550007593000010B50249024806F0EAFE10BDDE
:10B56000F03E0020002000400FB410B503A9044BAA
:10B57000044A029800F032F810BC08BC04B0184726
:10B5800029DC01005C35002030B47446641E257847
:10B59000641CAB4200D21D46635D5B00E31830BC07
:10B5A000184702E008C8121F08C1002AFAD17047E4
:10B5B0007047002001E001C1121F002AFBD1704733
:10B5C000202804DA012181400348014201D00120F2
:10B5D0007047002070470000FC06FFBCFFB58DB02F
:10B5E0000446002596E0252832D10027641C4D4AE8
:10B5F0000121009723780846203B984003461342D8
:10B6000002D00743641CF5E720782E2817D10420C8
:10B610000743641C20782A280CD10E98641C02C8A9
:10B6200000910E900BE000990A22514330394018E6
:10B63000641C00902078014630390929F3D920781C
:10B6400000286BD0642808D0692806D075281ED041
:10B65000109A0F9990476D1C5BE00A200E9901909B
:10B6600001C90E91002802DA40422D2102E039057D
:10B6700004D52B216A461172012103E0F90704D099
:10B680002021F7E70BAE0B910DE00021FAE70A202D
:10B690000E99019001C90E91F7E70199FFF736FD68
:10B6A0003031761E31700028F7D103A8801B20307E
:10B6B0000190780701D5009801E0012000900199E0
:10B6C000884201DD401A00E000200027009006E0DB
:10B6D00002A8109AC05D0F9990476D1C7F1C0B98B3
:10B6E0008742F5DB04E0109A30200F9990476D1CDB
:10B6F0000099481E00900029F5DC05E03078109A8A
:10B70000761C0F9990476D1C0199481E01900029E5
:10B71000F4DC641C2078002800D064E7284611B0CF
:10B72000F0BD00000928010010B500280CD0002948
:10B730000AD002780B789A4206D10622491C401C96
:10B74000FFF733FD002801D0002010BD012010BDFF
:10B75000F7B584B006460025178815802030029082
:10B76000407B1446002806D03A462146059800F052
:10B77000DDFF050009D1B078002823D00598864662
:10B780002088001DB84202D90C2007B0F0BD6846E1
:10B7900079DF0028F9D1218803207246505420888F
:10B7A0001921401C80B22080115420887146401C11
:10B7B00080B2208041186846008806F04CFE21883F
:10B7C00040182080F078002817D0218803230A46EB
:10B7D000F356C91C0598B942D6D802218154218854
:10B7E0000122491C89B2218042542188491C89B216
:10B7F000218043542088401C20807068002817D086
:10B8000021880023C3560A46C91C0598B942BBD8F3
:10B810000221815421880A22491C89B22180425484
:10B820002188491C89B2218043542088401C2080F3
:10B83000308900280AD00094304601970622022160
:10B840000830059B06F060FE05009ED1308A002876
:10B850000AD0009430460197072203211030059B3F
:10B8600006F052FE050090D1308B00280AD00094DB
:10B8700030460197152214211830059B06F044FE2E
:10B88000050082D1306A002806D03B462246059941
:10B8900001F0B6FD0500D8D1706A002806D03B46FD
:10B8A0002246059903F000FD0500CED10298007BE9
:10B8B000002807D03B4622463046059905F0BCFFDC
:10B8C0000500C2D13078002807D03B4622463046DA
:10B8D000059903F01DFD0500B7D1284655E7000086
:10B8E000174A0021535C002B01D0012203E0491CC0
:10B8F0000629F7D300221349012806D002280BD0CD
:10B90000032810D0042818D112E04878002803D06A
:10B91000002A01D0012070478878002803D0002A2F
:10B9200001D002207047C878002801D0032070475A
:10B930000879002801D004207047002070470000DB
:10B94000153400204C38002010B5012202210020BF
:10B9500001F0B0FA002801D0072812D107220221F5
:10B96000012001F0A7FA002801D0072809D1002101
:10B970000A22084601F09EFA002801D0072800D1CB
:10B98000002010BD10B598B03C2101A8FFF7FBFBCB
:10B99000022168460171012484710621C1710321CD
:10B9A000818210480690202110A8FFF7ECFB10A818
:10B9B000C470FF202D301490B42015900020014653
:10B9C0000090094B10AA01A800F016FB040006D055
:10B9D000014606A0FFF7C8FD204600F0A1F818B008
:10B9E00010BD0000D033002069F80100657272209C
:10B9F000636F64652025640010B5032000F00CFC23
:10BA0000040006D001460348FFF7AEFD204600F0D3
:10BA100087F810BD3C290200F0B50F468DB000211B
:10BA200016466D460F24621A825C6A54491C10291E
:10BA3000F9D328460D211030FFF7A5FB0020221A6C
:10BA4000395C5219401C11740328F8D368464DDF45
:10BA50000020211A4919203109783154401C03284B
:10BA6000F7D30DB0F0BD10B5022001F0BFF810BD46
:10BA700070B50024064D06E06968E000085C01210D
:10BA800003F084FD641C28788442F5D3002070BD47
:10BA9000EC340020F8B515460C460646052A01D2BE
:10BAA0000720F8BD03F040FE002803D103F00EFE8E
:10BAB0000028F6D1104900204E600C70C8608D60DF
:10BAC00008610E4D0DE0E0006968801900918178F1
:10BAD0006A46517000780A4A694603F09FFD0028C3
:10BAE000DFD12046641EE4B20028ECD1054A0021D3
:10BAF000024800F021F8F8BDEC340020042A0200CE
:10BB00009DE3010085D50100BFF34F8F0349024833
:10BB1000C860BFF34F8FFEE70400FA0500ED00E0B8
:10BB20000EB50021029000916A4601910148FFF78D
:10BB3000EBFF0EBD01400000094B5B68002B07D0F6
:10BB4000002A07D0002805D00068037C002B03D012
:10BB500008207047072070474174426100207047F9
:10BB600010350020FFB507469007002581B01E461E
:10BB70001446002825D1002C23D005F05FFB304669
:10BB8000114EF0603046103005704570029981709A
:10BB900044607560357001240C487570240504609C
:10BBA00003211420FFF70AFC09480460094CA76030
:10BBB00003211120FFF702FC6068B060002005B08F
:10BBC000F0BD0720FBE700000035002080E200E028
:10BBD00000E100E000150140FEB51F4B5B68002B43
:10BBE00030D000282ED0052901D20720FEBD4369A0
:10BBF000002B27D0437C012B26D00027029104463E
:10BC00000025694616460D70684600F03DF801A80B
:10BC100006F064FC002819D0012101700F4944602E
:10BC200049688160029907614661C16068460A49B6
:10BC3000007948706846007800F044F806F068FA29
:10BC40002846FEBD0820FEBD0F46D7E768460425FE
:10BC5000007800F037F8F3E71035002000150140B8
:10BC600010B50849496800290AD0002808D0416960
:10BC7000002905D000210174022106F071FA10BDDF
:10BC8000082010BD1035002030B5EFF3108172B6DA
:10BC9000094A54680123002C04D00370002900D104
:10BCA00062B630BD5360054B1D68054C25401560DC
:10BCB0001C6000220270F1E72435002080E100E0E2
:10BCC000FC06FFBC08494A68002A0CD000280AD1AB
:10BCD000EFF3108072B60A68044B1A6000224A60C3
:10BCE000002800D162B670472435002000E100E052
:10BCF00070B51E4C0121002209042068FFF76CFF7B
:10BD0000050006D001461AA0FFF72EFC2846FFF7D3
:10BD100007FF01210022C9036068FFF75DFF0500EE
:10BD200006D0014612A0FFF71FFC2846FFF7F8FED9
:10BD300000221249A068FFF74FFF050006D0014618
:10BD40000BA0FFF711FC2846FFF7EAFE05210022B1
:10BD5000C903E068FFF740FF040006D0014604A0D5
:10BD6000FFF702FC2046FFF7DBFE70BD282902002A
:10BD700065727220636F646520256400662600008A
:10BD8000F0B504468BB0008800F06CFC059020886C
:10BD900002F046FE0646A0680090657A6846057483
:10BDA0001E4F20880022397800F0ACFC059800284E
:10BDB00031D06079400710D50721304604F018F9DA
:10BDC000002813D0082269460A7422884A828E828B
:10BDD000069004A801F0C6FC08E02088B97800F0BD
:10BDE0007FFC002802D0304602F004FE03216846A2
:10BDF00001712188C18060794007C10F68460172D6
:10BE0000A0794007C10F6846417201788172C572FE
:10BE100001A801F0A7FC0BB0F0BD000088340020A1
:10BE2000F0B50546007D002493B00E4600280DD0E5
:10BE3000012001461031684603940173717B417300
:10BE4000817BF9200140891C684681731C2104A86C
:10BE5000FFF799F96946087C02210843694608748E
:10BE60002A7DEF21002A02D01022104300E0084072
:10BE70006A461074059407940894287D002800D021
:10BE800003A8099001270A94104697712E4A8280D0
:10BE90000094B27B0270F27B42708078F9221040ED
:10BEA000801CE72210404108490068468170317BC0
:10BEB000017214210BA8FFF766F901A80B906846E0
:10BEC0000C908786C486078702A80F90A888AB1DB0
:10BED0000BAA04A9A2DF002833D1B06800282ED015
:10BEE00068468771194981800094317C0170002077
:10BEF0000146684641708078F9210840801CE7219E
:10BF00000840410849006846817011A8B16800F0F6
:10BF1000B9FD064614210BA8FFF735F901A80B90CF
:10BF200068460C908686C486068711A80F902A461C
:10BF3000E8880E320BA9A3DF002802D100E0EC81D3
:10BF4000002013B0F0BD0000192A000008290000ED
:10BF500010B50B490B4805F0C7FBC1B2084878384B
:10BF600000F0DEF9002809D0082807D006498842E9
:10BF700004D00649884201D0FFF7D2FD10BD000071
:10BF8000B0370020B8330020043000000134000036
:10BF9000F0B50C4693B01F216A4611800726002792
:10BFA0009180002809D0C17849070DD502A9FFF773
:10BFB000CFFB002809D102AD01E000251780002C3D
:10BFC0000ED0E078002802D0304613B0F0BD01AAB0
:10BFD0000AA92046FFF7BCFB0028F6D10AAA02E016
:10BFE00068460022878068468088C3B26846008819
:10BFF000C1B2284672DFE8E7FFB581B01E460A9F4E
:10C000001346040047D0002B45D0504D0120287026
:10C010000020E870202219464D48FFF78DF80020D7
:10C020006F61C0432E612881284607211830FFF731
:10C03000AAF847483C212030FFF7A5F8444821786A
:10C0400020300170A1788170E178C1706178417011
:10C050003F4A656923695563114613632031E368DC
:10C06000A268CB608A603A49E369A269CB638A63BC
:10C07000616A00291AD001463C31024648324162C9
:10C080008A60636A1B880B80616A436A8988998029
:10C090000021436A07E00E2005B0F0BD656AAD6877
:10C0A0006D5C5554491C9D888D42F7D8A16A0029C2
:10C0B0001CD0274A943211460C398A608162A36AE7
:10C0C0009B888B80A16A836A098819800021836A12
:10C0D00004E0A56AAD686D5C5554491C9D888D428D
:10C0E000F7D82C210A5D1A4940310A73216A0029C8
:10C0F00009D016490A310162226A52884A80216AAF
:10C10000026A098811806168002900D04160104AE4
:10C110000E490020B3322031C3001B1A85009B1842
:10C120000C68401C63510828F6DB094A0020EB32FA
:10C13000030185009B188C68401C63510828F7DBBD
:10C14000034802992030FFF723FFA5E7FC330020C6
:10C150004C38002010B50188134C102915D0112936
:10C1600019D01B2910D1007A00280DD1E0780521C3
:10C17000401CFEF7CBFF084600F04EF8002803D025
:10C180006169002900D0884710BD817D0129FBD15C
:10C190008088208110BD00216171808821898842BA
:10C1A000F8D10120E8E70000FC33002010B5022898
:10C1B00001D003280ED1084C607800280AD0002056
:10C1C0006070E07800F028F8002803D06169002949
:10C1D00000D0884710BD0000FC33002010B574DF8C
:10C1E0000B4C012060710B490620C87000210948E2
:10C1F000FFF7CEFE002809D1E07800F00DF8002806
:10C2000003D06169002900D08847002010BD0000DC
:10C21000FC3300206C380020F1B53F4C88B020780A
:10C2200000280AD00898E07006A801F0A1FD069841
:10C230000125002804D065706AE0082009B0F0BD2F
:10C240003548002707211830FEF79DFF334E7078E0
:10C25000002802D0E078012807D0B07800280CD060
:10C26000E078012801D0022807D12169002903D0F4
:10C2700025710820884700E027710898FFF730FBF8
:10C28000E0702169002909D0032801D0042805D1D4
:10C290003078002802D06079002811D0A7711821C9
:10C2A0006846FEF770FF684607700772E1781A4823
:10C2B0000B001830FFF768F9052E080F191D200034
:10C2C000A57107208847EAE7A570019068460570C8
:10C2D0004782078213E00221A17001906846057031
:10C2E000B18941823189018209E0684605F078FB15
:10C2F00002E0684605F0A0FBE078002803D068461D
:10C3000073DF00289AD12169002901D0A0788847DD
:10C31000002093E7A770F6E7FC3300204C3800209C
:10C3200073B586B004002FD06A46217C127F0020AE
:10C33000914227D000250126684600950680458059
:10C3400007A80190E188608A6A46A4DF002819D115
:10C350006846007F2074608A0D49884216D0207D8F
:10C36000002813D00295039504950595E188684649
:10C370000181867241888181049001980590608ACC
:10C3800002A9A6DF08B070BD0E20FBE70820F9E780
:10C39000FFFF000038B50D4604001AD0002D18D05C
:10C3A000286820600020C043608228792075FF2023
:10C3B000207401216846817007490180221D694669
:10C3C0000120A0DF002803D129462046FFF728FDE1
:10C3D00038BD0E2038BD00000F18000038B5002809
:10C3E00027D0002925D00A88102A1DD0112A1DD057
:10C3F000502A1ED10446007D00281AD0891D0888C5
:10C400006289904215D14889022812D120680028FB
:10C410000FD008460C3000F02EFB00280AD009A0EF
:10C42000FFF7A2F8002006E0898801E00021C94357
:10C43000418238BD01206946087022682046904735
:10C4400038BD0000656E61626C65200D0A00000059
:10C4500070B5054601461C220E48FEF76DFE0E4CD7
:10C46000002626702968002906D00822201DFEF724
:10C4700063FE201D7ADF02E00748001D7BDF0028F5
:10C4800007D1401E60806670044A00210448FFF70F
:10C4900053FB70BD183A00202C34002061240200A8
:10C4A0007C290200F8B5214C0146028800261E486E
:10C4B000E589102A13D01E4F112A1FD0122A2BD023
:10C4C000502A1AD1881DC988A94216D1418902294A
:10C4D00013D10C3000F0CFFA00280CD112E08A887A
:10C4E000044642801048082218310C30FEF724FE22
:10C4F0006670002D01D100F0CBFFF8BD0021C943CB
:10C50000418046703868FFF7ABFB0028F5D0A16981
:10C510000029F2D08847F8BD0348082208310C30C2
:10C52000FEF70AFEE7E700002C340020183A00204E
:10C530007C29020010B503490A7D091D04F053FF50
:10C5400010BD0000343A0020034B10B50246D97DDF
:10C55000181D04F035FF10BD343A0020034B10B510
:10C560000246197E181D04F02BFF10BD343A00203E
:10C57000F0B50446028839488DB001461531019165
:10C58000102A09D0112A4FD01A2A49D1217A090933
:10C5900001294DD901234CE0027D417D05468A43A6
:10C5A000011D07A804F01FFF142207A902A8FEF727
:10C5B000C3FD002629483746143008900AE0710070
:10C5C00002A8081883881D220097281D089904F0E6
:10C5D000B7FE761C0298B042F1D8287DA688C043E9
:10C5E000C0B204F0D1FE1E49884216D04000401966
:10C5F000868001233246281D019904F017FF01238C
:10C600003246281D089904F011FFA07D022809D0A8
:10C6100000231249A28816311CE00420FFF780FA9B
:10C620000DB0F0BD0123F4E70023A288001D12E045
:10C6300000230A490546A2881731001D04F0F6FEC2
:10C64000207A0009022801D9012300E000230349D0
:10C65000A2881831281D04F0E9FEE1E7343A0020F1
:10C66000FFFF000070B50B4E05460024317D2A46C1
:10C67000301D04F0A5FE002809D0B17D2A46301DEA
:10C6800004F09EFE002801D0022400E00124204690
:10C6900070BD0000343A002010B50024204605F09B
:10C6A00011FF002805D0641CE4B2182CF6D3182022
:10C6B00010BD044801220168A240114301602046D8
:10C6C00010BD0000343A002010B5044605F0FAFE13
:10C6D000002802D001480019407E10BD343A0020E5
:10C6E00070B505460C46084605F0ECFE002806D05D
:10C6F00003482A460119497E001D04F061FE70BD01
:10C70000343A002070B5064615460C46084605F03A
:10C71000D9FE002807D004482B46011919313246AA
:10C72000001D04F083FE70BD343A00207CB5054640
:10C7300008880C460930904201D90C207CBD68461F
:10C7400071DF0028FAD121880820685420881B2135
:10C75000401C80B220802954208800A9401C80B24F
:10C760002080401906220131FEF7E6FC2088694648
:10C77000801D80B220800978002900D00121295431
:10C780002088401C208000207CBD00007FB504462E
:10C790000121684681714A4981804A4A01A90120E4
:10C7A000A0DF00287ED1228825463C35002A09D00A
:10C7B00044482B46801C00904348616800F034FDDB
:10C7C00000287BD12289002A0AD03E482B460A3015
:10C7D00000903D48E168401F00F026FD00286DD123
:10C7E000228A002A0AD037482B4612300090364859
:10C7F0006169001F00F018FD00285FD1228B002A1C
:10C800000AD030482B461A3000902F48E169801E2C
:10C8100000F00AFD002851D1228C002A0AD02948B4
:10C820002B46223000902848616AC01E00F0FCFCB4
:10C83000002843D1228D002A0AD022482B462A30D4
:10C8400000902148E16A401E00F0EEFC002835D13E
:10C85000216B00290ED002A805F0F0FB19482B46E9
:10C86000323000901848082202A9801F00F0DCFC3A
:10C87000002823D1606B00280BD012492B463A3197
:10C880000091027901681048401C00F0CDFC00289E
:10C8900014D1A16B002910D002A804F06BFA09484A
:10C8A000423000E00AE0009007482B46072202A928
:10C8B000273000F0B9FC002800D1002004B070BD82
:10C8C0000A180000A2340020292A000010B50446EE
:10C8D000FFF74EFE204604F0A9F821460C4800F070
:10C8E00075F80B4821461838FFF778FD2046FFF70A
:10C8F000D9FD204600F016FA204602F0D1FF20466E
:10C90000FFF728FC02482146503002F0A3FD10BD7D
:10C910005037002030B50446008C134AADB0904229
:10C920001FD006AA204601F0DFFE694605460880B2
:10C930000020019002900390049022898A800122B5
:10C940008A71088106A803910490208C01A9A6DFB2
:10C95000002804D169460988A94200D00C202DB0D6
:10C9600030BD0820FBE70000FFFF000038B504469B
:10C9700008682060087960710020C0430D4620845B
:10C9800000212220015520464030818114218173ED
:10C990000121684681700C490180A21D6946012071
:10C9A000A0DF00280FD12946204601F047FE0028CD
:10C9B00009D1A868002805D02946204600F0BEF815
:10C9C000002800D1002038BD0D18000038B50246FF
:10C9D0000888102816D0112816D0502817D1881D85
:10C9E000C9889389994212D14189144602290ED1EE
:10C9F000216800290BD00C3000F03DF8002807D04A
:10CA0000002006E0888801E00020C043108438BD83
:10CA100001206946087022682046904738BD028C84
:10CA20000B889A4203D18978C91E403081737047C0
:10CA300070B5054604464035A8890E46142807D12E
:10CA40002622A118881EFEF777FBA889401EA88120
:10CA500080B241000919401CA8818E8470BD20302D
:10CA60008170704770B504460D460846FEF796FB88
:10CA70002080656070BD4178027808021043C007CD
:10CA8000C00F70470A7802704978417002207047E1
:10CA900010B5234886B0006905900023D0222149B3
:10CAA00005A805F087FA040006D001461EA0FEF78F
:10CAB0005BFD2046FFF734F86A460121002005F0AF
:10CAC00061FA040006D0014617A0FEF74DFD20468E
:10CAD000FFF726F8684605F04BFA040006D0014639
:10CAE00011A0FEF741FD2046FFF71AF8114805F0A6
:10CAF00035FA040006D001460BA0FEF735FD2046AE
:10CB0000FFF70EF80C4805F087FA040006D001463E
:10CB100005A0FEF729FD2046FFF702F806B010BD7C
:10CB2000282902006836002065727220636F6465F0
:10CB300020256400CDC801002D200200F0B58FB083
:10CB40000D4606461C216846FEF71DFB6846017827
:10CB50000220014368460170002401940394049468
:10CB60000594012708A80694877014496846018433
:10CB70000794E97B0177297C4177807FF921084080
:10CB8000801CE7210840410849006846817714214C
:10CB900009A8FEF7F8FA08A8099007A80A906846BD
:10CBA0008785C4850786A8680D903346F0881033C2
:10CBB00009AA6946A2DF0FB0F0BD0000382A0000C4
:10CBC0000149085C704700004C2902000549095CD6
:10CBD00005480069C840C007C00F00D001200121EE
:10CBE000484070474C2902000005005005490B5C85
:10CBF00005494A6801209840034693438B601040E2
:10CC0000C8607047482902000005005010B503496C
:10CC1000085C012102F0E2FD10BD0000482902007D
:10CC200010B50349085C002102F0D8FD10BD0000DA
:10CC3000482902000549095C05484068C840C0070A
:10CC4000C00F00D001200121484070474829020050
:10CC5000000500507CB50024074E2546305D0122BA
:10CC6000009500231146019502F066FD641C042C1A
:10CC7000F4D300F003F87CBD4829020010B500246D
:10CC80002046FFF7C3FF641C042CF9D310BD10B578
:10CC900000242046FFF7C4FF641C042CF9D310BD08
:10CCA0000246002010B5C043054B00215C5C944255
:10CCB00001D1084610BD491C0429F7D310BD00005E
:10CCC0004C29020070B5104E00250C46306000293A
:10CCD0000DD0012000F0BEF8002801D0022005E0B0
:10CCE000002000F0B7F8002800D00B202070217839
:10CCF00006A0FEF739FC7068002802D1FEF724FE7A
:10CD00000546284670BD0000F03300200D0A705F14
:10CD1000737461727475705F6273705F657674208E
:10CD20002564000010B51C4C0188606810290DD0E6
:10CD300011290AD1401E606007D1FEF705FE0028C8
:10CD400003D02168002900D0884710BD00281ED1DB
:10CD500000210122084600F0ADF8002801D0072884
:10CD600011D107220221012000F0A4F8002801D0EF
:10CD7000072808D104220221002000F09BF8002897
:10CD800005D0072803D02168002900D088476068B3
:10CD9000401C606010BD0000F033002010B5002082
:10CDA00000F0CAF9002801D0062807D1012000F0C0
:10CDB000C3F9002801D0062800D1002010BD0000D2
:10CDC000F3B581B00D460198FFF76AFF04460428C9
:10CDD00013D21D481D4F1E4E002D27D0012D0DD002
:10CDE000022D0AD160002018C0194578002D04D00A
:10CDF000F168002901D028468847FEBD610061180E
:10CE00007D5CCF19797800290BD071680A225143D3
:10CE10000F4A8068921CFEF7DFFE002801D10198BE
:10CE2000B0700B48B97810300155DFE78068FEF725
:10CE300017FF0748610061181030C919005D8D782F
:10CE4000A842D3D0FEBD00005029020020380020A7
:10CE5000DC33002010B5FFF7B9FE10BD10B5014658
:10CE60000F480429408806D0072911D00A2901D18A
:10CE700004F00CFE10BD132176DF0EE00400F9D0A3
:10CE8000014608A0FEF770FB2046FEF749FE10BDE4
:10CE900007498842FBD1FFF7A1F90828EED110BD60
:10CEA000B033002065727220636F646520256400D2
:10CEB000FFFF000070B50023042811D244000419BC
:10CEC0000D4D012A02D101290DD000224600801902
:10CED000094E801900290CD0012906D0022906D05C
:10CEE0000723184670BD0E30C2B22A55F9E74270CA
:10CEF000F7E78270F5E700002038002010B5054AFA
:10CF00000146127A0020D20702D0084600F054F8F9
:10CF100010BD0000DC330020F8B5064621480F465E
:10CF20008660C2604160B00727D500250122114606
:10CF30002846FFF7BFFF6D1C0446042D02D2002CCB
:10CF4000F4D013E0002C11D17A0804211648FEF722
:10CF5000A1FD04000AD1FEF78BFD040006D11248A2
:10CF6000124A0021001FFEF7E7FD0446F00701D03A
:10CF7000FFF770FE002C04D012E0F00701D0FFF79D
:10CF800069FE09480A4A00210C38FEF7D5FD040065
:10CF900006D10548074A01210838FEF7CDFD0446B1
:10CFA0002046F8BDDC3300205C29020049D1010095
:10CFB0004DEC010067BA0100F8B55D4C054660789C
:10CFC0000026002803D000206070FFF757FE0120E4
:10CFD000584F2B00FEF7D8FA18970D0D2E3D4A5FDB
:10CFE00064686F686FA97777777777979A9DA0A91C
:10CFF000A9950020FFF71EFE00280AD00020FFF7A9
:10D0000005FE022D02D1E120C0000BE07D20400191
:10D0100008E00020FFF704FE022D01D1C82001E046
:10D02000FF20913025706421FEF770F8616841435C
:10D0300000222BE00020FFF7FDFD002805D0002096
:10D04000FFF7E4FD19204001ECE70020FFF7E8FDC1
:10D05000E4E70020FFF7EEFD002803D00020FFF7F3
:10D06000D5FDD3E70020FFF7DBFDD9E70020FFF770
:10D07000E1FD002803D00020FFF7C8FD02E00020FA
:10D08000FFF7CEFD25706068410000223868FEF78A
:10D09000A3FD064635E00020FFF7A8FD257007E058
:10D0A00000203FE025702CE060700120FFF79EFD1E
:10D0B00000226168EAE760700120FFF797FD606871
:10D0C00081004118E1E77868FEF7CAFD06461120A5
:10D0D000401B01D0002E03D00220FFF797FD10E087
:10D0E00001280BD9C82148436421FEF70FF8616875
:10D0F000002241437868FEF76FFD06460220FFF7E5
:10D100008FFD3046F8BDFFF7B9FDCBE7FFF7B6FD61
:10D11000C6E7FFF7B3FD04E0FFF7B0FD0020FFF71F
:10D120007FFD0120FFF77CFDBCE7FFF7B0FDB9E70D
:10D13000DC3300205029020010B5FFF741FD032128
:10D1400002F022FB002010BD10B500780221FFF78D
:10D1500037FE10BD38B50546114A12490320FFF7C6
:10D16000DBFE040006D001460FA0FEF7FDF92046C5
:10D17000FEF7D6FC69460020FFF7A4FD040006D0A8
:10D18000014609A0FEF7F0F92046FEF7C9FC684603
:10D190000078022802D00020287038BD0120FBE76B
:10D1A0005DCE0100CD0C000065727220636F646576
:10D1B000202564000022D243830004490428CA5079
:10D1C00002D308182030027770470000A83E0020E4
:10D1D000F0B50025ED43002A02D00023042601E02B
:10D1E000042308260B4C04E09F00E7597F1C04D061
:10D1F0005B1CB342F8D32846F0BD26185DB220363A
:10D2000035709E00A151002AF5D1E1182031087730
:10D21000F1E70000A83E0020024909182020085626
:10D2200070470000A83E0020FFB58FB01E4615468F
:10D230000F0002D10020FEF773FC002D02D1002068
:10D24000FEF76EFC1C216846FDF79DFF68460178DD
:10D250000220014368460170002401940394049461
:10D260000594012108A80694817068460F990184ED
:10D2700007943178017771784177807FF9210840F0
:10D28000801CE72108404108490068468177142145
:10D2900009A8FDF778FF08A8099007A80A90684632
:10D2A0008585C485058604480D9709AA69460088C6
:10D2B000189BA2DF13B0F0BDA2340020002807D0D5
:10D2C0000449814204D80449814201D901207047B0
:10D2D000002070476035002070350020044A016846
:10D2E000914201D0083101E00149383901607047AD
:10D2F0000840002070B50D4D04460A462846AC4251
:10D3000008D1FF2401342146104603F04DFBA04212
:10D310000AD070BDFF2CFCD82146104603F036FB26
:10D32000002801D0204670BD284670BDFFFF0000D8
:10D3300070B5084C050009D010342168002907D0C9
:10D3400008682060496828468847F6E70834F4E70B
:10D3500070BD0000943E0020F8B5234841680029C4
:10D360003ED00E6821494C6887688078E11B0D0229
:10D370002D0AED1C002814D101201D4A0004506024
:10D380001B4A403A50601B49400008601A49086037
:10D390001A49012008602F2002F06CF81249012080
:10D3A0008870B54200D23546E81900020F4B000ADA
:10D3B000403318600D4A5168001B091B0902090A15
:10D3C0000002C91C000A814209D9506818602F2048
:10D3D00002F050F801200749400480390860F8BD88
:10D3E00003F02CFFF8BD00000035002000150140BF
:10D3F0004013014080E200E000E100E00010014045
:10D40000F8B50646108814468446801D0D4698429D
:10D4100001D90C20F8BD32880720062AFAD3192733
:10D42000FF01184BBA4201D99A42F3D171880629FB
:10D43000F0D3B94201D99942ECD19A4203D0994232
:10D4400001D08A42E6D8052160462954208812215D
:10D45000401C80B2208029542088401C80B220804B
:10D460004119308804F0F7FF2188401880B22080ED
:10D470004119708804F0EFFF2188401820800020B7
:10D48000F8BD0000FFFF000010B5FEF749FB10BD1E
:10D49000F8B5164801F096FB144D00260C3D144CCF
:10D4A000002807D0616900291CD001206A4610704D
:10D4B000684616E02878002805D06169002911D057
:10D4C000684606700DE0687800280DD0A16809480C
:10D4D00000220068FEF780FB002803D0A169002924
:10D4E00000D088472E70F8BD6168F0E7383400201E
:10D4F000183A00207C2902007FB50C46002802D093
:10D50000012004B070BD20790026002806D01B4DF4
:10D5100001281CD0022828D00F20F2E7029603969B
:10D52000E0680190694601A803F062FD00280AD076
:10D5300002988188E18000882081694609880298E4
:10D5400003F0D0FD00E00A2002212171D9E70C4B45
:10D550006A460021A01D03F009FD002807D00849F4
:10D5600008398E60CE600A28CBD12846C9E7044826
:10D570008188019803F0B6FDF5E700001D1D00004D
:10D5800034350020F8B500260124154D24E06968E3
:10D59000F00047183878214681402A690B4613422B
:10D5A00018D08A432A6102F089F83A782146EB685C
:10D5B000914019400346934099420BD17978012953
:10D5C00001D0012100E000217B684140002B01D007
:10D5D00010469847761CF6B228788642D7D3F8BD15
:10D5E000EC34002010B50E4900230A784C78A24292
:10D5F00012D0521CD2B20A70022A00D10B700A78E3
:10D60000074B920018339A5802608868101800027D
:10D61000000A8860012010BD0360002010BD0000DA
:10D62000003500203EB5094D383538CD00930295C0
:10D6300001946B46588099809A71054900220978B7
:10D64000FFF760F8684600F08DF83EBDB82902008B
:10D650008834002010B5047800222300FDF794FFE1
:10D66000070605070D1D262C06000A7010BD0122B5
:10D670000A7002898A81828814E002220A70028973
:10D680008A818288CA81C2688A60007C062802D0AA
:10D690000020087410BD0120FBE703220A70C28835
:10D6A0008A810289CA81C068886010BD04230B701A
:10D6B000C0888881CA8110BD0520087010BD000097
:10D6C00070B5064D06460024A0002958002901D057
:10D6D00030468847641C082CF6D370BD383F0020C4
:10D6E0000EB5002910D011290ED00022009202920E
:10D6F0006A46508001910D2907D0862907D009205C
:10D700001070104600F03CF80EBD0B20F8E70A2020
:10D71000F6E7000001490968084700004834002086
:10D7200070B5054D06460024A000295830468847AC
:10D73000641C022CF8D370BD98290200F8B5074686
:10D740000024064E064D04E0A000315838468847B4
:10D75000641CE8788442F7DBF8BD0000483E0020F6
:10D760007834002070B5054D06460024A0002958E5
:10D7700030468847641C022CF8D370BDB8290200DB
:10D780000149096808470000FC29020070470000B1
:10D790007FB50446406800280BD000200390207815
:10D7A0000026414D0300FDF7EFFE066D0606304EE4
:10D7B0007B6D0120F2E7A08900F0DAF9002804D19E
:10D7C000E08903F0B1FC00285CD0A08900F0CAF920
:10D7D000014668464180E08903F0A0FC01466846A6
:10D7E000017120780128606807D0002809D0042042
:10D7F000694608706068039020E00028F8D0032094
:10D80000F6E70120F4E708463AE0A08900F0B0F915
:10D81000002804D1E08903F087FC002832D0A089D9
:10D8200000F0A0F969464880E08903F077FC69467A
:10D8300008716068002804D005200870A068029074
:10D84000E1E70220F9E7A08900F092F9002819D059
:10D85000E089002816D1A08900F084F96946488043
:10D86000E08903F05BFCFF206946087160680028CE
:10D870000FD0072008706E70AE7002F095FD6846FC
:10D8800002F04EFC6878002802D06E7002F08CFD29
:10D890007FBD062168460170408802F013FEEAE76A
:10D8A000082069460870AEE76434002000B51049CE
:10D8B00087B00978890702D4022007B000BD0D495E
:10D8C000884201D10420F8E7052269460A70012246
:10D8D0000A71C88000221146684602F085F80028C7
:10D8E00003D003F027FB0020E7E70820E5E700006E
:10D8F0002C350020FFFF000000B50F4887B00078EE
:10D90000800702D4022007B000BD062069460870D7
:10D9100000221146684602F067F8002809D007483F
:10D920000178002901D00121017303F003FB0020DD
:10D93000E9E70820E7E700002C3500203840002008
:10D9400010B58CB014216846FDF71DFC1D48007809
:10D95000810703D56846FFF7B3FE30E0C0072ED13C
:10D96000012000F02BF900F0ADF9012468460475A0
:10D9700002F0CCF80300FDF707FE0C071107111B9E
:10D98000190A191B1317131B0B200CB010BD022012
:10D9900000F014F9012000F0F7F8DBE7002000E0C8
:10D9A00003206946087603E00220FAE76846047619
:10D9B0000022114605A802F017F803F0BBFA002078
:10D9C000E3E700002C35002038B5040014D0694688
:10D9D00003F00EFB002813D06846008801010948B7
:10D9E00009188889002809D0A27A002A06D0401E8A
:10D9F00088810020A07238BD052038BD062038BDC2
:10DA00000A2038BD184000201FB501A9684603F060
:10DA1000ADFA04B010BD07B513460A4669460020AA
:10DA200003F0A4FA0EBD07B513460A460021684666
:10DA300003F09CFA0EBD002805D0002903D0006831
:10DA400008600020704705207047000038B50D467B
:10DA5000040017D0002D15D0694603F0C9FA00283C
:10DA600012D068460088616802010848121890893F
:10DA7000401C9081296060680C3068600120A072B1
:10DA8000002038BD052038BD0A2038BD18400020D0
:10DA900010B5002804D00323002204F00FFE10BDAF
:10DAA000052010BD10B50223002204F007FE10BDB2
:10DAB00010B5002A03D0022304F000FE10BD05209B
:10DAC00010BD000010B5064A5178082906D08B0019
:10DAD000044C491CE0505170002010BD0C2010BDBA
:10DAE0002C350020383F002038B504460A480D4642
:10DAF0000078800701D4022038BD002C0AD0694686
:10DB0000284604F0EBFE0028F6D1694609882180FA
:10DB1000658038BD052038BD2C35002010B5044681
:10DB20000E480078800701D4022010BD002C10D0D0
:10DB3000218802290FD80A4A080180184289608882
:10DB4000121AD21E07D404F0BFFE0020208060808D
:10DB500010BD052010BD042010BD00002C35002094
:10DB60001840002003218903401A80B2704700004A
:10DB700003218903401A0349884201D801207047D4
:10DB800000207047FE3F000002490A7882430A7075
:10DB9000704700002C35002010B504460078182886
:10DBA00002D1FEF779FD207010BD10B50446007853
:10DBB000182802D1FEF770FD207010BD02490A78C6
:10DBC00002430A70704700002C35002070B50646ED
:10DBD00000200546862906D0112902D0002903D04D
:10DBE00070BD012500E001200E4C002A02460FD036
:10DBF00061793046FEF786FD2A4621793046FEF7E8
:10DC000081FD002261783046FEF77CFD002204E0B1
:10DC100061783046FEF776FD2A4621783046FEF7D9
:10DC200071FD70BD8C34002038B504466846047020
:10DC300069460320ABBE204638BD0000F8B5064655
:10DC40001C481F46007815460C46C0070AD03046CF
:10DC5000FFF734FB002807D0002C07D0A00507D021
:10DC60000620F8BD0120F8BD0220F8BD0320F8BD54
:10DC70003068A04204D8A80271680019884201D90E
:10DC80000520F8BD002D11D0684603F0A5F8002846
:10DC90000ED000980221476006600172A101090CB4
:10DCA0008181058203F054F90020F8BD0420F8BDFD
:10DCB0000720F8BD4435002010B5084603F0A8F849
:10DCC00010BD0000F0B52648264C001B030926486D
:10DCD00019464069421C03D10120000740698002B7
:10DCE000224A12789646D2070CD00020F0BD1D4C77
:10DCF00015012C192568002D03D06468002C00D074
:10DD0000491E521C9A42F2D3002420E0E2B20025C0
:10DD100094462A460FE0134E1701BE193768002FAC
:10DD200002D07768002F05D1767BAE4202D9354606
:10DD3000D6B2B446521C9A42EDD362461501094A46
:10DD4000AA185060157BAD02401B641C10608C4209
:10DD5000DCD306487146012211430170C5E700007B
:10DD60007035002060350020001000104435002080
:10DD7000002804D00349496E016000207047032049
:10DD80007047000048400020F8B507461E481E4670
:10DD9000007815460C46C0070ED03846FFF78EFABD
:10DDA00000280BD0002D0BD0002C09D02846204392
:10DDB000800707D00620F8BD0120F8BD0220F8BD7D
:10DDC0000320F8BD3868A04204D8B100786809196A
:10DDD000884201D20520F8BD002E11D0684602F01D
:10DDE000FBFF00280ED000980699076041600121D2
:10DDF0000172C5600461868203F0AAF80020F8BDB4
:10DE00000420F8BD0720F8BD4435002070B5174B3D
:10DE10000446186E182148431549C0180A7895071A
:10DE200015D5022C02D0032C1CD102E001F0B2FD6A
:10DE300018E04A78521CD2B24A70032A12D9002242
:10DE40004A70082103F0C6FB02F0B0FF0AE0500759
:10DE500008D5FB2002400A70586E002802D002202C
:10DE600002430A7003F030F870BD00004840002003
:10DE7000443500203EB51120694608720A2218A1D7
:10DE800002A87CDF040006D0014618A0FDF76CFB59
:10DE90002046FDF745FE184878DF040006D001460D
:10DEA00012A0FDF761FB2046FDF73AFE0020FF229D
:10DEB00000904132694601900A804122D2004A8096
:10DEC0008880FF209130C88068467ADF040006D041
:10DED000014606A0FDF748FB2046FDF721FE3EBDAA
:10DEE0004E6F726469635F48524D00006572722024
:10DEF000636F6465202564004103000010B502488B
:10DF0000FEF78DFD10BD00005037002010B5074909
:10DF1000074801F09DFA040006D001460548FDF7C8
:10DF200023FB2046FDF7FCFD10BD0000FDDE0100D7
:10DF3000A03700203C29020070B5002801D0012044
:10DF400070BD164C0025207B002801D0257301E010
:10DF500000F09CF820780300FDF716FB081E05086A
:10DF60000B0E1E111A1E00F01BF870BD00F07EF89B
:10DF700070BD00F061F870BD00F038F870BD6088C9
:10DF80000649000120394018406801F09FFD70BD2E
:10DF9000656001F0A9FD70BD0F2070BD3840002004
:10DFA00070B5104900208A1C0D460346203D0C1810
:10DFB000A67A002E08D0A37204016419A689002E47
:10DFC00002D1A47B012C08D0401C80B20228EED3E1
:10DFD0000B704B8004484B6070BD108000F046F819
:10DFE00070BD0000384000201D1D000010B50F4C12
:10DFF00060880101204620380818818900290BD04B
:10E00000052020700A480221818001680023012236
:10E010000848FFF713FE10BD4168002301220548A0
:10E02000FFF70CFE0421217010BD000038400020D5
:10E030003C3500206035002038B50A4908480B6897
:10E040008988426889005918538803240470002085
:10E05000DB1C00909BB20448FFF796FE38BD000021
:10E06000384000203C3500206035002010B50649BE
:10E070004888091D03F00CF8002802D0FFF7DCFFE8
:10E0800010BDFFF7B3FF10BD38400020F0B51D48AC
:10E090001D4907780246012502268C88203A3B005C
:10E0A000FDF772FA080517171A212C2C161701898B
:10E0B000491C01810021418001730B01D35C002BBD
:10E0C00008D000234418491C89B2A3720229F4D352
:10E0D0000570F0BD0123F5E742685288D21CA218F2
:10E0E0008A800670F0BD45880B682D01AA18556816
:10E0F0000D60536014818E80062100E007210170BD
:10E10000F0BD0000384000203C350020F0B504464A
:10E110000088384D8DB050281DD0522802D0542888
:10E1200026D103E0A08800F0D7FF21E00620694651
:10E130000870A08800F074FC69464880A2888A8034
:10E1400000F056F9A0880022E978FEF7DBFA68466D
:10E15000FFF7E0FA0CE0207B012809D1A07A012822
:10E1600006D120892449884202D1A08800F0F0FF1E
:10E17000A878FEF7A9FA002819D008A8FEF7DAF95E
:10E18000142208A903A8FCF7D7FF002403AE0BE074
:10E1900060008719B888A978FEF7A2FA002802D093
:10E1A000B88800F099FF641C0398A042F0D8687802
:10E1B000FEF78AFA002819D008A8FEF7BBF9142246
:10E1C00008A903A8FCF7B8FF002403AE0BE0600029
:10E1D0008719B8886978FEF783FA002802D0B888D2
:10E1E00000F0B6FF641C0398A042F0D803F08AFA4E
:10E1F0000DB0F0BD40340020022900003EB50446B9
:10E200004088694648802078002814D001281DD015
:10E2100002280FD1207900280CD0608800F034FB50
:10E220000E49884206D00E490122C978FEF76AFAE3
:10E2300003F068FA3EBD002008700846FFF76AFA4E
:10E24000608800F021FB00F047FF3EBD01216846D9
:10E250000170A1888180FFF75DFA3EBDFFFF0000DD
:10E260004034002010B50446007801280DD16088A4
:10E2700000F032FF608800F081F9002805D00349E2
:10E2800060880122C978FEF73DFA10BD40340020B5
:10E2900010B5104C00202070FEF7FEF96070FEF7FC
:10E2A000FBF9A070FEF7F8F9E070FEF7F5F92071C0
:10E2B000617818290BD0A178182908D0E17818299D
:10E2C00005D0182803D001202070002010BD0320A5
:10E2D00010BD000040340020F0B585B000F0A0F87B
:10E2E0006846FEF727F900246D460C4F0EE06000EB
:10E2F0004619B08800F094FBB84205D10849B088AF
:10E300000122C978FEF7FEF9641CA4B20098A0426D
:10E31000EDD803F0F7F905B0F0BD0000FFFF0000F5
:10E320004034002010B50178072902D1408800F060
:10E330000FFF10BD10B504460A4841782046FEF78D
:10E34000CFF900280CD0084800210C224A431218AB
:10E350005288A24201D1C8B210BD491C0829F4D389
:10E36000FF2010BD58340020683A002070B5094DD8
:10E37000094E00240C206043401940887178FEF754
:10E38000AFF9002804D0641C082CF3D3FF2070BD23
:10E39000E0B270BD683A002058340020F8B5074656
:10E3A000114E0125BD403068FDF75AFC002806D10A
:10E3B0000E4C20690146294202D0A8432061F8BDD5
:10E3C000384601F07BF90028E06801D0284300E0DE
:10E3D000A843E0602069002228432061A1683068DA
:10E3E000FDF7FAFBF8BD0000042A0200EC3400201F
:10E3F0001CB5054A9168D2680192009100226946D5
:10E4000001F056FD1CBD00008429020003480021D4
:10E41000C943818001210170002070474C340020E5
:10E4200010B5044801F078FC0349888003F096F9A0
:10E4300010BD0000FFFF00004C340020F1B582B099
:10E44000029800F0EDFA002416490325012726461C
:10E45000884209D06A46082101F000FD002803D156
:10E46000019886880568841D2B463246214602980D
:10E47000A9DF042804D0082804D00B2807D002E024
:10E48000112000E00020002F00D10B20FEBD00274E
:10E49000A80701D50125E7E73443F6D00024264636
:10E4A0000325E1E7FFFF0000F1B582B0029800F01C
:10E4B000B7FA07461B48874201D11B48FEBD01251C
:10E4C0002A466D1C0026ADB26B460821384601F085
:10E4D000F5FC040002D0072C21D021E00199032390
:10E4E0000B600A1D891D0298AADF040004D00C2CC1
:10E4F00008D0052C08D008E00821384601F078FD46
:10E5000004460DE0012600E000240821384601F011
:10E5100059FD002800D00324002ED1D100E00C24A6
:10E520002046FEBDFFFF0000023000001FB504467C
:10E530000078012815D12079012812D1608802AA1B
:10E54000012101F08BFC00280BD1022168460170EB
:10E55000618841800398017868460171054909681E
:10E5600088470448044908388088884201D003F06D
:10E57000F5F81FBD54340020FFFF00001CB500F06B
:10E580004FFA6A46012101F069FC002801D0002001
:10E590001CBD019800781CBDF8B5074E074C084D0E
:10E5A0000746324661883846A7DFA84203D1608813
:10E5B000401C6080F5E7F8BDFFFF00004C340020F0
:10E5C000033000008188054A914204D00088002869
:10E5D00001D001207047002070470000FFFF0000BD
:10E5E00010B51249124803F07FF8114C81B2103C6B
:10E5F0006068401C60600D487038FEF78BF9002899
:10E6000009D0082807D00B49884204D00A4988421B
:10E6100001D0FDF785FA03216068FCF777FD00293A
:10E6200001D0012000E00020207010BDC037002084
:10E63000C03300200430000001340000F0B5002495
:10E6400006460D46601C0107B7B0090F103108A837
:10E650000C940174297B4174817CF9273940891C11
:10E6600081741C2105A8FCF78EFD6846017D1020F1
:10E670000143684601750CA806940A900894099411
:10E6800001220B9408A882761649684601870D94EA
:10E69000697B08A80175A97B4175817DE720394018
:10E6A000891C0140114308A8817514216846FCF7B4
:10E6B0006AFD0EA800900DA801900FAA0021304617
:10E6C00000F012F80146684601819B214481818156
:10E6D0000FA804903346F08808336A4605A9A2DFE4
:10E6E00037B0F0BD372A0000F7B542790025002A7F
:10E6F00000D004252222135C0222002B00D01543F7
:10E70000CBB2FF2907D901221543029A090A537097
:10E710009170032602E0029902264B7004464034B1
:10E72000A189002901D010210D43002717E0A27B09
:10E73000B11C8A4209D2A189C91B4A007900091873
:10E7400024312430FCF7F8FC0CE0029B7A0012180C
:10E750009B19928C1A70120A5A70CEB27F1CA18932
:10E76000B942E4DCA089C01BA08102980570304644
:10E77000FEBD3EB5044600780D46022815D10322A1
:10E78000611C6846FCF7D8FC0322211D02A8FCF797
:10E79000D3FC01AA02A92846FDF73EF9032201A9EC
:10E7A0006846FCF702FD002801D000203EBD012094
:10E7B0003EBD000010B50C46FFF7BCFDFF280AD097
:10E7C0000C214843054907224118091D2046FCF742
:10E7D000B3FC002010BD052010BD0000683A0020E9
:10E7E00070B5018890B0102949D1011D2C2202A8D2
:10E7F000FCF7A2FC6846234E007B344602AD03289A
:10E800002AD001F0FDFC6846007B00280ED00128CC
:10E810000CD0022820D118E00E99281D1131FCF7E8
:10E8200083FF002802D06846048815E00DAA6946D7
:10E83000072001F0BBFC0028EED10DE00E99281D49
:10E84000491CFFF796FF0028EDD10DAA6946072065
:10E8500001F0ACFC0028F1D168460089291D00F0C8
:10E86000A7FDB4420BD068460089214600F086F827
:10E8700068460189418001210170FEF751FF10B007
:10E8800070BD0000FFFF0000084A00210C234B432D
:10E89000D35A834204D10C204143881840887047E2
:10E8A000491C0829F2D3024870470000683A00204A
:10E8B000FFFF000010B50E4C182060700D4A0E4985
:10E8C00000200C2343435B18401C5A800828F8D3CF
:10E8D000FDF7E2FE6070182804D00548C01C71DF07
:10E8E000002801D0032010BD01202070002010BDA1
:10E8F00058340020FFFF0000683A002070B504463D
:10E900000D46401C00F090F9002810D01022691C20
:10E91000601CFCF74AFC00280AD000262946204645
:10E9200011311130FCF700FF01463046084370BD3D
:10E930000126F3E70188002903D142189278002AC2
:10E9400001D001207047491C0829F6D300207047E8
:10E9500010B50C460346FFF7EDFF00280BD01888D2
:10E960002188884206D10822A11C981CFCF71DFCB6
:10E97000002801D0002010BD012010BD10B501F00D
:10E98000FDFD10BD10B50446007888B0002826D1E2
:10E990002079072823D1608801AA072101F05EFAB7
:10E9A00000281CD101F02CFC1BE069466088098816
:10E9B000884216D004990298FFF7A0FF002810D0D3
:10E9C0006088FFF761FF01466846C182002101753A
:10E9D000618801830188418305A8FEF7A1FE08B084
:10E9E00010BD03AA6946072001F0E0FB0028DCD136
:10E9F000F5E7000070B50446FFF746FF05462046E0
:10EA000001F031FA054904468D4204D0002C02D1B0
:10EA1000284601F0B3FD204670BD0000FFFF000056
:10EA200010B5FFF787FCFF2804D00C2148430249AA
:10EA3000085A10BD014810BD683A0020FFFF0000D1
:10EA40003EB5044601F0DCFB10E00199204646315A
:10EA5000FFF77EFF002806D1019920462A31FFF7F3
:10EA600077FF002802D0684600893EBD6A4602A9A9
:10EA7000072001F09BFB0028E7D101483EBD0000C4
:10EA8000FFFF0000F8B50F46002804D00120FFF773
:10EA90007BF80120F8BD397900290AD00026254DE0
:10EAA00001290BD0244C022920681FD003293BD117
:10EAB00025E001F019F80121397133E0002001014E
:10EAC000695C02290BD0401C80B20228F7D30220D7
:10EAD000FFF774F80120FFF757F81848F8BD040154
:10EAE0006019406800F0F2FF2E551BE0014600233C
:10EAF00001221348FFF7A2F80221A18011E000F0E3
:10EB0000E5FF0C492368203149880A010949511859
:10EB10004D6825604B60A3880B810221A1800549C7
:10EB20008E543E710028D9D00120FFF72DF80E2019
:10EB3000F8BD0000184000203C3500201D1D0000DD
:10EB400060350020F8B51E4C2078002836D0E068EB
:10EB5000002600280CD00025607800282ED16846B9
:10EB600052DF052806D0002806D0FCF7D9FF0BE0BD
:10EB70000125F1E7012607E0009800F0D1FC2169AA
:10EB8000002901D000988847002D13D16078002813
:10EB900014D1608869460880A06861DF052804D028
:10EBA000002804D0FCF7BCFF04E0012502E0E16886
:10EBB000A0688847002ECFD0002DE5D0F8BD00001A
:10EBC00048350020418805480288914204D3408896
:10EBD000814201D801207047002070473034002066
:10EBE0001048018CC9B2012917D1818C090714D1B1
:10EBF000018D09060A0F03D1828D1206120F0ED065
:10EC0000090F012903D1828D1206120F07D00329A3
:10EC100003D1808D0006000F01D000207047012035
:10EC200070470000C00F00F00021425C002A01D0B4
:10EC300001207047491C1029F7D300207047800736
:10EC400001D00020704701207047000010B5044833
:10EC5000017AC90702D00078FEF7AEF910BD0000B6
:10EC6000DC330020FFB5244D81B0287A1F460E46C4
:10EC7000084304D0039A002E04D0002104E00520AC
:10EC800005B0F0BD1C491031019803F069F8044645
:10EC9000014600220198FEF799FF002F03D021467C
:10ECA0000198FEF71DFD112C0FD006DC002C0AD0B8
:10ECB000082C08D00D2C05D105E0862C11D00F486A
:10ECC000201800D003242046DAE73246E97801987C
:10ECD000FDF718FDA978039A0198FDF713FD0024AC
:10ECE000F1E73246E9780198FDF70CFDA978039A1F
:10ECF0000198FDF707FDE6E78C340020FECFFFFF0B
:10ED0000FEB517460C00064604D02078C00704D094
:10ED1000012003E000217EDFFEBD0220694608716C
:10ED20003046FFF77DFE17490546884208D001A806
:10ED300000902B463A462146304600F025F806E082
:10ED400020782146C007304603D000F081F8044601
:10ED50000BE07EDF044600200090002C08D000224B
:10ED600001232946304602F0FFFB002C02D006E0CA
:10ED70000122F5E768460179304602F01BFC204687
:10ED8000FEBD0000FFFF0000FFB585B000252E4648
:10ED900001AA07210E9F089801F060F8040009D12C
:10EDA000029D0298183540300079C607F60F01D051
:10EDB000029D34350798204312D1002D10D0002E2B
:10EDC00005D128461230FFF7B5FD002808D02946A6
:10EDD0002A461231059885DF04460020387023E06A
:10EDE000002C01D0052C1FD106980078C0070DD04B
:10EDF00003AB01220721089801F060F804000AD152
:10EE00000721089801F058F9040004D106990598E3
:10EE10007EDF040008D00721089801F0D3F800280D
:10EE200002D0052800D00324002000903878002864
:10EE300001D0012300E00023002C07D00022089914
:10EE4000059802F091FB204609B0F0BD0122F6E7DB
:10EE5000FEB50F46064600F0FDFF05461848854200
:10EE600020D001AB01220721284601F027F8040039
:10EE70000AD10721284601F01FF9040004D13946C0
:10EE800030467EDF040008D00721284601F09AF8BA
:10EE9000002802D0052800D0032401200090002C77
:10EEA0000BD002E003240020009000220123294619
:10EEB000304602F059FB2046FEBD0122F6E7000075
:10EEC000FFFF0000F7B5114D0F4616462978009850
:10EED000FDF706FC002812D00098FFF7A1FD0446BC
:10EEE0000B4884420BD069780098FDF7F9FB0028A5
:10EEF00006D033463A462146009800F07FFEFEBD1C
:10EF0000324639460098FEF78DFBFEBD883400205E
:10EF1000FFFF0000F1B586B00698FDF7D5FB00288D
:10EF200021D06846FDF706FB00246E4618E060001D
:10EF30008519A8880699FDF7D3FB00280FD00B4F41
:10EF4000A888B978FDF7CCFB0590A888F978FDF77B
:10EF5000C7FB0146A8880123059AFFF783FE641CBE
:10EF60000098A042E3D807B0F0BD00008C34002028
:10EF7000F0B5284C2146103948688B6822788646BF
:10EF80009C46CF78667836E0182353436168521C5C
:10EF9000C918A378D2B2934200D100220B78022B79
:10EFA00002D0032B27D123E003464D68194603E026
:10EFB000A94204D00B46C96900291CD0F8E70029F2
:10EFC00019D08B4208D1C069002805D1124F012504
:10EFD000BD600025AC4601270D68C969D9610029CB
:10EFE00009D00B685B190B6005E00174C06900E093
:10EFF00000210028F9D19642C6D10649624610394F
:10F000008A604860CF70704501D00120F0BD0020BB
:10F01000F0BD00001035002000100140F8B52C4E66
:10F02000044670680025009041E0002C02D0204684
:10F03000E46920E0264818231030017842684B43E9
:10F04000491CC9B2D21801708378994200D1057069
:10F050001178506801292CD1017C002929D19168AF
:10F060004160D16881601169C16051698161F17845
:10F07000002900D045604368B268164F991A09020A
:10F08000090AB94202D28268891806E0D11A090237
:10F090008268090A8A4202D9511A016000E00560BB
:10F0A0004560012185600174C56103F039F8002CC9
:10F0B000BBD107481030017840788142BAD17168DD
:10F0C0000098814201D00120F8BD0020F8BD000069
:10F0D00000350020FFFF7F00FEB5044619480026DA
:10F0E00084422DD02046FFF7A9F9050012D00B2D40
:10F0F00014D0112D10D0144828181BD009216846AF
:10F1000001702046FFF78CFC0146684641808480F0
:10F1100002950DE0022102E001260BE00321684682
:10F1200001702046FFF77CFC0146684641808480E0
:10F13000FEF7F0FA0548324681782046FDF7E2FAFC
:10F14000FEBD0000FFFF0000FECFFFFF40340020A7
:10F15000FEB504460026FFF7A7F90546112818D08A
:10F1600004DC002D13D00C2D05D114E0862D25D004
:10F17000134828181BD00921684601702046FFF764
:10F180004FFC014668464180848002950DE00121D4
:10F1900002E001260BE007216846017084802046CA
:10F1A000FFF73EFC014668464180FEF7B3FA05488A
:10F1B000324641782046FDF7A5FAFEBD0821EBE76F
:10F1C000FECFFFFF40340020F8B5054600780C461E
:10F1D0000026204210D10020694608706846FCF7DE
:10F1E00053FD28780146214202D120432870012690
:10F1F00068460078FCF766FD3046F8BD88B003F03D
:10F200001FF86846FDF7A6FFFDF742FC694608783F
:10F2100001F0C8F9FEF72EFEFCF7B4FBFEF776FE10
:10F2200002F052FB02F008FA1C2101A8FBF7ABFF29
:10F230000521C90302910F210904002003910190C7
:10F24000032269460A7412498A8969464A82087506
:10F25000104806901048079001A8FDF7F9F804003F
:10F2600006D001460DA0FCF77FF92046FCF758FCBC
:10F27000FCF73EFDFCF7C0FB48DF0400FCD0014674
:10F2800006A0FCF771F92046FCF74AFCF4E7000001
:10F290005037002061F9010089D4010065727220A5
:10F2A000636F64652025640070B514468288054646
:10F2B0000E46921C2088911C4118994201D8FE2AC2
:10F2C00001D90C2070BD521C32542088FF21401CF3
:10F2D00080B2208031542088401C80B22080811967
:10F2E000288803F0B8F82188401880B22080AA88C6
:10F2F000002A09D0A968002908D08019FBF71CFF53
:10F300002088A98840182080002070BD072070BD8B
:10F31000F8B50F46017814460546012902D16878F0
:10F32000002806D02088821C9A422DD8012902D0BC
:10F3300006E00720F8BD69784118891C994223D856
:10F34000181A801E86B2684606802188B81C0818E4
:10F3500069467DDF0028EDD12878022805D169466D
:10F360000988B14201D809210AE00821012805D104
:10F370006878B04202D86A46108001E0684606808C
:10F3800068460088FE2801D90C20F8BD2288401C60
:10F39000B8542088401C80B22080395420886946A7
:10F3A000401C20800988401820800020F8BD000003
:10F3B000F8B5FF240F46054600291FD0104EB54270
:10F3C0001CD01048012241782846FDF79BF92846B9
:10F3D000FEF7B0FF0446FF2804D1FEF7C7FF04463E
:10F3E000FF280BD00C2148430749024640184580AE
:10F3F0008E52001D07223946FBF79EFE2046F8BDBF
:10F40000FFFF000058340020683A002070B50B4D13
:10F410000E46A84201D1002000E0401C84B209E061
:10F420002146304601F0DAFA002801D0204670BDAE
:10F43000641CA4B2FF2CF3D9284670BDFFFF000066
:10F44000C20843075B0F0120895C98400840704761
:10F450000020704770470121890740180068002884
:10F4600000D001207047012200219207801801601E
:10F470007047000000280FD00849094A096800BFFA
:10F4800000BF00BF00BF00BF00BF00BF00BF914270
:10F4900000D000BF0138F2D170470000F8330020DF
:10F4A0000024F40070B50E4C00252078002801D00F
:10F4B000852513E00021A16061602161E1600948B8
:10F4C00000680126304002D1032100F02FF802F03D
:10F4D0009DFD002801D1044886612670284670BD34
:10F4E000943E002000E100E00005004038B5002017
:10F4F000694608706846FCF7C7FB084C207800286E
:10F5000001D1FFF7CFFFE068401CE0600120A07050
:10F5100068460078FCF7D6FB38BD0000943E00201A
:10F5200010B5002801D1FDF703FF10BD8207D30EEF
:10F53000FF229A408907090E10B5994000280BDA7E
:10F5400003071B0F083B9C080C4BA400E318DC6965
:10F5500094430C43DC6107E08408094BA400E418E1
:10F56000236893430B432360C106C90E01208840E2
:10F57000044908600449086010BD000000ED00E087
:10F5800000E400E080E200E000E100E0F3B581B0DB
:10F590000F46019801F074F800281D4E019816D00E
:10F5A000FDF73AFE80192030007F8009032802D041
:10F5B00001280AD004E0019800F008F9002804D0DE
:10F5C0000321019800F0F1F8FEBD0221F9E701F0F6
:10F5D00063F80028F8D00198FDF71EFE044681006C
:10F5E000C81D0C4AF93089180A6980B201252A43DE
:10F5F0000A6100F013F9002FE6D00198FDF70CFE28
:10F60000800030580028DFD00348A5404560FEBD8B
:10F61000A83E00200065004000630040FEB515468E
:10F620000E460446002701F021F8002801D00827E3
:10F630003CE0F27829462046FDF7CAFD0546401C0D
:10F6400033D0B07800280BD005200007A10009189E
:10F65000072000020918086802229043086007E0AA
:10F6600000217378204600910A46019100F078F855
:10F67000F078002810D00E48AA00101831780269DE
:10F680000C4B1A400261E206D20C8907890B0A432F
:10F6900001690A43026109E00748327840192030C5
:10F6A000017F92011143017700E004273846FEBD37
:10F6B00000650040FFE0FCFFA83E002010B500F010
:10F6C00085F8002800D0012010BD000070B5144D51
:10F6D0002879002801D0082070BD11490020403948
:10F6E000421E0B182033401CC0B21A702028F8D3D9
:10F6F00000242046FDF75EFD641CE4B2082CF8D31C
:10F7000003210620FFF712FFFF207D3000F086F86E
:10F7100001200449C007486001202871002070BD05
:10F72000E83E00200063004002480079002800D035
:10F7300001207047E83E002070B552000A4399004E
:10F74000049D0A432902059E0A43310405240A4305
:10F75000240780000721001909024018026070BDCB
:10F7600070B552000A439900049D0A432902059E80
:10F770000A43310405240A432407800007210019A5
:10F7800009024018026070BD05221207800082182D
:10F79000072000021018026803231B049A4302602A
:10F7A000026809040A4302607047052212078000BC
:10F7B0008218072000021018026803231B049A43D2
:10F7C0000260026809040A4302607047024909693D
:10F7D000C140C807C00F7047000500500122824099
:10F7E0000348002901D082607047C2607047000062
:10F7F0000005005038B5084B05241B68009324020F
:10F800006B46411805E085005D592D192D69401C96
:10F8100020C28142F7D838BD002A020002494018B0
:10F82000002101607047000000600040034940185B
:10F830000068012800D000207047000000600040F0
:10F840000921C9014118086808607047405800281C
:10F8500000D001207047032212028018406808403F
:10F8600000D001207047000010B500280ED00328FA
:10F870000BD10220FDF742FB040006D0014605A093
:10F88000FBF772FE2046FCF74BF910BD02F0FEF8C4
:10F8900010BD000065727220636F646520256400EE
:10F8A00070B50446008888B03A282BD009DC284E71
:10F8B00002282BD0102816D0112812D10020C043C6
:10F8C0001EE0512826D055280BD1A088132176DFC1
:10F8D000040006D001461FA0FBF746FE2046FCF7B9
:10F8E0001FF908B070BD0720FDF708FB050006D022
:10F8F000014618A0FBF738FE2846FCF711F9A0884E
:10F900007080EEE7A088132176DFE1E700217088A0
:10F9100067DFDDE71022A11D04A8FBF70DFC684698
:10F92000017C0029DDD0007E042803D0062801D008
:10F930000528D6D1022908D0012069460870FF2089
:10F9400083308880A088A8DFC2E70220F5E70000A6
:10F95000B033002065727220636F646520256400F7
:10F9600010B5007800280CD106483B21408876DF8E
:10F97000040006D0014604A0FBF7F6FD2046FCF784
:10F98000CFF810BDB033002065727220636F6465DC
:10F990002025640010B5134A00215170017A012915
:10F9A00011D002290ED18189491C8181C189491C4C
:10F9B00089B2C181028A914204D1002101F00AFE7C
:10F9C00001F0F4F910BD838AC28A991AFF2901DC7B
:10F9D00089B201E0FF210131511889B2C1829942F7
:10F9E000EBD010BD44350020F7B51C4D0E46014646
:10F9F0006A6F002082B0032A2DD82C46783408275D
:10FA0000636CBF1BBB4226D8286F10188007800F7D
:10FA10001C2250434019FBF78FFB686F401C68673E
:10FA2000002E17D0216C606C40184007800E001922
:10FA30000023009009E00498D9000A18009806CA2B
:10FA400006C06846FDF74AFC5B1CB342F3D3606C0A
:10FA500080196064012005B0F0BD0000583F00200F
:10FA60000389CA1C9A1802814289511AC91E418110
:10FA700070470000F7B50D4601218902471804467A
:10FA80000026083402202880BC4217D22068401C7F
:10FA900014D02046FEF796FD00280DD00A48A16834
:10FAA0004268914200D94160608881000C19298820
:10FAB0000C340818C01CE6E70126F5E70298002878
:10FAC00000D00670FEBD00002C35002008B50021D6
:10FAD000009101460223024A0248FEF755F908BD8B
:10FAE000182A02006035002008B500200090044864
:10FAF00002230168034A0448FEF746F908BD0000E6
:10FB00003C350020102A020060350020F8B50025A1
:10FB1000354F2C462E4600953448B10200684018F7
:10FB20000168B94205D1324A4168891830D00129AB
:10FB30000CD000218A0082580346521C36D0032084
:10FB40002C4922018854641CA4B21BE000990029AE
:10FB50000CD0284B022221015A54274A1368254A07
:10FB6000891802224B60641C0A81A4B22249002237
:10FB70000860091DFFF77EFF1F488088022831D0EA
:10FB800008200543761CB6B2032EC5D3E8B2F8BDF3
:10FB90001849002322018B5451180A4648600E323E
:10FBA0000831FFF767FF02200543CCE7491CFF2916
:10FBB000C0D911490A68002A0CD00E4A022123013B
:10FBC000D1549A1850600B48118120304480641C35
:10FBD000A4B204E002200B60888001200090012084
:10FBE0000543CFE70420CCE7DEC0ADDE6035002062
:10FBF00002FEE10E184000203C35002070B5194D82
:10FC00000E4604462C3523CD86B002950090019116
:10FC10006846448082808371134D2046A978FCF7A2
:10FC20005FFD002803D03046FEF7E4FE0FE0072119
:10FC3000304600F0C7F9002809D0052807D109226D
:10FC400069460A73CC81049003A8FDF78BFD00225E
:10FC500029782046FCF756FD6846FDF783FD06B07F
:10FC600070BD0000B829020088340020F0B585B0CE
:10FC70000746FCF729FD002814D06846FCF75AFC1B
:10FC800000246D460BE060004619B0883946FCF749
:10FC900027FD002802D0B08802F002F9641C009809
:10FCA000A042F0D805B0F0BD70B5054D0646002461
:10FCB000A000295830468847641C052CF8D370BD35
:10FCC000A42902003EB50F4D0024142060434019C2
:10FCD00002F0CEFC641C082CF7D3082150200191BF
:10FCE0000A490124C2000290074B0094881800F0D2
:10FCF0000EFD002801D003203EBD034844700020C3
:10FD00003EBD0000683D002070340020D83A00203D
:10FD100010B500F043FA10BD10B500F043FA10BD65
:10FD2000F0B5002585B00095019502950395044630
:10FD3000418868464180217901712E462179608889
:10FD400002F070FC22780421404F1300FBF71CFCEA
:10FD50000A0606361C1C383E43484B4D00280DD081
:10FD6000417CC9070AD002F095FC684606702078ED
:10FD7000012800D00020694608722AE00120694667
:10FD80000870A068029024E000280ED08268A36862
:10FD90009A420AD1427CD30707D07B6852085B1C89
:10FDA00052000A437B6042741FE0022069460870DB
:10FDB000E06803900DE0FFF777FF16E0032006E010
:10FDC00068460170E06802906846F4E705206946DD
:10FDD00008700846EFE7062069460870E068D1E73A
:10FDE00001250720F3E7E06802907868002824D016
:10FDF000174E0024142027464743B819417C4A0770
:10FE000003D48907C90F29421CD08178F05B00F028
:10FE1000EFF8002816D014214C43325B69464A8023
:10FE2000B9198A7869460A71862808D009216A4674
:10FE3000117002906846FFF737FF05B0F0BD08204B
:10FE40000870F7E7641C082CD4D3F6E77034002060
:10FE5000683D002010B500F06BFA10BD10B500230E
:10FE600000F0D6F910BD38B50546002420460AE05A
:10FE70008178284600F0A6F8002802D0052800D096
:10FE800003240098401C00906946284602F0DCFBE1
:10FE90000028EDD1002C07D1284600F051FA0028A7
:10FEA00002D0072802D00324204638BD0724FBE7F0
:10FEB00010B51346002200F0E3F910BDFFB581B084
:10FEC000049815460E46002804D0072E05D0082EAB
:10FED00019D102E00E2005B0F0BD002D13D0082D81
:10FEE00011D8019800F037FA00280CD000200090BB
:10FEF0003146019802F096FB040026D0E068A84243
:10FF000012D2002709E00720E5E7207CC019C1B222
:10FF10002A4800F035FC7F1CFFB2E068B842F4D8F4
:10FF2000204602F0A5FB10E0A84217D9EFB207E087
:10FF3000207CC019C1B2214800F022FC7F1CFFB216
:10FF4000E068B842F4D8002C08D1FF211C48019F7A
:10FF500002F068FB040005D00780A670207CFF2813
:10FF600002D00AE01120B6E72946144800F0A0FBB1
:10FF70002074FF2813D001200090E560217C0F48F9
:10FF800000F0E7FB02000ED0ABB23146049800F05F
:10FF900073FA009800280FD0082E06D00CE02046F7
:10FFA00002F066FBDEE7032095E7049804990088D9
:10FFB00049688000801F888000208CE7583D002021
:10FFC000FFFF000070B5002402F02CFB05000CD0F0
:10FFD0006868002804D000F0DAF9040000D0032497
:10FFE000284602F057FB204670BD052070BD00007A
:10FFF0007CB50D460646072903D0082D01D0072001
:020000040002F8
:100000007CBD0020009001906846857029463046EE
:1000100002F008FB040004D0607CC00703D000207D
:100020007CBD05207CBD217C214800F092FB0200B4
:1000300025D029466846E36800F0B1F9684602F029
:10004000DFFA2346083369463046626800F018F943
:100050000246607C1749430704D5830702D54B68E5
:100060005B1E4B60FB25FD23002A0AD0112A0DD010
:10007000862A14D0072A00D0032210467CBD032014
:100080007CBD01210843284018400EE04A68521CFC
:100090004A6004210843184060740022EDE74B6871
:1000A00028405B1C4B60022108436074E5E70000B8
:1000B000583D0020703400207CB50D46072903D040
:1000C000082D01D007207CBD002602F0ABFA040009
:1000D00003D06068002802D01BE005207CBD217C95
:1000E0000E4800F036FB0246002000900190684662
:1000F0008570002A0FD02946E36800F050F9684661
:1001000002F07EFA211D684600F029F9064609280A
:1001100001D030467CBD03207CBD0000583D00204E
:100120000149096808470000A029020070B588B09D
:100130001748FDF7C7FC002802D0032008B070BDA7
:10014000FDF7FEFB002801D08620F7E700F0EAF972
:100150000020104C0290E61F03900DE0694604A8B1
:10016000FDF774FC00988088801B85B204A8FDF719
:100170002BFC284600F08AF902AA04A92046FDF7C4
:100180004AFC0028EAD00449012008700020D5E785
:1001900091D7010007C000006434002010B500F0C2
:1001A0009FF910BD10B500F0A3F910BD70B505465C
:1001B0000320800386B014460E46281880B20F4AEA
:1001C0006946FDF728FC002805D103A96846FDF71C
:1001D0003DFC002802D0002006B070BDA570039839
:1001E000408820800498606003988088FDF7BAFCFE
:1001F00030806846FDF7E8FB0120EDE76834002019
:100200000248002141608160704700006434002092
:10021000F0B587B01D46144607460E46FF280CD899
:10022000084600F019F9002807D003AA31463846DD
:1002300000F0FAF8002809D102E0072007B0F0BD6D
:1002400001A903A8FDF702FC002801D00520F5E76D
:10025000A6700198002D408820800AD0820028686E
:10026000904204D802996068FAF766FF03E0042020
:10027000E4E70298606003A8FDF7A6FB0020DDE735
:100280007FB588B01D460C460646FF2834D8A078B6
:1002900000F0E2F800282FD06068069020886946B8
:1002A0008883304600F078F969460880A0780321F9
:1002B000890340186946488006A8019001200881FA
:1002C000A17803AA304600F0AFF805280A9815D0A7
:1002D000002802D00AA8FDF721FC694603A8FDF713
:1002E000D7FB002817D007281FD008281BD00E28BE
:1002F00019D003200CB070BD0720FBE7002805D003
:100300000AAA694603A8FDF7D3FBEAE7694603A8F2
:10031000FDF7C8FBE5E7002D03D0294603A8FDF74C
:100320008AFB0020E6E71120E4E78620E2E70000F0
:1003300010B5024800F0AAF810BD0000FFFF000051
:1003400010B5FF2801D9072010BD00F0A7F800F074
:100350002BF8002010BD10B500F0F8F810BD70B5F6
:1003600004460D46807800F077F800280BD02188ED
:100370002846FDF7B9FB002804D0072805D0092836
:1003800000D0032070BD072070BD862070BD01B570
:100390006846FDF7C3FB002800D0032008BD10B558
:1003A0009BB200F069F810BDF0B589B000261C4F73
:1003B00004963846059600F093F80446194D06E079
:1003C000204600F07FF8204600F08AF80446BC4240
:1003D00022D000F0E1F804AA06A9FDF724FB0A28C0
:1003E000EED0A878002817D1032080030127201819
:1003F000AF7080B2FDF75AFA08280FD000280BD052
:10040000AE70092269460A704C80FF220A7103907F
:1004100002966846FFF784FE09B0F0BD6F70FBE7F7
:10042000FFFF0000643400207CB5054616460C46EC
:10043000084600F011F80020032100908903019084
:100440006818611880B289B26B463246FDF7DCFA53
:10045000002800D005207CBD07280BD0012809D03A
:10046000082807D0052805D0062803D0042801D085
:10047000002070470120704710B5502463439BB2A1
:100480008170DB1C99084260018010BD10B50249E3
:10049000FCF730FF10BD0000083E002010B50446F8
:1004A0000648844207D006492046FCF723FFA042B5
:1004B00001D1012010BD002010BD0000FFFF000091
:1004C000283E002010B50446044900F067FE0349A9
:1004D0002046203100F062FE10BD0000083E0020E2
:1004E00010B50249FEF792FF10BD0000283E002023
:1004F00070B50A49FEF78AFF0446094D08E000F08E
:1005000031F8002807D005492046FEF77FFF044652
:10051000AC42F4D170BD204670BD0000083E002002
:10052000FFFF000010B508484021FAF72CFEFF2419
:1005300001342146044800F021FA034821462030C6
:1005400000F01CFA10BD0000083E002010B5FF2886
:1005500004D80146024800F041FA10BD002010BD49
:10056000083E002010B5FF2804D80146024800F0DC
:1005700035FA10BD002010BD283E002010B50C46F5
:10058000FDF7D8FEFF2803D00C21484301490C5247
:1005900010BD0000683A002003218903401880B292
:1005A000704700007CB5054600F0A6F9040006D0AF
:1005B000014629A0FAF7D8FF2046FBF7B1FA002D33
:1005C0000AD000F0EFFA040006D0014622A0FAF7A4
:1005D000CBFF2046FBF7A4FA00200090019068466C
:1005E0000078012210438D21084030304106490E29
:1005F000684601700721417010218170C378022183
:1006000013430B43C370037913430B43037100F08F
:10061000FFFA040006D001460FA0FAF7A5FF204616
:10062000FBF77EFA0F4800F0DBFA040006D0014623
:1006300009A0FAF799FF2046FBF772FA0A48FDF77E
:1006400041FA040006D0014603A0FAF78DFF2046C8
:10065000FBF766FA7CBD000065727220636F64650B
:1006600020256400B50702008DD701000349081852
:1006700020214156C817401C70470000A83E0020AA
:100680000449081820214156042901DB0120704744
:1006900000207047A83E0020044908182021415638
:1006A000042901D20120704700207047A83E002095
:1006B000F8B50F46060028D03068002825D07068AD
:1006C000002822D0FF2400251CE02946706800F095
:1006D0005DF9002808D0FF2C00D12C46281B401CB7
:1006E000B8420DD12046F8BDFF2C06D108E02146C6
:1006F000304600F045F8641CE4B2AC42F7D3FF2466
:100700006D1CEDB2B068A842DFD8FF20F8BDF8B587
:100710000400069E089D079819D0002917D0002BC9
:1007200015D007466F43974211D8C21DD208B24276
:100730000DD800280BD0002D09D0E5606360216042
:10074000A06081B2184600F019F90020F8BD07201A
:10075000F8BD70B504000D4610D0206800280DD0FB
:10076000606800280AD0FF2D08D000F037F9002873
:1007700004D0E06821686843081870BD002070BD8F
:1007800070B504000D460FD0206800280CD06068BA
:10079000002809D0FF2D07D000F020F9002803D051
:1007A0002946606800F026F970BD10B501F0A2F985
:1007B00010BD000038B501780B00FAF7E5FE0F0F09
:1007C0000F0F0F09102D0F200F2D1A2D0F1D0F00C9
:1007D0000021009140886946FFF7E7FF38BDFDF72B
:1007E0008BF80E28FAD00828F8D00400F6D001467D
:1007F00007E0FBF701F938BD00F0B6F838BD046931
:1008000006E006A0FAF7B0FE2046FBF789F938BDEE
:10081000002CFCD02146F4E78468F9E76572722069
:10082000636F64652025640070B586B004461421AA
:100830006846FAF7A8FC608869468880FEF724F8C5
:1008400069464880267800200822072105253300C4
:10085000FAF79AFE0A06060B0D0F1416281A1D2524
:100860006B46197058721A7219E00D2009E00E20BB
:1008700007E06A4611705072157210E00F2000E018
:100880001020694608700AE06846057007E00621F6
:1008900068460170A0680290A18868464180684659
:1008A000FCF74CFF06B070BD10B50446007886B06A
:1008B00000281AD0012816D10E49608801224979F2
:1008C000FBF720FF14216846FAF75DFC6088694653
:1008D00048806088FEF7A4F8694688800020087088
:1008E0006846FCF72BFF06B010BDE08800F04EF91B
:1008F000F9E700007834002070B5FFF717FC0028F6
:100900002ED1FFF7DFF900282AD101F001F90028E4
:1009100026D101F007FA002822D1FDF7B9FC002802
:100920001ED1FDF773FD00281AD1FDF7C3FF002883
:1009300016D10C4C401EE08000251820A5602071C7
:100940006071FBF7A9FE2071182809D0FBF7A4FEFF
:100950006071182804D0657001202070002070BDDF
:10096000032070BD7834002010B5034800780028BB
:1009700001D0FDF7B1FC10BD7834002010B500287F
:1009800003D0C91DC908FAF7FEFB10BD10B5002839
:1009900009D04B075B0F01229A40C908D2B2081850
:1009A0001146FEF711FC10BDF8B50D46060013D038
:1009B000002401270EE06107490F38468840C1B284
:1009C000E0088019FEF700FC002801D02046F8BDA1
:1009D000641CA4B2AC42EED32846F8BD002807D070
:1009E000CA08805C4A07520F01219140084000D09C
:1009F00001207047F8B504464805050E4907490F20
:100A000001208840C6B2002C0ED0605D30420BD071
:100A1000002168460170FBF737F9605DB04360550F
:100A200068460078FBF74EF9F8BD000010B50446A3
:100A300006480078002808D02046FDF7D1FE204661
:100A400001F04EF82046FDF761FB10BD7834002020
:100A5000F0B58BB0044614216846FAF794FB608821
:100A600069468880FDF710FF694648802778012095
:100A7000082207210026434D3B00FAF785FD0A06B0
:100A80000E20353B435F80787A806A461170217969
:100A900011725672039690726EE06A461170217957
:100AA00011725672A16803919072A868002863D0F1
:100AB000A168814260D1AE609088E88012E068460B
:100AC0000270217901724672A0680390E068049078
